:020000040000fa
:020000040040ba
:10000000f0ff4520211e4000e9444000ed4440003f
:10001000f5444000f9444000fd4440000000000069
:1000200000000000000000000000000073304000ed
:10003000f14440000000000073304000c53f400024
:100040007330400073304000733040007330400024
:100050007330400073304000733040007330400014
:1000600073304000000000007330400073304000e7
:1000700073304000733040007330400073304000f4
:10008000733040007330400073304000a11c4000ca
:1000900073304000733040007330400073304000d4
:1000a00073304000733040007330400073304000c4
:1000b00073304000733040007330400073304000b4
:1000c00073304000733040007330400073304000a4
:1000d0007330400073304000733040007330400094
:1000e0007330400073304000733040007330400084
:1000f0007330400073304000733040007330400074
:100100007330400073304000733040007330400063
:100110007330400073304000000000000000000019
:100120007330400073304000733040007330400043
:100130007330400073304000000000007330400016
:100140007330400073304000733040007330400023
:100150007330400073304000733040007330400013
:080160007330400073304000d1
:020000040000fa
:020000040040ba
:10016800f8b500bff8bc08bc9e467047c9384000c7
:10017800f8b500bff8bc08bc9e467047a5384000db
:020000040000fa
:020000040040ba
:080188000c0d00000100000055
:020000040000fa
:020000040040ba
:100190002de9f04f2ded0a8b92ed00ab8fb0b5ee4f
:1001a000c0ab04938b680393f1ee10fa0b690690d1
:1001b0008a46d1e900750793cc6806d47a0732d411
:1001c00017f0080631d0202302e02d23b1ee4aab10
:1001d0002370039b012603f1ff3b1aee903adff8f0
:1001e00064931aee100a23f000414ff000084945cd
:1001f00008bf40451cd1049b413b192b94bfcc49ff
:10020000cc49a01904f04af9204604f00bf90097f4
:100210000246039b0698214602f0fafd0fb0bdeca2
:100220000a8bbde8f08f2b23d2e7ddf80cb0d4e7c2
:10023000894508bf804508d2049b413b192b04eb3c
:10024000060094bfbc49bd49dce7b5ee40abf1ee1a
:1002500010fab2ee04cbb7ee009b4ff0000818d1b5
:10026000049804f0eff8002dc0b2c0f26d81672849
:100270002dd1002d08bf012518f1040f02dba84580
:10028000c0f244814ff0650933e008f10108b0ee97
:10029000479b29ee0c7bb4eeca7bf1ee10faf4dd3d
:1002a0000023a74a9fed9e7b0be0904505da23b91a
:1002b0002aee07ab29ee079b012308f1ff3889eef0
:1002c0000c9bb4eec9abf1ee10faeed4c8e7814650
:1002d000b9f1660f05f101050bd1b8f1000f03da92
:1002e000b7ee009b4ff00008672818bf45444ff059
:1002f00066090023b0ee498bb0ee4abb8bee080bcb
:100300000893059002f068fa089b90ee08bbfdee9a
:10031000c07b01339d4217ee902ab1ee4bbb88eeb5
:100320000c8b0598ead1b1ee047b28ee078bb4ee76
:10033000c8bbf1ee10fa73d4b4ee48bbf1ee10fa7c
:1003400005d19fed796b12f0010f06fe088b3aee96
:10035000088b29ee0cabb4eec8abf1ee10fa62d804
:10036000b9f1660f08f101085fd1013541464b1b19
:1003700000220a93354605920a9b994240f08280fa
:10038000059b002b00f0ab8060190022b9f1650fce
:1003900002702dd1079b0799013b9045e254c1f1b2
:1003a000030ebcbfc8f1000801220a21b8f1000ffa
:1003b00040f09b800eeb030cbcf1000f00f3958026
:1003c000002a03f1ff3114bf2d222b226254049a1c
:1003d000023b413a192a04eb030198bf4ff045094b
:1003e0009d4281f80090abf1020b01da04f056f85f
:1003f00007f00303022b7ff407afbbf1000f7ff779
:1004000003af204604f00ef804eb0b03864279ddbf
:100410005a463021a01903f0fdff00230393f3e6b1
:100420009fed418b93e7b0ee49abb9f1650f14bf77
:10043000414600219be7059b5bb9002909da089b2f
:100440004ff02e0c04f803c0012301350bf1ff3be4
:10045000059304eb020c6319ac444ff0300e01e03d
:1004600003f801eb9c45fbd1099b02eb050cabebc0
:10047000020b30330cf1010504f80c300bf1ff3b9b
:10048000002224e0daf810300895053bab427ff6f5
:1004900077af88ee0a0bcde90c200b9102f09cf9a6
:1004a000fdeec07bdde90b1217ee903a092ba8bfd9
:1004b000092317ee90ca099307f0100353ea0c03bf
:1004c0000d98b8d16728b6d10029c2da01329aee68
:1004d000008b0139b1ee488b8aee0cab4ce7fb0682
:1004e00042bf2e23635501354ee7b8fbf1fc013bbb
:1004f00001fb1c8808f1300804f803800bf1ff3b76
:10050000e04653e7225c1a5401387fe7b8f1000f48
:10051000bff6edae4ff06609dae60625ace600bfa1
:100520000000000000005043000000000000000038
:10053000f4434000f8434000fc43400000444000c6
:10054000d4feffff0000f07f6728e6d08146062535
:04055000bee600bf44
:020000040000fa
:020000040040ba
:10055400302e302e320000000a23203d3d3d3d3d2b
:100564003d3d3d3d3d3d3d3d3d3d3d3d3d3d3d3db7
:100574003d3d3d3d3d0a23204172647543616d203c
:100584004f56323634302054657374207625730dfb
:100594000a00000023204661696c656420746f20a2
:1005a400696e6974696174652063616d6572612047
:1005b40072657365740d00002320526573657420a1
:1005c4004172647543616d206661696c65640d00f8
:1005d400232043616c6c20746f2070726f626520fd
:1005e40073706920627573206661696c65640d00bf
:1005f400232050726f6265207370692062757320c6
:100604006661696c65640d0023203d3d3d3d2041dc
:1006140050505f53544154455f53544152545f50ba
:10062400524f42455f49324320310d00232043613c
:100634006c6c20746f2070726f62652049324320a5
:100644006661696c65640d0023203d3d3d3d20419c
:1006540050505f53544154455f53544152545f507a
:10066400524f42455f49324320320d0023203d3d25
:100674003d3d204150505f53544154455f415741e3
:1006840049545f50524f42455f49324320312c2038
:100694007374617465203d2025640d0a0000000018
:1006a40023203d3d3d3d2050726f626520666f7290
:1006b400204f563236343020737563636565646544
:1006c400640d0000232050726f626520666f7220f3
:1006d4004f5632363430206661696c65640d000013
:1006e40023203d3d3d3d204150505f5354415445ee
:1006f4005f53544152545f53455455505f43414de9
:100704004552415f434f4e54524f4c20310d00002f
:10071400232043616c6c20746f20736574757020a2
:1007240063616d657261206661696c65640d0000ca
:1007340023203d3d3d3d204150505f53544154459d
:100744005f53544152545f53455455505f43414d98
:100754004552415f434f4e54524f4c20320d0000de
:1007640023203d3d3d3d204150505f53544154456d
:100774005f41574149545f53455455505f43414d80
:100784004552415f434f4e54524f4c20310d0000af
:1007940023205365747570206f662063616d6572e4
:1007a4006120636f6e74726f6c206661696c65643e
:1007b4000d00000023203d3d3d3d204150505f533e
:1007c400544154455f53544152545f53455455501a
:1007d4005f43414d4552415f4441544120310d0036
:1007e400232043616c6c20746f20736574757020d2
:1007f40063616d6572612064617461206661696c16
:1008040065640d0023203d3d3d3d204150505f5324
:10081400544154455f53544152545f5345545550c9
:100824005f43414d4552415f4441544120320d00e4
:1008340023203d3d3d3d204150505f53544154459c
:100844005f41574149545f53455455505f43414daf
:100854004552415f4441544120310d0023205365ea
:100864007475702063616d657261206275732066b2
:1008740061696c65640d00002320417264754361f5
:100884006d2072656164790d0000000023206661ab
:10089400696c656420746f20737461727420636181
:0808a40070747572650d00000f
:020000040000fa
:020000040040ba
:1008ac002de9f041aeb00646154605910027059995
:1008bc000b78002b00f0fa8000244ff0ff33cde9c9
:1008cc0009430eab0c9380230b940d930b5d0bb172
:1008dc00252b26d134b12246304603f0f7f8059b80
:1008ec0023440593059b1a78252a40f0d78003f101
:1008fc000108cdf81480059803782b2b1ad025d835
:10090c00202b1bd0232b1dd02a2b27d002f018ff15
:10091c000b90059b1a78303a092a2ed8013305938f
:10092c00f7e70134d2e7099b43f001030130099347
:10093c000590e0e7099b43f00403f7e7099b43f0bc
:10094c000803f3e7099b43f01003efe72d2bead0e4
:10095c00302bd9d1099b43f00203e7e72b681a1d12
:10096c001b682a600130002b05900b9305da099a5d
:10097c005b4282f0010209920b93099bda0744bf98
:10098c0023f002030993059b1a782e2a0dd100221d
:10099c00581c0a9205905a782a2a25d102330593bd
:1009ac002b681a1d1b682a600a9305a803f0e4f84b
:1009bc00059b0390187803f03ffd6928039979d0c3
:1009cc0032dc632800f0cb8019dc252800f0d980bc
:1009dc00612853d000234ff0ff32cdf814800993d7
:1009ec000b930a920093d4e002f0aafe0a90059ba6
:1009fc001a78303a092ad8d801330593f7e76428d6
:100a0c0058d06728e6dc2a4606a803f0d9f9002856
:100a1c0000f0a180059b5a1c05921b7806aa09a917
:100a2c003046fff7affb38e0702873d015dc6e282a
:100a3c0000f08c806f28cdd12b46002206a801f047
:100a4c00d9ff002800f08780059b06aa013309a96d
:100a5c003046059303f052fd1fe075283ad07828f4
:100a6c0048d07328b6d1802975d1059b2a680133eb
:100a7c000593131d2b60126800237de02a4606a8ff
:100a8c0003f09ef9002866d0059b5a1c05921b7832
:100a9c0006aa09a9304603f033fd04443c44a7429e
:100aac007add3e4b4f221a604ff0ff3738462eb09e
:100abc00bde8f0812b46012206a801f09bff00281f
:100acc0049d0059b06aa013309a93046059301f0cc
:100adc00e7ffe2e72b46002206a801f08bff002877
:100aec0039d0059b06aa013309a93046059303f0ba
:100afc0005fdd2e72b46002206a801f07bff50b380
:100b0c00059b5a1c05921b7806aa09a9304601f0d0
:100b1c007bfbc2e72b460022f02106a801f06afffe
:100b2c00c8b1059b01330593dde9062313430bd1b3
:100b3c001b4803f071fc099b009319490b9b02465f
:100b4c00304602f05ff9a8e77823dde72b463a1927
:100b5c0006a802f097f9059b013305939ee78029bf
:100b6c00f9d1059b013305932b681a1d1b682a606c
:100b7c008df8183006aa012309a9304602f0cafce8
:100b8c008be78029e7d1059b01330593099b0093e3
:100b9c000b9b04490122d3e7274688e62c9840207a
:080bac007a4040008040400047
:020000040000fa
:020000040040ba
:100bb400c09740201c00000000000000489740201f
:100bc4002c00000000000000ec9740200c00000006
:100bd400000000007497402028000000000000007e
:100be40018974020300000000000000024964020a8
:100bf400a000000000000000209940200200000036
:100c040001000000010000001497402004000000cf
:100c140000000000dc9740201000000000000000ed
:100c2400109840200800000000000000f8974020c1
:100c34000c000000000000000000402010900000a4
:100c44000000000020984020040000000000000084
:100c5400049840200c000000000000009c974020f5
:100c6400240000000000000024984020040000003c
:100c740000000000c4964020500000000000000066
:100c8400349840206c00000001000000409840208f
:100c94003c984020409840200000000025000000bf
:100ca4001890402000040000000000000000000034
:100cb4000000000000000000000000000000000030
:100cc400000000000000000011454000000000008a
:100cd400000000000000000000000000f9324000a5
:100ce4000000000000000000000000000000000000
:100cf40000000000000000001090402008040000e4
:100d040000000000009940202000000001000000c5
:100d140001000000030000000000000000000000cb
:100d240000000000000000000000000018984020af
:100d34001898402008000000000000002898402077
:100d44000800000000000000189440200c0200007d
:100d540000000000a0984020600000000100000096
:100d6400010000000300000000000000000000007b
:100d74000000000000000000000000006d3440008e
:100d8400000000000000000000000000d944400002
:100d9400233a4000000000000000000000000000b2
:100da400000000000000000000000000000000003f
:100db400000000000000000000000000000000002f
:100dc40030984020040000000000000000000000f3
:040dd400000000001b
:020000040000fa
:020000040040ba
:100e94002de9f04f099f154604468e461e46002b49
:100ea40040f0cc808a42b2fa82fc4cd9bcf1000feb
:100eb4000bd0ccf1200801fa0cfe20fa08f802fa53
:100ec4000cf548ea0e0e00fa0cf44fea15491ffa25
:100ed40085f8befbf9fa210c09fb1ae30afb08fbaf
:100ee40041ea03439b452ad9eb180af1ff3004d2a7
:100ef4009b4502d9aaf102002b44a3eb0b03a4b235
:100f0400b3fbf9f209fb123302fb08f844ea034489
:100f1400a04516d92c1902f1ff3303d2a04501d9fb
:100f2400931e2c44a4eb080443ea004027b124fa9e
:100f34000cf400233c607b603146bde8f08f5046e2
:100f4400dbe71346eee702b9ffdebcf1000f2ed15a
:100f54008b1a01264fea154eaab2b3fbfef8210cf8
:100f64000efb183308fb02f941ea0343994561d9a2
:100f7400eb1808f1ff3004d2994502d9a8f1020018
:100f84002b44a3eb0903a4b2b3fbfef10efb113314
:100f94004a4344ea0344a2424ed92c1901f1ff33d7
:100fa40003d2a24201d98b1e2c44a41abce7ccf173
:100fb400200e02fa0cf521fa0ef901fa0cf320facc
:100fc4000efe4eea03034fea154800fa0cf4b9fb8f
:100fd400f8f11ffa85fe08fb1192180c01fb0ef6be
:100fe40040ea0242964221d9aa1801f1ff3003d205
:100ff400964201d9881e2a44921b9bb2b2fbf8f98f
:1010040008fb192209fb0efe43ea02439e450fd951
:10101400eb1809f1ff3604d29e4502d9a9f1020664
:101024002b44a3eb0e0346ea004693e70846e3e7a6
:101034004e46f6e74046a4e70b46b6e78b4206d990
:10104400002f7ed00026c7e90001304674e7b3faca
:1010540083fcbcf1000f0fd18b4201d3824209d82b
:10106400841a61eb030e0120002f6dd0c7e9004ef6
:10107400002661e76046f7e7ccf1200e03fa0cf393
:1010840022fa0ef521fa0ef41d4301fa0cf320faac
:101094000ef10b434fea154a00fa0cf6b4fbfaf9c9
:1010a4001ffa85f80afb19401c0c09fb08f144eaf5
:1010b4000044a14202fa0cf23fd92c1909f1ff3085
:1010c40004d2a14202d9a9f102002c44641a9bb2b1
:1010d400b4fbfaf90afb194409fb08f843ea044192
:1010e40088452cd9691809f1ff3304d2884502d9ff
:1010f400a9f10203294443ea0040a1eb0801a0fb43
:1011040002894945c2464c4602d306d1464504d21b
:10111400b8eb020a69eb05040138afb1b6eb0a0378
:1011240061eb040606fa0efe23fa0cf34eea0303ff
:1011340026fa0cf6c7e900369ae74846c6e74b4656
:0c114400d9e73e463846f7e63e46f5e6a1
:020000040000fa
:020000040040ba
:1011500010b5774c6368013303d000f017f900f045
:101160001ffb23780c2b13d8dfe803f01b27072f76
:10117000378268763e4a5762130003f093f880bbcb
:1011800003f09af8f0b16b4802f088fe0e2323704a
:1011900010bd03f027f9002800f0a5800d2323706f
:1011a00010bd0321002001f079fb431c6060efd0eb
:1011b00003f062f90123237010bd03f069f90028e0
:1011c00000f09d800223237010bd03f0fbf800287f
:1011d00000f08f800423237010bd03f077f80028ff
:1011e00076d00523237010bd03f05cf8002869d188
:1011f00003f062f8002840f088800923237010bdb6
:101200004d4802f04bfe03f0e5f8002854d14b485e
:1012100002f044fe0e23237010bd03f057f800289f
:1012200044d103f05df8002875d10a23237010bd66
:10123000434802f033fe0c23237010bd06214148c1
:1012400002f09cfe03f02ef850bb03f035f80028a6
:1012500067d10623237010bd3b4802f01ffe03f048
:10126000a9f8b8b9394802f019fe0e23237010bd51
:10127000374802f013fe03f00bf828b9354802f0a6
:101280000dfe0e23237010bd334802f007fe062327
:10129000237010bd314802f001fe0823237010bdf9
:1012a0002f4802f0fbfd0723237010bd2d4802f0ec
:1012b000f5fd0b23237010bd2b4802f0effd0a2330
:1012c000237010bd294802f0e9fd0923237010bde9
:1012d00003f006f800283ff47daf254802f0defd5c
:1012e0000e23237010bd234802f0d8fd0e23237077
:1012f00010bd214802f0d2fd0e23237010bd1f48ff
:1013000002f0ccfd0e23237010bd1d4802f0c6fd77
:101310000e23237010bd1b4802f0c0fd0e23237066
:1013200010bd194802f0bafd0e23237010bd00bf96
:10133000f8974020bc054000b8074000e407400093
:101340007c08400070064000e4064000140740009e
:101350000c064000300640004c06400034074000b8
:10136000a40640003408400008084000640740001c
:10137000f405400090084000d40540009805400066
:0c1380009407400060084000c8064000d0
:020000040000fa
:020000040040ba
:10138c0010b5714c82b02378013b0a2b22d8dfe8d0
:10139c0003f02e3f472350237180662b2b000df159
:1013ac0006010a2002f034fa002800f0a6809df80d
:1013bc000610664802f0dcfd9df80610262900f0a8
:1013cc00a280634802f0d4fd6249642002f0f8f870
:1013dc000623237002b010bd606802f085fe002861
:1013ec00f8d005232370f5e700bf02b010bd012033
:1013fc0002f030fa002865d08021122002f0acfafd
:10140c0000286cd1544802f043fd0b232370e1e714
:10141c00606802f069fe0028dcd003232370d9e752
:10142c000021122002f098fa002851d10b232370ce
:10143c00d0e7a3685520aa215a1c052b8df806006d
:10144c008df80710a26039dc012002f003fa0028a5
:10145c00a5d1424802f01cfd0b232370bae7c5212d
:10146c003f4801f001fe10bb3e4802f011fd0b237a
:10147c002370afe7012002f0edf990b1802112202a
:10148c0002f06afa90bb384802f002fd0b2323707d
:10149c00a0e7606802f028fe00289bd00923237087
:1014ac0098e7324802f0f4fc0b23237092e72949a9
:1014bc00642002f085f80a2323708be72c4802f095
:1014cc00e7fcb3e72b4802f0e3fc0b23237081e726
:1014dc002049642002f074f8042323707ae71d4934
:1014ec00642002f06df80223237073e7194964201d
:1014fc0002f066f8082323706ce71f4802f0c8fc62
:10150c000b23237066e70df107010b2002f080f925
:10151c0070b19df80710194802f02afd9df80710cc
:10152c00a1f14003022b09d9154802f021fd4be72c
:10153c00144802f0adfc0b2323704be7124802f069
:10154c00a7fc0a23237045e7049840207816400036
:10155c008c16400008984020d815400030164000ea
:10156c00141b40007c17400050174000201740000f
:10157c001c1640009815400060164000cc16400028
:0c158c00e0164000b416400008174000b4
:020000040000fa
:020000040040ba
:10159800232043414d5f4354524c5f5441534b5faa
:1015a80053544154455f53544152545f415353453a
:1015b80052545f5245534554206661696c656420f6
:1015c800746f2073656c6563742062616e6b0d00c7
:1015d800232043414d5f4354524c5f5441534b5f6a
:1015e80053544154455f53544152545f41535345fa
:1015f80052545f5245534554206661696c656420b6
:10160800746f20777269746520746f20434f4d376b
:101618000d0000002320746f6f206d616e792072b9
:101628006574726965730d002320636f756c64209f
:101638006e6f742077726974652043414d5f43541f
:10164800524c5f5441534b5f4445565f4354524c90
:101658005f5245470d0000002320636f756c6420be
:101668006e6f742072656164207669640d000000f5
:1016780023202d2d2d20766964203d2025640d0a18
:10168800000000002320766964206d69736d617421
:101698006368202830782530327829202d2072651b
:1016a800747279696e670d0a000000002320636f69
:1016b800756c64206e6f7420726561642070696453
:1016c8000d00000023202d2d2d20706964203d2061
:1016d80025640d0a000000002320706964206d69ec
:1016e800736d61746368202830782530327829203a
:1016f8002d207265747279696e670d0a000000000a
:1017080023202d2d2d207669643a70696420737525
:1017180063636573730d000023204661696c65641b
:1017280020746f2073656c6563742073656e736fc6
:10173800722062616e6b20696e207365745f666fdc
:10174800726d61740d00000023204661696c656448
:1017580020746f2072657365742070726f6365738f
:10176800736f7220696e207365745f666f726d6146
:10177800740d000023204661696c656420746f2035
:101788006c6f61642063616d65726120666f726d54
:0417980061740d006b
:020000040000fa
:020000040040ba
:04179c0002f046bd54
:020000040000fa
:020000040040ba
:1017a00030b5654c83b02378013b052b24d8dfe8a6
:1017b00003f04f5a624425255521002002f032fce7
:1017c000002871d00df10701002002f0c5fb0028b0
:1017d00000f083809df80730552b7bd0574802f0ee
:1017e0005dfb4ff0ff3356496420636001f0eefe6d
:1017f00000b100bf0223237003b030bd00bf03b0af
:1018000030bd02f02dfa02f0e1fc0546206a281aec
:1018100002f062fc07ee900a4a48b8ee677b256248
:101820009fed436b86ee077b53ec172b02f0a6fb74
:10183000454a936b83f4000393630121042002f073
:10184000f1fb28bb414802f029fb04232370d3e7b6
:10185000a3685a1c052ba260aedd3d4802f01efbba
:1018600006232370c8e7606802f044fc0028c3d058
:1018700001232370c0e701aa0821412002f066f984
:10188000a0b19df80430abb90323237003b030bd81
:101890000221042002f0c6fb0028f5d12d4802f0f9
:1018a000fdfa04232370a7e72b4898e72b4802f0a2
:1018b000f5faa1e70df10501422002f04dfb28b138
:1018c0000df10601432002f047fb40b9244802f025
:1018d000e5fa91e7052323708ee722487fe70df1b3
:1018e0000701442002f038fb0028efd09df80610d5
:1018f0009df8070009029df80530e26941ea0041c0
:101900001943c1f316018a4205d0174802f036fb8d
:101910000423237070e761693c2002f015fc002865
:101920007ff46faf114802f0b9fa0423237063e724
:101930000000000080842e419c974020ec1f400056
:10194000a097402098204000000e0e40a4204000a8
:10195000981f4000bc204000b41f400008204000f9
:101960002c204000d01f40004c2040007820400038
:020000040000fa
:020000040040ba
:101970002de9f04f85b0019001a802f013f800287e
:1019800003da002005b0bde8f08f019b1b095d1e46
:10199000202d0fd9023b5b4ab3f5007f35bf02eb28
:1019a000d30302ebd31313f8045c13f8045c34bfc5
:1019b000013511350123a5f12001c5f1200203fafb
:1019c00001f923fa02f203fa05f849ea0209d8f10b
:1019d00000084d4f69eb4909d7e9002302ea080adc
:1019e00003ea090b5aea0b0342d1019b03a8103307
:1019f000039302f00ffc18b9444b0c221a60c1e7a4
:101a0000d7f80852a84206d0039b103b039301234a
:101a100000f110058360039bea18012143f00103e4
:101a2000b5f1080442f8083c42f8041cc7f8082243
:101a300045f8043ca5d0204602f02af988b155f8b3
:101a4000083c55f8041c23f00103e31a5a6822f0fd
:101a500001020a445a6055f8041c21f00101625049
:101a60001c462046019902f0e1f804f1080089e7dc
:101a70005046244a264bbaf1000f34d1cbf1000175
:101a800001ea0b014b4302ebd36393f83c60203631
:101a9000304602f0d7fa731c57f8334007ebc30304
:101aa000083b9c4298d0272e26dd0235ae4201dc51
:101ab0003f2e21d16168019a21f001018d1a28463b
:101ac00002f098f8864217d1a318e068a668d8609b
:101ad0009e608360986842f00102c360c3e90025fc
:101ae00065506260bde7caf1000101404b4302eb63
:101af000d36393f83c60cbe73146204601f05afcb3
:101b0000afe700bf10344000189440202c984020cc
:041b100029e66b0750
:020000040000fa
:020000040040ba
:101b1400ff002cff2edfff013c321100090204a854
:101b240013e514482c0c33783a333bfb3e00431145
:101b3400161039023588220a3740230034a00602e1
:101b4400068807c00db70e014c004a812199244034
:101b5400253826825c00630046220c3a5d555e7d82
:101b64005f7d6055617062807c05208028306c0048
:101b74006d806e007002719473c13d3412045a5723
:101b84004fbb509cff00e57ff9c04124e01476ff71
:101b940033a0422043184c0087d0883fd703d91084
:101ba400d382c808c9807c007d007c037d487d48c1
:101bb4007c087d207d107d0e9000910e911a91314c
:101bc400915a91699175917e9188918f919691a383
:101bd40091af91c491d791e891209200930693e339
:101be4009303930393009302930093009300930051
:101bf4009300930093009600970897199702970c07
:101c0400972497309728972697029798978097005c
:101c14009700a400a800c511c651bf80c710b666be
:101c2400b8a5b764b97cb3afb497b5ffb0c5b194e8
:101c3400b20fc45ca600a720a7d8a71ba731a70092
:101c4400a718a720a7d8a719a731a700a718a720c6
:101c5400a7d8a719a731a700a7187f00e51fe17728
:101c6400dd7fc20eff00e004c0c8c196863d5190de
:101c7400522c530054005588570050925a505b3ce4
:101c84005c00d304e000ff000500da08d703e0009d
:0c1c94000500da005a185b18ffff00bfc3
:020000040000fa
:020000040040ba
:101ca0002de9f0415c4b5d4c656a1b6ada0503d592
:101cb000ff2101222177627713f0010106d0564af5
:101cc0000827042607201760166090629f0501d53b
:101cd00001222277627ff2b9227f52b2013a032aaf
:101ce00019d8dfe802f0474e02425e0713d5636958
:101cf000e2682169013a9a4201d1002971d1e26872
:101d0000591c013a9a425ed06068434ac35c5363ef
:101d1000414b61611b6a237fff2b16d0237f052b6c
:101d200001d0bde8f0813c4b0022072608200421a9
:101d3000627722779e6218601960236a002bf0d0c8
:101d4000236a2846bde8f04118470022324b07209d
:101d5000082122770422986219601a60236a002bf6
:101d6000dcd0236a28469847d8e70029d3d005233a
:101d70002377d0e7e3682088a3b1002100f05afc64
:101d8000c9e79a07c7d5a3692269023a9a420dd0da
:101d900021495a1c0f6ba6682069f754904209d05c
:101da000a261b8e7012100f045fcb4e71a4a02211c
:101db0001160ede702238b620b6adb074cbf052342
:101dc00004232377ece762680220d65c0422124bde
:101dd0005e6318609a621b6ad8071bd505232377b8
:101de00096e772b60c4a042102209162591c66687b
:101df000f35c53632077536843f480535360236943
:101e0000012b0cbf03230123136062b6024b032294
:101e10005a627de722777be700800140749740207b
:020000040000fa
:020000040040ba
:101e200008b54f4b98474f4b9847eff3108172b668
:101e30004d4ad2f8883043f47003c2f88830bff3bb
:101e40004f8fbff36f8f01b962b6484b484a5a6053
:101e50009a6812f0010ffbd0444bdb6813f4c07f8b
:101e600013d0444b0c221a60404b434a5a609a6884
:101e700012f0010ffbd03d4b404a5a609a6812f0b5
:101e8000010ffbd03e4b3f4a1a60bff34f8fbff3a9
:101e90006f8f354cd4f8903223f00103c4f89032a0
:101ea000d4f8943223f00103c4f89432bff34f8f77
:101eb000bff36f8f01f0dafb334b23f07f03a36096
:101ec000324b9847636913f4003f12d1bff34f8f31
:101ed000bff36f8f0022c4f85022bff34f8fbff3c0
:101ee0006f8f626942f400326261bff34f8fbff3bc
:101ef0006f8f1d4b5b6913f4803f29d11a4b002271
:101f0000c3f88420bff34f8fd3f88030c3f3c906e2
:101f1000c3f34e335a0143f6e075134802ea050451
:101f2000334644ea8371c0f86012013bb3f1ff3fce
:101f3000f7d1203a12f1200ff0d1bff34f8f0a4aa8
:101f4000536943f480335361bff34f8fbff36f8ff7
:101f50000f4b98470f4b984702f024fafee700bf5b
:101f60008f2d40008f2d400000ed00e0000c0e4052
:101f70000d00005a149740200c08005a0c07005a14
:101f800000180e40010000a5000040005933400039
:081f90008f2d40008f2d400051
:020000040000fa
:020000040040ba
:101f98002320746f6f206d616e79204172647543e0
:101fa800616d20726574726965730d00232053504a
:101fb800492070726f626520777269746520666166
:101fc800696c65642e0d00002320535049207072ff
:101fd8006f62652072656164206661696c65642e54
:101fe8000d00000023205350492070726f62652055
:101ff80064617461206d69736d617463682e0d008e
:1020080023204661696c656420746f207265616481
:1020180020636f6d706c6574696f6e206269740df2
:102028000000000023206661696c656420746f20dd
:1020380072656164204649464f206c656e67746816
:102048000d0000002320496d616765206275666692
:10205800657220697320256c642062797465732c1d
:102068002065787065637465642025640d0a000036
:102078002320436f756c64206e6f742072656164f1
:10208800204649464f20636f6e74656e74730d0069
:102098004650533a2025660a000000002320666156
:1020a800696c656420746f20726573657420666955
:1020b800666f0d0023206661696c656420746f206b
:1020c800737461727420636170747572650d0000b9
:020000040000fa
:020000040040ba
:1020d80000f1ff3c2de9f0471cf1030f82b09df899
:1020e80030501fd8c0f30724e4b91f461646894666
:1020f80001f0fafd8246a8b1012d19d0b6fa86f38f
:102108005b09002f08bf0123082d18bf022d0cbf43
:10211800012000200ad12bb9daf8008098f829307c
:10212800012b11d0002002b0bde8f087002bfad1b6
:102138000b9b002bf6d00a9b002bf3d0daf800801b
:1021480098f82930012bedd10021d8f81800d8f8db
:10215800103088f82910daf80c208af80510904217
:10216800c8f824a009d05b690af10c009847daf88e
:102178000c20d8f81030c8f81820022d2ed0042dc5
:1021880010d0012d1ad01b6998478af805009af8d3
:10219800053003f0ff004bbb88f82800012388f8be
:1021a8002930c0e70b9a3146484600923a469c6867
:1021b8000a9ba04748b9d8f81030e4e71b6848469e
:1021c800dde90a1298470028f5d0fff7e3fa98f8f6
:1021d8002b4084b902f082f92046dfe75b683a4673
:1021e8003146484698470028efd1e4e7012300200c
:1021f80088f82830d2e7013c88f82b4002f06ef9c5
:0c22080098f82800b0fa80f04009c7e701
:020000040000fa
:020000040040ba
:102214002de9f04f0e4649683568d6f80890f768fe
:102224008bb0cde903230029acbf25f002050121c1
:1022340015f010030593039b8346d3e900232fd0a5
:1022440052ea03002cd0a9f10208346915f0080001
:1022540004f1ff3408904ff00000385518bf08f11e
:10226400ff388a46012c1ddc059b002b54d1089baa
:1022740013b1013c20233b5532690095013a4b468a
:10228400121b3919584600f0c1fddbf80430db0598
:1022940003d573689842b8bf18460bb0bde8f08ff9
:1022a400c846d2e752ea030009d1baf1000f06dcae
:1022b400a8eb010050440028d6dda807d4d502f0cd
:1022c4000f000928d4bf00f1300e00f1570e049816
:1022d400a0f1410cbcf1190f04f1ff3410d84ef0f9
:1022e400200cacf1610cbcf1190f09d870460991ae
:1022f400cde9062302f0abf8dde906230999864609
:10230400100940ea03704fea131c07f804e00af1cd
:10231400ff3a02466346a5e7039bd3e9000150ea6e
:102324000103a4d03a19049b02f8013c023c302377
:042334003b559ce792
:020000040000fa
:020000040040ba
:1023380000223e483e494ff0ff336ff0100cf0b4d6
:10234800c0f8142141f21004d0f814516ff4067744
:10235800384e2c434ff40675c0f814414ff400046e
:102368004e606ff400063448086010204b650f6615
:102378006ff007674d664ff00765c1f89030c1f8f8
:10238800a0300c614e616ff020668c6301f500711e
:1023980041f8e82c4ff020640867486748602748f0
:1023a800c1f800c04b650b66c1f89030c1f8a03089
:1023b8000a614b618a63c1f81821036043650366ab
:1023c800c0f89030c0f8a030026143618263c0f861
:1023d8001821c1f87054c1f87424c1f80454c1f824
:1023e8000074c1f85434c1f86034c1f89034c1f8ad
:1023f800a034c1f81044c1f81464c1f83844c1f8d5
:102408001825c0f80034c0f85434c0f86034c0f857
:102418009034c0f8a034c0f81024c0f81434c0f8c0
:102428003824c0f81825f0bc704700bf0080084069
:10243800000e0e4018002000e7ffdfff00120e40dc
:020000040000fa
:020000040040ba
:102448002de9f84300286ad050f8043ca0f10804ac
:1024580023f00107e6193268934200d0ffde726864
:1024680023681340da070fd4204601f00dfc00283a
:1024780057d1304601f07afc0028f0d0736823f079
:1024880001031f441e44eae747f00103636038462e
:10249800336001f0abfb054601f0d0fd236872689c
:1024a8001340db07e0d5dff88ce0dee90089c5f1f1
:1024b800200ca5f1200228fa05f009fa0cfc29faeb
:1024c80002f240ea0c001043012100ea0102002355
:1024d8001343c5f120007346a5f1200212d121fa59
:1024e80000f001fa02f2a94042ea00021ebfdef83b
:1024f80000000143cef8001022b1def804100a43b0
:10250800cef80420681c03ebc003a3f1080267603f
:102518003760a2605a68e2605c60e3689c60bde86e
:10252800f883236823f00103e41a636823f00103a6
:082538001f449ee718944020a7
:020000040000fa
:020000040040ba
:102540002de9f043002957d0002855d0002a64d047
:10255000374c8b42e76b88bfa3eb010ea46898bf92
:102560004ff0000e07f0f007002f51d1304d2c69cd
:10257000a607fcd54ff0000c2d4c6646e0468e4277
:1025800002d1bef1000f29d08e421ed0751cb7b902
:1025900010f806902e46c4f80c901bb92569ad07bb
:1025a000fcd5ece72569ed07fcd59c45a568e6d28e
:1025b0000cf1010977b902f80c50cc46dfe730f88e
:1025c00016902e46c4f80c90e7e797b9e7600ef135
:1025d000ff3ee2e722f81c50cc46d0e7144a1369cc
:1025e0009b05fcd54ff08073012413602046bde8a5
:1025f000f083c4f80c80eae7141c18bf0124002bf8
:1026000008bf0024002cf1d0002808bf00219fe75c
:102610005b0849084fea5e0ea8e7054c134696464c
:10262000e76ba46807f0f007002f9fd0f0e700bf2a
:0426300000800040e6
:020000040000fa
:020000040040ba
:102634007f2830b44ad90302324ac0b203f4fe03fd
:1026440043f480735360d0602f4b00225a619a6127
:1026540049bbda68012a40d003222a490120052413
:102664001a775a6812784a635a6902445a614c626a
:1026740030bc704772b65968224a087811465063d4
:102684005a6901325a610a6a12f0050ffbd10a6acb
:10269400510708d44ef660201a4901e001382dd0c4
:1026a4000a6a5207fad5022216491a774a6842f48e
:1026b40080524a601b69012b0cd001230b6062b667
:1026c400104b032201205a6230bc704700040d4baa
:1026d4005860b9e703230b60f1e719690029c9d1f0
:1026e40004240849022510461c775c6824784c634e
:1026f4005c6901345c610d604a62e5e702225a7745
:0c27040062b6e1e70080014074974020bd
:020000040000fa
:020000040040ba
:102710002de9f0432d4c85b0074694f820009df834
:10272000308098b994f82800012805d04ff0ff3583
:10273000284605b0bde8f083cde90223019101f000
:10274000bdfc039bdde901120028efd094f90000e5
:10275000022811d04ff0ff35636894f821005b69bf
:10276000984794f82030002be2d10123284684f8c2
:10277000283005b0bde8f0830029ebd0b942e9d399
:102780000025134e307820b101352036052df9d1c2
:10279000e0e7dff840c0cf1b30754ff6ff7ebcf896
:1027a0000090707509f10100b760012745ea0945fd
:1027b00080b286f802807160704508bf3846f561c6
:1027c0003780acf80000c6e90323c5e7189740201e
:0827d0002496402020994020ce
:020000040000fa
:020000040040ba
:1027d80053ec102bc3f30a512de9f04140f2fd7080
:1027e8004e1e86421d4644d8a1f2ff30002835db34
:1027f800332831dc264bc0f120084ff0ff3c03faa8
:1028080008f2a1f21f412cfa00fc10ee104a4cea23
:10281800020c23fa01f24cea020c23fa00fe04ea45
:102828000c0605ea0e0724ea0c0256ea070425ea14
:102838000e030fd0002a73f100040bda4ff4801551
:1028480005fa08f425fa01f10c43121925fa00f0eb
:1028580040eb030343ec102bbde8f0819fed0a7bae
:10286800bfee000b002a73f1000327fe000bbde842
:10287800f0810029f0d10a4603f0004343ec102b05
:10288800eae700bfaff3008000000000000000008e
:04289800ffff0f002f
:020000040000fa
:020000040040ba
:10289c0050b92b4b93f90d20022a05d11a7b1ab192
:1028ac0093f82a20012a02d04ff0ff3070471a7893
:1028bc0083f82a00002a3dd1f0b45f6887b99e687e
:1028cc0086b1da699079a8b102f11004002001e018
:1028dc00957975b1013022461034b042f8d101e03f
:1028ec000807ecd501224ff0ff3083f82a20f0bc0a
:1028fc007047c0b25d69012411710026090713608d
:10290c00947107f1010756714ff0010648bf1c7016
:10291c001c8cd5604ff6ff75a11940ea04405f602e
:10292c0089b2906083f82a60a94208bf314690684a
:10293c001984dce701224ff0ff3083f82a2070471e
:04294c004897402048
:020000040000fa
:020000040040ba
:102950002de9f041284dd5e906236c6a501c43f15e
:102960000001c5e90601002c3ad095f8203001336a
:1029700085f82030a368002b3ad101260ae0e368ed
:1029800083b1e06900f030f9e3680bb12069984742
:102990006c6a74b1a36820465bb9a3782675667526
:1029a000002becd000f0aefea378002becd16370ce
:1029b000eae7124f00243e46a04607eb44130134d9
:1029c0005a7d22b1b27883f81580012a0ad0052ced
:1029d00006f12006f1d195f82030013b85f8203032
:1029e000bde8f081726830469a6000f0b3f8eee717
:1029f000a368013ba360c0e71897402024964020bd
:020000040000fa
:020000040040ba
:102a0000882910b536d012dc812943d003dc802917
:102a100040d0002010bd82290ed08429f9d1196838
:102a200002b30a1d1a60b1f90020d3171ee0a029d5
:102a30002bd00bdc9029ecd11968073121f007016c
:102a400001f108021a60d1e900230fe0c02901d08a
:102a5000f029ded11a68111d196013680360002384
:102a6000436005e00a1d1a600a880023c0e90023bc
:102a70000120cfe7196822b10a1d1a6091f90020e0
:102a8000d3e70a1d1a600a78efe71a68111d19606a
:102a90001268cae719681ab10a1d1a600a68c4e701
:0c2aa0000c1d1c600b68c0e90032e1e76f
:020000040000fa
:020000040040ba
:102aac002de9f041d2e900230c4686b007465fead7
:102abc00d37820684968a5680590e66841d05242f1
:102acc0063eb4303002908db20f002000590b8f10a
:102adc00000f02d1059948072ad5691e05a8029056
:102aec000a20cde90010204600f046fab8f1000f9c
:102afc0002d1059b59071fd5b8f1000f00f1ff302b
:102b0c0014bf2d232b2333542269059b0093013ac8
:102b1c002b46121a3118384600f074f97b68db0525
:102b2c0003d563689842b8bf184606b0bde8f0817b
:102b3c000807d2d42946d1e71a07e5d50138202356
:082b4c00e1e70029c0dac5e74a
:020000040000fa
:020000040040ba
:102b5400002843d02de9f047dff884a0d0f808e03e
:102b6400daf82430002b2fd0f0464ff000094ff054
:102b7400000c0024002500e013469a68a61845f1cd
:102b84000007b94508bfb04514d399689c469a69b3
:102b9400641845f10005002aeed18261aeeb04040d
:102ba4009861836984601bb181689a68521a9a603b
:102bb400bde8f087bcf1000f0cd1aeeb0404caf8f9
:102bc400240083618460efe7c0f808e0caf82400b9
:102bd400bde8f087dcf818206346dee7704700bfe5
:042be40018974020de
:020000040000fa
:020000040040ba
:102be8002de9f041204c054694f820305bb994f863
:102bf8002830012b03d001252846bde8f08101f0db
:102c080059fa0028f7d06b1e033316d8abb2042b41
:102c180013d85e01154f07eb0608d8f81c309d4203
:102c28000bd1bb5d4bb198f80130b3b90023ba1989
:102c38001d461375bb55537500e00125636894f86c
:102c480021005b69984794f82030002bd4d10123e8
:102c5800284684f82830bde8f081404600f04efd53
:102c6800002388f80130e1e7189740202496402097
:020000040000fa
:020000040040ba
:102c780070b5204c054694f8203053b994f82830a4
:102c8800012b02d00125284670bd01f013fa002857
:102c9800f8d06b1e03331bd8abb2042b18d85b01da
:102ca800154ef118c869854212d1f05c80b1487898
:102cb800e8b9886808b9486888601e443046fff754
:102cc80045ff0023012233751d467270737500e0bd
:102cd8000125636894f821005b69984794f82030cf
:102ce800002bd0d10123284684f8283070bd002558
:0c2cf800efe700bf189740202496402012
:020000040000fa
:020000040040ba
:102d04002de9ff41836946690093f61acde9016113
:102d140004461746039216444ff002086d46424695
:102d24002946206801f08ff8b04209d1d4e9023273
:102d3400c4e905331a44a262384604b0bde8f08100
:102d440000280dda6268002342f01002b8f1020f85
:102d5400a362c4e90533626015d06b68ff1aebe720
:102d64006b68984288bf0835a6eb000688bfc01a76
:102d74002b6803442b606b68a3eb000088bf08f149
:0a2d8400ff386860cbe71f46d6e772
:020000040000fa
:020000040040ba
:022d8e0070478c
:020000040000fa
:020000040040ba
:102d9000184b00211b6810b5186801f033fb164b67
:102da0000021164c1b68186801f02cfb01f0d2fac8
:102db00000f08afbfff7c0fa00f0b0ff4ff40043c9
:102dc0000f4a10494b60536000f0e4fc01f08ef8ac
:102dd00001f0b0f80c49002000f0f4f90b49206034
:102de000002000f023fa606000f058febde81040bb
:102df00000f0c2bb389840201c9940201098402019
:102e000050180e4000190e4094434000b844400052
:020000040000fa
:020000040040ba
:102e10002de9ff471d460c9b13f0010906468a4623
:102e2000144601d195420bd822465146304600f057
:102e300053fea54204d82546284604b0bde8f087d5
:102e40002f1b102f3a464ff0200128bf1022684652
:102e5000b84601f0dffab8f10f0f11d83b096ff057
:102e60000f0202fb03726946304600f035feb9f1ed
:102e7000000fe1d122465146304600f02dfedbe73f
:102e800010226946304600f027fea8f11008e2e75c
:020000040000fa
:020000040040ba
:102e9000842910b523d00cdc812903d0822913d0da
:102ea00080290bd119680c1d1c600b6803601a6027
:102eb00013e0902921d003dc882917d0002010bd11
:102ec000a029efd0c029ece719680c1d1c600b6825
:102ed0000360d1171046c3e900010120efe719682c
:102ee0000c1d1c600b6803601a80f6e719680c1d46
:102ef0001c600b6803601a70efe719680c1d1c60fa
:0c2f000009680160d317c1e90023e6e76f
:020000040000fa
:020000040040ba
:102f0c0023206f76323634305f6932635f726561cd
:102f1c00645f6279746528253032782c2025303234
:102f2c007829203d3e2025642e202068616e646c3b
:102f3c0065203d2025640d0a0000000023206f76db
:102f4c00323634305f6932635f77726974655f6201
:102f5c0079746528253032782c2025303278292058
:102f6c003d3e2025642e202068616e646c65203dfa
:082f7c002025640d0a0000bfce
:020000040000fa
:020000040040ba
:102f84002de9f84f04460c9f6668d4f80cb0246908
:102f940010463a68013c002502f0020a0b9a0bf82d
:102fa4000450002e1946b8bf0126012390464fea6b
:102fb400e279002c03dcd3b12046bde8f88f50ea57
:102fc400010209d1721b002a06dc0a9a521b002a4c
:102fd400f1ddbaf1000feed042464b4600f06efe32
:102fe400013c134630320bf804200135e1e73b681d
:082ff40023f010033b60dfe74e
:020000040000fa
:020000040040ba
:102ffc00f8b5846a05460f46164654b1ab6a6a6941
:10300c009b1ab3420bd2324639462846fff774fe60
:10301c00f8bd01f0e1f80028f0d02046f8e7002eca
:10302c00f1d095f93430002b1bdbdbb23446621e39
:10303c00b95c994212d1224639462846fff75cfe0c
:10304c00a042e5d32744341b22463946686901f077
:10305c005ff96b691c446c613046d9e71446002a51
:06306c00e5d13446f0e757
:020000040000fa
:020000040040ba
:02307200fee777
:020000040000fa
:020000040040ba
:103074002de9f04f87b061b303918146002400f13c
:10308400010bdff85880dff858a002e0039b9c4254
:103094001fd019f8146002231bf8147005aa3021fc
:1030a400d8f800008df8146001348df8157001f023
:1030b40073f80546d8f800003a46314600902b468e
:1030c400504600f059ff002de0d1284607b0bde876
:1030d400f08f0125284607b0bde8f08f20984020e6
:0430e400482f400031
:020000040000fa
:020000040040ba
:1030e80038b5194c054694f8203053b994f828306f
:1030f800012b02d00025284638bd00f0dbff002850
:10310800f8d06b1e03330fd8abb2042b0cd85b017d
:103118000e49ca18d069854206d1cd5c2db1157dfe
:103128000023edb2137500e00025636894f82100d0
:103138005b69984794f82030002bdcd1012328469e
:1031480084f8283038bd00bf1897402024964020c6
:020000040000fa
:020000040040ba
:1031580068b30368164a934227d8164a5b000029c9
:1031680008bf1146b1fbf3f103390023ff290ed93b
:1031780001334908dbb2ff298cbf01200020062b50
:1031880088bf00200028f3d1ff2910d81b040b4367
:10319800012010b4084c226902f07c52134343ea20
:1031a800012121615df8044b70470020704770478a
:0c31b80000093d0080d1f00800800140bb
:020000040000fa
:020000040040ba
:1031c40040bb70b5164c94f90d30022b25d0054642
:1031d40040f201120126d1e9000326732061e36164
:1031e40025706560d1e90203a4f829202684a06033
:1031f4006562c4e90533fef7cffa84f82b6001f069
:103204006ff92369214607489b699847022328469a
:10321400637370bd4ff0ff3070474ff0ff3070bde7
:0832240048974020153b4000d3
:020000040000fa
:020000040040ba
:10322c0049b3f8b5051c18bf01250dbb134c012380
:10323c004ff47a72002684f8283000270b6809793d
:10324c000f4863602172294684f8205065621b6820
:10325c00e260c4e90667984763685b68984729464b
:10326c00a022084801f0d0f8022320462370f8bdb4
:10327c004ff0ff30f8bd4ff0ff30704718974020eb
:08328c00512940002496402066
:020000040000fa
:020000040040ba
:1032940050b338b5164b0d465b6913f0e00f1ed1e1
:1032a40025b301460024124a5369db07fcd5536950
:1032b40013f0e00f16d1536813f4003f93690bd059
:1032c400c3f3080321f8023b0134a542ecd1281bc7
:1032d400b0fa80f0400938bd00f8013bf4e700f093
:1032e400ddfedde7002038bd002070472c46eee708
:0432f4000080024014
:020000040000fa
:020000040040ba
:1032f8007fb5c36800911546002b18bf013a0192ab
:1033080082680446cde902230e4602226946006817
:1033180000f082fd002808dc00f0180383f00802a2
:1033280063681343636005460fe0019a8242fad24c
:10333800a368e363801ae268184420642ab15a1c1f
:10334800e2632e441b7806f8013c284604b070bda1
:020000040000fa
:020000040040ba
:103358000e4a38b5002313600d4a0e4c13600e4a0e
:103368000e4d13600e4a13600e4a13600e4a5362e4
:1033780013610123936001f059f800f072f9ac422f
:1033880000d338bd54f8043b9847f8e72898402004
:10339800d096402074014000cc964020780140002f
:0c33a800c4964020c8964020d4964020d7
:020000040000fa
:020000040040ba
:1033b40070b5d0e90245a54217d10122a1f120033d
:1033c400c1f1200622fa06f602fa03f333438a40d7
:1033d400db43d6431ab10c490a6832400a605a1cce
:1033e4001fbf094a51680b4053604368ac6043f007
:1033f400010223f00103e56042601844036843f0ce
:0c3404000103036070bd00bf189440205d
:020000040000fa
:020000040040ba
:10341000202122232424252526262727282828285a
:10342000292929292a2a2a2a2b2b2b2b2c2c2c2cf4
:103430002c2c2c2c2d2d2d2d2d2d2d2d2e2e2e2ebc
:103440002e2e2e2e2f2f2f2f2f2f2f2f0001170232
:103450001d1813031e1b190b1408040d1f161c1234
:0c3460001a0a070c1511090610050f0ec2
:020000040000fa
:020000040040ba
:10346c0038b50d46044608b9002038bd43689b06a4
:10347c0007d5d0e905239a4216d80023c4e90533b1
:10348c00a362d4e90f13994204d20122c91a20680d
:10349c0001f03cf80023c4e90f33002de4d0206880
:1034ac00bde8384001f015b80022c36a11469847b0
:0c34bc006369002be1d14ff0ff30d6e730
:020000040000fa
:020000040040ba
:1034c800124b13491a469962936e9b07fcd5136bee
:1034d8000e4923f0700313638b6e1807fcd50b6b32
:1034e8000a4a23f4407343f480730b63936e1907fd
:1034f800fcd5136b054923f0030343f00203136360
:103508008b6e1b07fcd5034b0b61704700060e4002
:08351800013f1820005c2b00ac
:020000040000fa
:020000040040ba
:103520002de9ff41134dd1f80080af88adf80c7044
:1035300006462868029002aca8798df80e00002a91
:1035400018bf1446d1e901571a461bb9204600f0ae
:1035500069ff0246002d02dbaa4228bf2a46cdf8a9
:1035600000803b4621463046fff752fc04b0bde8e0
:08357000f08100bfd0444000cf
:020000040000fa
:020000040040ba
:10357800114b4ff6ff00114ad96801400a43da603f
:10358800bff35f8f62b60e4ae02182f813134ff43f
:10359800002111605a6a42f480225a625a6942f044
:1035a80010025a615a6a42f400325a625a6a42f464
:1035b80080325a62704700bf00ed00e00000fa0553
:0435c80000e100e03e
:020000040000fa
:020000040040ba
:1035cc0009b330b5b0fa80f483b06409c4b90d46c0
:1035dc000e494ff47a720023c968a0fb010100f078
:1035ec0069fb23460146009422462046fff78af8e1
:1035fc00431c286004d0fff739fb204603b030bdd4
:10360c00012003b030bd0120704700bf1897402047
:020000040000fa
:020000040040ba
:10361c0013b5836a8df80710044673b16369a26a07
:10362c00934212d3e36a01220df107012046984719
:10363c00012806d19df8070005e000f0cdfd00281b
:10364c00ecd04ff0ff3002b010bd9df8070094f99c
:0e365c0034209042e6d05a1c62611870f3e7e9
:020000040000fa
:020000040040ba
:02366a007047a7
:020000040000fa
:020000040040ba
:10366c0070b50e4b0e4a0021934208d30d480e4df7
:10367c004ff6ff76016829b943681bb970bd03f892
:10368c00011bf1e783684268334000f10c0455f8e4
:10369c0023302046984704eb8000ebe700004020e5
:0c36ac0000004020b40b4000f44240003d
:020000040000fa
:020000040040ba
:1036b800022a70b5044616461d461ad043689b0672
:1036c80017d441b9002d08bf4ff4806505f10800f3
:1036d800fef74af901466368012e43f02003636050
:1036e800c4e9021514bfff230a2384f83430024bbf
:0c36f800e362002070bd00bffd2f400009
:020000040000fa
:020000040040ba
:1037040070b4104d696a814218d0b9b10a4600e01c
:103714001a469369002b18bf9842f9d14bb18369bb
:103724001bb186689c6834449c6022b19361002379
:10373400836170bc70478b696b62f8e70b460022ab
:08374400ece700bf18974020dc
:020000040000fa
:020000040040ba
:10374c0010b50278202a034600f10100f9d0a2f14d
:10375c0009010429f5d92b2a07d02d2a11d10121d1
:10376c000133013b00200a2403e00021f8e7604309
:10377c00801a13f8012f303a092af8d901b94042be
:06378c0010bd0021ede775
:020000040000fa
:020000040040ba
:0237920070477e
:020000040000fa
:020000040040ba
:103794000e4b802028214bf2c012f0b418604ff079
:1037a40080771960072619694ff4407504240020b6
:1037b40001f07c510a4306491a611f609e625d62f2
:1037c4001c6048770877f0bc704700bf0080014058
:0437d4007497402086
:020000040000fa
:020000040040ba
:1037d800f0b40e4d049f2c7f64b24cb90e460c49d0
:1037e800096a01f04071b1f1407f04d002236b7780
:1037f8000020f0bc704728802146ab602f616e60c6
:10380800ea606c77f0bcfef711bf00bf74974020e8
:0438180000800140eb
:020000040000fa
:020000040040ba
:10381c0070b50d4684b00d4e01218df80f000df1e1
:10382c000f020b46019100953021306800f0bcfc72
:10383c00316804462a780346009105489df80f101c
:10384c0000f096fb204604b070bd00bf20984020cd
:04385c000c2f4000ed
:020000040000fa
:020000040040ba
:10386000f0b5061c85b00d4f4ff0ff0518bf0126bf
:1038700003aa0223386830218df80d608df80c50b2
:1038800000f08cfc3b680446324629460093034610
:10389000034800f073fb204605b0f0bd209840209f
:0438a000482f40006d
:020000040000fa
:020000040040ba
:1038a40010b5054c227832b9044b13b10448aff378
:1038b40000800123237010bdc09740200000000049
:1038c4000000000008b5034b1bb103490348aff3e4
:1038d400008008bd00000000c497402000000000e4
:020000040000fa
:020000040040ba
:1038e40070b40d4c237f5bb24bb90d460b49096a8a
:1038f40001f04071b1f1407f04d0022363770020ce
:1039040070bc704720800121a56022616360e36080
:10391400637770bcfef78cbe749740200080014032
:020000040000fa
:020000040040ba
:1039240070b40d4c237f5bb24bb90d460b49096a49
:1039340001f04071b1f1407f04d00223637700208d
:1039440070bc704720801946a36023616560e26003
:10395400637770bcfef76cbe749740200080014012
:020000040000fa
:020000040040ba
:10396400f0b50d4f85b005460e4603aa022338680c
:1039740030218df80c508df80d6000f00dfc3b6883
:1039840004463246294600930346044800f0f4fafc
:10399400204605b0f0bd00bf20984020482f4000cd
:020000040000fa
:020000040040ba
:1039a4000c4a036810b5546a0b4a591e121b8a420a
:1039b4000ad22bb1094b0c221a604ff0ff3010bd14
:1039c400102202600020fae7173323f00f0303608c
:1039d400f8e700bfd4964020efffff7f2c984020eb
:020000040000fa
:020000040040ba
:1039e40010b44c68a40602460b4603d45df8044b9d
:1039f40000f0e2b891f93410c0b2814203d05969a1
:103a04009c6aa14205d3114618465df8044bfff7a2
:0e3a140003be4c1c5c610a705df8044b7047e9
:020000040000fa
:020000040040ba
:023a22007047eb
:020000040000fa
:020000040040ba
:103a2400f0b40d4d6f682b68db0713d54ff4967314
:103a3400aa6803fb00f068b101370021ab68934228
:103a4400a7eb0306a2eb030488bfb4181a4621446b
:0c3a54008842f3d8f0bc704710e000e09e
:020000040000fa
:020000040040ba
:103a6000c8b1b9b10c4a10b4002453699b07fcd506
:103a700053689b030bd530f81430c3f30803d361ac
:103a80000134a142f1d101205df8044b7047035d80
:0c3a9000d361f5e7012070470080024080
:020000040000fa
:020000040040ba
:103a9c000a4908b501f1080000f06afa084b002148
:103aac004ff0ff3219705a6000f0e6fc44f6080241
:103abc0004490548bde8084000f04ebb54054000e1
:0c3acc00f89740200848402000004020ef
:020000040000fa
:020000040040ba
:103ad80038b5436813f4807f0446154610d003694f
:103ae80040699a4228bf1d462a4600f013fc6369c4
:103af80022692b44551b0022636125611a7038bd69
:0a3b0800db06fcd400f076fbf9e7c1
:020000040000fa
:020000040040ba
:103b140038b503690446456a1b69984768716b792f
:103b24004bb903f0ff0294f82b30013384f82820ba
:103b340084f82b3038bd012384f8283094f82b30d6
:083b4400013384f82b3038bd79
:020000040000fa
:020000040040ba
:103b4c00f0b583b00e46154602238df8030001aa8a
:103b5c0001210df1030000f087f9044648b19df8ee
:103b6c0005700a20fff758ff3e4214bf01230023c3
:083b7c002b70204603b0f0bde0
:020000040000fa
:020000040040ba
:103b840030b50c4a002312f8134024b902eb430366
:103b94005b78184630bd01680d78a54209bf02eb79
:103ba400430301335b78013114bfdbb201600a2b9c
:083bb400e9d9eee7644040008e
:020000040000fa
:020000040040ba
:103bbc0007b54a68c0b2d2050b468df8070006d58a
:103bcc004a69511c5961107003b05df804fb012265
:103bdc000df10701184600f00bfb10b19df8070022
:083bec00f2e74ff0ff30efe7b4
:020000040000fa
:020000040040ba
:103bf40000090138202813d9b0f5007f05d2094bfc
:103c040003ebd00010f8040c7047b0f5e05f06d861
:103c1400044b03ebd01010f8040c103070473f2015
:083c2400704700bf103440009e
:020000040000fa
:020000040040ba
:103c2c00426822f00102531a102b10b40ed944181a
:103c3c0043f0010341f00101216063608350416056
:103c4c0004f108005df8044bfef7f8bb5df8044b7b
:023c5c007047af
:020000040000fa
:020000040040ba
:103c600070b50a4c002104f10c03e26968cb9e4256
:103c700005d0184600f0cefbc4e9050570bd284606
:103c800000f0c8fbc4e9055670bd00bf9c974020fa
:020000040000fa
:020000040040ba
:103c900070b505462c68e30701d500200fe02046eb
:103ca000fff7a8ff064600f0cdf92868a042f1d141
:103cb00020f00100281a3146fff77cfb012070bd7f
:020000040000fa
:020000040040ba
:103cc00053b94ab9002908bf00281cbf4ff0ff3183
:103cd0004ff0ff3000f01ebcadf1080c6de904ced2
:103ce000fdf7d8f8ddf804e0dde9022304b0704701
:020000040000fa
:020000040040ba
:103cf000094bc2b299688a420bd2db6903eb02130b
:103d00009a68904205d19a79002a08bf0023184684
:0c3d100070470023184670474897402079
:020000040000fa
:020000040040ba
:103d1c0010b4074a0023074c062007491360936030
:103d2c00546010605df8044b8b600b60704700bff3
:0c3d3c0010e000e0df930400ec97402052
:020000040000fa
:020000040040ba
:103d480008b500f06ffa074b07221a601b68db03ff
:103d580004d5054a536843f080635360bde80840c2
:0c3d680000f06aba10e000e000ed00e09e
:020000040000fa
:020000040040ba
:103d740070b505466c68e30701d500200de02046c8
:103d8400fff736ff064600f05bf96b68a342f1d1fa
:0c3d940028463146fff70cfb012070bdf3
:020000040000fa
:020000040040ba
:103da000074b1968024609b906491960186806499f
:103db00002448a4294bf1a604ff0ff30704700bf40
:0c3dc0003098402028994020289b40208b
:020000040000fa
:020000040040ba
:103dcc00802910db812901dd83290cd1136807338d
:103ddc0023f0070303f108011160d3e90023c0e9c4
:0a3dec0000230120704700207047fb
:020000040000fa
:020000040040ba
:103df60070b5002902fb01f614460d4618bf14469d
:103e060001463246184608bf002400f0f4f98642ff
:0a3e160018bfb0fbf5f4204670bda4
:020000040000fa
:020000040040ba
:103e20002de9f0410024804617460e462546bd4246
:103e300002db2046bde8f081726856f8081b404658
:0a3e400000f0d0f801350444f1e76a
:020000040000fa
:020000040040ba
:103e4a002de9f0410024804617460e462546bd421c
:103e5a0002db2046bde8f081726856f8081b40462e
:0a3e6a0000f0cbf801350444f1e745
:020000040000fa
:020000040040ba
:103e74002de9f04104460d4616461f4600e000bffa
:103e840000f0e6f90028fad13b463246294620469e
:083e9400bde8f041fef752bb4e
:020000040000fa
:020000040040ba
:103e9c0010b5084c2368196800f07cf8002807db83
:103eac0023680a20196800f005fbc00f404210bdc2
:083ebc000120fbe71c994020e6
:020000040000fa
:020000040040ba
:103ec40090f948305a1e1343426880f8483012f083
:103ed40004031bbf42f010024260c0e90f334ff0ed
:083ee400ff3008bf18467047cb
:020000040000fa
:020000040040ba
:103eec0010b4064b8224064844f60a3101221c60a9
:103efc0058605df8044bd9631a607047008000402d
:043f0c001100070099
:020000040000fa
:020000040040ba
:103f100030b4064b0021064a0725082404205177b7
:103f200011779d621c60186030bc704700800140b2
:043f30007497402022
:020000040000fa
:020000040040ba
:103f340010b4074b4ff4867450204ff40c610a22de
:103f44001c6018605df8044b59601a62704700bf2a
:043f540000800240a7
:020000040000fa
:020000040040ba
:103f580010b584b00c46022301218df8070003aa8e
:103f68000df10700fff782ff10b19df80d302370a7
:043f780004b010bdc4
:020000040000fa
:020000040040ba
:103f7c000fb407b5064b04aa1b6852f8041b18684b
:103f8c00019200f0f7f803b05df804eb04b0704751
:043f9c001c9940200c
:020000040000fa
:020000040040ba
:103fa00070b50e46054600f03dfa3346044602461b
:103fb00001212846fff71fff001b18bf4ff0ff30fd
:023fc00070bdd2
:020000040000fa
:020000040040ba
:103fc400054b064a586812689a6801329a601a6862
:103fd4000ab11b6818477047ec97402010e000e0d6
:020000040000fa
:020000040040ba
:103fe40060b910b50c463ab101212046fff750f9eb
:103ff4000028f9d0012010bd002010bd002070471a
:020000040000fa
:020000040040ba
:10400400012838b5144601d0204638bd0d46214656
:104014002846fff723fd0028f9d0204638bd00bf0d
:020000040000fa
:020000040040ba
:1040240010b5002382b060f07f048df805101a46a5
:10403400022101a88df80440fff71aff02b010bd59
:020000040000fa
:020000040040ba
:10404400064b013053f830203ab9c100a1f10802ff
:104054001a44194443f830204a60704718944020a9
:020000040000fa
:020000040040ba
:1040640068076c094c836a9074a07ac000806888e1
:0e40740000846c820081286e696c2900250092
:020000040000fa
:020000040040ba
:1040820010b50023934206d113f0030018bf01209c
:0e40920000eb930010bdc45ccc540133f2e788
:020000040000fa
:020000040040ba
:1040a000054b4ff480721a605a69d10703d59a699b
:0c40b0005a69d207fbd470470080024020
:020000040000fa
:020000040040ba
:1040bc0010b5054c0022636884f828209b6998474a
:0c40cc0084f82100012010bd189740204e
:020000040000fa
:020000040040ba
:1040d8000449054aa0fb0101d26808b50023fff78f
:0c40e800ebfd08bd40420f00189740207f
:020000040000fa
:020000040040ba
:1040f40038b50546fef7f6ff044608b9204638bd34
:0c4104002846fef76ffd204638bd00bfc6
:020000040000fa
:020000040040ba
:10411000e538400025394000d9374000113f4000c4
:0c412000854340005931400075434000c9
:020000040000fa
:020000040040ba
:10412c006d4440006942400065434000a944400092
:0c413c0061444000b14440007d4240005e
:020000040000fa
:020000040040ba
:1041480000b583b013460a4601218df8040001a882
:0c415800fff78cfe03b05df804fb00bf15
:020000040000fa
:020000040040ba
:1041640010b5054cc4e90301e2616061fff776fd17
:0c4174000023237010bd00bf9c9740206a
:020000040000fa
:020000040040ba
:1041800013b50446019201aafcf790fb636813f093
:0c419000100f18bf4ff0ff3002b010bd40
:020000040000fa
:020000040040ba
:10419c0030b5002485b002250094cde90145fdf72a
:0841ac0095ff05b030bd00bf16
:020000040000fa
:020000040040ba
:1041b40070b584b00424089e099d0294cde900657d
:0841c400fdf788ff04b070bd97
:020000040000fa
:020000040040ba
:1041cc0038b5fdf7e5fa034bd3e9064500f084f961
:0841dc00204638bd1897402071
:020000040000fa
:020000040040ba
:1041e40010b50446fff76cfe28b9a368e268c4e979
:0841f40005331344a36210bd62
:020000040000fa
:020000040040ba
:1041fc0010b4c46a1cb123465df8044b1847006820
:08420c005df8044bfff7f8be5a
:020000040000fa
:020000040040ba
:104214000068002808b501da002008bdfff7befddc
:06422400431cfad1f8e78b
:020000040000fa
:020000040040ba
:10422c00eff3108072b6bff35f8fb0fa80f04009e5
:04423c00704700bf08
:020000040000fa
:020000040040ba
:1042400018b1bff35f8f62b6704772b6bff35f8f6e
:04425000704700bff4
:020000040000fa
:020000040040ba
:10425400034b186980f40070c0f34020704700bf1e
:044264000080004096
:020000040000fa
:020000040040ba
:10426800034b00229a601a6842f001021a607047f4
:0442780010e000e072
:020000040000fa
:020000040040ba
:10427c00034b052218681a60c0f34000704700bf5a
:04428c0010e000e05e
:020000040000fa
:020000040040ba
:10429000034b00210522012099601a70704700bf6e
:0442a000049840201e
:020000040000fa
:020000040040ba
:1042a400034b1878a0f10a00b0fa80f04009704777
:0442b400049840200a
:020000040000fa
:020000040040ba
:1042b800034b1878a0f10b00b0fa80f04009704762
:0442c80004984020f6
:020000040000fa
:020000040040ba
:1042cc00034b1878a0f10500b0fa80f04009704754
:0442dc009c9740204b
:020000040000fa
:020000040040ba
:1042e000034b1878a0f10600b0fa80f0400970473f
:0442f0009c97402037
:020000040000fa
:020000040040ba
:1042f40041434000834040000545400005454000df
:04430400054540002b
:020000040000fa
:020000040040ba
:1043080008b500f0ddf8024b1860586008bd00bf22
:044318001898402091
:020000040000fa
:020000040040ba
:10431c0010b500239a4200d110bdcc5cc4540133bb
:02432c00f8e7b0
:020000040000fa
:020000040040ba
:10432e00034611f8012b184603f8012b002af8d189
:02433e007047c6
:020000040000fa
:020000040040ba
:104340000a440023914201d10020704701f8013b4b
:02435000f8e78c
:020000040000fa
:020000040040ba
:10435400014b024a1a607047000c0e40000600042c
:020000040000fa
:020000040040ba
:10436400024a136823f001031360704710e000e071
:020000040000fa
:020000040040ba
:1043740010b1024b18625962704700bf7497402015
:020000040000fa
:020000040040ba
:10438400024b0022587f5a77704700bf7497402031
:020000040000fa
:020000040040ba
:1043940010414000dc97402001000000801a060014
:020000040000fa
:020000040040ba
:1043a40008b50020fef7f2fc00f0a8f8fce700bf17
:020000040000fa
:020000040040ba
:1043b400024b072201201a70704700bf0498402066
:020000040000fa
:020000040040ba
:1043c400024b002201209a60187070479c9740208d
:020000040000fa
:020000040040ba
:1043d400024b052201201a70704700bf9c974020b1
:020000040000fa
:020000040040ba
:1043e400024b042201201a70704700bf9c974020a2
:020000040000fa
:020000040040ba
:1043f400494e4600696e66004e414e006e616e0085
:020000040000fa
:020000040040ba
:1044040000294ff480630cbf02220022fff752b947
:020000040000fa
:020000040040ba
:1044140002440346934200d1704703f8011bf9e7b5
:020000040000fa
:020000040040ba
:1044240003461a46013311780029fad1101a70474d
:020000040000fa
:020000040040ba
:1044340008b5fff767fffff7aaf9fff7a8f908bd6a
:020000040000fa
:020000040040ba
:0e444400a0f14103192b98bf40f020007047f3
:020000040000fa
:020000040040ba
:0e445200a0f16103192b98bf00f05f007047c6
:020000040000fa
:020000040040ba
:0c4460000138014b5860704710e000e08c
:020000040000fa
:020000040040ba
:0c446c00014b186059607047ec9740202d
:020000040000fa
:020000040040ba
:0c447800014b1860704700bf20984020e6
:020000040000fa
:020000040040ba
:0c448400014b00221a7070470498402081
:020000040000fa
:020000040040ba
:0c449000014b0120187070470498402078
:020000040000fa
:020000040040ba
:0c449c0010b50446fff745ff204610bd98
:020000040000fa
:020000040040ba
:0844a8000048704700a3e11178
:020000040000fa
:020000040040ba
:0844b00000b97047fff748bc9a
:020000040000fa
:020000040040ba
:0844b8002c414000ff00000050
:020000040000fa
:020000040040ba
:0844c00008b5fff78ffa08bdf3
:020000040000fa
:020000040040ba
:0844c80000487047a098402055
:020000040000fa
:020000040040ba
:0744d000286e756c6c2900d9
:020000040000fa
:020000040040ba
:0644d8000068fff793bd30
:020000040000fa
:020000040040ba
:0644de004ff0ff307047b3
:020000040000fa
:020000040040ba
:0444e400fff7acbe74
:020000040000fa
:020000040040ba
:0444e800fee700bf2c
:020000040000fa
:020000040040ba
:0444ec00fee700bf28
:020000040000fa
:020000040040ba
:0444f000fee700bf24
:020000040000fa
:020000040040ba
:0444f400fee700bf20
:020000040000fa
:020000040040ba
:0444f800fee700bf1c
:020000040000fa
:020000040040ba
:0444fc00fee700bf18
:020000040000fa
:020000040040ba
:04450000fcf726bee0
:020000040000fa
:020000040040ba
:0445040000207047dc
:020000040000fa
:020000040040ba
:0445080000207047d8
:020000040000fa
:020000040040ba
:04450c0000207047d4
:020000040000fa
:020000040040ba
:0445100000207047d0
:020000040000fa
:020000040040ba
:04451400704700bf2d
:020000040000fa
:020000040040ba
:0445180000207047c8
:020000040000fa
:02000004d0002a
:0400000002000000fa
:00000001FF
