:020000040000fa
:020000040040ba
:10000000f0ff452029234000c5484000c948400072
:10001000d1484000d5484000d948400000000000c9
:100020000000000000000000000000004334400019
:10003000cd48400000000000433440009943400098
:1000400043344000433440004334400043344000d4
:1000500043344000433440004334400043344000c4
:10006000433440000000000043344000433440006b
:1000700043344000433440004334400043344000a4
:10008000433440004334400043344000a921400041
:100090004334400043344000433440004334400084
:1000a0004334400043344000433440004334400074
:1000b0004334400043344000433440004334400064
:1000c0004334400043344000433440004334400054
:1000d0004334400043344000433440004334400044
:1000e0004334400043344000433440004334400034
:1000f0004334400043344000433440004334400024
:100100004334400043344000433440004334400013
:100110004334400043344000000000000000000071
:1001200043344000433440004334400043344000f3
:10013000433440004334400000000000433440009a
:1001400043344000433440004334400043344000d3
:1001500043344000433440004334400043344000c3
:08016000433440004334400029
:020000040000fa
:020000040040ba
:10016800f8b500bff8bc08bc9e467047f13c40009b
:10017800f8b500bff8bc08bc9e467047cd3c4000af
:020000040000fa
:020000040040ba
:080188004c1200000100000010
:020000040000fa
:020000040040ba
:1001900070b5834c636801332ded088b82b003d0ba
:1001a00001f090fb01f074fa2378112b1fd8dfe8df
:1001b00013f03a00460012004e0056005e006c003c
:1001c0007d008b009800a600b300b900c100c900f3
:1001d000d400cd01220004f041fa002844d104f0fb
:1001e00047fa88b36f4804f031f81223237002b045
:1001f000bdec088b70bd04f0c5f90546a068281a4f
:1002000004f054f907ee900a6748b8ee677ba560e2
:100210009fed596b86ee077b53ec172b04f098f893
:100220000c232370e3e70321002002f01ffd431c91
:100230006060dcd004f006fb01232370d7e704f0f4
:100240000dfb002800f0c88102232370cfe704f0e3
:100250009ffa002800f0c68104232370c7e704f04a
:100260001bfa002800f0c48105232370bfe74f4824
:1002700003f0ecff04f0e8f9002840f089814c48d5
:1002800003f0e4ff12232370b1e70621494804f08c
:100290005ff804f0e3f9002840f0748104f0e8f915
:1002a000002840f0c18106232370a0e7424803f0f4
:1002b000cdff04f065fa002840f082813f4803f04a
:1002c000c5ff1223237092e704f0c8f9002840f01c
:1002d000718104f0cdf9002840f0b2810923237028
:1002e00085e7374803f0b2ff04f05afa002840f0df
:1002f0005b81344803f0aaff1223237077e704f0f0
:10030000cbf9002840f04a8104f0d0f9002840f0f1
:1003100091810a2323706ae72b4803f097ff0c238f
:10032000237064e704f044fa002800f04f810d23a5
:1003300023705ce704f0b0f9002800f06a810e2316
:10034000237054e744f60801204804f09bf9002884
:1003500000f059810f23237049e79fed090b9fedb2
:100360000a1b9fed0b2b9fed0c3b194a194b1a4da5
:100370009fed1aaacbe000bf0000000080842e4150
:1003800085eb51b81e85f63fe9263108ac1cd63ff7
:10039000a913d044d8f0e63f105839b4c876fc3fd2
:1003a000e4bb4020b40a4000e00d4000040b4000d4
:1003b000280b4000680b4000dc0b40000c0c400098
:1003c000b00c4000dc0c4000740d4000006c40207c
:1003d000046c4020060040200cb4402000007f4305
:1003e000b4eeca4af1ee10fa00f3c780fceec47a0c
:1003f000cded017a9df80410803828ee028b03f8c9
:10040000061c07ee900ab8eee77b27ee014b36eeae
:1004100044bb3bee48bbb7eecbbbb5eec0baf1ee8a
:1004200010fa00f1a880b4eecabaf1ee10fa00f3a7
:10043000a080fceecb5acded015a9df8041027eeba
:10044000037b03f8051c36ee076bb7eec66bb5ee03
:10045000c06af1ee10fa00f18a80b4eeca6af1eed9
:1004600010fa00f38280fceec66acded016a9df8b9
:10047000041006ee906a03f8041cb8eee65b39ee51
:10048000059bb7eec99bb5eec09af1ee10fa6ad49f
:10049000b4eeca9af1ee10fa63dcfceec96acded57
:1004a000016a9df8041035ee446b03f8031c36ee28
:1004b000486bb7eec66bb5eec06af1ee10fa4ed4db
:1004c000b4eeca6af1ee10fa47dcfceec66acded76
:1004d000016a9df8041037ee057b03f8021cb7eea5
:1004e000c77bb5eec07af1ee10fa34d4b4eeca7a16
:1004f000f1ee10fa2ddcfceec77acded017a9df815
:100500000410043203f8011c0633954237d012f868
:10051000011c12f8040c803912f8026c06ee100a65
:1005200012f8030c08ee101ab8eec66bb8eec88bc2
:1005300028ee009b36ee094bb7eec44bb5eec04a31
:10054000f1ee10fa7ff54caf002155e7112323702f
:100550004de6ff21d5e70021d3e7ff21bbe70021ce
:10056000b9e7ff219fe700219de7ff2181e70021f7
:100570007fe7ff2163e7002161e7ff213ce71023cc
:10058000237034e6314803f061fe072323702ee622
:100590002f4803f05bfe0623237028e62d4803f066
:1005a00055fe0b23237022e62b4803f04ffe0a234f
:1005b00023701ce6294803f049fe0923237016e640
:1005c000274803f043fe0823237010e6254803f074
:1005d0003dfe122323700ae6234803f037fe122360
:1005e000237004e6214803f031fe12232370fee558
:1005f00004f05cf800283ff42fae1d4803f026feff
:1006000012232370f3e51b4803f020fe122323700e
:10061000ede504f04bf800283ff489ae164803f0ee
:1006200015fe12232370e2e5144803f00ffe122397
:100630002370dce5124803f009fe12232370d6e58f
:10064000104803f003fe12232370d0e59c0b4000fa
:10065000440b40002c0d4000000d40005c0c40009d
:100660002c0c4000880d4000900a4000cc0a40004d
:10067000ec0a4000c00d4000a40d4000c00b40003b
:08068000580d40008c0c4000f5
:020000040000fa
:020000040040ba
:100688002de9f04f2ded0a8b92ed00ab8fb0b5ee52
:10069800c0ab04938b680393f1ee10fa0b690690d4
:1006a8008a46d1e900750793cc6806d47a0732d414
:1006b80017f0080631d0202302e02d23b1ee4aab13
:1006c8002370039b012603f1ff3b1aee903adff8f3
:1006d80064931aee100a23f000414ff000084945d0
:1006e80008bf40451cd1049b413b192b94bfcc4902
:1006f800cc49a01904f0baf8204604f075f8009720
:100708000246039b0698214602f066fd0fb0bdec39
:100718000a8bbde8f08f2b23d2e7ddf80cb0d4e7c5
:10072800894508bf804508d2049b413b192b04eb3f
:10073800060094bfbc49bd49dce7b5ee40abf1ee1d
:1007480010fab2ee04cbb7ee009b4ff0000818d1b8
:10075800049804f059f8002dc0b2c0f26d816728e2
:100768002dd1002d08bf012518f1040f02dba84583
:10077800c0f244814ff0650933e008f10108b0ee9a
:10078800479b29ee0c7bb4eeca7bf1ee10faf4dd40
:100798000023a74a9fed9e7b0be0904505da23b91d
:1007a8002aee07ab29ee079b012308f1ff3889eef3
:1007b8000c9bb4eec9abf1ee10faeed4c8e7814653
:1007c800b9f1660f05f101050bd1b8f1000f03da95
:1007d800b7ee009b4ff00008672818bf45444ff05c
:1007e80066090023b0ee498bb0ee4abb8bee080bce
:1007f8000893059002f0d4f9089b90ee08bbfdee33
:10080800c07b01339d4217ee902ab1ee4bbb88eeb8
:100818000c8b0598ead1b1ee047b28ee078bb4ee79
:10082800c8bbf1ee10fa73d4b4ee48bbf1ee10fa7f
:1008380005d19fed796b12f0010f06fe088b3aee99
:10084800088b29ee0cabb4eec8abf1ee10fa62d807
:10085800b9f1660f08f101085fd1013541464b1b1c
:1008680000220a93354605920a9b994240f08280fd
:10087800059b002b00f0ab8060190022b9f1650fd1
:1008880002702dd1079b0799013b9045e254c1f1b5
:10089800030ebcbfc8f1000801220a21b8f1000ffd
:1008a80040f09b800eeb030cbcf1000f00f3958029
:1008b800002a03f1ff3114bf2d222b226254049a1f
:1008c800023b413a192a04eb030198bf4ff045094e
:1008d8009d4281f80090abf1020b01da03f0c6ffec
:1008e80007f00303022b7ff407afbbf1000f7ff77c
:1008f80003af204603f078ff04eb0b03864279dd53
:100908005a463021a01903f067ff00230393f3e64a
:100918009fed418b93e7b0ee49abb9f1650f14bf7a
:10092800414600219be7059b5bb9002909da089b32
:100938004ff02e0c04f803c0012301350bf1ff3be7
:10094800059304eb020c6319ac444ff0300e01e040
:1009580003f801eb9c45fbd1099b02eb050cabebc3
:10096800020b30330cf1010504f80c300bf1ff3b9e
:10097800002224e0daf810300895053bab427ff6f8
:1009880077af88ee0a0bcde90c200b9102f008f93d
:10099800fdeec07bdde90b1217ee903a092ba8bfdc
:1009a800092317ee90ca099307f0100353ea0c03c2
:1009b8000d98b8d16728b6d10029c2da01329aee6b
:1009c800008b0139b1ee488b8aee0cab4ce7fb0685
:1009d80042bf2e23635501354ee7b8fbf1fc013bbe
:1009e80001fb1c8808f1300804f803800bf1ff3b79
:1009f800e04653e7225c1a5401387fe7b8f1000f4c
:100a0800bff6edae4ff06609dae60625ace600bfa4
:100a1800000000000000504300000000000000003b
:100a2800c0474000c4474000c8474000cc4740008a
:100a3800d4feffff0000f07f6728e6d08146062538
:040a4800bee600bf47
:020000040000fa
:020000040040ba
:100a4c00302e302e320000000a23203d3d3d3d3d2e
:100a5c003d3d3d3d3d3d3d3d3d3d3d3d3d3d3d3dba
:100a6c003d3d3d3d3d0a23204172647543616d203f
:100a7c004f56323634302054657374207625730dfe
:100a8c000a00000023204661696c656420746f20a5
:100a9c00696e6974696174652063616d657261204a
:100aac0072657365740d00002320526573657420a4
:100abc004172647543616d206661696c65640d00fb
:100acc00232043616c6c20746f2070726f62652000
:100adc0073706920627573206661696c65640d00c2
:100aec00232050726f6265207370692062757320c9
:100afc006661696c65640d0023203d3d3d3d2041e0
:100b0c0050505f53544154455f53544152545f50bd
:100b1c00524f42455f49324320310d00232043613f
:100b2c006c6c20746f2070726f62652049324320a8
:100b3c006661696c65640d0023203d3d3d3d20419f
:100b4c0050505f53544154455f53544152545f507d
:100b5c00524f42455f49324320320d0023203d3d28
:100b6c003d3d204150505f53544154455f415741e6
:100b7c0049545f50524f42455f49324320312c203b
:100b8c007374617465203d2025640d0a000000001b
:100b9c0023203d3d3d3d2050726f626520666f7293
:100bac00204f563236343020737563636565646547
:100bbc00640d0000232050726f626520666f7220f6
:100bcc004f5632363430206661696c65640d000016
:100bdc0023203d3d3d3d204150505f5354415445f1
:100bec005f53544152545f53455455505f43414dec
:100bfc004552415f434f4e54524f4c20310d000033
:100c0c00232043616c6c20746f20736574757020a5
:100c1c0063616d657261206661696c65640d0000cd
:100c2c0023203d3d3d3d204150505f5354415445a0
:100c3c005f53544152545f53455455505f43414d9b
:100c4c004552415f434f4e54524f4c20320d0000e1
:100c5c0023203d3d3d3d204150505f535441544570
:100c6c005f41574149545f53455455505f43414d83
:100c7c004552415f434f4e54524f4c20310d0000b2
:100c8c0023205365747570206f662063616d6572e7
:100c9c006120636f6e74726f6c206661696c656441
:100cac000d00000023203d3d3d3d204150505f5341
:100cbc00544154455f53544152545f53455455501d
:100ccc005f43414d4552415f4441544120310d0039
:100cdc00232043616c6c20746f20736574757020d5
:100cec0063616d6572612064617461206661696c19
:100cfc0065640d0023203d3d3d3d204150505f5328
:100d0c00544154455f53544152545f5345545550cc
:100d1c005f43414d4552415f4441544120320d00e7
:100d2c0023203d3d3d3d204150505f53544154459f
:100d3c005f41574149545f53455455505f43414db2
:100d4c004552415f4441544120310d0023205365ed
:100d5c007475702063616d657261206275732066b5
:100d6c0061696c65640d00002320417264754361f8
:100d7c006d2072656164790d0000000023206661ae
:100d8c00696c656420746f20737461727420636184
:100d9c0070747572650d000023206661696c656462
:100dac0020746f206361707475726520696d616762
:100dbc00650d00002320556e61626c6520746f20f8
:100dcc007265616420696d61676520646174610d91
:100ddc000000000023204650533a2025660a0000ec
:020000040000fa
:020000040040ba
:100dec002de9f041aeb00646154605910027059950
:100dfc000b78002b00f0fa8000244ff0ff33cde984
:100e0c0009430eab0c9380230b940d930b5d0bb12c
:100e1c00252b26d134b12246304603f04df8059be4
:100e2c0023440593059b1a78252a40f0d78003f1bb
:100e3c000108cdf81480059803782b2b1ad025d8ef
:100e4c00202b1bd0232b1dd02a2b27d002f08cfe5d
:100e5c000b90059b1a78303a092a2ed8013305934a
:100e6c00f7e70134d2e7099b43f001030130099302
:100e7c000590e0e7099b43f00403f7e7099b43f077
:100e8c000803f3e7099b43f01003efe72d2bead09f
:100e9c00302bd9d1099b43f00203e7e72b681a1dcd
:100eac001b682a600130002b05900b9305da099a18
:100ebc005b4282f0010209920b93099bda0744bf53
:100ecc0023f002030993059b1a782e2a0dd10022d8
:100edc00581c0a9205905a782a2a25d10233059378
:100eec002b681a1d1b682a600a9305a803f01ef8cc
:100efc00059b0390187803f085fc6928039979d039
:100f0c0032dc632800f0cb8019dc252800f0d98076
:100f1c00612853d000234ff0ff32cdf81480099391
:100f2c000b930a920093d4e002f01efe0a90059bec
:100f3c001a78303a092ad8d801330593f7e7642890
:100f4c0058d06728e6dc2a4606a803f011f90028d9
:100f5c0000f0a180059b5a1c05921b7806aa09a9d2
:100f6c003046fff78bfb38e0702873d015dc6e2809
:100f7c0000f08c806f28cdd12b46002206a801f002
:100f8c0021ff002800f08780059b06aa013309a9e0
:100f9c003046059303f0a0fc1fe075283ad0782862
:100fac0048d07328b6d1802975d1059b2a680133a6
:100fbc000593131d2b60126800237de02a4606a8ba
:100fcc0003f0d6f8002866d0059b5a1c05921b78b6
:100fdc0006aa09a9304603f081fc04443c44a7420c
:100fec007add3e4b4f221a604ff0ff3738462eb059
:100ffc00bde8f0812b46012206a801f0e3fe002893
:10100c0049d0059b06aa013309a93046059301f086
:10101c002fffe2e72b46002206a801f0d3fe0028a2
:10102c0039d0059b06aa013309a93046059303f074
:10103c0053fcd2e72b46002206a801f0c3fe50b3a6
:10104c00059b5a1c05921b7806aa09a9304601f08b
:10105c00bffac2e72b460022f02106a801f0b2fe2f
:10106c00c8b1059b01330593dde9062313430bd16e
:10107c001b4803f0b7fb099b009319490b9b0246d5
:10108c00304602f0a7f8a8e77823dde72b463a199b
:10109c0006a802f0dff8059b013305939ee7802933
:1010ac00f9d1059b013305932b681a1d1b682a6027
:1010bc008df8183006aa012309a9304602f03efc2f
:1010cc008be78029e7d1059b01330593099b00939e
:1010dc000b9b04490122d3e7274688e618bc402025
:0810ec004e4440005444400052
:020000040000fa
:020000040040ba
:1010f40094bb40201c0000000000000040bb4020c6
:101104002c00000000000000d8bb40200c000000b0
:10111400000000006cbb402028000000000000001c
:1011240010bb402030000000000000001cba40202a
:10113400a0000000000000000cbd402002000000e0
:1011440001000000010000000cbb4020040000006e
:1011540000000000c8bb4020100000000000000098
:10116400fcbb40200800000000000000e4bb40205d
:101174000c000000000000000000402008b4000043
:10118400000000000cbc402004000000000000002f
:10119400f0bb40200c00000000000000b0bb402069
:1011a400180000000000000010bc402004000000f3
:1011b40000000000bcba4020500000000000000005
:1011c40020bc40206c000000010000002cbc40202a
:1011d40028bc40202cbc402000000000250000005a
:1011e40010b44020000400000000000000000000d3
:1011f40000000000000000000000000000000000eb
:101204000000000000000000ed4840000000000065
:10121400000000000000000000000000c93640008b
:1012240000000000000000000000000000000000ba
:10123400000000000000000008b440200804000082
:1012440000000000ecbc4020200000000100000071
:101254000100000003000000000000000000000086
:1012640000000000000000000000000004bc40205a
:1012740004bc4020080000000000000014bc402012
:10128400080000000000000010b840200c0200001c
:10129400000000008cbc4020600000000100000041
:1012a4000100000003000000000000000000000036
:1012b4000000000000000000000000003d38400075
:1012c400000000000000000000000000b1484000e1
:1012d4004b3e400000000000000000000000000041
:1012e40000000000000000000000000000000000fa
:1012f40000000000000000000000000000000000ea
:101304001cbc40200400000000000000000000009d
:0413140000000000d5
:020000040000fa
:020000040040ba
:1013d4002de9f04f099f154604468e461e46002b04
:1013e40040f0cc808a42b2fa82fc4cd9bcf1000fa6
:1013f4000bd0ccf1200801fa0cfe20fa08f802fa0e
:101404000cf548ea0e0e00fa0cf44fea15491ffadf
:1014140085f8befbf9fa210c09fb1ae30afb08fb69
:1014240041ea03439b452ad9eb180af1ff3004d261
:101434009b4502d9aaf102002b44a3eb0b03a4b2ef
:10144400b3fbf9f209fb123302fb08f844ea034444
:10145400a04516d92c1902f1ff3303d2a04501d9b6
:10146400931e2c44a4eb080443ea004027b124fa59
:101474000cf400233c607b603146bde8f08f50469d
:10148400dbe71346eee702b9ffdebcf1000f2ed115
:101494008b1a01264fea154eaab2b3fbfef8210cb3
:1014a4000efb183308fb02f941ea0343994561d95d
:1014b400eb1808f1ff3004d2994502d9a8f10200d3
:1014c4002b44a3eb0903a4b2b3fbfef10efb1133cf
:1014d4004a4344ea0344a2424ed92c1901f1ff3392
:1014e40003d2a24201d98b1e2c44a41abce7ccf12e
:1014f400200e02fa0cf521fa0ef901fa0cf320fa87
:101504000efe4eea03034fea154800fa0cf4b9fb49
:10151400f8f11ffa85fe08fb1192180c01fb0ef678
:1015240040ea0242964221d9aa1801f1ff3003d2bf
:10153400964201d9881e2a44921b9bb2b2fbf8f949
:1015440008fb192209fb0efe43ea02439e450fd90c
:10155400eb1809f1ff3604d29e4502d9a9f102061f
:101564002b44a3eb0e0346ea004693e70846e3e761
:101574004e46f6e74046a4e70b46b6e78b4206d94b
:10158400002f7ed00026c7e90001304674e7b3fa85
:1015940083fcbcf1000f0fd18b4201d3824209d8e6
:1015a400841a61eb030e0120002f6dd0c7e9004eb1
:1015b400002661e76046f7e7ccf1200e03fa0cf34e
:1015c40022fa0ef521fa0ef41d4301fa0cf320fa67
:1015d4000ef10b434fea154a00fa0cf6b4fbfaf984
:1015e4001ffa85f80afb19401c0c09fb08f144eab0
:1015f4000044a14202fa0cf23fd92c1909f1ff3040
:1016040004d2a14202d9a9f102002c44641a9bb26b
:10161400b4fbfaf90afb194409fb08f843ea04414c
:1016240088452cd9691809f1ff3304d2884502d9b9
:10163400a9f10203294443ea0040a1eb0801a0fbfd
:1016440002894945c2464c4602d306d1464504d2d6
:10165400b8eb020a69eb05040138afb1b6eb0a0333
:1016640061eb040606fa0efe23fa0cf34eea0303ba
:1016740026fa0cf6c7e900369ae74846c6e74b4611
:0c168400d9e73e463846f7e63e46f5e65c
:020000040000fa
:020000040040ba
:1016900070b57c4d82b02b78013b072b26d8dfe854
:1016a00003f048537d5b6b2a27275521002002f069
:1016b000a3fe002800f08f800df10701002002f04a
:1016c00023fe002800f0bf809df80730552b2cd05a
:1016d0006d4802f0bbfd4ff0ff336c4964206b6036
:1016e00002f088f900b100bf02232b7002b070bd78
:1016f00000bf02b070bd02f045ff654e696900246d
:10170000411aa6f1200002f023feeb683046195d75
:10171000013402f01dfe142cf7d1d5e903325c48e8
:10172000134413f8011c02f013fe07232b7002b0c0
:1017300070bdab685a1c052baa60b6dd554802f097
:1017400085fd08232b70d1e7686802f0bdfe0028f4
:10175000ccd001232b70c9e70df1070208214120ed
:1017600002f0c6f800286ad09df80730002b34d16b
:10177000ab680133ab60b9e70df10501422002f01f
:10178000c3fd30b10df10601432002f0bdfd00287c
:1017900038d1414802f05afd02b070bd0121042049
:1017a00002f02afe28b93d4802f050fd08232b70b4
:1017b0009ce700212a69e86803f012f802f0e2fed3
:1017c00002216861042002f017fea8b10022042360
:1017d000aa602b708ae732487be702f0d3fe314ad9
:1017e0006969936b411a304883f40003936302f0f4
:1017f000affd07232b7079e72c4802f027fd082363
:101800002b7073e70df10701442002f07dfd0028e5
:10181000bfd09df806109df8072009029df80530fd
:101820002c6941ea02411943c1f316018c420cd0e4
:1018300022461f4802f08cfd08232b7056e71d48f6
:1018400002f004fd94e71c4843e702f09bfe2246a9
:1018500068613c20e96802f061fe28b9174802f08f
:10186000f5fc08232b7041e70121042002f0c4fda0
:1018700010b106232b7039e7114802f0e7fc08236a
:101880002b7033e7b0bb4020281d4000b4bb402084
:10189000701e4000d41c4000b81d4000441d400094
:1018a000f01c4000000e0e409c1d40005c1d4000de
:1018b000d81d4000781d40000c1d4000fc1d40005c
:0418c0001c1e4000aa
:020000040000fa
:020000040040ba
:1018c40010b5714c82b02378013b0a2b22d8dfe893
:1018d40003f02e3f472350237180662b2b000df11c
:1018e40006010a2002f0acf9002800f0a6809df859
:1018f4000610664802f02afd9df80610262900f01d
:10190400a280634802f022fd6249642002f070f86c
:101914000623237002b010bd606802f0d3fd0028d6
:10192400f8d005232370f5e700bf02b010bd0120f5
:1019340002f0a8f9002865d08021122002f024fad0
:1019440000286cd1544802f07ffc0b232370e1e79c
:10195400606802f0b7fd0028dcd003232370d9e7c8
:101964000021122002f010fa002851d10b23237019
:10197400d0e7a3685520aa215a1c052b8df8060030
:101984008df80710a26039dc012002f07bf90028f1
:10199400a5d1424802f058fc0b232370bae7c521b5
:1019a4003f4801f04dfd10bb3e4802f04dfc0b23b7
:1019b4002370afe7012002f065f990b18021122075
:1019c40002f0e2f990bb384802f03efc0b2323708e
:1019d400a0e7606802f076fd00289bd009232370fd
:1019e40098e7324802f030fc0b23237092e7294930
:1019f400642001f0fdff0a2323708be72c4802f0da
:101a040023fcb3e72b4802f01ffc0b23237081e770
:101a14002049642001f0ecff042323707ae71d4978
:101a2400642001f0e5ff0223237073e71949642061
:101a340001f0deff082323706ce71f4802f004fc6a
:101a44000b23237066e70df107010b2002f0f8f871
:101a540070b19df80710194802f078fc9df8071042
:101a6400a1f14003022b09d9154802f06ffc4be7a2
:101a7400144802f0e9fb0b2323704be7124802f0f1
:101a8400e3fb0a23237045e7f0bb4020b01b400072
:101a9400c41b4000f4bb4020101b4000681b4000e6
:101aa4001c204000b41c4000881c4000581c40000e
:101ab400541b4000d01a4000981b4000041c4000f6
:0c1ac400181c4000ec1b4000401c4000bf
:020000040000fa
:020000040040ba
:101ad000232043414d5f4354524c5f5441534b5f6d
:101ae00053544154455f53544152545f41535345fd
:101af00052545f5245534554206661696c656420b9
:101b0000746f2073656c6563742062616e6b0d0089
:101b1000232043414d5f4354524c5f5441534b5f2c
:101b200053544154455f53544152545f41535345bc
:101b300052545f5245534554206661696c65642078
:101b4000746f20777269746520746f20434f4d372e
:101b50000d0000002320746f6f206d616e7920727c
:101b60006574726965730d002320636f756c642062
:101b70006e6f742077726974652043414d5f4354e2
:101b8000524c5f5441534b5f4445565f4354524c53
:101b90005f5245470d0000002320636f756c642081
:101ba0006e6f742072656164207669640d000000b8
:101bb00023202d2d2d20766964203d2025640d0adb
:101bc000000000002320766964206d69736d6174e4
:101bd0006368202830782530327829202d207265de
:101be000747279696e670d0a000000002320636f2c
:101bf000756c64206e6f7420726561642070696416
:101c00000d00000023202d2d2d20706964203d2023
:101c100025640d0a000000002320706964206d69ae
:101c2000736d6174636820283078253032782920fc
:101c30002d207265747279696e670d0a00000000cc
:101c400023202d2d2d207669643a706964207375e8
:101c500063636573730d000023204661696c6564de
:101c600020746f2073656c6563742073656e736f89
:101c7000722062616e6b20696e207365745f666f9f
:101c8000726d61740d00000023204661696c65640b
:101c900020746f2072657365742070726f63657352
:101ca000736f7220696e207365745f666f726d6109
:101cb000740d000023204661696c656420746f20f8
:101cc0006c6f61642063616d65726120666f726d17
:041cd00061740d002e
:020000040000fa
:020000040040ba
:101cd4002320746f6f206d616e79204172647543a7
:101ce400616d20726574726965730d002320535011
:101cf400492070726f62652077726974652066612d
:101d0400696c65642e0d00002320535049207072c5
:101d14006f62652072656164206661696c65642e1a
:101d24000d00000023205350492070726f6265201b
:101d340064617461206d69736d617463682e0d0054
:101d440023206661696c656420746f207265736515
:101d540074206669666f0d002320537461727420c9
:101d640063617074757265206661696c65642e0dbb
:101d74000000000023204661696c656420746f20b4
:101d84007265616420636f6d706c6574696f6e2039
:101d94006269740d000000002020202063617074cb
:101da400757265203d2025336c6420746963732c3f
:101db4002000000023206661696c656420746f2034
:101dc40072656164204649464f206c656e6774688d
:101dd4000d00000023204649464f206c656e677451
:101de4006820697320256c642c20657870656374a1
:101df40065642025640d0a002320436f756c6420fc
:101e04006e6f742072656164204649464f20636f8b
:101e14006e74656e74730d0023206661696c65646d
:101e240020746f207265736574206669666f206123
:101e3400667465722072656164696e6720696d619c
:101e44006765206275666665720d00006c6f61647b
:101e5400203d2025336c6420746963732c207361e6
:101e64006d706c6573203d200000000025303278d1
:041e7400200000bf8b
:020000040000fa
:020000040040ba
:101e78002de9f04f85b0019001a801f0a3ff0028db
:101e880003da002005b0bde8f08f019b1b095d1e39
:101e9800202d0fd9023b5b4ab3f5007f35bf02eb1b
:101ea800d30302ebd31313f8045c13f8045c34bfb8
:101eb800013511350123a5f12001c5f1200203faee
:101ec80001f923fa02f203fa05f849ea0209d8f1fe
:101ed80000084d4f69eb4909d7e9002302ea080acf
:101ee80003ea090b5aea0b0342d1019b03a81033fa
:101ef800039302f067fb18b9444b0c221a60c1e740
:101f0800d7f80852a84206d0039b103b039301233d
:101f180000f110058360039bea18012143f00103d7
:101f2800b5f1080442f8083c42f8041cc7f8082236
:101f380045f8043ca5d0204602f067f888b155f86a
:101f4800083c55f8041c23f00103e31a5a6822f0f0
:101f580001020a445a6055f8041c21f0010162503c
:101f68001c462046019902f037f804f1080089e779
:101f78005046244a264bbaf1000f34d1cbf1000168
:101f880001ea0b014b4302ebd36393f83c60203624
:101f9800304602f03dfa731c57f8334007ebc30391
:101fa800083b9c4298d0272e26dd0235ae4201dc44
:101fb8003f2e21d16168019a21f001018d1a28462e
:101fc80001f0eeff864217d1a318e068a668d86032
:101fd8009e608360986842f00102c360c3e90025ef
:101fe80065506260bde7caf1000101404b4302eb56
:101ff800d36393f83c60cbe73146204601f0befb43
:10200800afe700bfe037400010b8402018bc4020c0
:0420180029e66b0743
:020000040000fa
:020000040040ba
:10201c00ff002cff2edfff013c321100090204a847
:10202c0013e514482c0c33783a333bfb3e00431138
:10203c00161039023588220a3740230034a00602d4
:10204c00068807c00db70e014c004a812199244027
:10205c00253826825c00630046220c3a5d555e7d75
:10206c005f7d6055617062807c05208028306c003b
:10207c006d806e007002719473c13d3412045a5716
:10208c004fbb509cff00e57ff9c04124e01476ff64
:10209c0033a0422043184c0087d0883fd703d91077
:1020ac00d382c808c9807c007d007c037d487d48b4
:1020bc007c087d207d107d0e9000910e911a91313f
:1020cc00915a91699175917e9188918f919691a376
:1020dc0091af91c491d791e891209200930693e32c
:1020ec009303930393009302930093009300930044
:1020fc009300930093009600970897199702970cfa
:10210c00972497309728972697029798978097004f
:10211c009700a400a800c511c651bf80c710b666b1
:10212c00b8a5b764b97cb3afb497b5ffb0c5b194db
:10213c00b20fc45ca600a720a7d8a71ba731a70085
:10214c00a718a720a7d8a719a731a700a718a720b9
:10215c00a7d8a719a731a700a7187f00e51fe1771b
:10216c00dd7fc20eff00e004c0c8c196863d5190d1
:10217c00522c530054005588570050925a505b3cd7
:10218c005c00d304e000ff000500da08d703e00090
:0c219c000500da005a185b18ffff00bfb6
:020000040000fa
:020000040040ba
:1021a8002de9f0415c4b5d4c656a1b6ada0503d585
:1021b800ff2101222177627713f0010106d0564ae8
:1021c8000827042607201760166090629f0501d52e
:1021d80001222277627ff2b9227f52b2013a032aa2
:1021e80019d8dfe802f0474e02425e0713d563694b
:1021f800e2682169013a9a4201d1002971d1e26865
:10220800591c013a9a425ed06068434ac35c5363e2
:10221800414b61611b6a237fff2b16d0237f052b5f
:1022280001d0bde8f0813c4b00220726082004219c
:10223800627722779e6218601960236a002bf0d0bb
:10224800236a2846bde8f04118470022324b072090
:10225800082122770422986219601a60236a002be9
:10226800dcd0236a28469847d8e70029d3d005232d
:102278002377d0e7e3682088a3b1002100f0befbf4
:10228800c9e79a07c7d5a3692269023a9a420dd0cd
:1022980021495a1c0f6ba6682069f754904209d04f
:1022a800a261b8e7012100f0a9fbb4e71a4a0221ac
:1022b8001160ede702238b620b6adb074cbf052335
:1022c80004232377ece762680220d65c0422124bd1
:1022d8005e6318609a621b6ad8071bd505232377ab
:1022e80096e772b60c4a042102209162591c66686e
:1022f800f35c53632077536843f480535360236936
:10230800012b0cbf03230123136062b6024b032287
:102318005a627de722777be7008001406cbb402052
:020000040000fa
:020000040040ba
:1023280008b54f4b98474f4b9847eff3108172b65b
:102338004d4ad2f8883043f47003c2f88830bff3ae
:102348004f8fbff36f8f01b962b6484b484a5a6046
:102358009a6812f0010ffbd0444bdb6813f4c07f7e
:1023680013d0444b0c221a60404b434a5a609a6877
:1023780012f0010ffbd03d4b404a5a609a6812f0a8
:10238800010ffbd03e4b3f4a1a60bff34f8fbff39c
:102398006f8f354cd4f8903223f00103c4f8903293
:1023a800d4f8943223f00103c4f89432bff34f8f6a
:1023b800bff36f8f01f06afb334b23f07f03a360f9
:1023c800324b9847636913f4003f12d1bff34f8f24
:1023d800bff36f8f0022c4f85022bff34f8fbff3b3
:1023e8006f8f626942f400326261bff34f8fbff3af
:1023f8006f8f1d4b5b6913f4803f29d11a4b002264
:10240800c3f88420bff34f8fd3f88030c3f3c906d5
:10241800c3f34e335a0143f6e075134802ea050444
:10242800334644ea8371c0f86012013bb3f1ff3fc1
:10243800f7d1203a12f1200ff0d1bff34f8f0a4a9b
:10244800536943f480335361bff34f8fbff36f8fea
:102458000f4b98470f4b984702f086f9fee700bfed
:102468005f3140005f31400000ed00e0000c0e409d
:102478000d00005a0cbb40200c08005a0c07005aeb
:1024880000180e40010000a5000040002937400058
:082498005f3140005f3140009c
:020000040000fa
:020000040040ba
:1024a00000f1ff3c2de9f0471cf1030f82b09df8cd
:1024b00030501fd8c0f30724e4b91f46164689469a
:1024c00001f0d8fd8246a8b1012d19d0b6fa86f3e5
:1024d0005b09002f08bf0123082d18bf022d0cbf78
:1024e000012000200ad12bb9daf8008098f82930b1
:1024f000012b11d0002002b0bde8f087002bfad1eb
:102500000b9b002bf6d00a9b002bf3d0daf800804f
:1025100098f82930012bedd10021d8f81800d8f80f
:10252000103088f82910daf80c208af8051090424b
:10253000c8f824a009d05b690af10c009847daf8c2
:102540000c20d8f81030c8f81820022d2ed0042df9
:1025500010d0012d1ad01b6998478af805009af807
:10256000053003f0ff004bbb88f82800012388f8f2
:102570002930c0e70b9a3146484600923a469c689b
:102580000a9ba04748b9d8f81030e4e71b684846d2
:10259000dde90a1298470028f5d002f08ff998f883
:1025a0002b4084b902f08cf92046dfe75b683a469d
:1025b0003146484698470028efd1e4e70123002040
:1025c00088f82830d2e7013c88f82b4002f078f9ef
:0c25d00098f82800b0fa80f04009c7e736
:020000040000fa
:020000040040ba
:1025dc002de9f04f0e4649683568d6f80890f76833
:1025ec008bb0cde903230029acbf25f002050121f6
:1025fc0015f010030593039b8346d3e900232fd0da
:10260c0052ea03002cd0a9f10208346915f0080035
:10261c0004f1ff3408904ff00000385518bf08f152
:10262c00ff388a46012c1ddc059b002b54d1089bde
:10263c0013b1013c20233b5532690095013a4b46be
:10264c00121b3919584600f0c5fddbf80430db05c8
:10265c0003d573689842b8bf18460bb0bde8f08f2d
:10266c00c846d2e752ea030009d1baf1000f06dce2
:10267c00a8eb010050440028d6dda807d4d502f001
:10268c000f000928d4bf00f1300e00f1570e04984a
:10269c00a0f1410cbcf1190f04f1ff3410d84ef02d
:1026ac00200cacf1610cbcf1190f09d870460991e2
:1026bc00cde9062302f0adf8dde90623099986463b
:1026cc00100940ea03704fea131c07f804e00af102
:1026dc00ff3a02466346a5e7039bd3e9000150eaa3
:1026ec000103a4d03a19049b02f8013c023c3023ac
:0426fc003b559ce7c7
:020000040000fa
:020000040040ba
:1027000000223e483e494ff0ff336ff0100cf0b40a
:10271000c0f8142141f21004d0f814516ff4067778
:10272000384e2c434ff40675c0f814414ff40004a2
:102730004e606ff400063448086010204b650f6649
:102740006ff007674d664ff00765c1f89030c1f82c
:10275000a0300c614e616ff020668c6301f5007152
:1027600041f8e82c4ff02064086748674860274824
:10277000c1f800c04b650b66c1f89030c1f8a030bd
:102780000a614b618a63c1f81821036043650366df
:10279000c0f89030c0f8a030026143618263c0f895
:1027a0001821c1f87054c1f87424c1f80454c1f858
:1027b0000074c1f85434c1f86034c1f89034c1f8e1
:1027c000a034c1f81044c1f81464c1f83844c1f809
:1027d0001825c0f80034c0f85434c0f86034c0f88c
:1027e0009034c0f8a034c0f81024c0f81434c0f8f5
:1027f0003824c0f81825f0bc704700bf008008409e
:10280000000e0e4018002000e7ffdfff00120e4010
:020000040000fa
:020000040040ba
:102810002de9f04700295bd0002859d0002a68d064
:10282000394c8b42e76b88bfa3eb010ea46898bfbd
:102830004ff0000e07f0f007002f55d1324d2c69f4
:10284000a607fcd54ff0000c2f4c4ff6ff794ff048
:10285000ff0866468e4202d1bef1000f2ad08e429a
:102860001ed0751cb7b910f806a02e46c4f80ca0ef
:102870001bb92569ad07fcd5ece72569ed07fcd54b
:102880009c45a568e6d20cf1010a7fb902f80c500c
:10289000d446dfe730f816a02e46c4f80ca0e7e7d0
:1028a0009fb9c4f80c800ef1ff3ee1e722f81c50fe
:1028b000d446cfe7144a13699b05fcd54ff08073cb
:1028c000012413602046bde8f087c4f80c90eae7c5
:1028d000141c18bf0124002b08bf0024002cf1d0c9
:1028e000002808bf00219be75b0849084fea5e0efd
:1028f000a4e7054c13469646e76ba46807f0f0077b
:0c290000002f9bd0f0e700bf00800040db
:020000040000fa
:020000040040ba
:10290c002de9f84300286ad050f8043ca0f10804e3
:10291c0023f00107e6193268934200d0ffde72689b
:10292c0023681340da070fd4204601f06cfb002813
:10293c0057d1304601f0f0fb0028f0d0736823f03b
:10294c0001031f441e44eae747f001036360384665
:10295c00336001f023fb054601f058fd23687268d3
:10296c001340db07e0d5dff88ce0dee90089c5f128
:10297c00200ca5f1200228fa05f009fa0cfc29fa22
:10298c0002f240ea0c001043012100ea010200238c
:10299c001343c5f120007346a5f1200212d121fa90
:1029ac0000f001fa02f2a94042ea00021ebfdef872
:1029bc0000000143cef8001022b1def804100a43e7
:1029cc00cef80420681c03ebc003a3f10802676077
:1029dc003760a2605a68e2605c60e3689c60bde8a6
:1029ec00f883236823f00103e41a636823f00103de
:0829fc001f449ee710b84020c3
:020000040000fa
:020000040040ba
:102a04007f2830b44ad90302324ac0b203f4fe0329
:102a140043f480735360d0602f4b00225a619a6153
:102a240049bbda68012a40d003222a49012005243f
:102a34001a775a6812784a635a6902445a614c6296
:102a440030bc704772b65968224a08781146506300
:102a54005a6901325a610a6a12f0050ffbd10a6af7
:102a6400510708d44ef660201a4901e001382dd0f0
:102a74000a6a5207fad5022216491a774a6842f4ba
:102a840080524a601b69012b0cd001230b6062b693
:102a9400104b032201205a6230bc704700040d4bd6
:102aa4005860b9e703230b60f1e719690029c9d11c
:102ab40004240849022510461c775c6824784c637a
:102ac4005c6901345c610d604a62e5e702225a7771
:0c2ad40062b6e1e7008001406cbb4020ce
:020000040000fa
:020000040040ba
:102ae0002de9f0432d4c85b0074694f820009df861
:102af000308098b994f82800012805d04ff0ff35b0
:102b0000284605b0bde8f083cde90223019101f02c
:102b1000bffc039bdde901120028efd094f900000f
:102b2000022811d04ff0ff35636894f821005b69eb
:102b3000984794f82030002be2d10123284684f8ee
:102b4000283005b0bde8f0830029ebd0b942e9d3c5
:102b50000025134e307820b101352036052df9d1ee
:102b6000e0e7dff840c0cf1b30754ff6ff7ebcf8c2
:102b70000090707509f10100b760012745ea094529
:102b800080b286f802807160704508bf3846f561f2
:102b90003780acf80000c6e90323c5e710bb40202e
:082ba0001cba40200cbd4020ce
:020000040000fa
:020000040040ba
:102ba80053ec102bc3f30a512de9f04140f2fd70ac
:102bb8004e1e86421d4644d8a1f2ff30002835db60
:102bc800332831dc264bc0f120084ff0ff3c03fad4
:102bd80008f2a1f21f412cfa00fc10ee104a4cea50
:102be800020c23fa01f24cea020c23fa00fe04ea72
:102bf8000c0605ea0e0724ea0c0256ea070425ea41
:102c08000e030fd0002a73f100040bda4ff480157d
:102c180005fa08f425fa01f10c43121925fa00f017
:102c280040eb030343ec102bbde8f0819fed0a7bda
:102c3800bfee000b002a73f1000327fe000bbde86e
:102c4800f0810029f0d10a4603f0004343ec102b31
:102c5800eae700bfaff300800000000000000000ba
:042c6800ffff0f005b
:020000040000fa
:020000040040ba
:102c6c0050b92b4b93f90d20022a05d11a7b1ab1be
:102c7c0093f82a20012a02d04ff0ff3070471a78bf
:102c8c0083f82a00002a3dd1f0b45f6887b99e68aa
:102c9c0086b1da699079a8b102f11004002001e044
:102cac00957975b1013022461034b042f8d101e06b
:102cbc000807ecd501224ff0ff3083f82a20f0bc36
:102ccc007047c0b25d6901241171002609071360b9
:102cdc00947107f1010756714ff0010648bf1c7043
:102cec001c8cd5604ff6ff75a11940ea04405f605b
:102cfc0089b2906083f82a60a94208bf3146906877
:102d0c001984dce701224ff0ff3083f82a2070474a
:042d1c0040bb402058
:020000040000fa
:020000040040ba
:102d20002de9f041284dd5e906236c6a501c43f18a
:102d30000001c5e90601002c3ad095f82030013396
:102d400085f82030a368002b3ad101260ae0e36819
:102d500083b1e06900f030f9e3680bb1206998476e
:102d60006c6a74b1a36820465bb9a3782675667552
:102d7000002becd000f0dafea378002becd16370ce
:102d8000eae7124f00243e46a04607eb4413013405
:102d90005a7d22b1b27883f81580012a0ad0052c19
:102da00006f12006f1d195f82030013b85f820305e
:102db000bde8f081726830469a6000f0b3f8eee743
:102dc000a368013ba360c0e710bb40201cba4020b1
:020000040000fa
:020000040040ba
:102dd000882910b536d012dc812943d003dc802944
:102de00040d0002010bd82290ed08429f9d1196865
:102df00002b30a1d1a60b1f90020d3171ee0a02902
:102e00002bd00bdc9029ecd11968073121f0070198
:102e100001f108021a60d1e900230fe0c02901d0b6
:102e2000f029ded11a68111d1960136803600023b0
:102e3000436005e00a1d1a600a880023c0e90023e8
:102e40000120cfe7196822b10a1d1a6091f900200c
:102e5000d3e70a1d1a600a78efe71a68111d196096
:102e60001268cae719681ab10a1d1a600a68c4e72d
:0c2e70000c1d1c600b68c0e90032e1e79b
:020000040000fa
:020000040040ba
:102e7c002de9f041d2e900230c4686b007465fea03
:102e8c00d37820684968a5680590e66841d052421d
:102e9c0063eb4303002908db20f002000590b8f136
:102eac00000f02d1059948072ad5691e05a8029082
:102ebc000a20cde90010204600f046fab8f1000fc8
:102ecc0002d1059b59071fd5b8f1000f00f1ff3057
:102edc0014bf2d232b2333542269059b0093013af5
:102eec002b46121a3118384600f074f97b68db0552
:102efc0003d563689842b8bf184606b0bde8f081a8
:102f0c000807d2d42946d1e71a07e5d50138202382
:082f1c00e1e70029c0dac5e776
:020000040000fa
:020000040040ba
:102f2400002843d02de9f047dff884a0d0f808e06a
:102f3400daf82430002b2fd0f0464ff000094ff080
:102f4400000c0024002500e013469a68a61845f1f9
:102f54000007b94508bfb04514d399689c469a69df
:102f6400641845f10005002aeed18261aeeb040439
:102f74009861836984601bb181689a68521a9a6067
:102f8400bde8f087bcf1000f0cd1aeeb0404caf825
:102f9400240083618460efe7c0f808e0caf82400e5
:102fa400bde8f087dcf818206346dee7704700bf11
:042fb40010bb4020ee
:020000040000fa
:020000040040ba
:102fb8002de9f041204c054694f820305bb994f88f
:102fc8002830012b03d001252846bde8f08101f007
:102fd8005bfa0028f7d06b1e033316d8abb2042b6c
:102fe80013d85e01154f07eb0608d8f81c309d4230
:102ff8000bd1bb5d4bb198f80130b3b90023ba19b6
:103008001d461375bb55537500e00125636894f898
:1030180021005b69984794f82030002bd4d1012314
:10302800284684f82830bde8f081404600f07afd53
:10303800002388f80130e1e710bb40201cba40208b
:020000040000fa
:020000040040ba
:1030480070b5204c054694f8203053b994f82830d0
:10305800012b02d00125284670bd01f015fa002881
:10306800f8d06b1e03331bd8abb2042b18d85b0106
:10307800154ef118c869854212d1f05c80b14878c4
:10308800e8b9886808b9486888601e443046fff780
:1030980045ff0023012233751d467270737500e0e9
:1030a8000125636894f821005b69984794f82030fb
:1030b800002bd0d10123284684f8283070bd002584
:0c30c800efe700bf10bb40201cba402006
:020000040000fa
:020000040040ba
:1030d4002de9ff41836946690093f61acde9016140
:1030e40004461746039216444ff002086d464246c2
:1030f4002946206801f07ff8b04209d1d4e90232b0
:10310400c4e905331a44a262384604b0bde8f0812c
:1031140000280dda6268002342f01002b8f1020fb1
:10312400a362c4e90533626015d06b68ff1aebe74c
:103134006b68984288bf0835a6eb000688bfc01aa2
:103144002b6803442b606b68a3eb000088bf08f175
:0a315400ff386860cbe71f46d6e79e
:020000040000fa
:020000040040ba
:02315e007047b8
:020000040000fa
:020000040040ba
:10316000184b00211b6810b5186801f031fb164b95
:103170000021164c1b68186801f02afb01f0d0faf8
:1031800000f08afbfff7bcfa00f08aff4ff400431f
:103190000f4a10494b60536001f080f800f00efdbb
:1031a00001f0a0f80c49002000f0f4f90b49206070
:1031b000002000f023fa606000f09effbde81040a0
:1031c00000f0eebb24bc402008bd4020fcbb4020ea
:1031d00050180e4000190e406047400090484000d3
:020000040000fa
:020000040040ba
:1031e0002de9ff471d460c9b13f0010906468a4650
:1031f000144601d195420bd822465146304600f084
:1032000061fea54204d82546284604b0bde8f087f3
:103210002f1b102f3a464ff0200128bf102268467e
:10322000b84601f0ddfab8f10f0f11d83b096ff085
:103230000f0202fb03726946304600f043feb9f10b
:10324000000fe1d122465146304600f03bfedbe75d
:1032500010226946304600f035fea8f11008e2e77a
:020000040000fa
:020000040040ba
:10326000842910b523d00cdc812903d0822913d006
:1032700080290bd119680c1d1c600b6803601a6053
:1032800013e0902921d003dc882917d0002010bd3d
:10329000a029efd0c029ece719680c1d1c600b6851
:1032a0000360d1171046c3e900010120efe7196858
:1032b0000c1d1c600b6803601a80f6e719680c1d72
:1032c0001c600b6803601a70efe719680c1d1c6026
:0c32d00009680160d317c1e90023e6e79c
:020000040000fa
:020000040040ba
:1032dc0023206f76323634305f6932635f726561fa
:1032ec00645f6279746528253032782c2025303261
:1032fc007829203d3e2025642e202068616e646c68
:10330c0065203d2025640d0a0000000023206f7607
:10331c00323634305f6932635f77726974655f622d
:10332c0079746528253032782c2025303278292084
:10333c003d3e2025642e202068616e646c65203d26
:08334c002025640d0a0000bffa
:020000040000fa
:020000040040ba
:103354002de9f84f04460c9f6668d4f80cb0246934
:1033640010463a68013c002502f0020a0b9a0bf859
:103374000450002e1946b8bf0126012390464fea97
:10338400e279002c03dcd3b12046bde8f88f50ea83
:10339400010209d1721b002a06dc0a9a521b002a78
:1033a400f1ddbaf1000feed042464b4600f048fe84
:1033b400013c134630320bf804200135e1e73b6849
:0833c40023f010033b60dfe77a
:020000040000fa
:020000040040ba
:1033cc00f8b5846a05460f46164654b1ab6a6a696d
:1033dc009b1ab3420bd2324639462846fff774fe8d
:1033ec00f8bd01f0d5f80028f0d02046f8e7002e03
:1033fc00f1d095f93430002b1bdbdbb23446621e66
:10340c00b95c994212d1224639462846fff75cfe38
:10341c00a042e5d32744341b22463946686901f0a3
:10342c005df96b691c446c613046d9e71446002a7f
:06343c00e5d13446f0e783
:020000040000fa
:020000040040ba
:02344200fee7a3
:020000040000fa
:020000040040ba
:103444002de9f04f87b061b303918146002400f168
:10345400010bdff85880dff858a002e0039b9c4280
:103464001fd019f8146002231bf8147005aa302128
:10347400d8f800008df8146001348df8157001f04f
:1034840067f80546d8f800003a46314600902b46c6
:10349400504600f05bff002de0d1284607b0bde8a0
:1034a400f08f0125284607b0bde8f08f0cbc402002
:0434b4001833400089
:020000040000fa
:020000040040ba
:1034b80038b5194c054694f8203053b994f828309b
:1034c800012b02d00025284638bd00f0ddff00287a
:1034d800f8d06b1e03330fd8abb2042b0cd85b01aa
:1034e8000e49ca18d069854206d1cd5c2db1157d2b
:1034f8000023edb2137500e00025636894f82100fd
:103508005b69984794f82030002bdcd101232846ca
:1035180084f8283038bd00bf10bb40201cba4020ba
:020000040000fa
:020000040040ba
:1035280068b30368164a934227d8164a5b000029f5
:1035380008bf1146b1fbf3f103390023ff290ed967
:1035480001334908dbb2ff298cbf01200020062b7c
:1035580088bf00200028f3d1ff2910d81b040b4393
:10356800012010b4084c226902f07c52134343ea4c
:10357800012121615df8044b7047002070477047b6
:0c35880000093d0080d1f00800800140e7
:020000040000fa
:020000040040ba
:1035940040bb70b5164c94f90d30022b25d005466e
:1035a40040f201120126d1e9000326732061e36190
:1035b40025706560d1e90203a4f829202684a0605f
:1035c4006562c4e9053301f077f984f82b6001f0f2
:1035d40075f92369214607489b69984702232846c1
:1035e400637370bd4ff0ff3070474ff0ff3070bd14
:0835f40040bb4020013f4000f4
:020000040000fa
:020000040040ba
:1035fc0049b3f8b5051c18bf01250dbb134c0123ad
:10360c004ff47a72002684f8283000270b68097969
:10361c000f4863602172294684f8205065621b684c
:10362c00e260c4e90667984763685b689847294677
:10363c00a022084801f0cef8022320462370f8bde2
:10364c004ff0ff30f8bd4ff0ff30704710bb4020fb
:08365c00212d40001cba4020a2
:020000040000fa
:020000040040ba
:1036640050b338b5164b0d465b6913f0e00f1ed10d
:1036740025b301460024124a5369db07fcd553697c
:1036840013f0e00f16d1536813f4003f93690bd085
:10369400c3f3080321f8023b0134a542ecd1281bf3
:1036a400b0fa80f0400938bd00f8013bf4e700f0bf
:1036b400dffedde7002038bd002070472c46eee732
:0436c4000080024040
:020000040000fa
:020000040040ba
:1036c8007fb5c36800911546002b18bf013a0192d7
:1036d80082680446cde902230e4602226946006844
:1036e80000f072fd002808dc00f0180383f00802df
:1036f80063681343636005460fe0019a8242fad279
:10370800a368e363801ae268184420642ab15a1c4b
:10371800e2632e441b7806f8013c284604b070bdcd
:020000040000fa
:020000040040ba
:103728000e4a38b5002313600d4a0e4c13600e4a3a
:103738000e4d13600e4a13600e4a13600e4a536210
:1037480013610123936001f057f800f09ef9ac4231
:1037580000d338bd54f8043b9847f8e714bc402020
:10376800c8ba402074014000c4ba40207801400023
:0c377800bcba4020c0ba4020ccba4020af
:020000040000fa
:020000040040ba
:1037840070b5d0e90245a54217d10122a1f1200369
:10379400c1f1200622fa06f602fa03f333438a4003
:1037a400db43d6431ab10c490a6832400a605a1cfa
:1037b4001fbf094a51680b4053604368ac6043f033
:1037c400010223f00103e56042601844036843f0fa
:0c37d4000103036070bd00bf10b840206e
:020000040000fa
:020000040040ba
:1037e0002021222324242525262627272828282887
:1037f000292929292a2a2a2a2b2b2b2b2c2c2c2c21
:103800002c2c2c2c2d2d2d2d2d2d2d2d2e2e2e2ee8
:103810002e2e2e2e2f2f2f2f2f2f2f2f000117025e
:103820001d1813031e1b190b1408040d1f161c1260
:0c3830001a0a070c1511090610050f0eee
:020000040000fa
:020000040040ba
:10383c0038b50d46044608b9002038bd43689b06d0
:10384c0007d5d0e905239a4216d80023c4e90533dd
:10385c00a362d4e90f13994204d20122c91a206839
:10386c0001f042f80023c4e90f33002de4d02068a6
:10387c00bde8384001f019b80022c36a11469847d8
:0c388c006369002be1d14ff0ff30d6e75c
:020000040000fa
:020000040040ba
:10389800124b13491a469962936e9b07fcd5136b1a
:1038a8000e4923f0700313638b6e1807fcd50b6b5e
:1038b8000a4a23f4407343f480730b63936e190729
:1038c800fcd5136b054923f0030343f0020313638c
:1038d8008b6e1b07fcd5034b0b61704700060e402f
:0838e800013f1820005c2b00d9
:020000040000fa
:020000040040ba
:1038f0002de9f04184b005460e461746022303aa7f
:1039000001210df10b008df80b5000f08bfc0446eb
:10391000a0b19df80d800a2000f098fa06ea08038d
:10392000002b14bf012300233b7007d00120334636
:10393000424629460090034800f00afd204604b0a4
:08394000bde8f0812c434000ba
:020000040000fa
:020000040040ba
:103948002de9ff41134dd1f80080af88adf80c7018
:1039580006462868029002aca8798df80e00002a65
:1039680018bf1446d1e901571a461bb9204600f082
:103978003bff0246002d02dbaa4228bf2a46cdf8ab
:1039880000803b4621463046fff726fc04b0bde8e0
:08399800f08100bfa8484000c7
:020000040000fa
:020000040040ba
:1039a000114b4ff6ff00114ad96801400a43da6013
:1039b000bff35f8f62b60e4ae02182f813134ff413
:1039c000002111605a6a42f480225a625a6942f018
:1039d00010025a615a6a42f400325a625a6a42f438
:1039e00080325a62704700bf00ed00e00000fa0527
:0439f00000e100e012
:020000040000fa
:020000040040ba
:1039f40009b330b5b0fa80f483b06409c4b90d4694
:103a04000e494ff47a720023c968a0fb010100f04b
:103a140017fb23460146009422462046fff75ef832
:103a2400431c286004d0fff70dfb204603b030bdd3
:103a3400012003b030bd0120704700bf10bb4020ff
:020000040000fa
:020000040040ba
:103a440013b5836a8df80710044673b16369a26adb
:103a5400934212d3e36a01220df1070120469847ed
:103a6400012806d19df8070005e000f095fd002827
:103a7400ecd04ff0ff3002b010bd9df8070094f970
:0e3a840034209042e6d05a1c62611870f3e7bd
:020000040000fa
:020000040040ba
:023a920070477b
:020000040000fa
:020000040040ba
:103a940070b50e4b0e4a0021934208d30d480e4dcb
:103aa4004ff6ff76016829b943681bb970bd03f866
:103ab400011bf1e783684268334000f10c0455f8b8
:103ac40023302046984704eb8000ebe700004020b9
:0c3ad40000004020f4104000c0464000fc
:020000040000fa
:020000040040ba
:103ae000022a70b5044616461d461ad043689b0646
:103af00017d441b9002d08bf4ff4806505f10800c7
:103b0000fef7baf901466368012e43f020036360b3
:103b1000c4e9021514bfff230a2384f83430024b92
:0c3b2000e362002070bd00bfcd33400008
:020000040000fa
:020000040040ba
:103b2c0070b4104d696a814218d0b9b10a4600e0f0
:103b3c001a469369002b18bf9842f9d14bb183698f
:103b4c001bb186689c6834449c6022b1936100234d
:103b5c00836170bc70478b696b62f8e70b4600227f
:083b6c00ece700bf10bb402094
:020000040000fa
:020000040040ba
:103b740010b50278202a034600f10100f9d0a2f121
:103b840009010429f5d92b2a07d02d2a11d10121a5
:103b94000133013b00200a2403e00021f8e76043dd
:103ba400801a13f8012f303a092af8d901b9404292
:063bb40010bd0021ede749
:020000040000fa
:020000040040ba
:023bba00704752
:020000040000fa
:020000040040ba
:103bbc000e4b802028214bf2c012f0b418604ff04d
:103bcc0080771960072619694ff44075042400208a
:103bdc0001f07c510a4306491a611f609e625d62c6
:103bec001c6048770877f0bc704700bf008001402c
:043bfc006cbb40203e
:020000040000fa
:020000040040ba
:103c0000f0b40e4d049f2c7f64b24cb90e460c49a3
:103c1000096a01f04071b1f1407f04d002236b7753
:103c20000020f0bc704728802146ab602f616e6099
:103c3000ea606c77f0bcfef7e5be00bf6cbb4020cd
:043c400000800140bf
:020000040000fa
:020000040040ba
:103c440070b50d4684b00d4e01218df80f000df1b5
:103c54000f020b46019100953021306800f084fc7e
:103c6400316804462a780346009105489df80f10f0
:103c740000f06cfb204604b070bd00bf0cbc4020bb
:043c8400dc324000ee
:020000040000fa
:020000040040ba
:103c8800f0b5061c85b00d4f4ff0ff0518bf012693
:103c980003aa0223386830218df80d608df80c5086
:103ca80000f054fc3b68044632462946009303461c
:103cb800034800f049fb204605b0f0bd0cbc40208d
:043cc800183340006d
:020000040000fa
:020000040040ba
:103ccc0010b5054c227832b9044b13b10448aff34c
:103cdc0000800123237010bd94bb40200000000025
:103cec000000000008b5034b1bb103490348aff3b8
:103cfc00008008bd0000000098bb402000000000c0
:020000040000fa
:020000040040ba
:103d0c0070b40d4c237f5bb24bb90d460b49096a5d
:103d1c0001f04071b1f1407f04d0022363770020a1
:103d2c0070bc704720800121a56022616360e36054
:103d3c00637770bcfef760be6cbb40200080014016
:020000040000fa
:020000040040ba
:103d4c0070b40d4c237f5bb24bb90d460b49096a1d
:103d5c0001f04071b1f1407f04d002236377002061
:103d6c0070bc704720801946a36023616560e260d7
:103d7c00637770bcfef740be6cbb402000800140f6
:020000040000fa
:020000040040ba
:103d8c00f0b50d4f85b005460e4603aa02233868e0
:103d9c0030218df80c508df80d6000f0d5fb3b6890
:103dac0004463246294600930346044800f0cafafa
:103dbc00204605b0f0bd00bf0cbc402018334000bd
:020000040000fa
:020000040040ba
:103dcc000c4a036810b5546a0b4a591e121b8a42de
:103ddc000ad22bb1094b0c221a604ff0ff3010bde8
:103dec00102202600020fae7173323f00f03036060
:103dfc00f8e700bfccba4020efffff7f18bc402093
:020000040000fa
:020000040040ba
:103e0c0010b44c68a40602460b4603d45df8044b70
:103e1c0000f0a8b891f93410c0b2814203d05969ae
:103e2c009c6aa14205d3114618465df8044bfff776
:0e3e3c0003be4c1c5c610a705df8044b7047bd
:020000040000fa
:020000040040ba
:023e4a007047bf
:020000040000fa
:020000040040ba
:103e4c00f0b40d4d6f682b68db0713d54ff49673e8
:103e5c00aa6803fb00f068b101370021ab689342fc
:103e6c00a7eb0306a2eb030488bfb4181a4621443f
:0c3e7c008842f3d8f0bc704710e000e072
:020000040000fa
:020000040040ba
:103e8800c8b1b9b10c4a10b4002453699b07fcd5da
:103e980053689b030bd530f81430c3f30803d36180
:103ea8000134a142f1d101205df8044b7047035d54
:0c3eb800d361f5e7012070470080024054
:020000040000fa
:020000040040ba
:103ec40038b5436813f4807f0446154610d003695f
:103ed40040699a4228bf1d462a4600f003fc6369e4
:103ee40022692b44551b0022636125611a7038bd79
:0a3ef400db06fcd400f05cfbf9e7ec
:020000040000fa
:020000040040ba
:103f000038b503690446456a1b69984768716b793f
:103f10004bb903f0ff0294f82b30013384f82820ca
:103f200084f82b3038bd012384f8283094f82b30e6
:083f3000013384f82b3038bd89
:020000040000fa
:020000040040ba
:103f380030b50c4a002312f8134024b902eb4303ae
:103f48005b78184630bd01680d78a54209bf02ebc1
:103f5800430301335b78013114bfdbb201600a2be4
:083f6800e9d9eee738444000fe
:020000040000fa
:020000040040ba
:103f700007b54a68c0b2d2050b468df8070006d5d2
:103f80004a69511c5961107003b05df804fb0122ad
:103f90000df10701184600f00dfb10b19df8070068
:083fa000f2e74ff0ff30efe7fc
:020000040000fa
:020000040040ba
:103fa80000090138202813d9b0f5007f05d2094b44
:103fb80003ebd00010f8040c7047b0f5e05f06d8aa
:103fc800044b03ebd01010f8040c103070473f205e
:083fd800704700bfe037400014
:020000040000fa
:020000040040ba
:103fe000426822f00102531a102b10b40ed9441863
:103ff00043f0010341f0010121606360835041609f
:1040000004f108005df8044bfef780bc5df8044b3a
:024010007047f7
:020000040000fa
:020000040040ba
:1040120070b505462c68e30701d500200fe0204665
:10402200fff7c1ff064600f0f6f92868a042f1d179
:1040320020f00100281a3146fff7a3fb012070bdd2
:020000040000fa
:020000040040ba
:1040440053b94ab9002908bf00281cbf4ff0ff31fb
:104054004ff0ff3000f04abcadf1080c6de904ce1e
:10406400fdf7b6f9ddf804e0dde9022304b070479a
:020000040000fa
:020000040040ba
:10407400094bc2b299688a420bd2db6903eb021383
:104084009a68904205d19a79002a08bf00231846fd
:0c409400704700231846704740bb4020d6
:020000040000fa
:020000040040ba
:1040a00010b4074a0023074c0620074913609360a9
:1040b000546010605df8044b8b600b60704700bf6c
:0c40c00010e000e0df930400d8bb4020bb
:020000040000fa
:020000040040ba
:1040cc0008b500f089fa074b07221a601b68db035e
:1040dc0004d5054a536843f080635360bde808403b
:0c40ec0000f084ba10e000e000ed00e0fd
:020000040000fa
:020000040040ba
:1040f800084908b501f1080000f026f9064b00212f
:104108004ff0ff3219705a6000f09efbbde808407e
:0c41180000f0a6bb4c0a4000e4bb4020b5
:020000040000fa
:020000040040ba
:1041240070b505466c68e30701d500200de0204614
:10413400fff738ff064600f06df96b68a342f1d132
:0c41440028463146fff71cfb012070bd2f
:020000040000fa
:020000040040ba
:10415000074b1968024609b90649196018680649eb
:1041600002448a4294bf1a604ff0ff30704700bf8c
:0c4170001cbc402010bd402010bf4020af
:020000040000fa
:020000040040ba
:10417c00802910db812901dd83290cd113680733d9
:10418c0023f0070303f108011160d3e90023c0e910
:0a419c000023012070470020704747
:020000040000fa
:020000040040ba
:1041a60070b5002902fb01f614460d4618bf1446e9
:1041b60001463246184608bf002400f0f8f9864248
:0a41c60018bfb0fbf5f4204670bdf1
:020000040000fa
:020000040040ba
:1041d0002de9f0410024804617460e462546bd4293
:1041e00002db2046bde8f081726856f8081b4046a5
:0a41f00000f0e2f801350444f1e7a5
:020000040000fa
:020000040040ba
:1041fa002de9f0410024804617460e462546bd4269
:10420a0002db2046bde8f081726856f8081b40467a
:0a421a0000f0ddf801350444f1e77f
:020000040000fa
:020000040040ba
:104224002de9f04104460d4616461f4600e000bf46
:1042340000f0eaf90028fad13b46324629462046e6
:08424400bde8f041fef7e2ba0b
:020000040000fa
:020000040040ba
:10424c0010b5084c2368196800f08ef8002807dbbd
:10425c0023680a20196800f019fbc00f404210bdfa
:08426c000120fbe708bd402022
:020000040000fa
:020000040040ba
:1042740090f948305a1e1343426880f8483012f0cf
:1042840004031bbf42f010024260c0e90f334ff039
:08429400ff3008bf1846704717
:020000040000fa
:020000040040ba
:10429c0010b4064b8224064846f20a4101221c60e7
:1042ac0058605df8044bd9631a6070470080004079
:0442bc0011000700e6
:020000040000fa
:020000040040ba
:1042c00030b4064b0021064a072508240420517704
:1042d00011779d621c60186030bc704700800140ff
:0442e0006cbb402053
:020000040000fa
:020000040040ba
:1042e40010b4074b4ff4867450204ff40c610a222b
:1042f4001c6018605df8044b59601a62704700bf77
:0443040000800240f3
:020000040000fa
:020000040040ba
:1043080010b584b00c46022301218df8070003aada
:104318000df10700fff782ff10b19df80d302370f3
:0443280004b010bd10
:020000040000fa
:020000040040ba
:10432c0023203d3d3d20613a2530327820643a25ea
:10433c00303278206d3a2530327820763a2530327a
:04434c00780d0a00de
:020000040000fa
:020000040040ba
:104350000fb407b5064b04aa1b6852f8041b186873
:10436000019200f0e9f803b05df804eb04b0704787
:0443700008bd402024
:020000040000fa
:020000040040ba
:1043740070b50e46054600f039fa33460446024647
:1043840001212846fff70dff001b18bf4ff0ff3037
:0243940070bdfa
:020000040000fa
:020000040040ba
:10439800054b064a586812689a6801329a601a688a
:1043a8000ab11b6818477047d8bb402010e000e0ee
:020000040000fa
:020000040040ba
:1043b80060b910b50c463ab101212046fff74ef915
:1043c8000028f9d0012010bd002010bd0020704742
:020000040000fa
:020000040040ba
:1043d800012838b5144601d0204638bd0d4621467f
:1043e8002846fff74dfd0028f9d0204638bd00bf0c
:020000040000fa
:020000040040ba
:1043f80010b5002382b060f07f048df805101a46ce
:10440800022101a88df80440fff708ff02b010bd93
:020000040000fa
:020000040040ba
:10441800064b013053f830203ab9c100a1f1080227
:104428001a44194443f830204a60704710b84020b5
:020000040000fa
:020000040040ba
:1044380068076c094c836a9074a07ac00080688809
:0e44480000846c820081286e696c29002500ba
:020000040000fa
:020000040040ba
:1044560010b50023934206d113f0030018bf0120c4
:0e44660000eb930010bdc45ccc540133f2e7b0
:020000040000fa
:020000040040ba
:10447400054b4ff480721a605a69d10703d59a69c3
:0c4484005a69d207fbd470470080024048
:020000040000fa
:020000040040ba
:1044900010b5054c0022636884f828209b69984772
:0c44a00084f82100012010bd10bb40205a
:020000040000fa
:020000040040ba
:1044ac000449054aa0fb0101d26808b50023fff7b7
:0c44bc00c3fd08bd40420f0010bb4020b3
:020000040000fa
:020000040040ba
:1044c80038b50546fef7f4ff044608b9204638bd5e
:0c44d8002846fef76dfd204638bd00bff1
:020000040000fa
:020000040040ba
:1044e4000d3d40004d3d4000013c4000c1424000b4
:0c44f4005147400029354000414740007e
:020000040000fa
:020000040040ba
:104500003948400021464000314740008148400082
:0c4510002d48400089484000354640001e
:020000040000fa
:020000040040ba
:10451c0000b583b013460a4601218df8040001a8aa
:0c452c00fff77afe03b05df804fb00bf4f
:020000040000fa
:020000040040ba
:1045380013b50446019201aafcf754fc636813f012
:0c454800100f18bf4ff0ff3002b010bd84
:020000040000fa
:020000040040ba
:1045540030b5002485b002250094cde90145fdf76e
:084564009dff05b030bd00bf52
:020000040000fa
:020000040040ba
:10456c0070b584b00424089e099d0294cde90065c1
:08457c00fdf790ff04b070bdd3
:020000040000fa
:020000040040ba
:1045840038b500f099f9034bd3e9064500f096f9e4
:08459400204638bd10bb402099
:020000040000fa
:020000040040ba
:10459c0010b50446fff768fe28b9a368e268c4e9c1
:0845ac0005331344a36210bda6
:020000040000fa
:020000040040ba
:1045b40010b4c46a1cb123465df8044b1847006864
:0845c4005df8044bfff706bf90
:020000040000fa
:020000040040ba
:1045cc000068002808b501da002008bdfff7bafd25
:0645dc00431cfad1f8e7d0
:020000040000fa
:020000040040ba
:1045e400eff3108072b6bff35f8fb0fa80f040092a
:0445f400704700bf4d
:020000040000fa
:020000040040ba
:1045f80018b1bff35f8f62b6704772b6bff35f8fb3
:04460800704700bf38
:020000040000fa
:020000040040ba
:10460c00034b186980f40070c0f34020704700bf62
:04461c0000800040da
:020000040000fa
:020000040040ba
:10462000034b00229a601a6842f001021a60704738
:0446300010e000e0b6
:020000040000fa
:020000040040ba
:10463400034b052218681a60c0f34000704700bf9e
:0446440010e000e0a2
:020000040000fa
:020000040040ba
:10464800034b00210522012099601a70704700bfb2
:04465800f0bb402053
:020000040000fa
:020000040040ba
:10465c00034b1878a0f10a00b0fa80f040097047bb
:04466c00f0bb40203f
:020000040000fa
:020000040040ba
:10467000034b1878a0f10b00b0fa80f040097047a6
:04468000f0bb40202b
:020000040000fa
:020000040040ba
:10468400034b0522d860012019611a70704700bfde
:04469400b0bb402057
:020000040000fa
:020000040040ba
:10469800034b1878a0f10700b0fa80f04009704782
:0446a800b0bb402043
:020000040000fa
:020000040040ba
:1046ac00034b1878a0f10800b0fa80f0400970476d
:0446bc00b0bb40202f
:020000040000fa
:020000040040ba
:1046c0000d47400057444000e1484000e1484000a9
:0446d000e14840007d
:020000040000fa
:020000040040ba
:1046d40008b500f0e3f8024b1860586008bd00bf4d
:0446e40004bc4020b2
:020000040000fa
:020000040040ba
:1046e80010b500239a4200d110bdcc5cc4540133ec
:0246f800f8e7e1
:020000040000fa
:020000040040ba
:1046fa00034611f8012b184603f8012b002af8d1ba
:02470a007047f6
:020000040000fa
:020000040040ba
:10470c000a440023914201d10020704701f8013b7b
:02471c00f8e7bc
:020000040000fa
:020000040040ba
:10472000014b024a1a607047000c0e40000600045c
:020000040000fa
:020000040040ba
:10473000024a136823f001031360704710e000e0a1
:020000040000fa
:020000040040ba
:1047400010b1024b18625962704700bf6cbb402029
:020000040000fa
:020000040040ba
:10475000024b0022587f5a77704700bf6cbb402045
:020000040000fa
:020000040040ba
:10476000e4444000c8bb402001000000801a06005d
:020000040000fa
:020000040040ba
:1047700008b50020fef7f4fc00f0b0f8fce700bf3d
:020000040000fa
:020000040040ba
:10478000024b072201201a70704700bff0bb402087
:020000040000fa
:020000040040ba
:10479000024b002201209a6018707047b0bb402085
:020000040000fa
:020000040040ba
:1047a000024b072201201a70704700bfb0bb4020a7
:020000040000fa
:020000040040ba
:1047b000024b032201201a70704700bfb0bb40209b
:020000040000fa
:020000040040ba
:1047c000494e4600696e66004e414e006e616e00b5
:020000040000fa
:020000040040ba
:1047d00000294ff480630cbf02220022fff780b94a
:020000040000fa
:020000040040ba
:1047e00002440346934200d1704703f8011bf9e7e6
:020000040000fa
:020000040040ba
:1047f00003461a46013311780029fad1101a70477e
:020000040000fa
:020000040040ba
:1048000008b5fff767fffff7d8f9fff7d6f908bd3e
:020000040000fa
:020000040040ba
:0e481000a0f14103192b98bf40f02000704723
:020000040000fa
:020000040040ba
:0e481e00a0f16103192b98bf00f05f007047f6
:020000040000fa
:020000040040ba
:0c482c000138014b5860704710e000e0bc
:020000040000fa
:020000040040ba
:0c483800014b186059607047d8bb40204d
:020000040000fa
:020000040040ba
:0c484400014b1860704700bf0cbc402006
:020000040000fa
:020000040040ba
:0c485000014b00221a707047f0bb4020a2
:020000040000fa
:020000040040ba
:0c485c00014b012018707047f0bb402099
:020000040000fa
:020000040040ba
:0c486800014b00221a707047b0bb4020ca
:020000040000fa
:020000040040ba
:0c48740010b50446fff73fff204610bdc2
:020000040000fa
:020000040040ba
:084880000048704700a3e1119c
:020000040000fa
:020000040040ba
:0848880000b97047fff71ebce8
:020000040000fa
:020000040040ba
:0848900000454000ff0000009c
:020000040000fa
:020000040040ba
:0848980008b5fff7b7fa08bdef
:020000040000fa
:020000040040ba
:0848a000004870478cbc402069
:020000040000fa
:020000040040ba
:0748a800286e756c6c2900fd
:020000040000fa
:020000040040ba
:0648b0000068fff791bd56
:020000040000fa
:020000040040ba
:0648b6004ff0ff307047d7
:020000040000fa
:020000040040ba
:0448bc00fff792beb2
:020000040000fa
:020000040040ba
:0448c000fff79abea6
:020000040000fa
:020000040040ba
:0448c400fee700bf4c
:020000040000fa
:020000040040ba
:0448c800fee700bf48
:020000040000fa
:020000040040ba
:0448cc00fee700bf44
:020000040000fa
:020000040040ba
:0448d000fee700bf40
:020000040000fa
:020000040040ba
:0448d400fee700bf3c
:020000040000fa
:020000040040ba
:0448d800fee700bf38
:020000040000fa
:020000040040ba
:0448dc00fbf758bcd2
:020000040000fa
:020000040040ba
:0448e00000207047fd
:020000040000fa
:020000040040ba
:0448e40000207047f9
:020000040000fa
:020000040040ba
:0448e80000207047f5
:020000040000fa
:020000040040ba
:0448ec0000207047f1
:020000040000fa
:020000040040ba
:0448f000704700bf4e
:020000040000fa
:020000040040ba
:0448f40000207047e9
:020000040000fa
:02000004d0002a
:0400000002000000fa
:00000001FF
