:020000040000fa
:020000040040ba
:10000000f0ff4520b51c4000e9424000ed424000b1
:10001000f5424000f9424000fd424000000000006f
:10002000000000000000000000000000eb2e400077
:10003000f142400000000000eb2e40004d3e400029
:10004000eb2e4000eb2e4000eb2e4000eb2e40004c
:10005000eb2e4000eb2e4000eb2e4000eb2e40003c
:10006000eb2e400000000000eb2e4000eb2e400085
:10007000eb2e4000eb2e4000eb2e4000eb2e40001c
:10008000eb2e4000eb2e4000eb2e4000351b4000d5
:10009000eb2e400095214000eb2e4000eb2e40005f
:1000a000eb2e4000eb2e4000eb2e4000eb2e4000ec
:1000b000eb2e4000eb2e4000eb2e4000eb2e4000dc
:1000c000eb2e4000eb2e4000eb2e4000eb2e4000cc
:1000d000eb2e4000eb2e4000eb2e4000eb2e4000bc
:1000e000eb2e4000eb2e4000eb2e4000eb2e4000ac
:1000f000eb2e4000eb2e4000eb2e4000eb2e40009c
:10010000eb2e4000eb2e4000eb2e4000eb2e40008b
:10011000eb2e4000eb2e400000000000000000002d
:10012000eb2e4000eb2e4000eb2e4000eb2e40006b
:10013000eb2e4000eb2e400000000000eb2e4000b4
:10014000eb2e4000eb2e4000eb2e4000eb2e40004b
:10015000eb2e4000eb2e4000eb2e4000eb2e40003b
:08016000eb2e4000eb2e4000e5
:020000040000fa
:020000040040ba
:10016800f8b500bff8bc08bc9e467047ed374000a4
:10017800f8b500bff8bc08bc9e467047c9374000b8
:020000040000fa
:020000040040ba
:080188002c130000010000002f
:020000040000fa
:020000040040ba
:10019000140840201c0000000000000070074020f0
:1001a0002c00000000000000880840200100000032
:1001b000000000009c0740202c0000000000000010
:1001c000540840200c00000000000000c807402038
:1001d0002800000000000000400740203000000020
:1001e0000000000014064020a000000000000000f5
:1001f0000a0a402002000000010000000100000087
:100200007408402004000000000000004408402062
:100210001000000000000000f00740202400000053
:1002200000000000600840200c00000000000000fa
:10023000040740203c00000000000000300840207f
:100240001400000000000000d80a40205000000008
:1002500001000000ff0112401711184319001a4b4a
:1002600032094fca50a85a236d00391235da221ac2
:1002700037c3230034c0361a068807c00d870e41e5
:100280004c00ff00e004c064c14b8635508951c862
:10029000529653005400550057005a505b3c5c0086
:1002a000e000ffff8c0840207e01000001000000fc
:1002b000ff002cff2edfff013c3211000902042851
:1002c00013e514482c0c33783a333bfb3e004311c2
:1002d0001610399235da221a37c3230034c0361a81
:1002e000068807c00d870e414c0048005b004203a2
:1002f0004a8121992440253826825c006300617080
:1003000062807c05208028306c006d806e00700259
:10031000719473c112401711184319001a4b320916
:1003200037c04f6050a86d003d38463f4f600c3cd1
:10033000ff00e57ff9c04124e01476ff33a042209e
:1003400043184c0087d5883fd703d910d382c808fb
:10035000c9807c007d007c037d487d487c087d2031
:100360007d107d0e9000910e911a9131915a9169f4
:100370009175917e9188918f919691a391af91c43f
:1003800091d791e891209200930693e3930593050a
:1003900093009304930093009300930093009300c1
:1003a00093009600970897199702970c9724973017
:1003b0009728972697029798978097009700c3ed04
:1003c000a400a800c511c651bf80c710b666b8a565
:1003d000b764b97cb3afb497b5ffb0c5b194b20ff1
:1003e000c45cc064c14b8c00863d500051c852961d
:1003f0005300540055005ac85b965c00d300c3ed0f
:100400007f00da00e51fe167e000dd7f05001240b4
:10041000d304c016c1128c00863d5000512c5224ca
:100420005300540055005a2c5b245c00ffff000071
:100430005c0b40201200000001000000e014e17796
:10044000e51fd703da10e000ff010408ffff0000fa
:10045000480b40201400000001000000ff000500d0
:10046000da10d703df0033803c40e1770000ffff64
:10047000780840200400000000000000b40640207e
:1004800050000000000000000c0a40206c0000003a
:1004900001000000180a4020140a4020180a4020d9
:1004a00000000000250000000800402000040000bb
:1004b000000000000000000000000000000000003c
:1004c000000000000000000000000000000000002c
:1004d0000943400000000000000000000000000090
:1004e0000000000045324000000000000000000055
:1004f00000000000000000000000000000000000fc
:10050000000040200804000000000000280b4020ec
:1005100020000000010000000100000003000000b6
:1005200000000000000000000000000000000000cb
:10053000000000006c0840206c084020080000000b
:10054000000000007c0840200400000000000000c3
:10055000080440200c02000000000000780a40203f
:100560006000000001000000010000000300000026
:10057000000000000000000000000000000000007b
:1005800000000000153440000000000000000000e2
:1005900000000000d5424000173640000000000077
:1005a000000000000000000000000000000000004b
:1005b000000000000000000000000000000000003b
:1005c000000000000000000080084020080000003b
:1005d0000000000000000000000000006666666683
:020000040000fa
:020000040040ba
:1006a0002de9f04f2ded0a8b1d4692ed008bd1e91f
:1006b0000073b5eec08b8bb0f1ee10fa02930b69ac
:1006c0000690d1f808800593cc6806d4790731d418
:1006d00017f0080630d0202302e02d23b1ee488b1e
:1006e000237008f1ff39012618ee903adff870b355
:1006f00018ee100a23f000414ff0000a594508bfd8
:1007000050451bd1413d192d04eb060094bfd04943
:10071000d04903f0b9fdcf4803f070fd00970246c1
:1007200043462146069802f0aefa0bb0bdec0a8ba8
:10073000bde8f08f2b23d3e7c146d5e78b45a5f164
:10074000410308bf8245039309d2192b04eb06002d
:1007500094bfc149c14903f097fdc048dce730228e
:10076000a255b5ee408b039ab7ee009b1a2a06f10c
:10077000010334bf58227822f1ee10fae25406f158
:100780000206a9f102094ff0000a40f0de80b0ee47
:1007900049bbb0ee48cb029b9feda7ab002bb8bf87
:1007a00018234ff0000b8cee0b0b079301f048ff62
:1007b0000bf101030493029b00ee4bcb002b2beebd
:1007c0000abb079b04dab5ee40cbf1ee10fa04d079
:1007d0005b4500f3dd8001330493b2ee007b2bee2a
:1007e000077bb4eec7cbf1ee10fa00f1d480b4ee83
:1007f00047cbf1ee10fa09d1bdeec00b9fed906b27
:1008000010ee103a13f0010f06fe077b38ee078b4f
:1008100018ee903a23f00041914b18ee100a002296
:10082000994208bf90423ff46daf4ff0000b354640
:1008300059465b4605980538a8422a461fd988eed6
:10084000090bcde90831079201f0fafefdeec07bfd
:10085000b0ee40bb17ee900adde9072309990028a6
:1008600040f09c80002b00f099800bf1010b049a62
:100870000bee498b01339a4229ee0a9bdad1d1b9aa
:10088000bbf1000f00f0ce80029b002b40f3ca802a
:10089000fa0700f1c78063192e221a700beb0502cc
:1008a0002244302103f8011f9a42fbd15d446fead4
:1008b0000b0b0135d944059b059900226019013bba
:1008c00092450270c1f1020ee254bcbfcaf1000aa7
:1008d00001220a21baf1000f40f093800eeb030cc5
:1008e000bcf1010f00f08d80002a03f1ff3114bf2d
:1008f0002d222b226254039a023b1a2a04eb030195
:1009000034bf502270229d420a7001da03f0bcfc11
:1009100007f00303022b12d1a9f10209b9f1000f6c
:100920000ddd204603f06afc04eb0903b04275dae2
:100930004a463021a01903f059fc4ff00008204628
:10094000eae60af1010ab0ee479b39ee097bb4ee04
:10095000c78bf1ee10faf4d5b6ee007bb0ee475b34
:100960009fed396bb4eec98bf1ee10fa7ff50faf46
:1009700029ee074bb5ee404bf1ee10fa04bf29ee1d
:10098000069b28ee068b29ee059b0af1ff3ae9e764
:10099000ddf810b007e79fed2a7b37e731b92bb1bf
:1009a0002e21a154013509f1ff39012104eb0b027d
:1009b00004eb050c2a444ff0300e01e00cf801eb7b
:1009c0009445fbd105eb0b02039d0928d4bf3030c1
:1009d0005730192da9eb0b090cd840f02005613dcb
:1009e000192d07d8cde90812079303f02efcdde995
:1009f0000812079ba054551c09f1ff394ff0000b5a
:100a000035e7bafbf1fc013b01fb1caa0af1300af5
:100a100004f803a009f1ff39e2465be7225c1a54af
:100a2000013883e7fb067ff546af2e23635501357a
:100a300041e700bfaff30080000000000000b03fbe
:100a40000000000000000000000000000000504313
:100a50001c42400020424000244240002842400006
:040a60000000f07f23
:020000040000fa
:020000040040ba
:040a64000163704773
:020000040000fa
:020000040040ba
:100a68002de9f04f2ded0a8b92ed00ab8fb0b5ee6e
:100a7800c0ab04938b680393f1ee10fa0b690690f0
:100a88008a46d1e900750793cc6806d47a0732d430
:100a980017f0080631d0202302e02d23b1ee4aab2f
:100aa8002370039b012603f1ff3b1aee903adff80f
:100ab80064931aee100a23f000414ff000084945ec
:100ac80008bf40451cd1049b413b192b94bfcc491e
:100ad800cc49a01903f0d4fb204603f08bfb009708
:100ae8000246039b0698214602f0c9f80fb0bdecf8
:100af8000a8bbde8f08f2b23d2e7ddf80cb0d4e7e2
:100b0800894508bf804508d2049b413b192b04eb5b
:100b1800060094bfbc49bd49dce7b5ee40abf1ee39
:100b280010fab2ee04cbb7ee009b4ff0000818d1d4
:100b3800049803f07ffb002dc0b2c0f26d816728d6
:100b48002dd1002d08bf012518f1040f02dba8459f
:100b5800c0f244814ff0650933e008f10108b0eeb6
:100b6800479b29ee0c7bb4eeca7bf1ee10faf4dd5c
:100b78000023a74a9fed9e7b0be0904505da23b939
:100b88002aee07ab29ee079b012308f1ff3889ee0f
:100b98000c9bb4eec9abf1ee10faeed4c8e781466f
:100ba800b9f1660f05f101050bd1b8f1000f03dab1
:100bb800b7ee009b4ff00008672818bf45444ff078
:100bc80066090023b0ee498bb0ee4abb8bee080bea
:100bd8000893059001f030fd089b90ee08bbfdeef0
:100be800c07b01339d4217ee902ab1ee4bbb88eed5
:100bf8000c8b0598ead1b1ee047b28ee078bb4ee96
:100c0800c8bbf1ee10fa73d4b4ee48bbf1ee10fa9b
:100c180005d19fed796b12f0010f06fe088b3aeeb5
:100c2800088b29ee0cabb4eec8abf1ee10fa62d823
:100c3800b9f1660f08f101085fd1013541464b1b38
:100c480000220a93354605920a9b994240f0828019
:100c5800059b002b00f0ab8060190022b9f1650fed
:100c680002702dd1079b0799013b9045e254c1f1d1
:100c7800030ebcbfc8f1000801220a21b8f1000f19
:100c880040f09b800eeb030cbcf1000f00f3958045
:100c9800002a03f1ff3114bf2d222b226254049a3b
:100ca800023b413a192a04eb030198bf4ff045096a
:100cb8009d4281f80090abf1020b01da03f0e0faf3
:100cc80007f00303022b7ff407afbbf1000f7ff798
:100cd80003af204603f08efa04eb0b03864279dd5e
:100ce8005a463021a01903f07dfa00230393f3e656
:100cf8009fed418b93e7b0ee49abb9f1650f14bf97
:100d0800414600219be7059b5bb9002909da089b4e
:100d18004ff02e0c04f803c0012301350bf1ff3b03
:100d2800059304eb020c6319ac444ff0300e01e05c
:100d380003f801eb9c45fbd1099b02eb050cabebdf
:100d4800020b30330cf1010504f80c300bf1ff3bba
:100d5800002224e0daf810300895053bab427ff614
:100d680077af88ee0a0bcde90c200b9101f064fcfb
:100d7800fdeec07bdde90b1217ee903a092ba8bff8
:100d8800092317ee90ca099307f0100353ea0c03de
:100d98000d98b8d16728b6d10029c2da01329aee87
:100da800008b0139b1ee488b8aee0cab4ce7fb06a1
:100db80042bf2e23635501354ee7b8fbf1fc013bda
:100dc80001fb1c8808f1300804f803800bf1ff3b95
:100dd800e04653e7225c1a5401387fe7b8f1000f68
:100de800bff6edae4ff06609dae60625ace600bfc1
:100df8000000000000005043000000000000000058
:100e08002c4240003042400034424000384240000a
:100e1800d4feffff0000f07f6728e6d08146062554
:040e2800bee600bf63
:020000040000fa
:020000040040ba
:100e2c00f0b5ae4d85b02b780a2b3ad8dfe813f02d
:100e3c0041004e0071007900a300ab00c000d60049
:100e4c00ec0000013b000a239df80a20a448012471
:100e5c0019468df80c3002f0cfff0df10a02234633
:100e6c003021009203aa0194686803f0a7f80646a3
:100e7c0003469df80a209df80c109a4802f0bcff1e
:100e8c00002e00f025819df80a10262900f04881db
:100e9c00954802f0b1ff9549642002f067fb0223ec
:100eac002b7005b0f0bd686802f00efe01232b73a9
:100ebc00f7e70321002001f01ffc6860013000f00f
:100ecc000181002201232a612b70eae72b6955204e
:100edc00aa215a1c052b8df80a008df80b102a61db
:100eec0000f3ca8040f2ff130122ff218048adf8c5
:100efc000c3002f081ff03aa02233021686803f052
:100f0c0051f800289fd17b4802f02aff0b232b704d
:100f1c00c7e7a86803f00ef80028c2d001232b7095
:100f2c00bfe740f2ff130122ff217148adf80c30ee
:100f3c0002f062ff03aa02233021686803f032f842
:100f4c00002800f0938048f2120380221221684896
:100f5c00adf80c3002f050ff03aa02233021686870
:100f6c0003f020f8002840f0a280634802f0f8fe5d
:100f7c000b232b7095e7a86802f0dcff002890d0bb
:100f8c000a232b708de75d4c0b2704f5bf7605e02b
:100f9c0000bf06232b700234a64282d002232246c5
:100fac003021686802f0feff0028f1d12f70f2e7c3
:100fbc00534c0b2704f1140606e000bf07232b70db
:100fcc000234a6423ff46daf0223224630216868fa
:100fdc0002f0e8ff0028f0d12f70f1e7494c0b2705
:100fec0004f1120606e000bf08232b700234b44251
:100ffc003ff457af022322463021686802f0d2ff3b
:10100c000028f0d12f70f1e740f2ff130122ff21ed
:10101c003748adf80c3002f0effe03aa0223302162
:10102c00686802f0bfff68bb0b232b7000bf38e76a
:10103c000b23354c1f4604f150062b7005e000bf06
:10104c000a232b700234b44209d0022322463021e9
:10105c00686802f0a7ff0028f1d12f70f2e700bffb
:10106c002b780a2b2ad00b232b701ae7274802f077
:10107c0077fe0b232b7014e7254802f071fe0b232f
:10108c002b700ee700bf1523002219481946adf846
:10109c000c3002f0b1fe03aa68680223302102f082
:1010ac0081ff0028c0d000bf09232b70bee70f4979
:1010bc00642002f05bfa04232b70f2e6154802f070
:1010cc004ffeeee6144802f04bfe0b232b70e8e6c5
:1010dc00124802f045fe0b232b70e2e6300840204c
:1010ec00f81740003418400084184000380840209d
:1010fc00a0174000d0174000341940008c08402045
:10110c00480b40205c0b4020d80a40200c194000b2
:10111c008c17400060194000701740007018400098
:10112c000b269df80b20194831468df80c6002f007
:10113c0063fe0deb06012346019403aa0091686837
:10114c00302102f03bff044603469df80b209df82e
:10115c000c100f4802f050fe6cb19df80b20a2f160
:10116c004003022b0cd89df80a100a4802f044feea
:10117c0003232b7095e6084802f0f2fd2e7090e6e2
:10118c001146064802f038fe85e600bff81740000d
:10119c0034184000e0184000a8184000bc1840006b
:020000040000fa
:020000040040ba
:1011ac002de9f041aeb0064615460591002705998c
:1011bc000b78002b00f0fa8000244ff0ff33cde9c0
:1011cc0009430eab0c9380230b940d930b5d0bb169
:1011dc00252b26d134b12246304602f0cdfb059b9f
:1011ec0023440593059b1a78252a40f0d78003f1f8
:1011fc000108cdf81480059803782b2b1ad025d82c
:10120c00202b1bd0232b1dd02a2b27d002f06efabb
:10121c000b90059b1a78303a092a2ed80133059386
:10122c00f7e70134d2e7099b43f00103013009933e
:10123c000590e0e7099b43f00403f7e7099b43f0b3
:10124c000803f3e7099b43f01003efe72d2bead0db
:10125c00302bd9d1099b43f00203e7e72b681a1d09
:10126c001b682a600130002b05900b9305da099a54
:10127c005b4282f0010209920b93099bda0744bf8f
:10128c0023f002030993059b1a782e2a0dd1002214
:10129c00581c0a9205905a782a2a25d102330593b4
:1012ac002b681a1d1b682a600a9305a802f0d6fb4e
:1012bc00059b0390187802f0bbff6928039979d03d
:1012cc0032dc632800f0cb8019dc252800f0d980b3
:1012dc00612853d000234ff0ff32cdf814800993ce
:1012ec000b930a920093d4e002f000fa0a90059b4b
:1012fc001a78303a092ad8d801330593f7e76428cd
:10130c0058d06728e6dc2a4606a802f0ebfc002839
:10131c0000f0a180059b5a1c05921b7806aa09a90e
:10132c003046fff79bfb38e0702873d015dc6e2835
:10133c0000f08c806f28cdd12b46002206a801f03e
:10134c008dfa002800f08780059b06aa013309a9b5
:10135c003046059301f0fefd1fe075283ad0782841
:10136c0048d07328b6d1802975d1059b2a680133e2
:10137c000593131d2b60126800237de02a4606a8f6
:10138c0002f0b0fc002866d0059b5a1c05921b7815
:10139c0006aa09a93046fff77df904443c44a7424c
:1013ac007add3e4b4f221a604ff0ff3738462eb095
:1013bc00bde8f0812b46012206a801f04ffa002867
:1013cc0049d0059b06aa013309a93046059301f0c3
:1013dc009bfae2e72b46002206a801f03ffa002810
:1013ec0039d0059b06aa013309a93046059302f0b2
:1013fc0091f8d2e72b46002206a801f02ffa50b341
:10140c00059b5a1c05921b7806aa09a9304600f0c8
:10141c00a5fdc2e72b460022f02106a801f01efa1a
:10142c00c8b1059b01330593dde9062313430bd1aa
:10143c001b4802f0ddfe099b009319490b9b0246e9
:10144c00304601f01afca8e77823dde72b463a1961
:10145c0006a801f052fc059b013305939ee78029f9
:10146c00f9d1059b013305932b681a1d1b682a6063
:10147c008df8183006aa012309a9304602f01ef88f
:10148c008be78029e7d1059b01330593099b0093da
:10149c000b9b04490122d3e7274688e680084020ad
:0814ac00e23e4000e83e400072
:020000040000fa
:020000040040ba
:1014b4002de9f04f099f154604468e461e46002b23
:1014c40040f0cc808a42b2fa82fc4cd9bcf1000fc5
:1014d4000bd0ccf1200801fa0cfe20fa08f802fa2d
:1014e4000cf548ea0e0e00fa0cf44fea15491ffaff
:1014f40085f8befbf9fa210c09fb1ae30afb08fb89
:1015040041ea03439b452ad9eb180af1ff3004d280
:101514009b4502d9aaf102002b44a3eb0b03a4b20e
:10152400b3fbf9f209fb123302fb08f844ea034463
:10153400a04516d92c1902f1ff3303d2a04501d9d5
:10154400931e2c44a4eb080443ea004027b124fa78
:101554000cf400233c607b603146bde8f08f5046bc
:10156400dbe71346eee702b9ffdebcf1000f2ed134
:101574008b1a01264fea154eaab2b3fbfef8210cd2
:101584000efb183308fb02f941ea0343994561d97c
:10159400eb1808f1ff3004d2994502d9a8f10200f2
:1015a4002b44a3eb0903a4b2b3fbfef10efb1133ee
:1015b4004a4344ea0344a2424ed92c1901f1ff33b1
:1015c40003d2a24201d98b1e2c44a41abce7ccf14d
:1015d400200e02fa0cf521fa0ef901fa0cf320faa6
:1015e4000efe4eea03034fea154800fa0cf4b9fb69
:1015f400f8f11ffa85fe08fb1192180c01fb0ef698
:1016040040ea0242964221d9aa1801f1ff3003d2de
:10161400964201d9881e2a44921b9bb2b2fbf8f968
:1016240008fb192209fb0efe43ea02439e450fd92b
:10163400eb1809f1ff3604d29e4502d9a9f102063e
:101644002b44a3eb0e0346ea004693e70846e3e780
:101654004e46f6e74046a4e70b46b6e78b4206d96a
:10166400002f7ed00026c7e90001304674e7b3faa4
:1016740083fcbcf1000f0fd18b4201d3824209d805
:10168400841a61eb030e0120002f6dd0c7e9004ed0
:10169400002661e76046f7e7ccf1200e03fa0cf36d
:1016a40022fa0ef521fa0ef41d4301fa0cf320fa86
:1016b4000ef10b434fea154a00fa0cf6b4fbfaf9a3
:1016c4001ffa85f80afb19401c0c09fb08f144eacf
:1016d4000044a14202fa0cf23fd92c1909f1ff305f
:1016e40004d2a14202d9a9f102002c44641a9bb28b
:1016f400b4fbfaf90afb194409fb08f843ea04416c
:1017040088452cd9691809f1ff3304d2884502d9d8
:10171400a9f10203294443ea0040a1eb0801a0fb1c
:1017240002894945c2464c4602d306d1464504d2f5
:10173400b8eb020a69eb05040138afb1b6eb0a0352
:1017440061eb040606fa0efe23fa0cf34eea0303d9
:1017540026fa0cf6c7e900369ae74846c6e74b4630
:0c176400d9e73e463846f7e63e46f5e67b
:020000040000fa
:020000040040ba
:10177000636f756c64206e6f74206f70656e2049a6
:101780003243206472697665720d0000746f6f20b9
:101790006d616e7920726574726965730d00000069
:1017a0004150505f4f56323634305f53454e534fa1
:1017b000525f57726974655f5265672830782530cb
:1017c00032782c20307825303278290d0a0000003c
:1017d000636f756c64206e6f742077726974652016
:1017e0004f56323634305f4445565f4354524c5f57
:1017f0005245470d000000004150505f4f563236b1
:1018000034305f53454e534f525f526561645f52af
:1018100065672830782530327829206f6e20656e14
:101820007472792c2064617461203d2025303278f7
:101830000d0a00004150505f4f56323634305f532e
:10184000454e534f525f526561645f526567283061
:10185000782530327829203d3e20253032782c20e2
:1018600073756363657373203d2025640d0a000062
:10187000636f756c64206e6f74207265616420768e
:1018800069640d00766964206d69736d61746368c5
:10189000202830782530327829202d207265747206
:1018a00079696e670d0a0000636f756c64206e6f56
:1018b000742072656164207069640d007069642031
:1018c0006d69736d617463682028307825303278d3
:1018d00029202d207265747279696e670d0a0000e7
:1018e0005665726966696564204f56323634302019
:1018f0007669643a706964203d203078253032780a
:101900003a3078253032780d0a0000004661696c63
:10191000656420746f207772697465204f56323683
:1019200034305f4445565f4354524c5f5245470d37
:10193000000000004661696c656420746f20777256
:10194000697465204f56323634305f4445565f43e4
:1019500054524c5f5245475f434f4d370d000000d6
:101960004150505f4f56323634305f53454e534fdf
:10197000525f5461736b3a204f56323634302069cf
:10198000732052656164792e2e2e210d000000bf58
:020000040000fa
:020000040040ba
:101990002de9f04f85b0019001a801f095ff0028d6
:1019a00003da002005b0bde8f08f019b1b095d1e26
:1019b000202d0fd9023b5b4ab3f5007f35bf02eb08
:1019c000d30302ebd31313f8045c13f8045c34bfa5
:1019d000013511350123a5f12001c5f1200203fadb
:1019e00001f923fa02f203fa05f849ea0209d8f1eb
:1019f00000084d4f69eb4909d7e9002302ea080abc
:101a000003ea090b5aea0b0342d1019b03a81033e6
:101a1000039302f021fb18b9444b0c221a60c1e772
:101a2000d7f80852a84206d0039b103b039301232a
:101a300000f110058360039bea18012143f00103c4
:101a4000b5f1080442f8083c42f8041cc7f8082223
:101a500045f8043ca5d0204602f06cf888b155f852
:101a6000083c55f8041c23f00103e31a5a6822f0dd
:101a700001020a445a6055f8041c21f00101625029
:101a80001c462046019902f00bf804f1080089e792
:101a90005046244a264bbaf1000f34d1cbf1000155
:101aa00001ea0b014b4302ebd36393f83c60203611
:101ab000304602f0fbf9731c57f8334007ebc303c1
:101ac000083b9c4298d0272e26dd0235ae4201dc31
:101ad0003f2e21d16168019a21f001018d1a28461b
:101ae00001f0a6ff864217d1a318e068a668d86067
:101af0009e608360986842f00102c360c3e90025dc
:101b000065506260bde7caf1000101404b4302eb42
:101b1000d36393f83c60cbe73146204601f01efcce
:101b2000afe700bfb83340000804402080084020e1
:041b300029e66b0730
:020000040000fa
:020000040040ba
:101b34002de9f0415c4b5d4c656a1b6ada0503d5ff
:101b4400ff2101222177627713f0010106d0564a62
:101b54000827042607201760166090629f0501d5a8
:101b640001222277627ff2b9227f52b2013a032a1c
:101b740019d8dfe802f0474e02425e0713d56369c5
:101b8400e2682169013a9a4201d1002971d1e268df
:101b9400591c013a9a425ed06068434ac35c53635d
:101ba400414b61611b6a237fff2b16d0237f052bda
:101bb40001d0bde8f0813c4b002207260820042117
:101bc400627722779e6218601960236a002bf0d036
:101bd400236a2846bde8f04118470022324b07200b
:101be400082122770422986219601a60236a002b64
:101bf400dcd0236a28469847d8e70029d3d00523a8
:101c04002377d0e7e3682088a3b1002100f042fce9
:101c1400c9e79a07c7d5a3692269023a9a420dd047
:101c240021495a1c0f6ba6682069f754904209d0c9
:101c3400a261b8e7012100f02dfcb4e71a4a0221a1
:101c44001160ede702238b620b6adb074cbf0523af
:101c540004232377ece762680220d65c0422124b4b
:101c64005e6318609a621b6ad8071bd50523237725
:101c740096e772b60c4a042102209162591c6668e8
:101c8400f35c53632077536843f4805353602369b0
:101c9400012b0cbf03230123136062b6024b032202
:101ca4005a627de722777be700800140c807402025
:020000040000fa
:020000040040ba
:101cb40008b54f4b98474f4b9847eff3108172b6d6
:101cc4004d4ad2f8883043f47003c2f88830bff329
:101cd4004f8fbff36f8f01b962b6484b484a5a60c1
:101ce4009a6812f0010ffbd0444bdb6813f4c07ff9
:101cf40013d0444b0c221a60404b434a5a609a68f2
:101d040012f0010ffbd03d4b404a5a609a6812f022
:101d1400010ffbd03e4b3f4a1a60bff34f8fbff316
:101d24006f8f354cd4f8903223f00103c4f890320d
:101d3400d4f8943223f00103c4f89432bff34f8fe4
:101d4400bff36f8f01f066fc334b23f07f03a36076
:101d5400324b9847636913f4003f12d1bff34f8f9e
:101d6400bff36f8f0022c4f85022bff34f8fbff32d
:101d74006f8f626942f400326261bff34f8fbff329
:101d84006f8f1d4b5b6913f4803f29d11a4b0022de
:101d9400c3f88420bff34f8fd3f88030c3f3c90650
:101da400c3f34e335a0143f6e075134802ea0504bf
:101db400334644ea8371c0f86012013bb3f1ff3f3c
:101dc400f7d1203a12f1200ff0d1bff34f8f0a4a16
:101dd400536943f480335361bff34f8fbff36f8f65
:101de4000f4b98470f4b984702f0e6f9fee700bf08
:101df400832d4000832d400000ed00e0000c0e40d8
:101e04000d00005a740840200c08005a0c07005ab0
:101e140000180e40010000a50000400001334000fe
:081e2400832d4000832d4000d6
:020000040000fa
:020000040040ba
:101e2c0000f1ff3c2de9f0471cf1030f82b09df847
:101e3c0030501fd8c0f30724e4b91f461646894614
:101e4c0001f0a2fe8246a8b1012d19d0b6fa86f394
:101e5c005b09002f08bf0123082d18bf022d0cbff2
:101e6c00012000200ad12bb9daf8008098f829302b
:101e7c00012b11d0002002b0bde8f087002bfad165
:101e8c000b9b002bf6d00a9b002bf3d0daf80080ca
:101e9c0098f82930012bedd10021d8f81800d8f88a
:101eac00103088f82910daf80c208af805109042c6
:101ebc00c8f824a009d05b690af10c009847daf83d
:101ecc000c20d8f81030c8f81820022d2ed0042d74
:101edc0010d0012d1ad01b6998478af805009af882
:101eec00053003f0ff004bbb88f82800012388f86d
:101efc002930c0e70b9a3146484600923a469c6816
:101f0c000a9ba04748b9d8f81030e4e71b6848464c
:101f1c00dde90a1298470028f5d002f0dbf998f8b1
:101f2c002b4084b902f0d8f92046dfe75b683a46cb
:101f3c003146484698470028efd1e4e701230020ba
:101f4c0088f82830d2e7013c88f82b4002f0c4f91d
:0c1f5c0098f82800b0fa80f04009c7e7b0
:020000040000fa
:020000040040ba
:101f68002de9f04f0e4649683568d6f80890f768ad
:101f78008bb0cde903230029acbf25f00205012170
:101f880015f010030593039b8346d3e900232fd054
:101f980052ea03002cd0a9f10208346915f00800b0
:101fa80004f1ff3408904ff00000385518bf08f1cd
:101fb800ff388a46012c1ddc059b002b54d1089b59
:101fc80013b1013c20233b5532690095013a4b4639
:101fd800121b3919584600f052fedbf80430db05b5
:101fe80003d573689842b8bf18460bb0bde8f08fa8
:101ff800c846d2e752ea030009d1baf1000f06dc5d
:10200800a8eb010050440028d6dda807d4d502f07b
:102018000f000928d4bf00f1300e00f1570e0498c4
:10202800a0f1410cbcf1190f04f1ff3410d84ef0a7
:10203800200cacf1610cbcf1190f09d8704609915c
:10204800cde9062302f0fdf8dde906230999864665
:10205800100940ea03704fea131c07f804e00af17c
:10206800ff3a02466346a5e7039bd3e9000150ea1d
:102078000103a4d03a19049b02f8013c023c302326
:042088003b559ce741
:020000040000fa
:020000040040ba
:10208c0000223c483c494ff0ff336ff0100cf0b489
:10209c00c0f8142141f21004d0f814516ff40676f4
:1020ac006ff4e0072c43354dc0f814414ff406741f
:1020bc004d601020324d0d604ff4e0054b650e66ff
:1020cc006ff020664c664ff02064c1f89030c1f878
:1020dc00a0300a614b618a6301f5007141f8e82c6c
:1020ec000867486748602748c1f800c04b650b6615
:1020fc00c1f89030c1f8a0300a614b618a63c1f815
:10210c001821036043650366c0f89030c0f8a03016
:10211c00026143618263c0f81821c1f87054c1f8a0
:10212c007424c1f80454c1f80074c1f85434c1f8d3
:10213c006034c1f89034c1f8a034c1f81044c1f82f
:10214c001464c1f83844c1f81825c0f80034c0f83c
:10215c005434c0f86034c0f89034c0f8a034c0f8df
:10216c001024c0f81434c0f83824c0f81825f0bc7a
:10217c00704700bf00800840000e0e401800200081
:08218c00e7ffdfff00120e4027
:020000040000fa
:020000040040ba
:10219400f8b53e493e4bca6b58690c6902f0f0022f
:1021a400e5070ad58c68d968814205d9411c5d6868
:1021b400002a52d12c540846586134490c69a407aa
:1021c40012d4344d2a781ab9f8bd01229c612a70c0
:1021d4002e4a1169890502d5d968814242d02b4b18
:1021e4004ff400725a61f8bd02248c619c6952b9a3
:1021f4009a68a2422cd81a6982b1ff22ca601a696d
:10220400013a1a610ae09a68a2421bd81a692ab1f3
:102214004ff6ff72ca601a69013a1a619a681d4d35
:102224009442196901d10029cfd0d9682a78814212
:1022340004d11649012702268f614e619c61002a50
:10224400c2d0c5e71a6832f814200134ca60e5e741
:102254001a68125d0134ca60e0e725f810400846a8
:102264005861aae700214ff0807440f20320146003
:10227400197790611a6a2970002aa5d0586a1b6ad6
:1022840098472b78002baad19ee700bf008000401e
:082294009c074020880840204f
:020000040000fa
:020000040040ba
:10229c0070b43e4c257f002d2fd1064600292fd03f
:1022ac0000282dd005f0ff00266062606061a061ff
:1022bc002061a160002a51d0e3600121344a2177ca
:1022cc009268a268e1688a4202d2e168891a2161a7
:1022dc002f49c86b10f0f00f25d1a06982423fd96d
:1022ec0022681278ca60a2690132a261002b2fd039
:1022fc000120274b586170bc7047002070bc7047a0
:10230c00151c18bf0125002b14bf284600200028df
:10231c00f4d00020266062606061a0612061002e14
:10232c0031d1a660c8e7a2685208a260226952089f
:10233c002261e2685208e260a068a269904218d952
:10234c0022681288ca60a2690132a261002bcfd127
:10235c000f4b022201205a6170bc7047e260ace75f
:10236c002269002ac2d0ff22ca602269013a226186
:10237c00bce72269002ab9d04ff6ff72ca60226905
:10238c00013a2261b2e7a16096e700bf9c074020aa
:04239c00008000407d
:020000040000fa
:020000040040ba
:1023a0002de9f84300286ad050f8043ca0f1080455
:1023b00023f00107e6193268934200d0ffde72680d
:1023c00023681340da070fd4204601f0b3fb00283e
:1023d00057d1304601f036fc0028f0d0736823f066
:1023e00001031f441e44eae747f0010363603846d7
:1023f000336001f01dfb054601f058fd236872684b
:102400001340db07e0d5dff88ce0dee90089c5f199
:10241000200ca5f1200228fa05f009fa0cfc29fa93
:1024200002f240ea0c001043012100ea01020023fd
:102430001343c5f120007346a5f1200212d121fa01
:1024400000f001fa02f2a94042ea00021ebfdef8e3
:1024500000000143cef8001022b1def804100a4358
:10246000cef80420681c03ebc003a3f108026760e8
:102470003760a2605a68e2605c60e3689c60bde817
:10248000f883236823f00103e41a636823f001034f
:082490001f449ee708044020f0
:020000040000fa
:020000040040ba
:102498007f2830b44ad90302324ac0b203f4fe039b
:1024a80043f480735360d0602f4b00225a619a61c5
:1024b80049bbda68012a40d003222a4901200524b1
:1024c8001a775a6812784a635a6902445a614c6208
:1024d80030bc704772b65968224a08781146506372
:1024e8005a6901325a610a6a12f0050ffbd10a6a69
:1024f800510708d44ef660201a4901e001382dd062
:102508000a6a5207fad5022216491a774a6842f42b
:1025180080524a601b69012b0cd001230b6062b604
:10252800104b032201205a6230bc704700040d4b47
:102538005860b9e703230b60f1e719690029c9d18d
:1025480004240849022510461c775c6824784c63eb
:102558005c6901345c610d604a62e5e702225a77e2
:0c25680062b6e1e700800140c807402097
:020000040000fa
:020000040040ba
:102574002de9f0432d4c85b0074694f820009df8d2
:10258400308098b994f82800012805d04ff0ff3521
:10259400284605b0bde8f083cde90223019101f09e
:1025a400bffc039bdde901120028efd094f9000081
:1025b400022811d04ff0ff35636894f821005b695d
:1025c400984794f82030002be2d10123284684f860
:1025d400283005b0bde8f0830029ebd0b942e9d337
:1025e4000025134e307820b101352036052df9d160
:1025f400e0e7dff840c0cf1b30754ff6ff7ebcf834
:102604000090707509f10100b760012745ea09459a
:1026140080b286f802807160704508bf3846f56163
:102624003780acf80000c6e90323c5e74007402023
:08263400140640200a0a4020b0
:020000040000fa
:020000040040ba
:04263c00416370473f
:020000040000fa
:020000040040ba
:1026400053ec102bc3f30a512de9f04140f2fd7019
:102650004e1e86421d4644d8a1f2ff30002835dbcd
:10266000332831dc264bc0f120084ff0ff3c03fa41
:1026700008f2a1f21f412cfa00fc10ee104a4ceabd
:10268000020c23fa01f24cea020c23fa00fe04eadf
:102690000c0605ea0e0724ea0c0256ea070425eaae
:1026a0000e030fd0002a73f100040bda4ff48015eb
:1026b00005fa08f425fa01f10c43121925fa00f085
:1026c00040eb030343ec102bbde8f0819fed0a7b48
:1026d000bfee000b002a73f1000327fe000bbde8dc
:1026e000f0810029f0d10a4603f0004343ec102b9f
:1026f000eae700bfaff30080000000000000000028
:04270000ffff0f00c8
:020000040000fa
:020000040040ba
:1027040050b92b4b93f90d20022a05d11a7b1ab12b
:1027140093f82a20012a02d04ff0ff3070471a782c
:1027240083f82a00002a3dd1f0b45f6887b99e6817
:1027340086b1da699079a8b102f11004002001e0b1
:10274400957975b1013022461034b042f8d101e0d8
:102754000807ecd501224ff0ff3083f82a20f0bca3
:102764007047c0b25d690124117100260907136026
:10277400947107f1010756714ff0010648bf1c70b0
:102784001c8cd5604ff6ff75a11940ea04405f60c8
:1027940089b2906083f82a60a94208bf31469068e4
:1027a4001984dce701224ff0ff3083f82a207047b8
:0427b400700740204a
:020000040000fa
:020000040040ba
:1027b8002de9f041284dd5e906236c6a501c43f1f8
:1027c8000001c5e90601002c3ad095f82030013304
:1027d80085f82030a368002b3ad101260ae0e36887
:1027e80083b1e06900f030f9e3680bb120699847dc
:1027f8006c6a74b1a36820465bb9a37826756675c0
:10280800002becd000f050ffa378002becd16370c4
:10281800eae7124f00243e46a04607eb4413013472
:102828005a7d22b1b27883f81580012a0ad0052c86
:1028380006f12006f1d195f82030013b85f82030cb
:10284800bde8f081726830469a6000f0b3f8eee7b0
:10285800a368013ba360c0e740074020140640205e
:020000040000fa
:020000040040ba
:10286800882910b536d012dc812943d003dc8029b1
:1028780040d0002010bd82290ed08429f9d11968d2
:1028880002b30a1d1a60b1f90020d3171ee0a0296f
:102898002bd00bdc9029ecd11968073121f0070106
:1028a80001f108021a60d1e900230fe0c02901d024
:1028b800f029ded11a68111d19601368036000231e
:1028c800436005e00a1d1a600a880023c0e9002356
:1028d8000120cfe7196822b10a1d1a6091f900207a
:1028e800d3e70a1d1a600a78efe71a68111d196004
:1028f8001268cae719681ab10a1d1a600a68c4e79b
:0c2908000c1d1c600b68c0e90032e1e708
:020000040000fa
:020000040040ba
:102914002de9f041d2e900230c4686b007465fea70
:10292400d37820684968a5680590e66841d052428a
:1029340063eb4303002908db20f002000590b8f1a3
:10294400000f02d1059948072ad5691e05a80290ef
:102954000a20cde90010204600f04efab8f1000f2d
:1029640002d1059b59071fd5b8f1000f00f1ff30c4
:1029740014bf2d232b2333542269059b0093013a62
:102984002b46121a3118384600f07bf97b68db05b8
:1029940003d563689842b8bf184606b0bde8f08115
:1029a4000807d2d42946d1e71a07e5d501382023f0
:0829b400e1e70029c0dac5e7e4
:020000040000fa
:020000040040ba
:1029bc00002843d02de9f047dff884a0d0f808e0d8
:1029cc00daf82430002b2fd0f0464ff000094ff0ee
:1029dc00000c0024002500e013469a68a61845f167
:1029ec000007b94508bfb04514d399689c469a694d
:1029fc00641845f10005002aeed18261aeeb0404a7
:102a0c009861836984601bb181689a68521a9a60d4
:102a1c00bde8f087bcf1000f0cd1aeeb0404caf892
:102a2c00240083618460efe7c0f808e0caf8240052
:102a3c00bde8f087dcf818206346dee7704700bf7e
:042a4c0040074020df
:020000040000fa
:020000040040ba
:102a50002de9f041204c054694f820305bb994f8fc
:102a60002830012b03d001252846bde8f08101f074
:102a700059fa0028f7d06b1e033316d8abb2042bdb
:102a800013d85e01154f07eb0608d8f81c309d429d
:102a90000bd1bb5d4bb198f80130b3b90023ba1923
:102aa0001d461375bb55537500e00125636894f806
:102ab00021005b69984794f82030002bd4d1012382
:102ac000284684f82830bde8f081404600f0f0fd4b
:102ad000002388f80130e1e7400740201406402039
:020000040000fa
:020000040040ba
:102ae00010b501f03bfb1a4b00211a4c1b6818680b
:102af00001f074fb184b00211b68186801f06efb95
:102b000000f0b6fcfff7c2fa01f05af84ff40043a8
:102b1000124a13494b60536000f0f4ff00f010febe
:102b200001f05ef90f49002000f0c2fa0e49206062
:102b3000002000f0dbf90d496060002000f0ecfaa5
:102b4000a06001f059fabde8104000f0abbb00bf37
:102b5000100a402060084020440b402050180e40ce
:102b600000190e409c414000e03f4000b44240004c
:020000040000fa
:020000040040ba
:102b700070b5204c054694f8203053b994f82830ad
:102b8000012b02d00125284670bd01f0cbf90028a9
:102b9000f8d06b1e03331bd8abb2042b18d85b01e3
:102ba000154ef118c869854212d1f05c80b14878a1
:102bb000e8b9886808b9486888601e443046fff75d
:102bc000fdfe0023012233751d467270737500e00f
:102bd0000125636894f821005b69984794f82030d8
:102be000002bd0d10123284684f8283070bd002561
:0c2bf000efe700bf400740201406402023
:020000040000fa
:020000040040ba
:102bfc002de9ff41836946690093f61acde901611d
:102c0c0004461746039216444ff002086d4642469e
:102c1c002946206801f07bf8b04209d1d4e9023290
:102c2c00c4e905331a44a262384604b0bde8f08109
:102c3c0000280dda6268002342f01002b8f1020f8e
:102c4c00a362c4e90533626015d06b68ff1aebe729
:102c5c006b68984288bf0835a6eb000688bfc01a7f
:102c6c002b6803442b606b68a3eb000088bf08f152
:0a2c7c00ff386860cbe71f46d6e77b
:020000040000fa
:020000040040ba
:102c86002de9ff471d460c9b13f0010906468a46af
:102c9600144601d195420bd822465146304600f0e3
:102ca6006efea54204d82546284604b0bde8f08746
:102cb6002f1b102f3a464ff0200128bf10226846de
:102cc600b84601f090fab8f10f0f11d83b096ff032
:102cd6000f0202fb03726946304600f050feb9f15e
:102ce600000fe1d122465146304600f048fedbe7b0
:102cf60010226946304600f042fea8f11008e2e7cd
:020000040000fa
:020000040040ba
:102d0600842910b523d00cdc812903d0822913d065
:102d160080290bd119680c1d1c600b6803601a60b2
:102d260013e0902921d003dc882917d0002010bd9c
:102d3600a029efd0c029ece719680c1d1c600b68b0
:102d46000360d1171046c3e900010120efe71968b7
:102d56000c1d1c600b6803601a80f6e719680c1dd1
:102d66001c600b6803601a70efe719680c1d1c6085
:0c2d760009680160d317c1e90023e6e7fb
:020000040000fa
:020000040040ba
:022d8200704798
:020000040000fa
:020000040040ba
:102d8400302e302e310000000a23203d3d3d3d3dd4
:102d94003d3d3d3d3d3d3d3d3d3d3d3d3d3d3d3d5f
:102da4003d3d3d3d3d0a23204172647543616d20e4
:102db4004f56323436302054657374207625730da3
:102dc4000a000000696e697469616c697a617469ea
:102dd4006f6e206661696c65640d0a00696e6974c2
:102de40069616c697a6174696f6e20737563636578
:082df400656465640d0a00002e
:020000040000fa
:020000040040ba
:102dfc002de9f84f04460c9f6668d4f80cb0246992
:102e0c0010463a68013c002502f0020a0b9a0bf8b6
:102e1c000450002e1946b8bf0126012390464feaf4
:102e2c00e279002c03dcd3b12046bde8f88f50eae0
:102e3c00010209d1721b002a06dc0a9a521b002ad5
:102e4c00f1ddbaf1000feed042464b4600f084fea5
:102e5c00013c134630320bf804200135e1e73b68a6
:082e6c0023f010033b60dfe7d7
:020000040000fa
:020000040040ba
:102e7400f8b5846a05460f46164654b1ab6a6a69ca
:102e84009b1ab3420bd2324639462846fff7b4feaa
:102e9400f8bd01f0c7f80028f0d02046f8e7002e6e
:102ea400f1d095f93430002b1bdbdbb23446621ec3
:102eb400b95c994212d1224639462846fff79cfe56
:102ec400a042e5d32744341b22463946686901f001
:102ed40027f96b691c446c613046d9e71446002a13
:062ee400e5d13446f0e7e1
:020000040000fa
:020000040040ba
:022eea00fee701
:020000040000fa
:020000040040ba
:102eec0000282fd1f8b5194c257845bb0a68012666
:102efc00486840f2011362618a68cf68e0606570cf
:102f0c00c4e90152d1e904022387a262a561a68318
:102f1c0084f830506563c4e9087001f0dbf984f87b
:102f2c003a6001f0d9f9636984f83b60214608489e
:102f3c00db6898470223267028462374f8bd4ff0af
:102f4c00ff30f8bd4ff0ff30704700bf0407402042
:042f5c008938400070
:020000040000fa
:020000040040ba
:102f6000f0b50c4649682368a768e56887b0002972
:102f70000593a4bf23f00203059305ab0293082336
:102f8000cde900730646d2e900232046fff736ff5d
:102f9000059bd90642bf00f1ff3030232b54059b1f
:102fa0001a0742bf00f1ff3020232b542269059bf2
:102fb0000093013a3b46121a29183046fff763fe88
:102fc0007368db0503d563689842b8bf184607b03d
:022fd000f0bd52
:020000040000fa
:020000040040ba
:022fd200704746
:020000040000fa
:020000040040ba
:102fd40038b5194c054694f8203053b994f8283084
:102fe400012b02d00025284638bd00f099ff0028a7
:102ff400f8d06b1e03330fd8abb2042b0cd85b0193
:103004000e49ca18d069854206d1cd5c2db1157d13
:103014000023edb2137500e00025636894f82100e5
:103024005b69984794f82030002bdcd101232846b3
:1030340084f8283038bd00bf4007402014064020e3
:020000040000fa
:020000040040ba
:1030440068b30368164a934227d8164a5b000029de
:1030540008bf1146b1fbf3f103390023ff290ed950
:1030640001334908dbb2ff298cbf01200020062b65
:1030740088bf00200028f3d1ff2910d81b040b437c
:10308400012010b4084c226902f07c52134343ea35
:10309400012121615df8044b70470020704770479f
:0c30a40000093d0080d1f00800800140d0
:020000040000fa
:020000040040ba
:1030b00040bb70b5164c94f90d30022b25d0054657
:1030c00040f201120126d1e9000326732061e36179
:1030d00025706560d1e90203a4f829202684a06048
:1030e0006562c4e9053301f0fbf884f82b6001f058
:1030f000f9f82369214607489b6998470223284627
:10310000637370bd4ff0ff3070474ff0ff3070bdfc
:0831100070074020c1394000a6
:020000040000fa
:020000040040ba
:1031180049b3f8b5051c18bf01250dbb134c012395
:103128004ff47a72002684f8283000270b68097952
:103138000f4863602172294684f8205065621b6835
:10314800e260c4e90667984763685b689847294660
:10315800a022084801f046f8022320462370f8bd53
:103168004ff0ff30f8bd4ff0ff3070474007402068
:08317800b927400014064020b5
:020000040000fa
:020000040040ba
:1031800050b338b5164b0d465b6913f0e00f1ed1f6
:1031900025b301460024124a5369db07fcd5536965
:1031a00013f0e00f16d1536813f4003f93690bd06e
:1031b000c3f3080321f8023b0134a542ecd1281bdc
:1031c000b0fa80f0400938bd00f8013bf4e700f0a8
:1031d0009bfedde7002038bd002070472c46eee75f
:0431e0000080024029
:020000040000fa
:020000040040ba
:1031e40020b30368fbb1134a002908bf11468b4280
:1031f40070b415d8b1fbf3f1ff2928bfff210b02ee
:103204000d4d01210d4cee6b826834404668c06858
:1032140032432243024308461a43ea6370bc7047b0
:103224004ff48073ece71946084670470146084698
:10323400704700bf80d1f008008000400c00ffff01
:020000040000fa
:020000040040ba
:103244007fb5c36800911546002b18bf013a01925f
:1032540082680446cde902230e46022269460068cc
:1032640000f02ffd002808dc00f0180383f00802aa
:1032740063681343636005460fe0019a8242fad201
:10328400a368e363801ae268184420642ab15a1cd4
:10329400e2632e441b7806f8013c284604b070bd56
:020000040000fa
:020000040040ba
:1032a400134b4ff6ff00134ad96801400a43da6012
:1032b400bff35f8f62b6104ae02182f813134ff414
:1032c4000020106082f815134ff4001111605a6a3f
:1032d40042f480225a625a6942f010025a615a6ad0
:1032e40042f400325a625a6a42f480325a62704797
:0c32f40000ed00e00000fa0500e100e041
:020000040000fa
:020000040040ba
:103300000e4a38b5002313600d4a0e4c13600e4a66
:103310000e4d13600e4a13600e4a13600e4a53623c
:1033200013610123936000f071fffff752feac427e
:1033300000d338bd54f8043b9847f8e77c08402098
:10334000c006402074014000bc06402078014000c7
:0c335000b4064020b8064020c40640200f
:020000040000fa
:020000040040ba
:10335c0070b5d0e90245a54217d10122a1f1200395
:10336c00c1f1200622fa06f602fa03f333438a402f
:10337c00db43d6431ab10c490a6832400a605a1c26
:10338c001fbf094a51680b4053604368ac6043f05f
:10339c00010223f00103e56042601844036843f026
:0c33ac000103036070bd00bf0804402056
:020000040000fa
:020000040040ba
:1033b80020212223242425252626272728282828b3
:1033c800292929292a2a2a2a2b2b2b2b2c2c2c2c4d
:1033d8002c2c2c2c2d2d2d2d2d2d2d2d2e2e2e2e15
:1033e8002e2e2e2e2f2f2f2f2f2f2f2f000117028b
:1033f8001d1813031e1b190b1408040d1f161c128d
:0c3408001a0a070c1511090610050f0e1a
:020000040000fa
:020000040040ba
:1034140038b50d46044608b9002038bd43689b06fc
:1034240007d5d0e905239a4216d80023c4e9053309
:10343400a362d4e90f13994204d20122c91a206865
:1034440000f064ff0023c4e90f33002de4d02068aa
:10345400bde8384000f03fbf0022c36a11469847d8
:0c3464006369002be1d14ff0ff30d6e788
:020000040000fa
:020000040040ba
:10347000124b13491a469962936e9b07fcd5136b46
:103480000e4923f0700313638b6e1807fcd50b6b8a
:103490000a4a23f4407343f480730b63936e190755
:1034a000fcd5136b054923f0030343f002031363b8
:1034b0008b6e1b07fcd5034b0b61704700060e405b
:0834c000013f1820005c2b0005
:020000040000fa
:020000040040ba
:1034c8002de9ff41134dd1f80080af88adf80c709d
:1034d80006462868029002aca8798df80e00002aea
:1034e80018bf1446d1e901571a461bb9204600f007
:1034f80081fe0246002d02dbaa4228bf2a46cdf8eb
:1035080000803b4621463046fff7b9fb04b0bde8d2
:08351800f08100bfcc4240002d
:020000040000fa
:020000040040ba
:10352000f0b50c4649682368a668e76887b00029ab
:103530000593a4bf23f00203059305ab02930a236e
:10354000cde900630546d2e900232046fff756fc8b
:103550002269059b0093013a3346121a391828460e
:10356000fff791fb6b68db0503d563689842b8bf32
:06357000184607b0f0bd93
:020000040000fa
:020000040040ba
:0235760070479c
:020000040000fa
:020000040040ba
:1035780009b330b5b0fa80f483b06409c4b90d4614
:103588000e494ff47a720023c968a0fb010100f0cc
:10359800e5fa23460146009422462046fef7e6ff58
:1035a800431c286004d0fff7dffa204603b030bd83
:1035b800012003b030bd0120704700bf4007402004
:020000040000fa
:020000040040ba
:1035c80013b5836a8df80710044673b16369a26a5c
:1035d800934212d3e36a01220df10701204698476e
:1035e800012806d19df8070005e000f019fd002824
:1035f800ecd04ff0ff3002b010bd9df8070094f9f1
:0e36080034209042e6d05a1c62611870f3e73d
:020000040000fa
:020000040040ba
:023616007047fb
:020000040000fa
:020000040040ba
:1036180070b50e4b0e4a0021934208d30d480e4d4b
:103628004ff6ff76016829b943681bb970bd03f8e6
:10363800011bf1e783684268334000f10c0455f838
:1036480023302046984704eb8000ebe70000402039
:0c3658000000402090014000e8404000cd
:020000040000fa
:020000040040ba
:10366400022a70b5044616461d461ad043689b06c6
:1036740017d441b9002d08bf4ff4806505f1080047
:10368400fef784f901466368012e43f0200363606a
:10369400c4e9021514bfff230a2384f83430024b13
:0c36a400e362002070bd00bf752e4000e6
:020000040000fa
:020000040040ba
:1036b00070b4104d696a814218d0b9b10a4600e071
:1036c0001a469369002b18bf9842f9d14bb1836910
:1036d0001bb186689c6834449c6022b193610023ce
:1036e000836170bc70478b696b62f8e70b46002200
:0836f000ece700bf4007402099
:020000040000fa
:020000040040ba
:1036f80010b50278202a034600f10100f9d0a2f1a2
:1037080009010429f5d92b2a07d02d2a11d1012125
:103718000133013b00200a2403e00021f8e760435d
:10372800801a13f8012f303a092af8d901b9404212
:0637380010bd0021ede7c9
:020000040000fa
:020000040040ba
:103740000e4b802028214bf2c012f0b418604ff0cd
:1037500080771960072619694ff44075042400200a
:1037600001f07c510a4306491a611f609e625d6246
:103770001c6048770877f0bc704700bf00800140ac
:04378000c807402016
:020000040000fa
:020000040040ba
:10378400f0b40e4d049f2c7f64b24cb90e460c4924
:10379400096a01f04071b1f1407f04d002236b77d4
:1037a4000020f0bc704728802146ab602f616e601a
:1037b400ea606c77f0bcfef76dbe00bfc80740201e
:0437c4000080014040
:020000040000fa
:020000040040ba
:1037c80010b5054c227832b9044b13b10448aff355
:1037d80000800123237010bd140840200000000061
:1037e8000000000008b5034b1bb103490348aff3c1
:1037f800008008bd000000001808402000000000fc
:020000040000fa
:020000040040ba
:1038080070b40d4c237f5bb24bb90d460b49096a66
:1038180001f04071b1f1407f04d0022363770020aa
:1038280070bc704720800121a56022616360e3605d
:10383800637770bcfef72cbec807402000800140ab
:020000040000fa
:020000040040ba
:1038480070b40d4c237f5bb24bb90d460b49096a26
:1038580001f04071b1f1407f04d00223637700206a
:1038680070bc704720801946a36023616560e260e0
:10387800637770bcfef70cbec8074020008001408b
:020000040000fa
:020000040040ba
:10388800826938b5b2f918300446591c0bd00b4878
:1038980003f01f050121927e00eb5310a94040025e
:1038a8004ab9fdf7dbf894f83a3000220133a277e1
:1038b80084f83a3038bdfef7bdfef4e7070720006c
:020000040000fa
:020000040040ba
:1038c8000c4a036810b5546a0b4a591e121b8a42e7
:1038d8000ad22bb1094b0c221a604ff0ff3010bdf1
:1038e800102202600020fae7173323f00f03036069
:1038f800f8e700bfc4064020efffff7f80084020a4
:020000040000fa
:020000040040ba
:1039080010b44c68a40602460b4603d45df8044b79
:1039180000f06eb891f93410c0b2814203d05969f1
:103928009c6aa14205d3114618465df8044bfff77f
:0e39380047be4c1c5c610a705df8044b704782
:020000040000fa
:020000040040ba
:10394800c8b1b9b10c4a10b4002453699b07fcd51f
:1039580053689b030bd530f81430c3f30803d361c5
:103968000134a142f1d101205df8044b7047035d99
:0c397800d361f5e7012070470080024099
:020000040000fa
:020000040040ba
:1039840038b5436813f4807f0446154610d00369a4
:1039940040699a4228bf1d462a4600f0c1fb63696c
:1039a40022692b44551b0022636125611a7038bdbe
:0a39b400db06fcd400f042fbf9e74b
:020000040000fa
:020000040040ba
:1039c00038b503690446456a1b69984768716b7985
:1039d0004bb903f0ff0294f82b30013384f8282010
:1039e00084f82b3038bd012384f8283094f82b302c
:0839f000013384f82b3038bdcf
:020000040000fa
:020000040040ba
:1039f80007b54a68c0b2d2050b468df8070006d550
:103a08004a69511c5961107003b05df804fb01222a
:103a18000df10701184600f00ffb10b19df80700e3
:083a2800f2e74ff0ff30efe779
:020000040000fa
:020000040040ba
:103a300000090138202813d9b0f5007f05d2094bc1
:103a400003ebd00010f8040c7047b0f5e05f06d827
:103a5000044b03ebd01010f8040c103070473f20db
:083a6000704700bfb8334000bd
:020000040000fa
:020000040040ba
:103a680030b50c4a002312f8134024b902eb430383
:103a78005b78184630bd01680d78a54209bf02eb96
:103a8800430301335b78013114bfdbb201600a2bb9
:083a9800e9d9eee7cc3e400045
:020000040000fa
:020000040040ba
:103aa000426822f00102531a102b10b40ed94418a8
:103ab00043f0010341f001012160636083504160e4
:103ac00004f108005df8044bfef76abc5df8044b96
:023ad00070473d
:020000040000fa
:020000040040ba
:103ad400421e033210b50ad8c0f307243cb900f0e3
:103ae40057f820b1036893f82a20012a00d010bdaa
:103af40059681c7001395960847183f82a2010bdfb
:020000040000fa
:020000040040ba
:103b0400084b8220084a002130b418604ff4164450
:103b1400064d01205d60dc6311771162186030bcd2
:103b2400704700bf008000409c0740201100070040
:020000040000fa
:020000040040ba
:103b340070b505462c68e30701d500200fe0204648
:103b4400fff774ff064600f0aff92868a042f1d1f0
:103b540020f00100281a3146fff7fefb012070bd5a
:020000040000fa
:020000040040ba
:103b640053b94ab9002908bf00281cbf4ff0ff31e0
:103b74004ff0ff3000f0c8bbadf1080c6de904ce86
:103b8400fdf796fcddf804e0dde9022304b070479c
:020000040000fa
:020000040040ba
:103b9400094bc2b299688a420bd2db6903eb021368
:103ba4009a68904205d19a79002a08bf00231846e2
:0c3bb4007047002318467047700740203f
:020000040000fa
:020000040040ba
:103bc00010b4074a0023074c06200749136093608e
:103bd000546010605df8044b8b600b60704700bf51
:0c3be00010e000e0df93040054084020d7
:020000040000fa
:020000040040ba
:103bec0008b500f03ffa074b07221a601b68db038d
:103bfc0004d5054a536843f080635360bde8084020
:0c3c0c0000f03aba10e000e000ed00e02b
:020000040000fa
:020000040040ba
:103c180008b500f05bfa30b900f02cfb30b9bde80c
:103c28000840fdf7ffb8034800f0eef9024800f03d
:0c3c3800ebf900bfc82d4000e02d40005b
:020000040000fa
:020000040040ba
:103c440070b505466c68e30701d500200de02046f9
:103c5400fff7ecfe064600f027f96b68a342f1d1aa
:0c3c640028463146fff778fb012070bdb8
:020000040000fa
:020000040040ba
:103c7000074b1968024609b90649196018680649d0
:103c800002448a4294bf1a604ff0ff30704700bf71
:0c3c900084084020700b4020700d402084
:020000040000fa
:020000040040ba
:103c9c0070b5002902fb01f614460d4618bf1446f8
:103cac0001463246184608bf002400f0c3f986428c
:0a3cbc0018bfb0fbf5f4204670bd00
:020000040000fa
:020000040040ba
:103cc6002de9f0410024804617460e462546bd42a2
:103cd60002db2046bde8f081726856f8081b4046b4
:0a3ce60000f0c1f801350444f1e7d5
:020000040000fa
:020000040040ba
:103cf000802910db812901dd83290cd1136807336a
:103d000023f0070303f108011160d3e90023c0e9a0
:0a3d100000230120704700207047d7
:020000040000fa
:020000040040ba
:103d1a002de9f0410024804617460e462546bd424d
:103d2a0002db2046bde8f081726856f8081b40465f
:0a3d3a0000f0a7f801350444f1e79a
:020000040000fa
:020000040040ba
:103d4400000000001000000020000000300000000f
:103d540040000000500000006000000070000000ff
:083d640080000000ffffffffdb
:020000040000fa
:020000040040ba
:103d6c0010b5084c2368196800f058f8002807dbd8
:103d7c0023680a20196800f09bfac00f404210bd5e
:083d8c000120fbe7440b40207d
:020000040000fa
:020000040040ba
:103d940090f948305a1e1343426880f8483012f0b4
:103da40004031bbf42f010024260c0e90f334ff01e
:083db400ff3008bf18467047fc
:020000040000fa
:020000040040ba
:103dbc0030b4064b0021064a07250824042051770d
:103dcc0011779d621c60186030bc70470080014008
:043ddc00c8074020b4
:020000040000fa
:020000040040ba
:103de00010b4074b4ff4867450204ff40c615122ed
:103df0001c6018605df8044b59601a62704700bf80
:043e000000800240fc
:020000040000fa
:020000040040ba
:103e04000fb407b5064b04aa1b6852f8041b1868c4
:103e1400019200f0bdf803b05df804eb04b0704704
:043e2400440b4020eb
:020000040000fa
:020000040040ba
:103e280070b50e46054600f0e5f9334604460246ed
:103e380001212846fff72eff001b18bf4ff0ff3067
:023e480070bd4b
:020000040000fa
:020000040040ba
:103e4c00054b064a586812689a6801329a601a68db
:103e5c000ab11b68184770475408402010e000e076
:020000040000fa
:020000040040ba
:103e6c0060b910b50c463ab101212046fff782f932
:103e7c000028f9d0012010bd002010bd0020704793
:020000040000fa
:020000040040ba
:103e8c00012838b5144601d0204638bd0d462146d0
:103e9c002846fff753fd0028f9d0204638bd00bf57
:020000040000fa
:020000040040ba
:103eac00064b013053f830203ab9c100a1f1080299
:103ebc001a44194443f830204a60704708044020e3
:020000040000fa
:020000040040ba
:103ecc0068076c094c836a9074a07ac0008068887b
:0e3edc0000846c820081286e696c290025002c
:020000040000fa
:020000040040ba
:103eea0010b50023934206d113f0030018bf012036
:0e3efa0000eb930010bdc45ccc540133f2e722
:020000040000fa
:020000040040ba
:103f0800054b4ff480721a605a69d10703d59a6934
:0c3f18005a69d207fbd4704700800240b9
:020000040000fa
:020000040040ba
:103f240010b5054c0022636884f828209b699847e3
:0c3f340084f82100012010bd400740204f
:020000040000fa
:020000040040ba
:103f400038b50546fff746f8044608b9204638bd9f
:0c3f50002846fef77dfd204638bd00bf6e
:020000040000fa
:020000040040ba
:103f5c00093840004938400085374000bd3d4000dd
:0c3f6c008d414000453040007d41400088
:020000040000fa
:020000040040ba
:103f780071424000ad4040006d4140009542400014
:0c3f8800654240009d424000c1404000e6
:020000040000fa
:020000040040ba
:103f940013b50446019201aafdf706f9636813f00c
:0c3fa400100f18bf4ff0ff3002b010bd2e
:020000040000fa
:020000040040ba
:103fb00030b5002485b002250094cde90145fdf718
:083fc00035ff05b030bd00bf64
:020000040000fa
:020000040040ba
:103fc80070b584b00424089e099d0294cde900656b
:083fd800fdf728ff04b070bde5
:020000040000fa
:020000040040ba
:103fe000ac414000f007402001000000443d40008b
:083ff000ac424000a442400075
:020000040000fa
:020000040040ba
:103ff800044908b501f10800fff700ffbde80840d3
:0840080000f0e0b8842d400037
:020000040000fa
:020000040040ba
:104010000fb400b583b004ab53f8040b19460193f9
:0840200000f076f800bffde797
:020000040000fa
:020000040040ba
:1040280010b50446fff7b2fe28b9a368e268c4e9f0
:0840380005331344a36210bd1f
:020000040000fa
:020000040040ba
:1040400010b4c46a1cb123465df8044b18470068dd
:084050005df8044bfff71abff5
:020000040000fa
:020000040040ba
:104058000068002808b501da002008bdfff704fe53
:06406800431cfad1f8e749
:020000040000fa
:020000040040ba
:10407000eff3108072b6bff35f8fb0fa80f04009a3
:04408000704700bfc6
:020000040000fa
:020000040040ba
:1040840018b1bff35f8f62b6704772b6bff35f8f2c
:04409400704700bfb2
:020000040000fa
:020000040040ba
:10409800034b186980f40070c0f34020704700bfdc
:0440a8000080004054
:020000040000fa
:020000040040ba
:1040ac00034b00229a601a6842f001021a607047b2
:0440bc0010e000e030
:020000040000fa
:020000040040ba
:1040c000034b052218681a60c0f34000704700bf18
:0440d00010e000e01c
:020000040000fa
:020000040040ba
:1040d400034b1878a0f10b00b0fa80f04009704748
:0440e4003008402040
:020000040000fa
:020000040040ba
:1040e80049414000eb3e4000054340000543400085
:0440f800054340003c
:020000040000fa
:020000040040ba
:1040fc0008b500f0e1f8024b1860586008bd00bf2d
:04410c006c084020db
:020000040000fa
:020000040040ba
:10411000034b1b680a4601461868fff73bbf00bf08
:04412000440b4020ec
:020000040000fa
:020000040040ba
:1041240010b500239a4200d110bdcc5cc4540133b5
:02413400f8e7aa
:020000040000fa
:020000040040ba
:10413600034611f8012b184603f8012b002af8d183
:024146007047c0
:020000040000fa
:020000040040ba
:104148000a440023914201d10020704701f8013b45
:02415800f8e786
:020000040000fa
:020000040040ba
:10415c00014b024a1a607047000c0e400006000426
:020000040000fa
:020000040040ba
:10416c00024a136823f001031360704710e000e06b
:020000040000fa
:020000040040ba
:10417c0010b1024b18625962704700bfc80740204b
:020000040000fa
:020000040040ba
:10418c00024b0022587f5a77704700bfc807402067
:020000040000fa
:020000040040ba
:10419c005c3f40004408402001000000801a0600eb
:020000040000fa
:020000040040ba
:1041ac00e53140009d2240009940400059424000ba
:020000040000fa
:020000040040ba
:1041bc0008b50020fef78efc00f09cf8fce700bf71
:020000040000fa
:020000040040ba
:1041cc00024b00221a701a73704700bf300840204f
:020000040000fa
:020000040040ba
:1041dc0000294ff480630cbf02220022fff73cba87
:020000040000fa
:020000040040ba
:1041ec0002440346934200d1704703f8011bf9e7e0
:020000040000fa
:020000040040ba
:1041fc0003461a46013311780029fad1101a704778
:020000040000fa
:020000040040ba
:10420c0008b5fff775fffff7b0f9fff7aef908bd7a
:020000040000fa
:020000040040ba
:10421c00494e4600696e66004e414e006e616e005e
:020000040000fa
:020000040040ba
:10422c00494e4600696e66004e414e006e616e004e
:020000040000fa
:020000040040ba
:0e423c00a0f14103192b98bf40f020007047fd
:020000040000fa
:020000040040ba
:0e424a00a0f16103192b98bf00f05f007047d0
:020000040000fa
:020000040040ba
:0c425800014b1862596270479c0740201f
:020000040000fa
:020000040040ba
:0c4264000138014b5860704710e000e08a
:020000040000fa
:020000040040ba
:0c427000014b1860596070475408402052
:020000040000fa
:020000040040ba
:0c427c00014b187b704700bf3008402049
:020000040000fa
:020000040040ba
:0c42880010b50446fff753ff204610bda0
:020000040000fa
:020000040040ba
:084294000048704700a3e1118e
:020000040000fa
:020000040040ba
:08429c0000b97047fff7a4bc54
:020000040000fa
:020000040040ba
:0842a400000000000200000010
:020000040000fa
:020000040040ba
:0842ac00000000000100000009
:020000040000fa
:020000040040ba
:0842b400783f4000ff0000000c
:020000040000fa
:020000040040ba
:0842bc0008b5fff723fb08bd64
:020000040000fa
:020000040040ba
:0842c40000487047780a402011
:020000040000fa
:020000040040ba
:0742cc00286e756c6c2900df
:020000040000fa
:020000040040ba
:0642d4000068fff7d9bdf0
:020000040000fa
:020000040040ba
:0642da004ff0ff307047b9
:020000040000fa
:020000040040ba
:0442e000fff7c6be60
:020000040000fa
:020000040040ba
:0442e400fff7cebe54
:020000040000fa
:020000040040ba
:0442e800fee700bf2e
:020000040000fa
:020000040040ba
:0442ec00fee700bf2a
:020000040000fa
:020000040040ba
:0442f000fee700bf26
:020000040000fa
:020000040040ba
:0442f400fee700bf22
:020000040000fa
:020000040040ba
:0442f800fee700bf1e
:020000040000fa
:020000040040ba
:0442fc00fee700bf1a
:020000040000fa
:020000040040ba
:04430000fff78abc7d
:020000040000fa
:020000040040ba
:0443040000207047de
:020000040000fa
:020000040040ba
:0443080000207047da
:020000040000fa
:020000040040ba
:04430c00704700bf37
:020000040000fa
:020000040040ba
:0443100000207047d2
:020000040000fa
:02000004d0002a
:0400000002000000fa
:00000001FF
