:020000040000fa
:020000040040ba
:10000000f0ff4520491e4000ad424000b142400093
:10001000b9424000bd424000c14240000000000023
:10002000000000000000000000000000fb2f400066
:10003000b542400000000000fb2f4000f53d4000ad
:10004000fb2f4000fb2f4000fb2f4000fb2f400008
:10005000fb2f4000fb2f4000fb2f4000fb2f4000f8
:10006000fb2f400000000000fb2f4000fb2f400052
:10007000fb2f4000fb2f4000fb2f4000fb2f4000d8
:10008000fb2f4000fb2f4000fb2f4000491b40008e
:10009000fb2f4000fb2f4000fb2f4000fb2f4000b8
:1000a000fb2f4000fb2f4000fb2f4000fb2f4000a8
:1000b000fb2f4000fb2f4000fb2f4000fb2f400098
:1000c000fb2f4000fb2f4000fb2f4000fb2f400088
:1000d000fb2f4000fb2f4000fb2f4000fb2f400078
:1000e000fb2f4000fb2f4000fb2f4000fb2f400068
:1000f000fb2f4000fb2f4000fb2f4000fb2f400058
:10010000fb2f4000fb2f4000fb2f4000fb2f400047
:10011000fb2f4000fb2f400000000000000000000b
:10012000fb2f4000fb2f4000fb2f4000fb2f400027
:10013000fb2f4000fb2f400000000000fb2f400081
:10014000fb2f4000fb2f4000fb2f4000fb2f400007
:10015000fb2f4000fb2f4000fb2f4000fb2f4000f7
:08016000fb2f4000fb2f4000c3
:020000040000fa
:020000040040ba
:10016800f8b500bff8bc08bc9e467047a5374000ec
:10017800f8b500bff8bc08bc9e4670478137400000
:020000040000fa
:020000040040ba
:08018800680d000001000000f9
:020000040000fa
:020000040040ba
:100190002de9f04f2ded0a8b92ed00ab8fb0b5ee4f
:1001a000c0ab04938b680393f1ee10fa0b690690d1
:1001b0008a46d1e900750793cc6806d47a0732d411
:1001c00017f0080631d0202302e02d23b1ee4aab10
:1001d0002370039b012603f1ff3b1aee903adff8f0
:1001e00064931aee100a23f000414ff000084945cd
:1001f00008bf40451cd1049b413b192b94bfcc49ff
:10020000cc49a01904f02cf8204603f0f9ff009720
:100210000246039b0698214602f0fafd0fb0bdeca2
:100220000a8bbde8f08f2b23d2e7ddf80cb0d4e7c2
:10023000894508bf804508d2049b413b192b04eb3c
:10024000060094bfbc49bd49dce7b5ee40abf1ee1a
:1002500010fab2ee04cbb7ee009b4ff0000818d1b5
:10026000049803f0ddff002dc0b2c0f26d81672855
:100270002dd1002d08bf012518f1040f02dba84580
:10028000c0f244814ff0650933e008f10108b0ee97
:10029000479b29ee0c7bb4eeca7bf1ee10faf4dd3d
:1002a0000023a74a9fed9e7b0be0904505da23b91a
:1002b0002aee07ab29ee079b012308f1ff3889eef0
:1002c0000c9bb4eec9abf1ee10faeed4c8e7814650
:1002d000b9f1660f05f101050bd1b8f1000f03da92
:1002e000b7ee009b4ff00008672818bf45444ff059
:1002f00066090023b0ee498bb0ee4abb8bee080bcb
:100300000893059002f068fa089b90ee08bbfdee9a
:10031000c07b01339d4217ee902ab1ee4bbb88eeb5
:100320000c8b0598ead1b1ee047b28ee078bb4ee76
:10033000c8bbf1ee10fa73d4b4ee48bbf1ee10fa7c
:1003400005d19fed796b12f0010f06fe088b3aee96
:10035000088b29ee0cabb4eec8abf1ee10fa62d804
:10036000b9f1660f08f101085fd1013541464b1b19
:1003700000220a93354605920a9b994240f08280fa
:10038000059b002b00f0ab8060190022b9f1650fce
:1003900002702dd1079b0799013b9045e254c1f1b2
:1003a000030ebcbfc8f1000801220a21b8f1000ffa
:1003b00040f09b800eeb030cbcf1000f00f3958026
:1003c000002a03f1ff3114bf2d222b226254049a1c
:1003d000023b413a192a04eb030198bf4ff045094b
:1003e0009d4281f80090abf1020b01da03f038ff77
:1003f00007f00303022b7ff407afbbf1000f7ff779
:1004000003af204603f0fcfe04eb0b03864279ddcc
:100410005a463021a01903f0ebfe00230393f3e6c4
:100420009fed418b93e7b0ee49abb9f1650f14bf77
:10043000414600219be7059b5bb9002909da089b2f
:100440004ff02e0c04f803c0012301350bf1ff3be4
:10045000059304eb020c6319ac444ff0300e01e03d
:1004600003f801eb9c45fbd1099b02eb050cabebc0
:10047000020b30330cf1010504f80c300bf1ff3b9b
:10048000002224e0daf810300895053bab427ff6f5
:1004900077af88ee0a0bcde90c200b9102f09cf9a6
:1004a000fdeec07bdde90b1217ee903a092ba8bfd9
:1004b000092317ee90ca099307f0100353ea0c03bf
:1004c0000d98b8d16728b6d10029c2da01329aee68
:1004d000008b0139b1ee488b8aee0cab4ce7fb0682
:1004e00042bf2e23635501354ee7b8fbf1fc013bbb
:1004f00001fb1c8808f1300804f803800bf1ff3b76
:10050000e04653e7225c1a5401387fe7b8f1000f48
:10051000bff6edae4ff06609dae60625ace600bfa1
:100520000000000000005043000000000000000038
:10053000d0414000d4414000d8414000dc4140005f
:10054000d4feffff0000f07f6728e6d08146062535
:04055000bee600bf44
:020000040000fa
:020000040040ba
:0405540003f056bd9d
:020000040000fa
:020000040040ba
:1005580070b5c94c2ded088b82b000f023fe00f079
:100568005bff23780d2b14d8dfe803f02f32073711
:100578003c444a53626a72807d1703f07bfd002871
:1005880040f0508103f080fd002840f0a88102234c
:10059800237002b0bdec088b70bd03f0fffc05466c
:1005a8006068281a03f09cfc07ee900ab348b8ee7e
:1005b800677b65609feda66b86ee077b53ec172b78
:1005c80003f0f0fb08232370e3e701232370e0e73f
:1005d80003f058fa02232370dbe703f0e5fd042358
:1005e8002370d6e703f064fd002800f02a81052374
:1005f8002370cee7a24803f077fb06232370c8e7f1
:10060800002003f0c9fd002800f01581072323709e
:10061800bfe703f02ffd002840f0078103f034fd09
:100628000028f3d0974803f05ffb0e232370b0e750
:1006380003f0c2fd002800f0468109232370a8e7d3
:1006480003f036fd002800f02d810a232370a0e76f
:1006580044f608018c4803f021fd002800f02d81a4
:100668000b23237095e70d23237092e79fed7a0bf8
:100678009fed7b1b9fed7c2b9fed7d3b834a844b3d
:10068800844d9fed85aa95e0b4eeca4af1ee10fac2
:1006980000f3c380fceec47acded017a9df8041016
:1006a800803828ee028b03f8061c07ee900ab8ee95
:1006b800e77b27ee014b36ee44bb3bee48bbb7ee7b
:1006c800cbbbb5eec0baf1ee10fa00f1a480b4eedf
:1006d800cabaf1ee10fa00f39c80fceecb5acdedcd
:1006e800015a9df8041027ee037b03f8051c36ee2b
:1006f800076bb7eec66bb5eec06af1ee10fa00f103
:100708008680b4eeca6af1ee10fa7edcfceec66aa8
:10071800cded016a9df8041006ee906a03f8041cfa
:10072800b8eee65b39ee059bb7eec99bb5eec09a0d
:10073800f1ee10fa67d4b4eeca9af1ee10fa60dc62
:10074800fceec96acded016a9df8041035ee446be4
:1007580003f8031c36ee486bb7eec66bb5eec06afd
:10076800f1ee10fa4bd4b4eeca6af1ee10fa44dc9a
:10077800fceec66acded016a9df8041037ee057be4
:1007880003f8021cb7eec77bb5eec07af1ee10fa9b
:1007980031d4b4eeca7af1ee10fa2adcfceec77a4c
:1007a800cded017a9df80410043203f8011c0633dc
:1007b800954234d012f8011c12f8040c803912f852
:1007c800026c06ee100a12f8030c08ee101ab8eec6
:1007d800c66bb8eec88b28ee009b36ee094bb7ee19
:1007e800c44bb5eec04af1ee10fa7ff54daf0021cb
:1007f80056e7ff21d8e70021d6e7ff21bee7002111
:10080800bce7ff21a2e70021a0e7ff2184e7002140
:1008180082e7ff2167e7002165e7ff2140e70c2316
:100828002370b6e603232370b3e61c4803f05cfa92
:1008380008232370ade61a4803f056fa0e232370f6
:10084800a7e603f03ffc002843d104232370a0e669
:100858000000000080842e4185eb51b81e85f63fcc
:10086800e9263108ac1cd63fa913d044d8f0e63f9e
:10087800105839b4c876fc3f00bc40203c1e4000ec
:10088800441d4000a81d4000006c4020046c40201e
:10089800060040200cb4402000007f43841d400027
:1008a800581d400003f00efc00283ff4c6ae0f4868
:1008b80003f01afa0e2323706be60d4803f014fabe
:1008c8000e23237065e60b4803f00efa0e232370ff
:1008d8005fe6094803f008fa0e23237059e6074833
:1008e80003f002fa0e23237053e600bffc1d4000fc
:1008f800201e4000d41d4000281d40000c1d400053
:020000040000fa
:020000040040ba
:100908002de9f041aeb00646154605910027059938
:100918000b78002b00f0fa8000244ff0ff33cde96c
:1009280009430eab0c9380230b940d930b5d0bb115
:10093800252b26d134b12246304602f0fbff059b19
:1009480023440593059b1a78252a40f0d78003f1a4
:100958000108cdf81480059803782b2b1ad025d8d8
:10096800202b1bd0232b1dd02a2b27d002f09cfe36
:100978000b90059b1a78303a092a2ed80133059333
:10098800f7e70134d2e7099b43f0010301300993eb
:100998000590e0e7099b43f00403f7e7099b43f060
:1009a8000803f3e7099b43f01003efe72d2bead088
:1009b800302bd9d1099b43f00203e7e72b681a1db6
:1009c8001b682a600130002b05900b9305da099a01
:1009d8005b4282f0010209920b93099bda0744bf3c
:1009e80023f002030993059b1a782e2a0dd10022c1
:1009f800581c0a9205905a782a2a25d10233059361
:100a08002b681a1d1b682a600a9305a802f0ccff00
:100a1800059b0390187803f0fffb6928039979d0a8
:100a280032dc632800f0cb8019dc252800f0d9805f
:100a3800612853d000234ff0ff32cdf8148009937a
:100a48000b930a920093d4e002f02efe0a90059bc5
:100a58001a78303a092ad8d801330593f7e7642879
:100a680058d06728e6dc2a4606a803f0c1f8002813
:100a780000f0a180059b5a1c05921b7806aa09a9bb
:100a88003046fff781fb38e0702873d015dc6e28fc
:100a980000f08c806f28cdd12b46002206a801f0eb
:100aa800abff002800f08780059b06aa013309a93f
:100ab8003046059303f006fc1fe075283ad07828e5
:100ac80048d07328b6d1802975d1059b2a6801338f
:100ad8000593131d2b60126800237de02a4606a8a3
:100ae80003f086f8002866d0059b5a1c05921b78ef
:100af80006aa09a9304603f0e7fb04443c44a74290
:100b08007add3e4b4f221a604ff0ff3738462eb041
:100b1800bde8f0812b46012206a801f06dff0028f0
:100b280049d0059b06aa013309a93046059301f06f
:100b3800b9ffe2e72b46002206a801f05dff002876
:100b480039d0059b06aa013309a93046059303f05d
:100b5800b9fbd2e72b46002206a801f04dff50b39f
:100b6800059b5a1c05921b7806aa09a9304601f074
:100b7800c1fac2e72b460022f02106a801f03cff8b
:100b8800c8b1059b01330593dde9062313430bd157
:100b98001b4803f031fb099b009319490b9b024644
:100ba800304602f031f9a8e77823dde72b463a19f9
:100bb80006a802f069f9059b013305939ee7802991
:100bc800f9d1059b013305932b681a1d1b682a6010
:100bd8008df8183006aa012309a9304602f026fc30
:100be8008be78029e7d1059b01330593099b009387
:100bf8000b9b04490122d3e7274688e618bc40200e
:080c08008a3e4000903e4000ce
:020000040000fa
:020000040040ba
:100c100094bb40201c0000000000000040bb4020ae
:100c20002c00000000000000ecbb40200c00000085
:100c3000000000006cbb4020280000000000000005
:100c400010bb402030000000000000001cba402013
:100c5000a0000000000000000cbd402002000000c9
:100c600001000000010000000cbb40200400000057
:100c700000000000dcbb402010000000000000006d
:100c8000f8bb4020100000000000000000004020e1
:100c900008b4000000000000c8bb402014000000a1
:100ca00000000000b0bb4020180000000000000061
:100cb00010bc40200400000000000000bcba40202e
:100cc000500000000000000020bc40206c0000002c
:100cd000010000002cbc402028bc40202cbc40203f
:100ce000000000002500000010b4402000040000b7
:100cf00000000000000000000000000000000000f4
:100d000000000000000000000000000000000000e3
:100d1000d54240000000000000000000000000007c
:100d2000000000000d324000000000000000000044
:100d300000000000000000000000000000000000b3
:100d400008b440200804000000000000ecbc402073
:100d5000200000000100000001000000030000006e
:100d60000000000000000000000000000000000083
:100d70000000000008bc402008bc40200800000023
:100d80000000000014bc402008000000000000002b
:100d900010b840200c020000000000008cbc402075
:100da00060000000010000000100000003000000de
:100db0000000000000000000000000000000000033
:100dc000000000008133400000000000000000002f
:100dd000000000009d424000ff384000000000007d
:100de0000000000000000000000000000000000003
:100df00000000000000000000000000000000000f3
:100e000000000000000000001cbc402004000000a6
:100e1000000000000000000000000000666666663a
:020000040000fa
:020000040040ba
:100ef0002de9f04f099f154604468e461e46002bed
:100f000040f0cc808a42b2fa82fc4cd9bcf1000f8e
:100f10000bd0ccf1200801fa0cfe20fa08f802faf6
:100f20000cf548ea0e0e00fa0cf44fea15491ffac8
:100f300085f8befbf9fa210c09fb1ae30afb08fb52
:100f400041ea03439b452ad9eb180af1ff3004d24a
:100f50009b4502d9aaf102002b44a3eb0b03a4b2d8
:100f6000b3fbf9f209fb123302fb08f844ea03442d
:100f7000a04516d92c1902f1ff3303d2a04501d99f
:100f8000931e2c44a4eb080443ea004027b124fa42
:100f90000cf400233c607b603146bde8f08f504686
:100fa000dbe71346eee702b9ffdebcf1000f2ed1fe
:100fb0008b1a01264fea154eaab2b3fbfef8210c9c
:100fc0000efb183308fb02f941ea0343994561d946
:100fd000eb1808f1ff3004d2994502d9a8f10200bc
:100fe0002b44a3eb0903a4b2b3fbfef10efb1133b8
:100ff0004a4344ea0344a2424ed92c1901f1ff337b
:1010000003d2a24201d98b1e2c44a41abce7ccf116
:10101000200e02fa0cf521fa0ef901fa0cf320fa6f
:101020000efe4eea03034fea154800fa0cf4b9fb32
:10103000f8f11ffa85fe08fb1192180c01fb0ef661
:1010400040ea0242964221d9aa1801f1ff3003d2a8
:10105000964201d9881e2a44921b9bb2b2fbf8f932
:1010600008fb192209fb0efe43ea02439e450fd9f5
:10107000eb1809f1ff3604d29e4502d9a9f1020608
:101080002b44a3eb0e0346ea004693e70846e3e74a
:101090004e46f6e74046a4e70b46b6e78b4206d934
:1010a000002f7ed00026c7e90001304674e7b3fa6e
:1010b00083fcbcf1000f0fd18b4201d3824209d8cf
:1010c000841a61eb030e0120002f6dd0c7e9004e9a
:1010d000002661e76046f7e7ccf1200e03fa0cf337
:1010e00022fa0ef521fa0ef41d4301fa0cf320fa50
:1010f0000ef10b434fea154a00fa0cf6b4fbfaf96d
:101100001ffa85f80afb19401c0c09fb08f144ea98
:101110000044a14202fa0cf23fd92c1909f1ff3028
:1011200004d2a14202d9a9f102002c44641a9bb254
:10113000b4fbfaf90afb194409fb08f843ea044135
:1011400088452cd9691809f1ff3304d2884502d9a2
:10115000a9f10203294443ea0040a1eb0801a0fbe6
:1011600002894945c2464c4602d306d1464504d2bf
:10117000b8eb020a69eb05040138afb1b6eb0a031c
:1011800061eb040606fa0efe23fa0cf34eea0303a3
:1011900026fa0cf6c7e900369ae74846c6e74b46fa
:0c11a000d9e73e463846f7e63e46f5e645
:020000040000fa
:020000040040ba
:1011ac00f0b58c4c85b02378013b092b34d8dfe8a3
:1011bc0003f092767e35543548403d3d0a269df825
:1011cc000a208548012531468df80c6002f0e8fdb7
:1011dc000deb06022b463021009203aa01956068a4
:1011ec0002f0cefe074603469df80a209df80c102f
:1011fc007a4802f0d5fd002f00f0b9809df80a1056
:10120c00262900f0b980764802f0cafd75496420a1
:10121c0002f060f90623237005b0f0bde06802f01f
:10122c006bfe0028f8d005232370f5e700bf05b04e
:10123c00f0bde06802f060fe0028edd009232370b9
:10124c00eae7217a002900f0888001295fd06648fe
:10125c0002f0a6fd0a232370dee723695520aa219c
:10126c005a1c052b8df80a008df80b1022614adcf4
:10127c0040f2ff130122ff215c48adf80c3002f064
:10128c008ffd03aa02233021606802f06dfe002856
:10129c0094d1574802f026fd0a232370bce7e0687e
:1012ac0002f02afe0028b7d003232370b4e70723eb
:1012bc0000224e481946adf80c3002f071fd0223a5
:1012cc0003aa3021606802f04ffe00283ed10a23a9
:1012dc00237005b0f0bd48f2070380220721434874
:1012ec00adf80c3002f05cfd022303aa30216068db
:1012fc0002f03afe0028ead03a49642002f0eaf8fb
:10130c000223237088e73b4802f0ecfcdfe7282738
:10131c00394d002606e00136012002f04bfa023569
:10132c00b7421dd002232a463021606802f01cfe11
:10133c000028f0d16b7831462a78304802f030fd25
:10134c002f4802f0cffc0a23237065e7254964205f
:10135c0002f0c0f8042323705ee7c527294dd8e7b7
:10136c002049642002f0b6f80823237054e726487d
:10137c0002f0b8fc26704fe70b239df80b201648a3
:10138c0019468df80c3002f00bfd0df10b012b46bc
:10139c00019503aa00916068302102f0f1fd054629
:1013ac0003469df80b209df80c100c4802f0f8fc3d
:1013bc0055b19df80b10a1f14003022b7ff63eaf07
:1013cc00124802f0edfc21e7114802f08bfc26706c
:1013dc0022e700bfc8bb4020c0164000f0164000fa
:1013ec0038174000d4bb4020a017400060164000c6
:1013fc00981640008416400030354000c417400059
:10140c00f8174000bc194000201740007817400026
:04141c006017400015
:020000040000fa
:020000040040ba
:1014200070b5834d82b02b78013b072b2ed8dfe8b7
:1014300003f0505ba96375322f2f00234ff4ab44a8
:10144000022101a81a46adf8044002f03dfc002834
:1014500000f0c1800024022301aa01210df1030044
:101460008df8034002f030fc9df80530552b2cd050
:10147000704802f03dfc4ff0ff336f4964206b6011
:1014800002f02ef800b100bf02232b7002b070bd35
:1014900000bf02b070bd02f085fd684e696900248e
:1014a000411aa6f1200002f081fceb683046195d7c
:1014b000013402f07bfc142cf7d1d5e903325f48ec
:1014c000134413f8011c02f071fc07232b7002b0c7
:1014d00070bdab685a1c052baa60aedd584802f0ff
:1014e00007fc08232b70d1e7686802f00bfd002889
:1014f000ccd001232b70c9e74124022301aa01218a
:101500000df103008df8034002f0defb9df805307d
:101510001b0768d4ab680133ab60b7e742240223f2
:1015200001aa01218df803400df10300432402f0cc
:10153000cbfb442601aa022301210df103008df803
:1015400003409df8054002f0bffb01210df10300af
:1015500001aa02238df803609df8056002f0b4fb38
:101560009df8050044ea06212c6900f07f0041ea5d
:1015700000418c4246d02246324802f017fc082334
:101580002b7083e700234ff4c274022101a81a468e
:10159000adf8044002f098fb28b92b4802f0a8fbf4
:1015a00008232b7072e72a690021e8684ff4217440
:1015b00002f01efe02f0f6fc0023686102211a46ca
:1015c00001a8adf8044002f07ffb30b100220423f3
:1015d000aa602b705ae71d484be71d4802f088fbb4
:1015e00008232b7052e702f0ddfc1a4a6969936bfd
:1015f000411a194883f40003936302f0d7fb0723d1
:101600002b7043e73c2602f0cdfc23466861ea6874
:1016100001a801218df8046002f056fb10b10623e9
:101620002b7033e70d4802f063fb08232b702de786
:10163000b0bb402068234000b4bb402038244000a9
:1016400030234000d4234000842340004c2340003a
:101650009c234000000e0e40b8234000f8234000b9
:020000040000fa
:020000040040ba
:1016600023206932635f77726974655f72656728ea
:101670003078253032782c20307825303278290d9a
:101680000a0000002320746f6f206d616e79207254
:101690006574726965730d002320636f756c642037
:1016a0006e6f74207772697465204f56323634300d
:1016b0005f4445565f4354524c5f5245470d00000e
:1016c00023206932635f726561645f7265672830e9
:1016d000782530327829206f6e20656e7472792cef
:1016e0002064617461203d20253032780d0a0000ad
:1016f00023206932635f726561645f7265672830b9
:10170000782530327829203d3e20253032782c2033
:1017100073756363657373203d2025640d0a0000b3
:101720002320636f756c64206e6f74207265616432
:10173000207669640d0000002320766964206d69bd
:10174000736d6174636820283078253032782920e1
:101750002d207265747279696e670d0a00000000b1
:101760002320636f756c64206e6f742072656164f2
:10177000207069640d0000002320706964206d6989
:10178000736d6174636820283078253032782920a1
:101790002d207265747279696e670d0a0000000071
:1017a0002320556e7265636f676e697a6564206980
:1017b0006d61676520666f726d61742025640d0a26
:1017c00000000000232041742070616972735b2562
:1017d000645d2c206661696c656420746f2077728b
:1017e000697465205b3078253032782c203078257c
:1017f0003032785d0d0a000023204661696c656413
:1018000020746f206c6f61642063616d657261206c
:08181000666f726d61740d003a
:020000040000fa
:020000040040ba
:101818002de9f04f85b0019001a802f02df80028bd
:1018280003da002005b0bde8f08f019b1b095d1e9f
:10183800202d0fd9023b5b4ab3f5007f35bf02eb81
:10184800d30302ebd31313f8045c13f8045c34bf1e
:10185800013511350123a5f12001c5f1200203fa54
:1018680001f923fa02f203fa05f849ea0209d8f164
:1018780000084d4f69eb4909d7e9002302ea080a35
:1018880003ea090b5aea0b0342d1019b03a8103360
:10189800039302f0a7fb18b9444b0c221a60c1e766
:1018a800d7f80852a84206d0039b103b03930123a4
:1018b80000f110058360039bea18012143f001033e
:1018c800b5f1080442f8083c42f8041cc7f808229d
:1018d80045f8043ca5d0204602f0ecf888b155f84c
:1018e800083c55f8041c23f00103e31a5a6822f057
:1018f80001020a445a6055f8041c21f001016250a3
:101908001c462046019902f0a3f804f1080089e773
:101918005046244a264bbaf1000f34d1cbf10001ce
:1019280001ea0b014b4302ebd36393f83c6020368a
:10193800304602f08bfa731c57f8334007ebc303a9
:10194800083b9c4298d0272e26dd0235ae4201dcaa
:101958003f2e21d16168019a21f001018d1a284694
:1019680002f05af8864217d1a318e068a668d86032
:101978009e608360986842f00102c360c3e9002555
:1019880065506260bde7caf1000101404b4302ebbc
:10199800d36393f83c60cbe73146204601f090fcd6
:1019a800afe700bf2433400010b8402018bc4020e7
:0419b80029e66b07aa
:020000040000fa
:020000040040ba
:1019bc00ff002cff2edfff013c321100090204a8ae
:1019cc0013e514482c0c33783a333bfb3e0043119f
:1019dc00161039023588220a3740230034a006023b
:1019ec00068807c00db70e014c004a81219924408e
:1019fc00253826825c00630046220c3a5d555e7ddc
:101a0c005f7d6055617062807c05208028306c00a1
:101a1c006d806e007002719473c13d3412045a577c
:101a2c004fbb509cff00e57ff9c04124e01476ffca
:101a3c0033a0422043184c0087d0883fd703d910dd
:101a4c00d382c808c9807c007d007c037d487d481a
:101a5c007c087d207d107d0e9000910e911a9131a5
:101a6c00915a91699175917e9188918f919691a3dc
:101a7c0091af91c491d791e891209200930693e392
:101a8c0093039303930093029300930093009300aa
:101a9c009300930093009600970897199702970c60
:101aac0097249730972897269702979897809700b6
:101abc009700a400a800c511c651bf80c710b66618
:101acc00b8a5b764b97cb3afb497b5ffb0c5b19442
:101adc00b20fc45ca600a720a7d8a71ba731a700ec
:101aec00a718a720a7d8a719a731a700a718a72020
:101afc00a7d8a719a731a700a7187f00e51fe17782
:101b0c00dd7fc20eff00e004c0c8c196863d519037
:101b1c00522c530054005588570050925a505b3c3d
:101b2c005c00d304e000ff000500da08d703e000f6
:0c1b3c000500da005a185b18ffff00bf1c
:020000040000fa
:020000040040ba
:101b48002de9f0415c4b5d4c656a1b6ada0503d5eb
:101b5800ff2101222177627713f0010106d0564a4e
:101b68000827042607201760166090629f0501d594
:101b780001222277627ff2b9227f52b2013a032a08
:101b880019d8dfe802f0474e02425e0713d56369b1
:101b9800e2682169013a9a4201d1002971d1e268cb
:101ba800591c013a9a425ed06068434ac35c536349
:101bb800414b61611b6a237fff2b16d0237f052bc6
:101bc80001d0bde8f0813c4b002207260820042103
:101bd800627722779e6218601960236a002bf0d022
:101be800236a2846bde8f04118470022324b0720f7
:101bf800082122770422986219601a60236a002b50
:101c0800dcd0236a28469847d8e70029d3d0052393
:101c18002377d0e7e3682088a3b1002100f006fd10
:101c2800c9e79a07c7d5a3692269023a9a420dd033
:101c380021495a1c0f6ba6682069f754904209d0b5
:101c4800a261b8e7012100f0f1fcb4e71a4a0221c9
:101c58001160ede702238b620b6adb074cbf05239b
:101c680004232377ece762680220d65c0422124b37
:101c78005e6318609a621b6ad8071bd50523237711
:101c880096e772b60c4a042102209162591c6668d4
:101c9800f35c53632077536843f48053536023699c
:101ca800012b0cbf03230123136062b6024b0322ee
:101cb8005a627de722777be7008001406cbb4020b9
:020000040000fa
:020000040040ba
:101cc800302e302e320000000a23203d3d3d3d3da0
:101cd8003d3d3d3d3d3d3d3d3d3d3d3d3d3d3d3d2c
:101ce8003d3d3d3d3d0a23204172647543616d20b1
:101cf8004f56323436302054657374207625730d70
:101d08000a000000232050726f626520666f7220ff
:101d18004f5632363430206661696c65640d0000b8
:101d2800232050726f626520666f7220417264755d
:101d380043616d206661696c65640d002320417202
:101d4800647543616d2064657465637465640d0032
:101d580023206f76323634305f636f6e666967753d
:101d68007265284f56323634305f4d4f44455f59bf
:101d7800555629206661696c65640d00232043630c
:101d88006f6e66696775726564204f5632363430f7
:101d980020666f7220595556206d6f64650d0000de
:101da8002320436f756c64206e6f7420636f6e66ba
:101db8006967757265204f563236343020666f7207
:101dc80020595556206d6f64650d000023206172ff
:101dd800647563616d5f73746172745f636170745d
:101de800757265282920595556206661696c6564a5
:101df8000d00000023204172647563616d206361ea
:101e08007074757265206f66205955562066616931
:101e18006c65640d000000002320556e61626c65de
:101e280020746f2072656164205955562062797458
:101e380065730d0023204650533a2025660a00009a
:020000040000fa
:020000040040ba
:101e480008b54f4b98474f4b9847eff3108172b640
:101e58004d4ad2f8883043f47003c2f88830bff393
:101e68004f8fbff36f8f01b962b6484b484a5a602b
:101e78009a6812f0010ffbd0444bdb6813f4c07f63
:101e880013d0444b0c221a60404b434a5a609a685c
:101e980012f0010ffbd03d4b404a5a609a6812f08d
:101ea800010ffbd03e4b3f4a1a60bff34f8fbff381
:101eb8006f8f354cd4f8903223f00103c4f8903278
:101ec800d4f8943223f00103c4f89432bff34f8f4f
:101ed800bff36f8f01f078fb334b23f07f03a360d0
:101ee800324b9847636913f4003f12d1bff34f8f09
:101ef800bff36f8f0022c4f85022bff34f8fbff398
:101f08006f8f626942f400326261bff34f8fbff393
:101f18006f8f1d4b5b6913f4803f29d11a4b002248
:101f2800c3f88420bff34f8fd3f88030c3f3c906ba
:101f3800c3f34e335a0143f6e075134802ea050429
:101f4800334644ea8371c0f86012013bb3f1ff3fa6
:101f5800f7d1203a12f1200ff0d1bff34f8f0a4a80
:101f6800536943f480335361bff34f8fbff36f8fcf
:101f78000f4b98470f4b984702f006f9fee700bf52
:101f88008f2d40008f2d400000ed00e0000c0e402a
:101f98000d00005a0cbb40200c08005a0c07005ad0
:101fa80000180e40010000a5000040006d324000fe
:081fb8008f2d40008f2d400029
:020000040000fa
:020000040040ba
:101fc00000f1ff3c2de9f0471cf1030f82b09df8b2
:101fd00030501fd8c0f30724e4b91f46164689467f
:101fe00001f09cfd8246a8b1012d19d0b6fa86f306
:101ff0005b09002f08bf0123082d18bf022d0cbf5d
:10200000012000200ad12bb9daf8008098f8293095
:10201000012b11d0002002b0bde8f087002bfad1cf
:102020000b9b002bf6d00a9b002bf3d0daf8008034
:1020300098f82930012bedd10021d8f81800d8f8f4
:10204000103088f82910daf80c208af80510904230
:10205000c8f824a009d05b690af10c009847daf8a7
:102060000c20d8f81030c8f81820022d2ed0042dde
:1020700010d0012d1ad01b6998478af805009af8ec
:10208000053003f0ff004bbb88f82800012388f8d7
:102090002930c0e70b9a3146484600923a469c6880
:1020a0000a9ba04748b9d8f81030e4e71b684846b7
:1020b000dde90a1298470028f5d0fef74bfa98f8a8
:1020c0002b4084b902f0f0f82046dfe75b683a461f
:1020d0003146484698470028efd1e4e70123002025
:1020e00088f82830d2e7013c88f82b4002f0dcf871
:0c20f00098f82800b0fa80f04009c7e71b
:020000040000fa
:020000040040ba
:1020fc002de9f04f0e4649683568d6f80890f76818
:10210c008bb0cde903230029acbf25f002050121da
:10211c0015f010030593039b8346d3e900232fd0be
:10212c0052ea03002cd0a9f10208346915f008001a
:10213c0004f1ff3408904ff00000385518bf08f137
:10214c00ff388a46012c1ddc059b002b54d1089bc3
:10215c0013b1013c20233b5532690095013a4b46a3
:10216c00121b3919584600f04dfedbf80430db0524
:10217c0003d573689842b8bf18460bb0bde8f08f12
:10218c00c846d2e752ea030009d1baf1000f06dcc7
:10219c00a8eb010050440028d6dda807d4d502f0e6
:1021ac000f000928d4bf00f1300e00f1570e04982f
:1021bc00a0f1410cbcf1190f04f1ff3410d84ef012
:1021cc00200cacf1610cbcf1190f09d870460991c7
:1021dc00cde9062302f025f8dde9062309998646a8
:1021ec00100940ea03704fea131c07f804e00af1e7
:1021fc00ff3a02466346a5e7039bd3e9000150ea88
:10220c000103a4d03a19049b02f8013c023c302390
:04221c003b559ce7ab
:020000040000fa
:020000040040ba
:1022200000223e483e494ff0ff336ff0100cf0b4ef
:10223000c0f8142141f21004d0f814516ff406775d
:10224000384e2c434ff40675c0f814414ff4000487
:102250004e606ff400063448086010204b650f662e
:102260006ff007674d664ff00765c1f89030c1f811
:10227000a0300c614e616ff020668c6301f5007137
:1022800041f8e82c4ff02064086748674860274809
:10229000c1f800c04b650b66c1f89030c1f8a030a2
:1022a0000a614b618a63c1f81821036043650366c4
:1022b000c0f89030c0f8a030026143618263c0f87a
:1022c0001821c1f87054c1f87424c1f80454c1f83d
:1022d0000074c1f85434c1f86034c1f89034c1f8c6
:1022e000a034c1f81044c1f81464c1f83844c1f8ee
:1022f0001825c0f80034c0f85434c0f86034c0f871
:102300009034c0f8a034c0f81024c0f81434c0f8d9
:102310003824c0f81825f0bc704700bf0080084082
:10232000000e0e4018002000e7ffdfff00120e40f5
:020000040000fa
:020000040040ba
:102330002320746f6f206d616e7920417264754344
:10234000616d20726574726965730d0023205350ae
:10235000492070726f6265207772697465206661ca
:10236000696c65642e0d0000232053504920707263
:102370006f62652072656164206661696c65642eb8
:102380000d00000023206661696c656420746f2075
:102390007265736574206669666f0d00232053743f
:1023a0006172742063617074757265206661696c16
:1023b00065642e0d000000002020202063617074f1
:1023c000757265203d2025336c6420746963732c1d
:1023d0002000000023204649464f206c656e67743c
:1023e000682069732025642c2065787065637465a6
:1023f000642025640d0a00002320436f756c64205f
:102400006e6f742072656164204649464f20636f89
:102410006e74656e74730d006c6f6164203d2025d1
:10242000336c6420746963732c2073616d706c6508
:1024300073203d200000000025303278200000bfce
:020000040000fa
:020000040040ba
:102440002de9f04700295bd0002859d0002a68d038
:10245000394c8b42e76b88bfa3eb010ea46898bf91
:102460004ff0000e07f0f007002f55d1324d2c69c8
:10247000a607fcd54ff0000c2f4c4ff6ff794ff01c
:10248000ff0866468e4202d1bef1000f2ad08e426e
:102490001ed0751cb7b910f806a02e46c4f80ca0c3
:1024a0001bb92569ad07fcd5ece72569ed07fcd51f
:1024b0009c45a568e6d20cf1010a7fb902f80c50e0
:1024c000d446dfe730f816a02e46c4f80ca0e7e7a4
:1024d0009fb9c4f80c800ef1ff3ee1e722f81c50d2
:1024e000d446cfe7144a13699b05fcd54ff080739f
:1024f000012413602046bde8f087c4f80c90eae799
:10250000141c18bf0124002b08bf0024002cf1d09c
:10251000002808bf00219be75b0849084fea5e0ed0
:10252000a4e7054c13469646e76ba46807f0f0074e
:0c253000002f9bd0f0e700bf00800040af
:020000040000fa
:020000040040ba
:10253c002de9f84300286ad050f8043ca0f10804b7
:10254c0023f00107e6193268934200d0ffde72686f
:10255c0023681340da070fd4204601f0a9fa0028ab
:10256c0057d1304601f016fb0028f0d0736823f0e9
:10257c0001031f441e44eae747f001036360384639
:10258c00336001f047fa054601f05efc236872687f
:10259c001340db07e0d5dff88ce0dee90089c5f1fc
:1025ac00200ca5f1200228fa05f009fa0cfc29faf6
:1025bc0002f240ea0c001043012100ea0102002360
:1025cc001343c5f120007346a5f1200212d121fa64
:1025dc0000f001fa02f2a94042ea00021ebfdef846
:1025ec0000000143cef8001022b1def804100a43bb
:1025fc00cef80420681c03ebc003a3f1080267604b
:10260c003760a2605a68e2605c60e3689c60bde879
:10261c00f883236823f00103e41a636823f00103b1
:08262c001f449ee710b8402096
:020000040000fa
:020000040040ba
:102634007f2830b44ad90302324ac0b203f4fe03fd
:1026440043f480735360d0602f4b00225a619a6127
:1026540049bbda68012a40d003222a490120052413
:102664001a775a6812784a635a6902445a614c626a
:1026740030bc704772b65968224a087811465063d4
:102684005a6901325a610a6a12f0050ffbd10a6acb
:10269400510708d44ef660201a4901e001382dd0c4
:1026a4000a6a5207fad5022216491a774a6842f48e
:1026b40080524a601b69012b0cd001230b6062b667
:1026c400104b032201205a6230bc704700040d4baa
:1026d4005860b9e703230b60f1e719690029c9d1f0
:1026e40004240849022510461c775c6824784c634e
:1026f4005c6901345c610d604a62e5e702225a7745
:0c27040062b6e1e7008001406cbb4020a1
:020000040000fa
:020000040040ba
:102710002de9f0432d4c85b0074694f820009df834
:10272000308098b994f82800012805d04ff0ff3583
:10273000284605b0bde8f083cde90223019101f000
:10274000c5fb039bdde901120028efd094f90000de
:10275000022811d04ff0ff35636894f821005b69bf
:10276000984794f82030002be2d10123284684f8c2
:10277000283005b0bde8f0830029ebd0b942e9d399
:102780000025134e307820b101352036052df9d1c2
:10279000e0e7dff840c0cf1b30754ff6ff7ebcf896
:1027a0000090707509f10100b760012745ea0945fd
:1027b00080b286f802807160704508bf3846f561c6
:1027c0003780acf80000c6e90323c5e710bb402002
:0827d0001cba40200cbd4020a2
:020000040000fa
:020000040040ba
:1027d80053ec102bc3f30a512de9f04140f2fd7080
:1027e8004e1e86421d4644d8a1f2ff30002835db34
:1027f800332831dc264bc0f120084ff0ff3c03faa8
:1028080008f2a1f21f412cfa00fc10ee104a4cea23
:10281800020c23fa01f24cea020c23fa00fe04ea45
:102828000c0605ea0e0724ea0c0256ea070425ea14
:102838000e030fd0002a73f100040bda4ff4801551
:1028480005fa08f425fa01f10c43121925fa00f0eb
:1028580040eb030343ec102bbde8f0819fed0a7bae
:10286800bfee000b002a73f1000327fe000bbde842
:10287800f0810029f0d10a4603f0004343ec102b05
:10288800eae700bfaff3008000000000000000008e
:04289800ffff0f002f
:020000040000fa
:020000040040ba
:10289c0050b92b4b93f90d20022a05d11a7b1ab192
:1028ac0093f82a20012a02d04ff0ff3070471a7893
:1028bc0083f82a00002a3dd1f0b45f6887b99e687e
:1028cc0086b1da699079a8b102f11004002001e018
:1028dc00957975b1013022461034b042f8d101e03f
:1028ec000807ecd501224ff0ff3083f82a20f0bc0a
:1028fc007047c0b25d69012411710026090713608d
:10290c00947107f1010756714ff0010648bf1c7016
:10291c001c8cd5604ff6ff75a11940ea04405f602e
:10292c0089b2906083f82a60a94208bf314690684a
:10293c001984dce701224ff0ff3083f82a2070471e
:04294c0040bb40202c
:020000040000fa
:020000040040ba
:102950002de9f041284dd5e906236c6a501c43f15e
:102960000001c5e90601002c3ad095f8203001336a
:1029700085f82030a368002b3ad101260ae0e368ed
:1029800083b1e06900f030f9e3680bb12069984742
:102990006c6a74b1a36820465bb9a3782675667526
:1029a000002becd000f060fea378002becd163701c
:1029b000eae7124f00243e46a04607eb44130134d9
:1029c0005a7d22b1b27883f81580012a0ad0052ced
:1029d00006f12006f1d195f82030013b85f8203032
:1029e000bde8f081726830469a6000f0b3f8eee717
:1029f000a368013ba360c0e710bb40201cba402085
:020000040000fa
:020000040040ba
:102a0000882910b536d012dc812943d003dc802917
:102a100040d0002010bd82290ed08429f9d1196838
:102a200002b30a1d1a60b1f90020d3171ee0a029d5
:102a30002bd00bdc9029ecd11968073121f007016c
:102a400001f108021a60d1e900230fe0c02901d08a
:102a5000f029ded11a68111d196013680360002384
:102a6000436005e00a1d1a600a880023c0e90023bc
:102a70000120cfe7196822b10a1d1a6091f90020e0
:102a8000d3e70a1d1a600a78efe71a68111d19606a
:102a90001268cae719681ab10a1d1a600a68c4e701
:0c2aa0000c1d1c600b68c0e90032e1e76f
:020000040000fa
:020000040040ba
:102aac002de9f041d2e900230c4686b007465fead7
:102abc00d37820684968a5680590e66841d05242f1
:102acc0063eb4303002908db20f002000590b8f10a
:102adc00000f02d1059948072ad5691e05a8029056
:102aec000a20cde90010204600f00afab8f1000fd8
:102afc0002d1059b59071fd5b8f1000f00f1ff302b
:102b0c0014bf2d232b2333542269059b0093013ac8
:102b1c002b46121a3118384600f074f97b68db0525
:102b2c0003d563689842b8bf184606b0bde8f0817b
:102b3c000807d2d42946d1e71a07e5d50138202356
:082b4c00e1e70029c0dac5e74a
:020000040000fa
:020000040040ba
:102b5400002843d02de9f047dff884a0d0f808e03e
:102b6400daf82430002b2fd0f0464ff000094ff054
:102b7400000c0024002500e013469a68a61845f1cd
:102b84000007b94508bfb04514d399689c469a69b3
:102b9400641845f10005002aeed18261aeeb04040d
:102ba4009861836984601bb181689a68521a9a603b
:102bb400bde8f087bcf1000f0cd1aeeb0404caf8f9
:102bc400240083618460efe7c0f808e0caf82400b9
:102bd400bde8f087dcf818206346dee7704700bfe5
:042be40010bb4020c2
:020000040000fa
:020000040040ba
:102be8002de9f041204c054694f820305bb994f863
:102bf8002830012b03d001252846bde8f08101f0db
:102c080061f90028f7d06b1e033316d8abb2042b3a
:102c180013d85e01154f07eb0608d8f81c309d4203
:102c28000bd1bb5d4bb198f80130b3b90023ba1989
:102c38001d461375bb55537500e00125636894f86c
:102c480021005b69984794f82030002bd4d10123e8
:102c5800284684f82830bde8f081404600f000fda1
:102c6800002388f80130e1e710bb40201cba40205f
:020000040000fa
:020000040040ba
:102c780070b5204c054694f8203053b994f82830a4
:102c8800012b02d00125284670bd01f01bf9002850
:102c9800f8d06b1e03331bd8abb2042b18d85b01da
:102ca800154ef118c869854212d1f05c80b1487898
:102cb800e8b9886808b9486888601e443046fff754
:102cc80045ff0023012233751d467270737500e0bd
:102cd8000125636894f821005b69984794f82030cf
:102ce800002bd0d10123284684f8283070bd002558
:0c2cf800efe700bf10bb40201cba4020da
:020000040000fa
:020000040040ba
:102d04002de9ff41836946690093f61acde9016113
:102d140004461746039216444ff002086d46424695
:102d24002946206800f0a5ffb04209d1d4e9023257
:102d3400c4e905331a44a262384604b0bde8f08100
:102d440000280dda6268002342f01002b8f1020f85
:102d5400a362c4e90533626015d06b68ff1aebe720
:102d64006b68984288bf0835a6eb000688bfc01a76
:102d74002b6803442b606b68a3eb000088bf08f149
:0a2d8400ff386860cbe71f46d6e772
:020000040000fa
:020000040040ba
:022d8e0070478c
:020000040000fa
:020000040040ba
:102d9000184b00211b6810b5186801f021fa164b7a
:102da0000021164c1b68186801f01afa01f0c8f9e6
:102db00000f014fbfff734fa00f0c6fe4ff40043b6
:102dc0000f4a10494b60536000f0baff00f094fcca
:102dd00000f0daff0c49002000f07ef90b4920607a
:102de000002000f0adf9606000f05affbde810402f
:102df00000f04cbb24bc402008bd4020f8bb402064
:102e000050180e4000190e40804140007c424000a6
:020000040000fa
:020000040040ba
:102e10002de9ff471d460c9b13f0010906468a4623
:102e2000144601d195420bd822465146304600f057
:102e300085fda54204d82546284604b0bde8f087a4
:102e40002f1b102f3a464ff0200128bf1022684652
:102e5000b84601f0cdf9b8f10f0f11d83b096ff06a
:102e60000f0202fb03726946304600f067fdb9f1bc
:102e7000000fe1d122465146304600f05ffddbe70e
:102e800010226946304600f059fda8f11008e2e72b
:020000040000fa
:020000040040ba
:102e9000842910b523d00cdc812903d0822913d0da
:102ea00080290bd119680c1d1c600b6803601a6027
:102eb00013e0902921d003dc882917d0002010bd11
:102ec000a029efd0c029ece719680c1d1c600b6825
:102ed0000360d1171046c3e900010120efe719682c
:102ee0000c1d1c600b6803601a80f6e719680c1d46
:102ef0001c600b6803601a70efe719680c1d1c60fa
:0c2f000009680160d317c1e90023e6e76f
:020000040000fa
:020000040040ba
:102f0c002de9f84f04460c9f6668d4f80cb0246980
:102f1c0010463a68013c002502f0020a0b9a0bf8a5
:102f2c000450002e1946b8bf0126012390464feae3
:102f3c00e279002c03dcd3b12046bde8f88f50eacf
:102f4c00010209d1721b002a06dc0a9a521b002ac4
:102f5c00f1ddbaf1000feed042464b4600f0c0fd59
:102f6c00013c134630320bf804200135e1e73b6895
:082f7c0023f010033b60dfe7c6
:020000040000fa
:020000040040ba
:102f8400f8b5846a05460f46164654b1ab6a6a69b9
:102f94009b1ab3420bd2324639462846fff7b0fe9d
:102fa400f8bd01f009f80028f0d02046f8e7002e1b
:102fb400f1d095f93430002b1bdbdbb23446621eb2
:102fc400b95c994212d1224639462846fff798fe49
:102fd400a042e5d32744341b22463946686901f0f0
:102fe40091f86b691c446c613046d9e71446002a99
:062ff400e5d13446f0e7d0
:020000040000fa
:020000040040ba
:022ffa00fee7f0
:020000040000fa
:020000040040ba
:102ffc0038b5194c054694f8203053b994f828305c
:10300c00012b02d00025284638bd00f059ff0028be
:10301c00f8d06b1e03330fd8abb2042b0cd85b016a
:10302c000e49ca18d069854206d1cd5c2db1157deb
:10303c000023edb2137500e00025636894f82100bd
:10304c005b69984794f82030002bdcd1012328468b
:10305c0084f8283038bd00bf10bb40201cba40207b
:020000040000fa
:020000040040ba
:10306c0068b30368164a934227d8164a5b000029b6
:10307c0008bf1146b1fbf3f103390023ff290ed928
:10308c0001334908dbb2ff298cbf01200020062b3d
:10309c0088bf00200028f3d1ff2910d81b040b4354
:1030ac00012010b4084c226902f07c52134343ea0d
:1030bc00012121615df8044b704700207047704777
:0c30cc0000093d0080d1f00800800140a8
:020000040000fa
:020000040040ba
:1030d80040bb70b5164c94f90d30022b25d005462f
:1030e80040f201120126d1e9000326732061e36151
:1030f80025706560d1e90203a4f829202684a06020
:103108006562c4e90533fdf721fa84f82b6001f004
:10311800c7f82369214607489b6998470223284630
:10312800637370bd4ff0ff3070474ff0ff3070bdd4
:0831380040bb40207939400042
:020000040000fa
:020000040040ba
:1031400049b3f8b5051c18bf01250dbb134c01236d
:103150004ff47a72002684f8283000270b6809792a
:103160000f4863602172294684f8205065621b680d
:10317000e260c4e90667984763685b689847294638
:10318000a022084801f034f8022320462370f8bd3d
:103190004ff0ff30f8bd4ff0ff30704710bb4020bc
:0831a000512940001cba402037
:020000040000fa
:020000040040ba
:1031a80050b338b5164b0d465b6913f0e00f1ed1ce
:1031b80025b301460024124a5369db07fcd553693d
:1031c80013f0e00f16d1536813f4003f93690bd046
:1031d800c3f3080321f8023b0134a542ecd1281bb4
:1031e800b0fa80f0400938bd00f8013bf4e700f080
:1031f8005bfedde7002038bd002070472c46eee777
:043208000080024000
:020000040000fa
:020000040040ba
:10320c007fb5c36800911546002b18bf013a019297
:10321c0082680446cde902230e4602226946006804
:10322c0000f00efd002808dc00f0180383f0080203
:10323c0063681343636005460fe0019a8242fad239
:10324c00a368e363801ae268184420642ab15a1c0c
:10325c00e2632e441b7806f8013c284604b070bd8e
:020000040000fa
:020000040040ba
:10326c000e4a38b5002313600d4a0e4c13600e4afb
:10327c000e4d13600e4a13600e4a13600e4a5362d1
:10328c0013610123936000f0bdff00f09af9ac428a
:10329c0000d338bd54f8043b9847f8e714bc4020e1
:1032ac00c8ba402074014000c4ba402078014000e4
:0c32bc00bcba4020c0ba4020ccba402070
:020000040000fa
:020000040040ba
:1032c80070b5d0e90245a54217d10122a1f120032a
:1032d800c1f1200622fa06f602fa03f333438a40c4
:1032e800db43d6431ab10c490a6832400a605a1cbb
:1032f8001fbf094a51680b4053604368ac6043f0f4
:10330800010223f00103e56042601844036843f0ba
:0c3318000103036070bd00bf10b840202e
:020000040000fa
:020000040040ba
:103324002021222324242525262627272828282847
:10333400292929292a2a2a2a2b2b2b2b2c2c2c2ce1
:103344002c2c2c2c2d2d2d2d2d2d2d2d2e2e2e2ea9
:103354002e2e2e2e2f2f2f2f2f2f2f2f000117021f
:103364001d1813031e1b190b1408040d1f161c1221
:0c3374001a0a070c1511090610050f0eaf
:020000040000fa
:020000040040ba
:1033800038b50d46044608b9002038bd43689b0691
:1033900007d5d0e905239a4216d80023c4e905339e
:1033a000a362d4e90f13994204d20122c91a2068fa
:1033b00000f094ff0023c4e90f33002de4d020680f
:1033c000bde8384000f06dbf0022c36a114698473f
:0c33d0006369002be1d14ff0ff30d6e71d
:020000040000fa
:020000040040ba
:1033dc00124b13491a469962936e9b07fcd5136bdb
:1033ec000e4923f0700313638b6e1807fcd50b6b1f
:1033fc000a4a23f4407343f480730b63936e1907ea
:10340c00fcd5136b054923f0030343f0020313634c
:10341c008b6e1b07fcd5034b0b61704700060e40ef
:08342c00013f1820005c2b0099
:020000040000fa
:020000040040ba
:103434002de9ff41134dd1f80080af88adf80c7031
:1034440006462868029002aca8798df80e00002a7e
:1034540018bf1446d1e901571a461bb9204600f09b
:10346400cdfe0246002d02dbaa4228bf2a46cdf833
:1034740000803b4621463046fff7c8fc04b0bde857
:08348400f08100bf94424000fa
:020000040000fa
:020000040040ba
:10348c00114b4ff6ff00114ad96801400a43da602c
:10349c00bff35f8f62b60e4ae02182f813134ff42c
:1034ac00002111605a6a42f480225a625a6942f031
:1034bc0010025a615a6a42f400325a625a6a42f451
:1034cc0080325a62704700bf00ed00e00000fa0540
:0434dc0000e100e02b
:020000040000fa
:020000040040ba
:1034e00009b330b5b0fa80f483b06409c4b90d46ad
:1034f0000e494ff47a720023c968a0fb010100f065
:10350000f5fa23460146009422462046fff700f9cb
:10351000431c286004d0fff7affb204603b030bd4a
:10352000012003b030bd0120704700bf10bb402018
:020000040000fa
:020000040040ba
:10353000ff0112401711184319001a4b32094fcae4
:1035400050a85a236d00391235da221a37c32300e6
:1035500034c0361a068807c00d870e414c00ff00a4
:10356000e004c064c14b8635508951c8529653005f
:103570005400550057005a505b3c5c00e000ffffd0
:020000040000fa
:020000040040ba
:1035800013b5836a8df80710044673b16369a26aa4
:10359000934212d3e36a01220df1070120469847b6
:1035a000012806d19df8070005e000f007fd00287e
:1035b000ecd04ff0ff3002b010bd9df8070094f939
:0e35c00034209042e6d05a1c62611870f3e786
:020000040000fa
:020000040040ba
:0235ce00704744
:020000040000fa
:020000040040ba
:1035d00070b50e4b0e4a0021934208d30d480e4d94
:1035e0004ff6ff76016829b943681bb970bd03f82f
:1035f000011bf1e783684268334000f10c0455f881
:1036000023302046984704eb8000ebe70000402081
:0c36100000004020100c4000e040400092
:020000040000fa
:020000040040ba
:10361c00022a70b5044616461d461ad043689b060e
:10362c0017d441b9002d08bf4ff4806505f108008f
:10363c00fef7ecf801466368012e43f0200363604b
:10364c00c4e9021514bfff230a2384f83430024b5b
:0c365c00e362002070bd00bf852f40001d
:020000040000fa
:020000040040ba
:1036680070b4104d696a814218d0b9b10a4600e0b9
:103678001a469369002b18bf9842f9d14bb1836958
:103688001bb186689c6834449c6022b19361002316
:10369800836170bc70478b696b62f8e70b46002248
:0836a800ece700bf10bb40205d
:020000040000fa
:020000040040ba
:1036b00010b50278202a034600f10100f9d0a2f1ea
:1036c00009010429f5d92b2a07d02d2a11d101216e
:1036d0000133013b00200a2403e00021f8e76043a6
:1036e000801a13f8012f303a092af8d901b940425b
:0636f00010bd0021ede712
:020000040000fa
:020000040040ba
:0236f60070471b
:020000040000fa
:020000040040ba
:1036f8000e4b802028214bf2c012f0b418604ff016
:1037080080771960072619694ff440750424002052
:1037180001f07c510a4306491a611f609e625d628e
:103728001c6048770877f0bc704700bf00800140f4
:043738006cbb402006
:020000040000fa
:020000040040ba
:10373c00f0b40e4d049f2c7f64b24cb90e460c496c
:10374c00096a01f04071b1f1407f04d002236b771c
:10375c000020f0bc704728802146ab602f616e6062
:10376c00ea606c77f0bcfef75fbf00bf6cbb40201b
:04377c000080014088
:020000040000fa
:020000040040ba
:1037800010b5054c227832b9044b13b10448aff39d
:1037900000800123237010bd94bb40200000000076
:1037a0000000000008b5034b1bb103490348aff309
:1037b000008008bd0000000098bb40200000000011
:020000040000fa
:020000040040ba
:1037c000f0b40d4d6f682b68db0712d50b4baa6860
:1037d00003fb00f068b101370021ab689342a7eb0f
:1037e0000306a2eb030488bfb4181a46214488429a
:1037f000f3d8f0bc704700bf10e000e0e093040095
:020000040000fa
:020000040040ba
:1038000070b40d4c237f5bb24bb90d460b49096a6e
:1038100001f04071b1f1407f04d0022363770020b2
:1038200070bc704720800121a56022616360e36065
:10383000637770bcfef7febe6cbb40200080014089
:020000040000fa
:020000040040ba
:1038400070b40d4c237f5bb24bb90d460b49096a2e
:1038500001f04071b1f1407f04d002236377002072
:1038600070bc704720801946a36023616560e260e8
:10387000637770bcfef7debe6cbb40200080014069
:020000040000fa
:020000040040ba
:103880000c4a036810b5546a0b4a591e121b8a422f
:103890000ad22bb1094b0c221a604ff0ff3010bd39
:1038a000102202600020fae7173323f00f030360b1
:1038b000f8e700bfccba4020efffff7f18bc4020e4
:020000040000fa
:020000040040ba
:1038c00010b44c68a40602460b4603d45df8044bc2
:1038d00000f08ab891f93410c0b2814203d059691e
:1038e0009c6aa14205d3114618465df8044bfff7c8
:0e38f00047be4c1c5c610a705df8044b7047cb
:020000040000fa
:020000040040ba
:0238fe00704711
:020000040000fa
:020000040040ba
:10390000c8b1b9b10c4a10b4002453699b07fcd567
:1039100053689b030bd530f81430c3f30803d3610d
:103920000134a142f1d101205df8044b7047035de1
:0c393000d361f5e70120704700800240e1
:020000040000fa
:020000040040ba
:10393c0038b5436813f4807f0446154610d00369ec
:10394c0040699a4228bf1d462a4600f0d7fb63699e
:10395c0022692b44551b0022636125611a7038bd06
:0a396c00db06fcd400f030fbf9e7a5
:020000040000fa
:020000040040ba
:1039780038b503690446456a1b69984768716b79cd
:103988004bb903f0ff0294f82b30013384f8282058
:1039980084f82b3038bd012384f8283094f82b3074
:0839a800013384f82b3038bd17
:020000040000fa
:020000040040ba
:1039b00030b50c4a002312f8134024b902eb43033c
:1039c0005b78184630bd01680d78a54209bf02eb4f
:1039d000430301335b78013114bfdbb201600a2b72
:0839e000e9d9eee7743e400056
:020000040000fa
:020000040040ba
:1039e80007b54a68c0b2d2050b468df8070006d560
:1039f8004a69511c5961107003b05df804fb01223b
:103a08000df10701184600f0e1fa10b19df8070022
:083a1800f2e74ff0ff30efe789
:020000040000fa
:020000040040ba
:103a200000090138202813d9b0f5007f05d2094bd1
:103a300003ebd00010f8040c7047b0f5e05f06d837
:103a4000044b03ebd01010f8040c103070473f20eb
:083a5000704700bf2433400061
:020000040000fa
:020000040040ba
:103a5800426822f00102531a102b10b40ed94418f0
:103a680043f0010341f0010121606360835041602c
:103a780004f108005df8044bfef75cbd5df8044beb
:023a8800704785
:020000040000fa
:020000040040ba
:103a8c0010b50a4c6368013305d0002205230120d0
:103a9c002261237010bd03210020fef7f9fe606047
:103aac000130f2d10a230020237010bdc8bb402086
:020000040000fa
:020000040040ba
:103abc0070b505462c68e30701d500200fe02046c1
:103acc00fff7a8ff064600f0bff92868a042f1d125
:103adc0020f00100281a3146fff7f0fb012070bde1
:020000040000fa
:020000040040ba
:103aec0053b94ab9002908bf00281cbf4ff0ff3159
:103afc004ff0ff3000f0eabbadf1080c6de904cedd
:103b0c00fdf7f0f9ddf804e0dde9022304b07047bd
:020000040000fa
:020000040040ba
:103b1c00094bc2b299688a420bd2db6903eb0213e0
:103b2c009a68904205d19a79002a08bf002318465a
:0c3b3c00704700231846704740bb402033
:020000040000fa
:020000040040ba
:103b480010b4074a0023074c062007491360936006
:103b5800546010605df8044b8b600b60704700bfc9
:0c3b680010e000e0df930400ecbb402004
:020000040000fa
:020000040040ba
:103b740008b500f045fa074b07221a601b68db03ff
:103b840004d5054a536843f080635360bde8084098
:0c3b940000f040ba10e000e000ed00e09e
:020000040000fa
:020000040040ba
:103ba00070b505466c68e30701d500200de020469e
:103bb000fff736ff064600f04df96b68a342f1d1de
:0c3bc00028463146fff780fb012070bd55
:020000040000fa
:020000040040ba
:103bcc00074b1968024609b9064919601868064975
:103bdc0002448a4294bf1a604ff0ff30704700bf16
:0c3bec001cbc402010bd402010bf402039
:020000040000fa
:020000040040ba
:103bf800802910db812901dd83290cd11368073363
:103c080023f0070303f108011160d3e90023c0e999
:0a3c180000230120704700207047d0
:020000040000fa
:020000040040ba
:103c220070b5002902fb01f614460d4618bf144672
:103c320001463246184608bf002400f0caf98642ff
:0a3c420018bfb0fbf5f4204670bd7a
:020000040000fa
:020000040040ba
:103c4c002de9f0410024804617460e462546bd421c
:103c5c0002db2046bde8f081726856f8081b40462e
:0a3c6c0000f0d2f801350444f1e73e
:020000040000fa
:020000040040ba
:103c76002de9f0410024804617460e462546bd42f2
:103c860002db2046bde8f081726856f8081b404604
:0a3c960000f0cdf801350444f1e719
:020000040000fa
:020000040040ba
:103ca000074908b501f1080000f080f8054b002233
:103cb0001a7000f0d9f9bde8084000f0cbba00bf97
:083cc000c81c400000bc4020bc
:020000040000fa
:020000040040ba
:103cc8002de9f04104460d4616461f4600e000bfa8
:103cd80000f0a8f90028fad13b463246294620468a
:083ce800bde8f041fef7a8bba6
:020000040000fa
:020000040040ba
:103cf00010b5084c2368196800f06af8002807db43
:103d000023680a20196800f0bdfac00f404210bdb8
:083d10000120fbe708bd402083
:020000040000fa
:020000040040ba
:103d180090f948305a1e1343426880f8483012f030
:103d280004031bbf42f010024260c0e90f334ff09a
:083d3800ff3008bf1846704778
:020000040000fa
:020000040040ba
:103d400010b4064b8224064846f20a4101221c6048
:103d500058605df8044bd9631a60704700800040da
:043d60001100070047
:020000040000fa
:020000040040ba
:103d640030b4064b0021064a072508240420517765
:103d740011779d621c60186030bc70470080014060
:043d84006cbb4020b4
:020000040000fa
:020000040040ba
:103d880010b4074b4ff4867450204ff40c610a228c
:103d98001c6018605df8044b59601a62704700bfd8
:043da8000080024055
:020000040000fa
:020000040040ba
:103dac000fb407b5064b04aa1b6852f8041b18681d
:103dbc00019200f0cbf803b05df804eb04b070474f
:043dcc0008bd4020ce
:020000040000fa
:020000040040ba
:103dd00070b50e46054600f013fa33460446024617
:103de00001212846fff71dff001b18bf4ff0ff30d1
:023df00070bda4
:020000040000fa
:020000040040ba
:103df400054b064a586812689a6801329a601a6834
:103e04000ab11b6818477047ecbb402010e000e083
:020000040000fa
:020000040040ba
:103e140060b910b50c463ab101212046fff7c2f94a
:103e24000028f9d0012010bd002010bd00207047eb
:020000040000fa
:020000040040ba
:103e3400012838b5144601d0204638bd0d46214628
:103e44002846fff75bfd0028f9d0204638bd00bfa7
:020000040000fa
:020000040040ba
:103e5400064b013053f830203ab9c100a1f10802f1
:103e64001a44194443f830204a60704710b840207f
:020000040000fa
:020000040040ba
:103e740068076c094c836a9074a07ac000806888d3
:0e3e840000846c820081286e696c2900250084
:020000040000fa
:020000040040ba
:103e920010b50023934206d113f0030018bf01208e
:0e3ea20000eb930010bdc45ccc540133f2e77a
:020000040000fa
:020000040040ba
:103eb000054b4ff480721a605a69d10703d59a698d
:0c3ec0005a69d207fbd470470080024012
:020000040000fa
:020000040040ba
:103ecc0010b5054c0022636884f828209b6998473c
:0c3edc0084f82100012010bd10bb402024
:020000040000fa
:020000040040ba
:103ee8000449054aa0fb0101d26808b50023fff781
:0c3ef800f9fd08bd40420f0010bb402047
:020000040000fa
:020000040040ba
:103f040038b50546fff778f8044608b9204638bda9
:0c3f14002846fef767fe204638bd00bfbf
:020000040000fa
:020000040040ba
:103f200001384000413840003d374000653d4000c9
:0c3f3000714140006d30400061414000d4
:020000040000fa
:020000040040ba
:103f3c004942400041404000514140006d42400028
:0c3f4c003d4240007542400055404000de
:020000040000fa
:020000040040ba
:103f580013b50446019201aafcf7d2fc636813f07a
:0c3f6800100f18bf4ff0ff3002b010bd6a
:020000040000fa
:020000040040ba
:103f740030b5002485b002250094cde90145fef753
:083f84001df805b030bd00bfbf
:020000040000fa
:020000040040ba
:103f8c0070b584b00424089e099d0294cde90065a7
:083f9c00fef710f804b070bd3f
:020000040000fa
:020000040040ba
:103fa40038b5fcf7d5fa034bd3e9064500f07af9a6
:083fb400204638bd10bb40207f
:020000040000fa
:020000040040ba
:103fbc0010b50446fff7aafe28b9a368e268c4e965
:083fcc0005331344a36210bd8c
:020000040000fa
:020000040040ba
:103fd40010b4c46a1cb123465df8044b184700684a
:083fe4005df8044bfff724bf58
:020000040000fa
:020000040040ba
:103fec000068002808b501da002008bdfff7e8fddd
:063ffc00431cfad1f8e7b6
:020000040000fa
:020000040040ba
:10400400eff3108072b6bff35f8fb0fa80f040090f
:04401400704700bf32
:020000040000fa
:020000040040ba
:1040180018b1bff35f8f62b6704772b6bff35f8f98
:04402800704700bf1e
:020000040000fa
:020000040040ba
:10402c00034b186980f40070c0f34020704700bf48
:04403c0000800040c0
:020000040000fa
:020000040040ba
:10404000034b00229a601a6842f001021a6070471e
:0440500010e000e09c
:020000040000fa
:020000040040ba
:10405400034b052218681a60c0f34000704700bf84
:0440640010e000e088
:020000040000fa
:020000040040ba
:10406800034b00214ff0ff3219705a60704700bfb0
:04407800c8bb402061
:020000040000fa
:020000040040ba
:10407c00034b1878a0f10900b0fa80f040097047a2
:04408c00c8bb40204d
:020000040000fa
:020000040040ba
:10409000034b1878a0f10a00b0fa80f0400970478d
:0440a000c8bb402039
:020000040000fa
:020000040040ba
:1040a400034b0522d860012019611a70704700bfc4
:0440b400b0bb40203d
:020000040000fa
:020000040040ba
:1040b800034b1878a0f10700b0fa80f04009704768
:0440c800b0bb402029
:020000040000fa
:020000040040ba
:1040cc00034b1878a0f10800b0fa80f04009704753
:0440dc00b0bb402015
:020000040000fa
:020000040040ba
:1040e0002d414000933e4000c9424000c94240007b
:0440f000c942400081
:020000040000fa
:020000040040ba
:1040f40008b500f0c9f8024b1860586008bd00bf4d
:0441040008bc402093
:020000040000fa
:020000040040ba
:1041080010b500239a4200d110bdcc5cc4540133d1
:02411800f8e7c6
:020000040000fa
:020000040040ba
:10411a00034611f8012b184603f8012b002af8d19f
:02412a007047dc
:020000040000fa
:020000040040ba
:10412c000a440023914201d10020704701f8013b61
:02413c00f8e7a2
:020000040000fa
:020000040040ba
:10414000014b024a1a607047000c0e400006000442
:020000040000fa
:020000040040ba
:10415000024a136823f001031360704710e000e087
:020000040000fa
:020000040040ba
:1041600010b1024b18625962704700bf6cbb40200f
:020000040000fa
:020000040040ba
:10417000024b0022587f5a77704700bf6cbb40202b
:020000040000fa
:020000040040ba
:10418000203f4000dcbb402001000000801a0600f8
:020000040000fa
:020000040040ba
:1041900008b50020fef7fcfd00f094f8fce700bf36
:020000040000fa
:020000040040ba
:1041a000024b0722187201201a707047c8bb4020ca
:020000040000fa
:020000040040ba
:1041b000024b002201209a6018707047b0bb40206b
:020000040000fa
:020000040040ba
:1041c000024b032201201a70704700bfb0bb402091
:020000040000fa
:020000040040ba
:1041d000494e4600696e66004e414e006e616e00ab
:020000040000fa
:020000040040ba
:1041e00000294ff480630cbf02220022fff716baa9
:020000040000fa
:020000040040ba
:1041f00002440346934200d1704703f8011bf9e7dc
:020000040000fa
:020000040040ba
:1042000003461a46013311780029fad1101a704773
:020000040000fa
:020000040040ba
:1042100008b5fff76ffffff76efafff76cfa08bdfe
:020000040000fa
:020000040040ba
:0e422000a0f14103192b98bf40f02000704719
:020000040000fa
:020000040040ba
:0e422e00a0f16103192b98bf00f05f007047ec
:020000040000fa
:020000040040ba
:0c423c000138014b5860704710e000e0b2
:020000040000fa
:020000040040ba
:0c424800014b186059607047ecbb40202f
:020000040000fa
:020000040040ba
:0c425400014b00221a707047b0bb4020e4
:020000040000fa
:020000040040ba
:0c42600010b50446fff759ff204610bdc2
:020000040000fa
:020000040040ba
:08426c000048704700a3e111b6
:020000040000fa
:020000040040ba
:0842740000b97047fff77cbca4
:020000040000fa
:020000040040ba
:08427c003c3f4000ff00000080
:020000040000fa
:020000040040ba
:0842840008b5fff71bfb08bda4
:020000040000fa
:020000040040ba
:08428c00004870478cbc402083
:020000040000fa
:020000040040ba
:07429400286e756c6c290017
:020000040000fa
:020000040040ba
:06429c000068fff7c9bd38
:020000040000fa
:020000040040ba
:0642a2004ff0ff307047f1
:020000040000fa
:020000040040ba
:0442a800fff7b6bea8
:020000040000fa
:020000040040ba
:0442ac00fee700bf6a
:020000040000fa
:020000040040ba
:0442b000fee700bf66
:020000040000fa
:020000040040ba
:0442b400fee700bf62
:020000040000fa
:020000040040ba
:0442b800fee700bf5e
:020000040000fa
:020000040040ba
:0442bc00fee700bf5a
:020000040000fa
:020000040040ba
:0442c000fee700bf56
:020000040000fa
:020000040040ba
:0442c400fcf748b902
:020000040000fa
:020000040040ba
:0442c800002070471b
:020000040000fa
:020000040040ba
:0442cc000020704717
:020000040000fa
:020000040040ba
:0442d0000020704713
:020000040000fa
:020000040040ba
:0442d400002070470f
:020000040000fa
:020000040040ba
:0442d800704700bf6c
:020000040000fa
:020000040040ba
:0442dc000020704707
:020000040000fa
:02000004d0002a
:0400000002000000fa
:00000001FF
