:020000040000fa
:020000040040ba
:10000000f8ff4520cd234000b14c4000b54c4000e6
:10001000bd4c4000c14c4000c54c400000000000f9
:10002000000000000000000000000000933d4000c0
:10003000b94c400000000000933d40008147400063
:10004000933d4000933d4000933d4000933d400070
:10005000933d4000933d4000933d4000933d400060
:10006000933d400000000000933d4000933d400060
:10007000933d4000933d4000933d4000933d400040
:10008000933d4000933d4000933d4000cd20400013
:10009000933d4000ad284000933d4000933d40001b
:1000a000933d4000933d4000933d4000933d400010
:1000b000933d4000933d4000933d4000933d400000
:1000c000933d4000933d4000933d4000933d4000f0
:1000d000933d4000933d4000933d4000933d4000e0
:1000e000933d4000933d4000933d4000933d4000d0
:1000f000933d4000933d4000933d4000933d4000c0
:10010000933d4000933d4000933d4000933d4000af
:10011000933d4000933d40000000000000000000bf
:10012000933d4000933d4000933d4000933d40008f
:10013000933d4000933d400000000000933d40008f
:10014000933d4000933d4000933d4000933d40006f
:10015000933d4000933d4000933d4000933d40005f
:08016000933d4000933d400077
:020000040000fa
:020000040040ba
:10016800f8b500bff8bc08bc9e467047ad404000db
:10017800f8b500bff8bc08bc9e46704789404000ef
:020000040000fa
:020000040040ba
:08018800c01600000100000098
:020000040000fa
:020000040040ba
:100190002de9f04f2ded0a8b1d4692ed008bd1e934
:1001a0000073b5eec08b8bb0f1ee10fa02930b69c1
:1001b0000690d1f808800593cc6806d4790731d42d
:1001c00017f0080630d0202302e02d23b1ee488b33
:1001d000237008f1ff39012618ee903adff870b36a
:1001e00018ee100a23f000414ff0000a594508bfed
:1001f00050451bd1413d192d04eb060094bfd04959
:10020000d04904f025fdcf4804f0dcfc00970246fd
:1002100043462146069803f020f90bb0bdec0a8b4b
:10022000bde8f08f2b23d3e7c146d5e78b45a5f179
:10023000410308bf8245039309d2192b04eb060042
:1002400094bfc149c14904f003fdc048dce7302236
:10025000a255b5ee408b039ab7ee009b1a2a06f121
:10026000010334bf58227822f1ee10fae25406f16d
:100270000206a9f102094ff0000a40f0de80b0ee5c
:1002800049bbb0ee48cb029b9feda7ab002bb8bf9c
:1002900018234ff0000b8cee0b0b079302f05cfd64
:1002a0000bf101030493029b00ee4bcb002b2beed2
:1002b0000abb079b04dab5ee40cbf1ee10fa04d08e
:1002c0005b4500f3dd8001330493b2ee007b2bee3f
:1002d000077bb4eec7cbf1ee10fa00f1d480b4ee98
:1002e00047cbf1ee10fa09d1bdeec00b9fed906b3c
:1002f00010ee103a13f0010f06fe077b38ee078b65
:1003000018ee903a23f00041914b18ee100a0022ab
:10031000994208bf90423ff46daf4ff0000b354655
:1003200059465b4605980538a8422a461fd988eeeb
:10033000090bcde90831079202f00efdfdeec07bfe
:10034000b0ee40bb17ee900adde9072309990028bb
:1003500040f09c80002b00f099800bf1010b049a77
:100360000bee498b01339a4229ee0a9bdad1d1b9bf
:10037000bbf1000f00f0ce80029b002b40f3ca803f
:10038000fa0700f1c78063192e221a700beb0502e1
:100390002244302103f8011f9a42fbd15d446feae9
:1003a0000b0b0135d944059b059900226019013bcf
:1003b00092450270c1f1020ee254bcbfcaf1000abc
:1003c00001220a21baf1000f40f093800eeb030cda
:1003d000bcf1010f00f08d80002a03f1ff3114bf42
:1003e0002d222b226254039a023b1a2a04eb0301aa
:1003f00034bf502270229d420a7001da04f028fcba
:1004000007f00303022b12d1a9f10209b9f1000f81
:100410000ddd204604f0d6fb04eb0903b04275da8b
:100420004a463021a01904f0c5fb4ff000082046d1
:10043000eae60af1010ab0ee479b39ee097bb4ee19
:10044000c78bf1ee10faf4d5b6ee007bb0ee475b49
:100450009fed396bb4eec98bf1ee10fa7ff50faf5b
:1004600029ee074bb5ee404bf1ee10fa04bf29ee32
:10047000069b28ee068b29ee059b0af1ff3ae9e779
:10048000ddf810b007e79fed2a7b37e731b92bb1d4
:100490002e21a154013509f1ff39012104eb0b0292
:1004a00004eb050c2a444ff0300e01e00cf801eb90
:1004b0009445fbd105eb0b02039d0928d4bf3030d6
:1004c0005730192da9eb0b090cd840f02005613de0
:1004d000192d07d8cde90812079304f09afbdde93e
:1004e0000812079ba054551c09f1ff394ff0000b6f
:1004f00035e7bafbf1fc013b01fb1caa0af1300a0b
:1005000004f803a009f1ff39e2465be7225c1a54c4
:10051000013883e7fb067ff546af2e23635501358f
:1005200041e700bfaff30080000000000000b03fd3
:100530000000000000000000000000000000504328
:10054000e44b4000e84b4000ec4b4000f04b4000d7
:040550000000f07f38
:020000040000fa
:020000040040ba
:040554000163704788
:020000040000fa
:020000040040ba
:100558002de9f04f2ded0a8b92ed00ab8fb0b5ee83
:10056800c0ab04938b680393f1ee10fa0b69069005
:100578008a46d1e900750793cc6806d47a0732d445
:1005880017f0080631d0202302e02d23b1ee4aab44
:100598002370039b012603f1ff3b1aee903adff824
:1005a80064931aee100a23f000414ff00008494501
:1005b80008bf40451cd1049b413b192b94bfcc4933
:1005c800cc49a01904f040fb204604f0f7fa009744
:1005d8000246039b0698214602f03bff0fb0bdec94
:1005e8000a8bbde8f08f2b23d2e7ddf80cb0d4e7f7
:1005f800894508bf804508d2049b413b192b04eb71
:10060800060094bfbc49bd49dce7b5ee40abf1ee4e
:1006180010fab2ee04cbb7ee009b4ff0000818d1e9
:10062800049804f0ebfa002dc0b2c0f26d8167287f
:100638002dd1002d08bf012518f1040f02dba845b4
:10064800c0f244814ff0650933e008f10108b0eecb
:10065800479b29ee0c7bb4eeca7bf1ee10faf4dd71
:100668000023a74a9fed9e7b0be0904505da23b94e
:100678002aee07ab29ee079b012308f1ff3889ee24
:100688000c9bb4eec9abf1ee10faeed4c8e7814684
:10069800b9f1660f05f101050bd1b8f1000f03dac6
:1006a800b7ee009b4ff00008672818bf45444ff08d
:1006b80066090023b0ee498bb0ee4abb8bee080bff
:1006c8000893059002f044fb089b90ee08bbfdeef2
:1006d800c07b01339d4217ee902ab1ee4bbb88eeea
:1006e8000c8b0598ead1b1ee047b28ee078bb4eeab
:1006f800c8bbf1ee10fa73d4b4ee48bbf1ee10fab1
:1007080005d19fed796b12f0010f06fe088b3aeeca
:10071800088b29ee0cabb4eec8abf1ee10fa62d838
:10072800b9f1660f08f101085fd1013541464b1b4d
:1007380000220a93354605920a9b994240f082802e
:10074800059b002b00f0ab8060190022b9f1650f02
:1007580002702dd1079b0799013b9045e254c1f1e6
:10076800030ebcbfc8f1000801220a21b8f1000f2e
:1007780040f09b800eeb030cbcf1000f00f395805a
:10078800002a03f1ff3114bf2d222b226254049a50
:10079800023b413a192a04eb030198bf4ff045097f
:1007a8009d4281f80090abf1020b01da04f04cfa9b
:1007b80007f00303022b7ff407afbbf1000f7ff7ad
:1007c80003af204604f0faf904eb0b03864279dd07
:1007d8005a463021a01904f0e9f900230393f3e6ff
:1007e8009fed418b93e7b0ee49abb9f1650f14bfac
:1007f800414600219be7059b5bb9002909da089b64
:100808004ff02e0c04f803c0012301350bf1ff3b18
:10081800059304eb020c6319ac444ff0300e01e071
:1008280003f801eb9c45fbd1099b02eb050cabebf4
:10083800020b30330cf1010504f80c300bf1ff3bcf
:10084800002224e0daf810300895053bab427ff629
:1008580077af88ee0a0bcde90c200b9102f078fafd
:10086800fdeec07bdde90b1217ee903a092ba8bf0d
:10087800092317ee90ca099307f0100353ea0c03f3
:100888000d98b8d16728b6d10029c2da01329aee9c
:10089800008b0139b1ee488b8aee0cab4ce7fb06b6
:1008a80042bf2e23635501354ee7b8fbf1fc013bef
:1008b80001fb1c8808f1300804f803800bf1ff3baa
:1008c800e04653e7225c1a5401387fe7b8f1000f7d
:1008d800bff6edae4ff06609dae60625ace600bfd6
:1008e800000000000000504300000000000000006d
:1008f800f44b4000f84b4000fc4b4000004c4000db
:10090800d4feffff0000f07f6728e6d08146062569
:04091800bee600bf78
:020000040000fa
:020000040040ba
:10091c0070b5bb4c84b023780c2b3cd8dfe813f0bb
:10092c004300500073007b00a6000d01f50001018f
:10093c00ae00d600df00ec003d000a239df80a2033
:10094c00b048012519468df80c3003f0effe0df17f
:10095c000a022b463021009203aa0195606803f02d
:10096c00f3ff064603469df80a209df80c10a64896
:10097c0003f0dcfe002e00f00b819df80a102629f6
:10098c0000f00c81a14803f0d1fea149642003f0d2
:10099c0025fa0223237004b070bd606803f014fdc7
:1009ac0001232373f7e70321002002f08ffa606024
:1009bc00013000f0e7800022012322612370eae776
:1009cc0023695520aa215a1c052b8df80a008df895
:1009dc000b10226100f3c38040f2ff130122ff21b0
:1009ec008c48adf80c3003f0a1fe03aa0223302191
:1009fc00606803f09dff00289fd1874803f04afef2
:100a0c000d232370c7e7a06803f03eff0028c2d077
:100a1c0001232370bfe740f2ff130122ff217d4821
:100a2c00adf80c3003f082fe03aa0223302160687b
:100a3c0003f07eff002800f08c8048f21203802225
:100a4c0012217448adf80c3003f070fe03aa022397
:100a5c003021606803f06cff002800f08d806c4939
:100a6c00642003f0bbf90423237094e7a06803f01f
:100a7c000bff00288fd0052323708ce740f2ff1367
:100a8c000122ff216348adf80c3003f04ffe03aa9e
:100a9c0002233021606803f04bff002859d0152346
:100aac0000225c481946adf80c3003f03ffe03aa57
:100abc0002233021606803f03bff00285cd05449ce
:100acc00642003f08bf90923237064e7a06803f01a
:100adc00dbfe00283ff45faf0a2323705be74f482f
:100aec0003f0d8fd28214e4803f0caf800283cd169
:100afc000d23237004b070bda06803f0c5fe002860
:100b0c003ff449af0c23237045e7464803f0c2fd80
:100b1c000a21454803f0b4f80028e9d007232370d4
:100b2c0039e73e4803f0b6fd0921404803f0a8f828
:100b3c000028ddd0082323702de73d4803f0aafde3
:100b4c00bf213c4803f09cf80028d1d00623237029
:100b5c0021e7394803f09efd0d2323701be737482e
:100b6c0003f098fd0d23237015e72949642003f049
:100b7c0035f90b2323700ee7314803f08bfd0d2361
:100b8c00237008e72f4803f085fd0d23237002e73f
:100b9c002d4803f07ffd0d232370fce60b239df8fd
:100bac000b20184819468df80c3003f0bffd0df1e1
:100bbc000b012b46019503aa00916068302103f0cc
:100bcc00c3fe054603469df80b209df80c100e48fd
:100bdc0003f0acfd6db19df80b20a2f14003022b8c
:100bec0038d89df80a10194803f0a0fd0323237090
:100bfc00d1e6174803f04efd0d232370cbe600bf62
:100c0c0058084020c01b4000fc1b40004c1c4000fe
:100c1c0060084020681b4000981b40007c1d400071
:100c2c00383e4000541d40009c4a4000884a400019
:100c3c00281d40004c224000d41c4000541b400096
:100c4c00fc1c4000381b4000381c4000a81c400015
:100c5c00701c40001146024803f068fd95e600bf89
:040c6c00841c4000a4
:020000040000fa
:020000040040ba
:100c70002de9f041a94c82b02378082b3cd8dfe85d
:100c800003f044535b6c738194a73e00a44b4ff078
:100c90004305009602229919a069a4f82150a57f66
:100ca00003f030fe002800f0a2809d4b4ff0440777
:100cb000009602229919a069a4f82170a77f03f079
:100cc00021fe002800f09380a27f45ea0723954883
:100cd00002f07f0243ea02431946636203f02cfdef
:100ce000656a914b9d4200f2fe80002d40f0da8053
:100cf0008e4803f0d5fc267002b0bde8f081a069f3
:100d000002b0bde8f04103f045b80321002002f035
:100d100085f8a061013000f08280854803f0c0fcb6
:100d2000012323702377e7e703f08cff002840f0ce
:100d3000998001232370dfe74ff0820302227d496f
:100d4000a069a4f8213003f04bfd002855d17a4862
:100d500003f0a6fc08232370cee703f073ff0028fe
:100d60006fd103232370c7e74ff4c2730222714986
:100d7000a069a4f8213003f033fd00285bd00523df
:100d80002370b9e76d4803f08bfc4ff42173022206
:100d90006849a069a4f8213003f022fd98bb684897
:100da00003f07efc08232370a6e704215c4b4ff080
:100db0004105022200915918a069a4f8215003f0be
:100dc000a1fd90b3a37f1a0723d40623237093e7d2
:100dd0000426534b4ff04205022200969919a06950
:100de000a4f8215003f08efd00287ff44faf554842
:100df00003f056fc082323707ee7534803f050fcb1
:100e00000323237078e7514803f04afc062323703c
:100e100072e74f4803f044fc072323706ce74d480a
:100e200003f03efc0823237066e74b4803f038fcd0
:100e30000823237060e7494803f032fc082323703d
:100e40005ae7474803f02cfc4ff4c2730222394999
:100e5000a069a4f8213003f0c3fc00284cd004237f
:100e6000237049e704212e4b4ff4ab450222009139
:100e70005918a069a4f8215003f044fd002841d07e
:100e8000a37f552b44d03748012503f055fc94f837
:100e90002020e37f0092617fa27f3348257003f01a
:100ea0004bfc29e7013d4ff03c071d4edff8d48095
:100eb00001e06b1cd3d00220334601221d49009073
:100ec000a069a4f8217003f01dfd88b1a17f404600
:100ed00003f032fc15f00f0f05f1ff35e9d123487f
:100ee00003f0defbe5e7224803f0dafb267003e7b8
:100ef000204803f0d5fbb2e71f4803f0d1fb0823dd
:100f00002370f9e61d4803f0cbfb08232370f3e6ba
:100f10001b4803f011fc02232370ede6f00740208c
:100f20000d08402084174000feff0500e417400034
:100f3000a01540001108402008164000b4164000db
:100f4000d8164000a01740002816400004174000a3
:100f50005c174000801540002817400090164000a4
:100f600040164000e0154000f015400044184000d5
:100f7000bc1740000c1840006c164000b41540002f
:080f8000cc1540003c184000b4
:020000040000fa
:020000040040ba
:100f88002de9f041aeb006461546059100270599b2
:100f98000b78002b00f0fa8000244ff0ff33cde9e6
:100fa80009430eab0c9380230b940d930b5d0bb18f
:100fb800252b26d134b12246304603f05ff9059b34
:100fc80023440593059b1a78252a40f0d78003f11e
:100fd8000108cdf81480059803782b2b1ad025d852
:100fe800202b1bd0232b1dd02a2b27d002f0e0ff6b
:100ff8000b90059b1a78303a092a2ed801330593ad
:10100800f7e70134d2e7099b43f001030130099364
:101018000590e0e7099b43f00403f7e7099b43f0d9
:101028000803f3e7099b43f01003efe72d2bead001
:10103800302bd9d1099b43f00203e7e72b681a1d2f
:101048001b682a600130002b05900b9305da099a7a
:101058005b4282f0010209920b93099bda0744bfb5
:1010680023f002030993059b1a782e2a0dd100223a
:10107800581c0a9205905a782a2a25d102330593da
:101088002b681a1d1b682a600a9305a803f068f9e3
:10109800059b0390187803f0b1fd6928039979d06e
:1010a80032dc632800f0cb8019dc252800f0d980d9
:1010b800612853d000234ff0ff32cdf814800993f4
:1010c8000b930a920093d4e002f072ff0a90059bfa
:1010d8001a78303a092ad8d801330593f7e76428f3
:1010e80058d06728e6dc2a4606a803f097fa0028b5
:1010f80000f0a180059b5a1c05921b7806aa09a935
:101108003046fff725fa38e0702873d015dc6e28d2
:1011180000f08c806f28cdd12b46002206a801f064
:1011280089ff002800f08780059b06aa013309a9da
:101138003046059302f0bcfa1fe075283ad07828ab
:1011480048d07328b6d1802975d1059b2a68013308
:101158000593131d2b60126800237de02a4606a81c
:1011680003f05cfa002866d0059b5a1c05921b7890
:1011780006aa09a93046fff707f804443c44a742e9
:101188007add3e4b4f221a604ff0ff3738462eb0bb
:10119800bde8f0812b46012206a801f04bff00288c
:1011a80049d0059b06aa013309a93046059301f0e9
:1011b80097ffe2e72b46002206a801f03bff002834
:1011c80039d0059b06aa013309a93046059302f0d8
:1011d800b1fdd2e72b46002206a801f02bff50b341
:1011e800059b5a1c05921b7806aa09a9304601f0ee
:1011f80043fac2e72b460022f02106a801f01affa5
:10120800c8b1059b01330593dde9062313430bd1d0
:101218001b4803f0d3fc099b009319490b9b02461a
:10122800304602f016f9a8e77823dde72b463a198d
:1012380006a802f04ef9059b013305939ee7802925
:10124800f9d1059b013305932b681a1d1b682a6089
:101258008df8183006aa012309a9304602f03efd90
:101268008be78029e7d1059b01330593099b009300
:101278000b9b04490122d3e7274688e6a8084020ab
:08128800364840003c484000dc
:020000040000fa
:020000040040ba
:101290003c0840201c0000000000000070074020b7
:1012a0002c00000000000000b008402001000000f9
:1012b000000000009c0740202c00000000000000ff
:1012c0007c0840200c00000000000000c8074020ff
:1012d000280000000000000040074020300000000f
:1012e0000000000014064020a000000000000000e4
:1012f000b2084020020000000100000001000000d0
:101300009c08402004000000000000006c08402001
:101310001000000000000000180840202400000019
:1013200000000000880840200c00000000000000c1
:10133000040740203c00000000000000b1084020ed
:101340000100000000000000f0074020280000001d
:1013500000000000580840201400000000000000b9
:10136000a00840200400000000000000b406402057
:101370005000000000000000b40840206c00000095
:1013800001000000c0084020bc084020c0084020e8
:1013900000000000250000000800402000040000bc
:1013a000000000000000000000000000000000003d
:1013b000000000000000000000000000000000002d
:1013c000d14c4000000000000000000000000000c0
:1013d00000000000093a400000000000000000008a
:1013e00000000000000000000000000000000000fd
:1013f0000000402008040000000000008009402098
:1014000020000000010000000100000003000000b7
:1014100000000000000000000000000000000000cc
:1014200000000000940840209408402008000000bc
:1014300000000000a408402004000000000000009c
:10144000080440200c020000000000002009402099
:101450006000000001000000010000000300000027
:10146000000000000000000000000000000000007c
:1014700000000000d93b4000000000000000000018
:10148000000000009d4c400047424000000000006a
:10149000000000000000000000000000000000004c
:1014a000000000000000000000000000000000003c
:1014b0000000000000000000a80840200800000014
:1014c0000000000000000000000000006666666684
:020000040000fa
:020000040040ba
:101580004661696c656420746f206f70656e2053ce
:10159000504920696e746572666163650d000000d4
:1015a0004f70656e656420535049206368616e6eac
:1015b000656c0d0053504920546573742042697462
:1015c000206661696c65642e0d00000070726f62a8
:1015d00065207375636365656465643a2000000087
:1015e00070726f62652070656e64696e673a200084
:1015f0002530327820253032782025303278202569
:101600003032780d0a000000556e61626c652074fe
:101610006f206368616e67652063616d657261202c
:101620006d6f64650d0000004368616e676564203e
:1016300063616d657261206d6f64650d000000006f
:1016400041626f757420746f2073656e6420464923
:10165000464f5f434c4541525f4d41534b20636fb2
:101660006d6d616e642e2e2e0d0000006661696c3a
:10167000656420746f20777269746520636c65619e
:1016800072206669666f20636f6d6d616e640d0018
:101690006661696c656420746f2077726974652077
:1016a000636c656172206669666f20666c61670da8
:1016b000000000004150505f415244555f43414d8e
:1016c0005f5461736b3a20636170747572696e6701
:1016d00020696d6167650d004150505f415244556e
:1016e0005f43414d5f5461736b3a20537461727470
:1016f0002043617074757265206661696c65642e43
:101700000d0000004150505f415244555f43414d30
:101710005f5461736b3a205374617274204361703b
:10172000747572652e0d00004150505f4152445552
:101730005f43414d5f5461736b3a204661696c654c
:101740006420746f207265616420636170747572c7
:101750006520646f6e652e0d000000004150505fe3
:10176000415244555f43414d5f5461736b3a20438e
:1017700061707475726520446f6e652e2e2e210d7a
:1017800000000000617070446174612e6669666fcc
:101790005f6c656e677468203d20256c640d0a00df
:1017a000436f756c64206e6f7420676574204649c2
:1017b000464f206c656e6774680d00004150505fa5
:1017c000415244555f43414d5f5461736b3a20462b
:1017d00049464f206973206f7665722053697a6598
:1017e0002e0d00004150505f415244555f43414d22
:1017f0005f5461736b3a204649464f2073697a659e
:10180000206973207a65726f2e0d00004150505f81
:10181000415244555f43414d5f5461736b3a2066ba
:1018200061696c656420746f20726561642046494b
:10183000464f2062797465730d00000025303278c0
:08184000200000000d0000bfb4
:020000040000fa
:020000040040ba
:101848002de9f04f099f154604468e461e46002b8b
:1018580040f0cc808a42b2fa82fc4cd9bcf1000f2d
:101868000bd0ccf1200801fa0cfe20fa08f802fa95
:101878000cf548ea0e0e00fa0cf44fea15491ffa67
:1018880085f8befbf9fa210c09fb1ae30afb08fbf1
:1018980041ea03439b452ad9eb180af1ff3004d2e9
:1018a8009b4502d9aaf102002b44a3eb0b03a4b277
:1018b800b3fbf9f209fb123302fb08f844ea0344cc
:1018c800a04516d92c1902f1ff3303d2a04501d93e
:1018d800931e2c44a4eb080443ea004027b124fae1
:1018e8000cf400233c607b603146bde8f08f504625
:1018f800dbe71346eee702b9ffdebcf1000f2ed19d
:101908008b1a01264fea154eaab2b3fbfef8210c3a
:101918000efb183308fb02f941ea0343994561d9e4
:10192800eb1808f1ff3004d2994502d9a8f102005a
:101938002b44a3eb0903a4b2b3fbfef10efb113356
:101948004a4344ea0344a2424ed92c1901f1ff3319
:1019580003d2a24201d98b1e2c44a41abce7ccf1b5
:10196800200e02fa0cf521fa0ef901fa0cf320fa0e
:101978000efe4eea03034fea154800fa0cf4b9fbd1
:10198800f8f11ffa85fe08fb1192180c01fb0ef600
:1019980040ea0242964221d9aa1801f1ff3003d247
:1019a800964201d9881e2a44921b9bb2b2fbf8f9d1
:1019b80008fb192209fb0efe43ea02439e450fd994
:1019c800eb1809f1ff3604d29e4502d9a9f10206a7
:1019d8002b44a3eb0e0346ea004693e70846e3e7e9
:1019e8004e46f6e74046a4e70b46b6e78b4206d9d3
:1019f800002f7ed00026c7e90001304674e7b3fa0d
:101a080083fcbcf1000f0fd18b4201d3824209d86d
:101a1800841a61eb030e0120002f6dd0c7e9004e38
:101a2800002661e76046f7e7ccf1200e03fa0cf3d5
:101a380022fa0ef521fa0ef41d4301fa0cf320faee
:101a48000ef10b434fea154a00fa0cf6b4fbfaf90b
:101a58001ffa85f80afb19401c0c09fb08f144ea37
:101a68000044a14202fa0cf23fd92c1909f1ff30c7
:101a780004d2a14202d9a9f102002c44641a9bb2f3
:101a8800b4fbfaf90afb194409fb08f843ea0441d4
:101a980088452cd9691809f1ff3304d2884502d941
:101aa800a9f10203294443ea0040a1eb0801a0fb85
:101ab80002894945c2464c4602d306d1464504d25e
:101ac800b8eb020a69eb05040138afb1b6eb0a03bb
:101ad80061eb040606fa0efe23fa0cf34eea030342
:101ae80026fa0cf6c7e900369ae74846c6e74b4699
:0c1af800d9e73e463846f7e63e46f5e6e4
:020000040000fa
:020000040040ba
:101b040041742070616972735b25645d2c20666189
:101b1400696c656420746f207772697465205b302a
:101b240078253032782c203078253032785d0d0ad3
:101b340000000000636f756c64206e6f74206f701a
:101b4400656e20493243206472697665720d000027
:101b5400746f6f206d616e7920726574726965733c
:101b64000d0000004150505f4f56323634305f5301
:101b7400454e534f525f57726974655f52656728cb
:101b84003078253032782c20307825303278290d81
:101b94000a000000636f756c64206e6f74207772a6
:101ba400697465204f56323634305f4445565f437e
:101bb40054524c5f5245470d000000004150505fa5
:101bc4004f56323634305f53454e534f525f526551
:101bd40061645f5265672830782530327829206f38
:101be4006e20656e7472792c2064617461203d20ce
:101bf400253032780d0a00004150505f4f5632367e
:101c040034305f53454e534f525f526561645f52a7
:101c140065672830782530327829203d3e202530ec
:101c240032782c2073756363657373203d202564bb
:101c34000d0a0000636f756c64206e6f742072650a
:101c44006164207669640d00766964206d69736d42
:101c540061746368202830782530327829202d205b
:101c64007265747279696e670d0a0000636f756c32
:101c740064206e6f742072656164207069640d0065
:101c8400706964206d69736d6174636820283078ad
:101c94002530327829202d207265747279696e6737
:101ca4000d0a00005665726966696564204f5632f4
:101cb400363430207669643a706964203d20307887
:101cc400253032783a3078253032780d0a00000019
:101cd4004661696c656420746f207772697465204d
:101ce4004f56323634305f4445565f4354524c5f4e
:101cf4005245470d000000004661696c656420741c
:101d04006f207772697465204f56323634305f44e1
:101d140045565f4354524c5f5245475f434f4d37de
:101d24000d0000004150505f4f56323634305f533f
:101d3400454e534f525f53544154455f4d454449ba
:101d4400415f4a5045475f494e49540d0000000029
:101d54004150505f4f56323634305f53454e534fe7
:101d6400525f53544154455f4d454449415f595571
:101d7400563432320d0000004150505f4f56323617
:101d840034305f53454e534f525f53544154455f73
:0c1d94004d454449415f4a5045470d0051
:020000040000fa
:020000040040ba
:101da0002de9f04f85b0019001a802f00dfa00284e
:101db00003da002005b0bde8f08f019b1b095d1e12
:101dc000202d0fd9023b5b4ab3f5007f35bf02ebf4
:101dd000d30302ebd31313f8045c13f8045c34bf91
:101de000013511350123a5f12001c5f1200203fac7
:101df00001f923fa02f203fa05f849ea0209d8f1d7
:101e000000084d4f69eb4909d7e9002302ea080aa7
:101e100003ea090b5aea0b0342d1019b03a81033d2
:101e2000039302f0dffd18b9444b0c221a60c1e79e
:101e3000d7f80852a84206d0039b103b0393012316
:101e400000f110058360039bea18012143f00103b0
:101e5000b5f1080442f8083c42f8041cc7f808220f
:101e600045f8043ca5d0204602f014fb88b155f893
:101e7000083c55f8041c23f00103e31a5a6822f0c9
:101e800001020a445a6055f8041c21f00101625015
:101e90001c462046019902f083fa04f1080089e704
:101ea0005046244a264bbaf1000f34d1cbf1000141
:101eb00001ea0b014b4302ebd36393f83c602036fd
:101ec000304602f09dfc731c57f8334007ebc30308
:101ed000083b9c4298d0272e26dd0235ae4201dc1d
:101ee0003f2e21d16168019a21f001018d1a284607
:101ef00002f01efa864217d1a318e068a668d860df
:101f00009e608360986842f00102c360c3e90025c7
:101f100065506260bde7caf1000101404b4302eb2e
:101f2000d36393f83c60cbe73146204601f0f8fddf
:101f3000afe700bf7c3b400008044020a8084020d9
:041f400029e66b071c
:020000040000fa
:020000040040ba
:101f44002de9f04f89b00f4616469846814602f0b7
:101f540087fa80b1044666b35fb3256895f83030dc
:101f640063b995f83830012b33d00020dff8549151
:101f740099f80030a3b909b0bde8f08feb6a994530
:101f8400efd095f83b300020012bf4d195f83820a0
:101f9400dff83091012a85f83b0089f800301ad027
:101fa4000022012389f8002085f83b3009b0bde800
:101fb400f08f18f10000129b18bf0120002b08bffe
:101fc40000200028d7d0256895f83030002bc8d0e1
:101fd400d4e7dff8f090ab690022a34285f83820fb
:101fe40056d004f1080e0df10c0cd4f810a0bee884
:101ff4000f00def800b0d5f824e0ace80f00ab6abf
:102004000021e26803a8ccf800b001935ef82a30fe
:10201400d4f814c00593d5f820e0019b53f822208e
:102024005ef82c30049206936b691b689847002372
:102034002377b4f918305a1c0bd0214803f01f023f
:10204400012100eb5310a37e91404002ebb900f054
:102054007ffe6369ac615a1e072a11d9092b03d18b
:10206400129bb6009b0012936b6942463146384678
:102074005c68129ba04778b9012385f8383077e76c
:10208400129b76005b001293eee7fef761fae0e73d
:10209400237f002bcdd0a4e702f004fe95f83a404c
:1020a4001cb902f001fe2046e6e7013c85f83a40ff
:1020b40002f0fafda87fb0fa80f04009dce700bf27
:0820c40007072000b1084020cd
:020000040000fa
:020000040040ba
:1020cc002de9f0415c4b5d4c656a1b6ada0503d562
:1020dc00ff2101222177627713f0010106d0564ac5
:1020ec000827042607201760166090629f0501d50b
:1020fc0001222277627ff2b9227f52b2013a032a7f
:10210c0019d8dfe802f0474e02425e0713d5636927
:10211c00e2682169013a9a4201d1002971d1e26841
:10212c00591c013a9a425ed06068434ac35c5363bf
:10213c00414b61611b6a237fff2b16d0237f052b3c
:10214c0001d0bde8f0813c4b002207260820042179
:10215c00627722779e6218601960236a002bf0d098
:10216c00236a2846bde8f04118470022324b07206d
:10217c00082122770422986219601a60236a002bc6
:10218c00dcd0236a28469847d8e70029d3d005230a
:10219c002377d0e7e3682088a3b1002100f002fd8b
:1021ac00c9e79a07c7d5a3692269023a9a420dd0aa
:1021bc0021495a1c0f6ba6682069f754904209d02c
:1021cc00a261b8e7012100f0edfcb4e71a4a022144
:1021dc001160ede702238b620b6adb074cbf052312
:1021ec0004232377ece762680220d65c0422124bae
:1021fc005e6318609a621b6ad8071bd50523237788
:10220c0096e772b60c4a042102209162591c66684a
:10221c00f35c53632077536843f480535360236912
:10222c00012b0cbf03230123136062b6024b032264
:10223c005a627de722777be700800140c807402087
:020000040000fa
:020000040040ba
:10224c00ff002cff2edfff013c3211000902042895
:10225c0013e514482c0c33783a333bfb3e00431106
:10226c001610399235da221a37c3230034c0361ac5
:10227c00068807c00d870e414c0048005b004203e6
:10228c004a8121992440253826825c0063006170c4
:10229c0062807c05208028306c006d806e0070029e
:1022ac00719473c112401711184319001a4b32095b
:1022bc0037c04f6050a86d003d38463f4f600c3c16
:1022cc00ff00e57ff9c04124e01476ff33a04220e3
:1022dc0043184c0087d5883fd703d910d382c80840
:1022ec00c9807c007d007c037d487d487c087d2076
:1022fc007d107d0e9000910e911a9131915a916939
:10230c009175917e9188918f919691a391af91c483
:10231c0091d791e891209200930693e3930593054e
:10232c009300930493009300930093009300930005
:10233c0093009600970897199702970c972497305b
:10234c009728972697029798978097009700c3ed48
:10235c00a400a800c511c651bf80c710b666b8a5a9
:10236c00b764b97cb3afb497b5ffb0c5b194b20f35
:10237c00c45cc064c14b8c00863d500051c8529661
:10238c005300540055005ac85b965c00d300c3ed53
:10239c007f00da00e51fe167e000dd7f05001240f9
:1023ac00d304c016c1128c00863d5000512c52240f
:1023bc005300540055005a2c5b245c00ffff00bff7
:020000040000fa
:020000040040ba
:1023cc0008b54f4b98474f4b9847eff3108172b6b7
:1023dc004d4ad2f8883043f47003c2f88830bff30a
:1023ec004f8fbff36f8f01b962b6484b484a5a60a2
:1023fc009a6812f0010ffbd0444bdb6813f4c07fda
:10240c0013d0444b0c221a60404b434a5a609a68d2
:10241c0012f0010ffbd03d4b404a5a609a6812f003
:10242c00010ffbd03e4b3f4a1a60bff34f8fbff3f7
:10243c006f8f354cd4f8903223f00103c4f89032ee
:10244c00d4f8943223f00103c4f89432bff34f8fc5
:10245c00bff36f8f01f03afd334b23f07f03a36082
:10246c00324b9847636913f4003f12d1bff34f8f7f
:10247c00bff36f8f0022c4f85022bff34f8fbff30e
:10248c006f8f626942f400326261bff34f8fbff30a
:10249c006f8f1d4b5b6913f4803f29d11a4b0022bf
:1024ac00c3f88420bff34f8fd3f88030c3f3c90631
:1024bc00c3f34e335a0143f6e075134802ea0504a0
:1024cc00334644ea8371c0f86012013bb3f1ff3f1d
:1024dc00f7d1203a12f1200ff0d1bff34f8f0a4af7
:1024ec00536943f480335361bff34f8fbff36f8f46
:1024fc000f4b98470f4b984702f03efbfee700bf8f
:10250c002b3740002b37400000ed00e0000c0e4054
:10251c000d00005a9c0840200c08005a0c07005a69
:10252c0000180e40010000a500004000c53a400014
:08253c002b3740002b37400053
:020000040000fa
:020000040040ba
:1025440000f1ff3c2de9f0471cf1030f82b09df828
:1025540030501fd8c0f30724e4b91f4616468946f5
:1025640001f0c6ff8246a8b1012d19d0b6fa86f350
:102574005b09002f08bf0123082d18bf022d0cbfd3
:10258400012000200ad12bb9daf8008098f829300c
:10259400012b11d0002002b0bde8f087002bfad146
:1025a4000b9b002bf6d00a9b002bf3d0daf80080ab
:1025b40098f82930012bedd10021d8f81800d8f86b
:1025c400103088f82910daf80c208af805109042a7
:1025d400c8f824a009d05b690af10c009847daf81e
:1025e4000c20d8f81030c8f81820022d2ed0042d55
:1025f40010d0012d1ad01b6998478af805009af863
:10260400053003f0ff004bbb88f82800012388f84d
:102614002930c0e70b9a3146484600923a469c68f6
:102624000a9ba04748b9d8f81030e4e71b6848462d
:10263400dde90a1298470028f5d002f033fb98f838
:102644002b4084b902f030fb2046dfe75b683a4652
:102654003146484698470028efd1e4e7012300209b
:1026640088f82830d2e7013c88f82b4002f01cfba4
:0c26740098f82800b0fa80f04009c7e791
:020000040000fa
:020000040040ba
:102680002de9f04f0e4649683568d6f80890f7688e
:102690008bb0cde903230029acbf25f00205012151
:1026a00015f010030593039b8346d3e900232fd035
:1026b00052ea03002cd0a9f10208346915f0080091
:1026c00004f1ff3408904ff00000385518bf08f1ae
:1026d000ff388a46012c1ddc059b002b54d1089b3a
:1026e00013b1013c20233b5532690095013a4b461a
:1026f000121b3919584600f0b0fedbf80430db0538
:1027000003d573689842b8bf18460bb0bde8f08f88
:10271000c846d2e752ea030009d1baf1000f06dc3d
:10272000a8eb010050440028d6dda807d4d502f05c
:102730000f000928d4bf00f1300e00f1570e0498a5
:10274000a0f1410cbcf1190f04f1ff3410d84ef088
:10275000200cacf1610cbcf1190f09d8704609913d
:10276000cde9062302f055fadde9062309998646ec
:10277000100940ea03704fea131c07f804e00af15d
:10278000ff3a02466346a5e7039bd3e9000150eafe
:102790000103a4d03a19049b02f8013c023c302307
:0427a0003b559ce722
:020000040000fa
:020000040040ba
:1027a40000223c483c494ff0ff336ff0100cf0b46a
:1027b400c0f8142141f21004d0f814516ff40676d5
:1027c4006ff007672c43354dc0f814414ff406747d
:1027d4004d601020324d0d604ff007654b650e665d
:1027e4006ff020664c664ff02064c1f89030c1f859
:1027f400a0300a614b618a6301f5007141f8e82c4d
:102804000867486748602748c1f800c04b650b66f5
:10281400c1f89030c1f8a0300a614b618a63c1f8f5
:102824001821036043650366c0f89030c0f8a030f7
:10283400026143618263c0f81821c1f87054c1f881
:102844007424c1f80454c1f80074c1f85434c1f8b4
:102854006034c1f89034c1f8a034c1f81044c1f810
:102864001464c1f83844c1f81825c0f80034c0f81d
:102874005434c0f86034c0f89034c0f8a034c0f8c0
:102884001024c0f81434c0f83824c0f81825f0bc5b
:10289400704700bf00800840000e0e401800200062
:0828a400e7ffdfff00120e4008
:020000040000fa
:020000040040ba
:1028ac00f8b53e493e4bca6b58690c6902f0f00210
:1028bc00e5070ad58c68d968814205d9411c5d6849
:1028cc00002a52d12c540846586134490c69a4078b
:1028dc0012d4344d2a781ab9f8bd01229c612a70a1
:1028ec002e4a1169890502d5d968814242d02b4bf9
:1028fc004ff400725a61f8bd02248c619c6952b984
:10290c009a68a2422cd81a6982b1ff22ca601a694d
:10291c00013a1a610ae09a68a2421bd81a692ab1d4
:10292c004ff6ff72ca601a69013a1a619a681d4d16
:10293c009442196901d10029cfd0d9682a788142f3
:10294c0004d11649012702268f614e619c61002a31
:10295c00c2d0c5e71a6832f814200134ca60e5e722
:10296c001a68125d0134ca60e0e725f81040084689
:10297c005861aae700214ff0807440f203201460e4
:10298c00197790611a6a2970002aa5d0586a1b6ab7
:10299c0098472b78002baad19ee700bf00800040ff
:0829ac009c074020b008402008
:020000040000fa
:020000040040ba
:1029b40070b43e4c257f002d2fd1064600292fd020
:1029c40000282dd005f0ff00266062606061a061e0
:1029d4002061a160002a51d0e3600121344a2177ab
:1029e4009268a268e1688a4202d2e168891a216188
:1029f4002f49c86b10f0f00f25d1a06982423fd94e
:102a040022681278ca60a2690132a261002b2fd019
:102a14000120274b586170bc7047002070bc704780
:102a2400151c18bf0125002b14bf284600200028c0
:102a3400f4d00020266062606061a0612061002ef5
:102a440031d1a660c8e7a2685208a2602269520880
:102a54002261e2685208e260a068a269904218d933
:102a640022681288ca60a2690132a261002bcfd108
:102a74000f4b022201205a6170bc7047e260ace740
:102a84002269002ac2d0ff22ca602269013a226167
:102a9400bce72269002ab9d04ff6ff72ca602269e6
:102aa400013a2261b2e7a16096e700bf9c0740208b
:042ab400008000405e
:020000040000fa
:020000040040ba
:102ab8002de9f84300286ad050f8043ca0f1080436
:102ac80023f00107e6193268934200d0ffde7268ee
:102ad80023681340da070fd4204601f0d7fc0028fa
:102ae80057d1304601f044fd0028f0d0736823f038
:102af80001031f441e44eae747f0010363603846b8
:102b0800336001f011fc054601f076fe2368726817
:102b18001340db07e0d5dff88ce0dee90089c5f17a
:102b2800200ca5f1200228fa05f009fa0cfc29fa74
:102b380002f240ea0c001043012100ea01020023de
:102b48001343c5f120007346a5f1200212d121fae2
:102b580000f001fa02f2a94042ea00021ebfdef8c4
:102b680000000143cef8001022b1def804100a4339
:102b7800cef80420681c03ebc003a3f108026760c9
:102b88003760a2605a68e2605c60e3689c60bde8f8
:102b9800f883236823f00103e41a636823f0010330
:082ba8001f449ee708044020d1
:020000040000fa
:020000040040ba
:102bb0007f2830b44ad90302324ac0b203f4fe037c
:102bc00043f480735360d0602f4b00225a619a61a6
:102bd00049bbda68012a40d003222a490120052492
:102be0001a775a6812784a635a6902445a614c62e9
:102bf00030bc704772b65968224a08781146506353
:102c00005a6901325a610a6a12f0050ffbd10a6a49
:102c1000510708d44ef660201a4901e001382dd042
:102c20000a6a5207fad5022216491a774a6842f40c
:102c300080524a601b69012b0cd001230b6062b6e5
:102c4000104b032201205a6230bc704700040d4b28
:102c50005860b9e703230b60f1e719690029c9d16e
:102c600004240849022510461c775c6824784c63cc
:102c70005c6901345c610d604a62e5e702225a77c3
:0c2c800062b6e1e700800140c807402078
:020000040000fa
:020000040040ba
:102c8c002de9f0432d4c85b0074694f820009df8b3
:102c9c00308098b994f82800012805d04ff0ff3502
:102cac00284605b0bde8f083cde90223019101f07f
:102cbc00ddfd039bdde901120028efd094f9000043
:102ccc00022811d04ff0ff35636894f821005b693e
:102cdc00984794f82030002be2d10123284684f841
:102cec00283005b0bde8f0830029ebd0b942e9d318
:102cfc000025134e307820b101352036052df9d141
:102d0c00e0e7dff840c0cf1b30754ff6ff7ebcf814
:102d1c000090707509f10100b760012745ea09457b
:102d2c0080b286f802807160704508bf3846f56144
:102d3c003780acf80000c6e90323c5e74007402004
:082d4c0014064020b2084020eb
:020000040000fa
:020000040040ba
:042d54004163704720
:020000040000fa
:020000040040ba
:102d580053ec102bc3f30a512de9f04140f2fd70fa
:102d68004e1e86421d4644d8a1f2ff30002835dbae
:102d7800332831dc264bc0f120084ff0ff3c03fa22
:102d880008f2a1f21f412cfa00fc10ee104a4cea9e
:102d9800020c23fa01f24cea020c23fa00fe04eac0
:102da8000c0605ea0e0724ea0c0256ea070425ea8f
:102db8000e030fd0002a73f100040bda4ff48015cc
:102dc80005fa08f425fa01f10c43121925fa00f066
:102dd80040eb030343ec102bbde8f0819fed0a7b29
:102de800bfee000b002a73f1000327fe000bbde8bd
:102df800f0810029f0d10a4603f0004343ec102b80
:102e0800eae700bfaff30080000000000000000008
:042e1800ffff0f00a9
:020000040000fa
:020000040040ba
:102e1c0040b92d4a92f91030022b03d192f8393077
:102e2c00012b02d04ff0ff307047537882f83900f5
:102e3c00002b43d1f0b5d2f804e0bef1000f13d152
:102e4c0096689eb1d06845790746adb100234ff026
:102e5c00240c01e044797cb10133dbb2b3421d4652
:102e6c001cfb0370f6d101e00807e9d501234ff0f4
:102e7c00ff3082f83930f0bd4ff6ff760171012337
:102e8c00090706834ff00106918b4ff00004026096
:102e9c000ef10107437145ea014548bf53708b1988
:102eac0004774ff6ff749bb205625760a34208bfcc
:102ebc00334682f83960006a9383f0bd01234ff0ea
:0c2ecc00ff3082f83930704704074020c6
:020000040000fa
:020000040040ba
:102ed80050b92b4b93f90d20022a05d11a7b1ab150
:102ee80093f82a20012a02d04ff0ff3070471a7851
:102ef80083f82a00002a3dd1f0b45f6887b99e683c
:102f080086b1da699079a8b102f11004002001e0d5
:102f1800957975b1013022461034b042f8d101e0fc
:102f28000807ecd501224ff0ff3083f82a20f0bcc7
:102f38007047c0b25d69012411710026090713604a
:102f4800947107f1010756714ff0010648bf1c70d4
:102f58001c8cd5604ff6ff75a11940ea04405f60ec
:102f680089b2906083f82a60a94208bf3146906808
:102f78001984dce701224ff0ff3083f82a207047dc
:042f8800700740206e
:020000040000fa
:020000040040ba
:102f8c002de9f041284dd5e906236c6a501c43f11c
:102f9c000001c5e90601002c3ad095f82030013328
:102fac0085f82030a368002b3ad101260ae0e368ab
:102fbc0083b1e06900f030f9e3680bb12069984700
:102fcc006c6a74b1a36820465bb9a37826756675e4
:102fdc00002becd000f0c6ffa378002becd1637073
:102fec00eae7124f00243e46a04607eb4413013497
:102ffc005a7d22b1b27883f81580012a0ad0052cab
:10300c0006f12006f1d195f82030013b85f82030ef
:10301c00bde8f081726830469a6000f0b3f8eee7d4
:10302c00a368013ba360c0e7400740201406402082
:020000040000fa
:020000040040ba
:10303c00882910b536d012dc812943d003dc8029d5
:10304c0040d0002010bd82290ed08429f9d11968f6
:10305c0002b30a1d1a60b1f90020d3171ee0a02993
:10306c002bd00bdc9029ecd11968073121f007012a
:10307c0001f108021a60d1e900230fe0c02901d048
:10308c00f029ded11a68111d196013680360002342
:10309c00436005e00a1d1a600a880023c0e900237a
:1030ac000120cfe7196822b10a1d1a6091f900209e
:1030bc00d3e70a1d1a600a78efe71a68111d196028
:1030cc001268cae719681ab10a1d1a600a68c4e7bf
:0c30dc000c1d1c600b68c0e90032e1e72d
:020000040000fa
:020000040040ba
:1030e8002de9f041d2e900230c4686b007465fea95
:1030f800d37820684968a5680590e66841d05242af
:1031080063eb4303002908db20f002000590b8f1c7
:10311800000f02d1059948072ad5691e05a8029013
:103128000a20cde90010204600f011fab8f1000f8e
:1031380002d1059b59071fd5b8f1000f00f1ff30e8
:1031480014bf2d232b2333542269059b0093013a86
:103158002b46121a3118384600f07bf97b68db05dc
:1031680003d563689842b8bf184606b0bde8f08139
:103178000807d2d42946d1e71a07e5d50138202314
:08318800e1e70029c0dac5e708
:020000040000fa
:020000040040ba
:10319000002843d02de9f047dff884a0d0f808e0fc
:1031a000daf82430002b2fd0f0464ff000094ff012
:1031b000000c0024002500e013469a68a61845f18b
:1031c0000007b94508bfb04514d399689c469a6971
:1031d000641845f10005002aeed18261aeeb0404cb
:1031e0009861836984601bb181689a68521a9a60f9
:1031f000bde8f087bcf1000f0cd1aeeb0404caf8b7
:10320000240083618460efe7c0f808e0caf8240076
:10321000bde8f087dcf818206346dee7704700bfa2
:043220004007402003
:020000040000fa
:020000040040ba
:103224002de9f041204c054694f820305bb994f820
:103234002830012b03d001252846bde8f08101f098
:1032440019fb0028f7d06b1e033316d8abb2042b3e
:1032540013d85e01154f07eb0608d8f81c309d42c1
:103264000bd1bb5d4bb198f80130b3b90023ba1947
:103274001d461375bb55537500e00125636894f82a
:1032840021005b69984794f82030002bd4d10123a6
:10329400284684f82830bde8f081404600f066fef8
:1032a400002388f80130e1e740074020140640205d
:020000040000fa
:020000040040ba
:1032b40010b501f035fc1a4b00211a4c1b68186834
:1032c40001f06efc184b00211b68186801f068fcc3
:1032d40000f0aefcfff764fa01f020f94ff400436c
:1032e400124a13494b60536000f088fe01f088f8dd
:1032f40001f00efa0f49002000f0bafa0e492060de
:10330400002000f09df90d496060002000f0e4fa0f
:10331400a06001f0e7fabde8104000f0a3bb00bfd5
:10332400b8084020880840209c09402050180e40ce
:1033340000190e40644b40006c4940007c4c400036
:020000040000fa
:020000040040ba
:1033440070b5204c054694f8203053b994f82830d1
:10335400012b02d00125284670bd01f08bfa00280c
:10336400f8d06b1e03331bd8abb2042b18d85b0107
:10337400154ef118c869854212d1f05c80b14878c5
:10338400e8b9886808b9486888601e443046fff781
:10339400fdfe0023012233751d467270737500e033
:1033a4000125636894f821005b69984794f82030fc
:1033b400002bd0d10123284684f8283070bd002585
:0c33c400efe700bf400740201406402047
:020000040000fa
:020000040040ba
:1033d0002de9ff41836946690093f61acde9016141
:1033e00004461746039216444ff002086d464246c3
:1033f0002946206801f02bf9b04209d1d4e9023204
:10340000c4e905331a44a262384604b0bde8f0812d
:1034100000280dda6268002342f01002b8f1020fb2
:10342000a362c4e90533626015d06b68ff1aebe74d
:103430006b68984288bf0835a6eb000688bfc01aa3
:103440002b6803442b606b68a3eb000088bf08f176
:0a345000ff386860cbe71f46d6e79f
:020000040000fa
:020000040040ba
:10345a002de9ff471d460c9b13f0010906468a46d3
:10346a00144601d195420bd822465146304600f007
:10347a0004ffa54204d82546284604b0bde8f087d3
:10348a002f1b102f3a464ff0200128bf1022684602
:10349a00b84601f08afbb8f10f0f11d83b096ff05b
:1034aa000f0202fb03726946304600f0e6feb9f1ec
:1034ba00000fe1d122465146304600f0defedbe73e
:1034ca0010226946304600f0d8fea8f11008e2e75b
:020000040000fa
:020000040040ba
:1034da00842910b523d00cdc812903d0822913d08a
:1034ea0080290bd119680c1d1c600b6803601a60d7
:1034fa0013e0902921d003dc882917d0002010bdc1
:10350a00a029efd0c029ece719680c1d1c600b68d4
:10351a000360d1171046c3e900010120efe71968db
:10352a000c1d1c600b6803601a80f6e719680c1df5
:10353a001c600b6803601a70efe719680c1d1c60a9
:0c354a0009680160d317c1e90023e6e71f
:020000040000fa
:020000040040ba
:103556002de9f84f04460c9f6668d4f80cb0246930
:1035660010463a68013c002502f0020a0b9a0bf855
:103576000450002e1946b8bf0126012390464fea93
:10358600e279002c03dcd3b12046bde8f88f50ea7f
:10359600010209d1721b002a06dc0a9a521b002a74
:1035a600f1ddbaf1000feed042464b4600f087ff40
:1035b600013c134630320bf804200135e1e73b6845
:0835c60023f010033b60dfe776
:020000040000fa
:020000040040ba
:1035ce00f8b5846a05460f46164654b1ab6a6a6969
:1035de009b1ab3420bd2324639462846fff7f1fe0c
:1035ee00f8bd01f0e0f90028f0d02046f8e7002ef3
:1035fe00f1d095f93430002b1bdbdbb23446621e62
:10360e00b95c994212d1224639462846fff7d9feb7
:10361e00a042e5d32744341b22463946686901f09f
:10362e005efa6b691c446c613046d9e71446002a79
:06363e00e5d13446f0e77f
:020000040000fa
:020000040040ba
:1036440000282fd1f8b5194c257845bb0a68012606
:10365400486840f2011362618a68cf68e06065706f
:10366400c4e90152d1e904022387a262a561a683b9
:1036740084f830506563c4e9087001f013fb84f8e2
:103684003a6001f011fb636984f83b602146084805
:10369400db6898470223267028462374f8bd4ff050
:1036a400ff30f8bd4ff0ff30704700bf04074020e3
:0436b4008941400008
:020000040000fa
:020000040040ba
:1036b800f0b50c4649682368a768e56887b0002913
:1036c8000593a4bf23f00203059305ab02930823d7
:1036d800cde900730646d2e900232046fff737fffd
:1036e800059bd90642bf00f1ff3030232b54059bc0
:1036f8001a0742bf00f1ff3020232b542269059b93
:103708000093013a3b46121a29183046fff7a1feea
:103718007368db0503d563689842b8bf184607b0dd
:02372800f0bdf2
:020000040000fa
:020000040040ba
:02372a007047e6
:020000040000fa
:020000040040ba
:10372c0038b5194c054694f8203053b994f8283024
:10373c00012b02d00025284638bd01f097f800284f
:10374c00f8d06b1e03330fd8abb2042b0cd85b0133
:10375c000e49ca18d069854206d1cd5c2db1157db4
:10376c000023edb2137500e00025636894f8210086
:10377c005b69984794f82030002bdcd10123284654
:10378c0084f8283038bd00bf400740201406402084
:020000040000fa
:020000040040ba
:10379c0068b30368164a934227d8164a5b0000297f
:1037ac0008bf1146b1fbf3f103390023ff290ed9f1
:1037bc0001334908dbb2ff298cbf01200020062b06
:1037cc0088bf00200028f3d1ff2910d81b040b431d
:1037dc00012010b4084c226902f07c52134343ead6
:1037ec00012121615df8044b704700207047704740
:0c37fc0000093d0080d1f0080080014071
:020000040000fa
:020000040040ba
:10380800302e302e310000000a23203d3d3d3d3d45
:103818003d3d3d3d3d3d3d3d3d3d3d3d3d3d3d3dd0
:103828003d3d3d3d3d0a23204172647543616d2055
:103838004f56323436302054657374207625730d14
:103848000a000000493243207461736b2066616985
:103858006c65640d0a000000535049207461736b55
:0c386800206661696c65640d0a0000bff9
:020000040000fa
:020000040040ba
:1038740040bb70b5164c94f90d30022b25d005468b
:1038840040f201120126d1e9000326732061e361ad
:1038940025706560d1e90203a4f829202684a0607c
:1038a4006562c4e9053301f0fdf984f82b6001f089
:1038b400fbf92369214607489b6998470223284658
:1038c400637370bd4ff0ff3070474ff0ff3070bd31
:0838d40070074020c1424000d2
:020000040000fa
:020000040040ba
:1038dc0049b3f8b5051c18bf01250dbb134c0123ca
:1038ec004ff47a72002684f8283000270b68097987
:1038fc000f4863602172294684f8205065621b686a
:10390c00e260c4e90667984763685b689847294694
:10391c00a022084801f048f9022320462370f8bd84
:10392c004ff0ff30f8bd4ff0ff307047400740209c
:08393c008d2f4000140640200d
:020000040000fa
:020000040040ba
:1039440050b338b5164b0d465b6913f0e00f1ed12a
:1039540025b301460024124a5369db07fcd5536999
:1039640013f0e00f16d1536813f4003f93690bd0a2
:10397400c3f3080321f8023b0134a542ecd1281b10
:10398400b0fa80f0400938bd00f8013bf4e700f0dc
:1039940063ffdde7002038bd002070472c46eee7ca
:0439a400008002405d
:020000040000fa
:020000040040ba
:1039a80020b30368fbb1134a002908bf11468b42b4
:1039b80070b415d8b1fbf3f1ff2928bfff210b0222
:1039c8000d4d01210d4cee6b826834404668c0688d
:1039d80032432243024308461a43ea6370bc7047e5
:1039e8004ff48073ece719460846704701460846cd
:1039f800704700bf80d1f008008000400c00ffff36
:020000040000fa
:020000040040ba
:103a08007fb5c36800911546002b18bf013a019293
:103a180082680446cde902230e4602226946006800
:103a280000f0e7fd002808dc00f0180383f0080226
:103a380063681343636005460fe0019a8242fad235
:103a4800a368e363801ae268184420642ab15a1c08
:103a5800e2632e441b7806f8013c284604b070bd8a
:020000040000fa
:020000040040ba
:103a6800134b4ff6ff00134ad96801400a43da6046
:103a7800bff35f8f62b6104ae02182f813134ff448
:103a88000020106082f815134ff4001111605a6a73
:103a980042f480225a625a6942f010025a615a6a04
:103aa80042f400325a625a6a42f480325a627047cb
:0c3ab80000ed00e00000fa0500e100e075
:020000040000fa
:020000040040ba
:103ac4000e4a38b5002313600d4a0e4c13600e4a9b
:103ad4000e4d13600e4a13600e4a13600e4a536271
:103ae40013610123936001f073f800f0f2f9ac4222
:103af40000d338bd54f8043b9847f8e7a4084020a5
:103b0400c006402074014000bc06402078014000fb
:0c3b1400b4064020b8064020c406402043
:020000040000fa
:020000040040ba
:103b200070b5d0e90245a54217d10122a1f12003c9
:103b3000c1f1200622fa06f602fa03f333438a4063
:103b4000db43d6431ab10c490a6832400a605a1c5a
:103b50001fbf094a51680b4053604368ac6043f093
:103b6000010223f00103e56042601844036843f05a
:0c3b70000103036070bd00bf080440208a
:020000040000fa
:020000040040ba
:103b7c0020212223242425252626272728282828e7
:103b8c00292929292a2a2a2a2b2b2b2b2c2c2c2c81
:103b9c002c2c2c2c2d2d2d2d2d2d2d2d2e2e2e2e49
:103bac002e2e2e2e2f2f2f2f2f2f2f2f00011702bf
:103bbc001d1813031e1b190b1408040d1f161c12c1
:0c3bcc001a0a070c1511090610050f0e4f
:020000040000fa
:020000040040ba
:103bd80038b50d46044608b9002038bd43689b0631
:103be80007d5d0e905239a4216d80023c4e905333e
:103bf800a362d4e90f13994204d20122c91a20689a
:103c080001f066f80023c4e90f33002de4d02068e2
:103c1800bde8384001f041b80022c36a1146984710
:0c3c28006369002be1d14ff0ff30d6e7bc
:020000040000fa
:020000040040ba
:103c3400124b13491a469962936e9b07fcd5136b7a
:103c44000e4923f0700313638b6e1807fcd50b6bbe
:103c54000a4a23f4407343f480730b63936e190789
:103c6400fcd5136b054923f0030343f002031363ec
:103c74008b6e1b07fcd5034b0b61704700060e408f
:083c8400013f1820005c2b0039
:020000040000fa
:020000040040ba
:103c8c002de9f041f9b10f4604460025dff84480d8
:103c9c0006e00135012000f011fa0234bd4212d0c9
:103cac00022322463021d8f8040000f041fe0646db
:103cbc000028eed1294663782278054800f036fdbd
:103ccc003046bde8f08101263046bde8f08100bfea
:083cdc00041b400058084020c1
:020000040000fa
:020000040040ba
:103ce4002de9ff41134dd1f80080af88adf80c7079
:103cf40006462868029002aca8798df80e00002ac6
:103d040018bf1446d1e901571a461bb9204600f0e2
:103d140057ff0246002d02dbaa4228bf2a46cdf8ef
:103d240000803b4621463046fff795fb04b0bde8d2
:083d3400f08100bf944c400037
:020000040000fa
:020000040040ba
:103d3c00f0b50c4649682368a668e76887b0002987
:103d4c000593a4bf23f00203059305ab02930a234a
:103d5c00cde900630546d2e900232046fff7f5fbc9
:103d6c002269059b0093013a3346121a39182846ea
:103d7c00fff76dfb6b68db0503d563689842b8bf32
:063d8c00184607b0f0bd6f
:020000040000fa
:020000040040ba
:023d9200fee74a
:020000040000fa
:020000040040ba
:103d9400421e03320dd838b5c0f3072545b9044691
:103da40000f05efb20b1036893f83920012a01d0aa
:103db40038bd7047d96a83f83950a14207d14ff012
:103dc400ff3183f830505d6383f83b20d9625a6831
:103dd40000210124013a59705a60417183f8394035
:043de40038bd00bf27
:020000040000fa
:020000040040ba
:103de80009b330b5b0fa80f483b06409c4b90d469c
:103df8000e494ff47a720023c968a0fb010100f054
:103e08005dfb23460146009422462046fef73aff12
:103e1800431c286004d0fff791fa204603b030bd58
:103e2800012003b030bd0120704700bf400740208b
:020000040000fa
:020000040040ba
:103e3800ff0112401711184319001a4b32094fcad3
:103e480050a85a236d00391235da221a37c32300d5
:103e580034c0361a068807c00d870e414c00ff0093
:103e6800e004c064c14b8635508951c8529653004e
:103e78005400550057005a505b3c5c00e000ffffbf
:020000040000fa
:020000040040ba
:103e880013b5836a8df80710044673b16369a26a93
:103e9800934212d3e36a01220df1070120469847a5
:103ea800012806d19df8070005e000f07ffd0028f5
:103eb800ecd04ff0ff3002b010bd9df8070094f928
:0e3ec80034209042e6d05a1c62611870f3e775
:020000040000fa
:020000040040ba
:023ed600704733
:020000040000fa
:020000040040ba
:103ed80070b50e4b0e4a0021934208d30d480e4d83
:103ee8004ff6ff76016829b943681bb970bd03f81e
:103ef800011bf1e783684268334000f10c0455f870
:103f080023302046984704eb8000ebe70000402070
:0c3f18000000402090124000b04a400021
:020000040000fa
:020000040040ba
:103f2400022a70b5044616461d461ad043689b06fd
:103f340017d441b9002d08bf4ff4806505f108007e
:103f4400fdf72cff01466368012e43f020036360f4
:103f5400c4e9021514bfff230a2384f83430024b4a
:0c3f6400e362002070bd00bfcf354000bc
:020000040000fa
:020000040040ba
:103f700070b4104d696a814218d0b9b10a4600e0a8
:103f80001a469369002b18bf9842f9d14bb1836947
:103f90001bb186689c6834449c6022b19361002305
:103fa000836170bc70478b696b62f8e70b46002237
:083fb000ece700bf40074020d0
:020000040000fa
:020000040040ba
:103fb80010b50278202a034600f10100f9d0a2f1d9
:103fc80009010429f5d92b2a07d02d2a11d101215d
:103fd8000133013b00200a2403e00021f8e7604395
:103fe800801a13f8012f303a092af8d901b940424a
:063ff80010bd0021ede701
:020000040000fa
:020000040040ba
:023ffe0070470a
:020000040000fa
:020000040040ba
:104000000e4b802028214bf2c012f0b418604ff004
:1040100080771960072619694ff440750424002041
:1040200001f07c510a4306491a611f609e625d627d
:104030001c6048770877f0bc704700bf00800140e3
:04404000c80740204d
:020000040000fa
:020000040040ba
:10404400f0b40e4d049f2c7f64b24cb90e460c495b
:10405400096a01f04071b1f1407f04d002236b770b
:104064000020f0bc704728802146ab602f616e6051
:10407400ea606c77f0bcfef799bd00bfc80740202a
:044084000080014077
:020000040000fa
:020000040040ba
:1040880010b5054c227832b9044b13b10448aff38c
:1040980000800123237010bd3c0840200000000070
:1040a8000000000008b5034b1bb103490348aff3f8
:1040b800008008bd0000000040084020000000000b
:020000040000fa
:020000040040ba
:1040c800f0b40d4d6f682b68db0712d50b4baa684f
:1040d80003fb00f068b101370021ab689342a7ebfe
:1040e8000306a2eb030488bfb4181a462144884289
:1040f800f3d8f0bc704700bf10e000e0e093040084
:020000040000fa
:020000040040ba
:1041080070b40d4c237f5bb24bb90d460b49096a5d
:1041180001f04071b1f1407f04d0022363770020a1
:1041280070bc704720800121a56022616360e36054
:10413800637770bcfef738bdc80740200080014097
:020000040000fa
:020000040040ba
:1041480070b40d4c237f5bb24bb90d460b49096a1d
:1041580001f04071b1f1407f04d002236377002061
:1041680070bc704720801946a36023616560e260d7
:10417800637770bcfef718bdc80740200080014077
:020000040000fa
:020000040040ba
:10418800826938b5b2f918300446591c0bd00b486f
:1041980003f01f050121927e00eb5310a940400255
:1041a8004ab9fcf7d3f994f83a3000220133a277e0
:1041b80084f83a3038bdfef7c9fdf4e70707200058
:020000040000fa
:020000040040ba
:1041c8000c4a036810b5546a0b4a591e121b8a42de
:1041d8000ad22bb1094b0c221a604ff0ff3010bde8
:1041e800102202600020fae7173323f00f03036060
:1041f800f8e700bfc4064020efffff7fa808402073
:020000040000fa
:020000040040ba
:1042080010b44c68a40602460b4603d45df8044b70
:1042180000f06eb891f93410c0b2814203d05969e8
:104228009c6aa14205d3114618465df8044bfff776
:0e42380027be4c1c5c610a705df8044b704799
:020000040000fa
:020000040040ba
:024246007047bf
:020000040000fa
:020000040040ba
:10424800c8b1b9b10c4a10b4002453699b07fcd516
:1042580053689b030bd530f81430c3f30803d361bc
:104268000134a142f1d101205df8044b7047035d90
:0c427800d361f5e7012070470080024090
:020000040000fa
:020000040040ba
:1042840038b5436813f4807f0446154610d003699b
:1042940040699a4228bf1d462a4600f025fc6369fe
:1042a40022692b44551b0022636125611a7038bdb5
:0a42b400db06fcd400f088fbf9e7fc
:020000040000fa
:020000040040ba
:1042c00038b503690446456a1b69984768716b797c
:1042d0004bb903f0ff0294f82b30013384f8282007
:1042e00084f82b3038bd012384f8283094f82b3023
:0842f000013384f82b3038bdc6
:020000040000fa
:020000040040ba
:1042f80007b54a68c0b2d2050b468df8070006d547
:104308004a69511c5961107003b05df804fb012221
:104318000df10701184600f055fb10b19df8070094
:08432800f2e74ff0ff30efe770
:020000040000fa
:020000040040ba
:1043300000090138202813d9b0f5007f05d2094bb8
:1043400003ebd00010f8040c7047b0f5e05f06d81e
:10435000044b03ebd01010f8040c103070473f20d2
:08436000704700bf7c3b4000e8
:020000040000fa
:020000040040ba
:1043680030b50c4a002312f8134024b902eb43037a
:104378005b78184630bd01680d78a54209bf02eb8d
:10438800430301335b78013114bfdbb201600a2bb0
:08439800e9d9eee720484000de
:020000040000fa
:020000040040ba
:1043a000426822f00102531a102b10b40ed944189f
:1043b00043f0010341f001012160636083504160db
:1043c00004f108005df8044bfef776bb5df8044b82
:0243d000704734
:020000040000fa
:020000040040ba
:1043d400421e033210b50ad8c0f307243cb900f0da
:1043e40087f820b1036893f82a20012a00d010bd71
:1043f40059681c7001395960847183f82a2010bdf2
:020000040000fa
:020000040040ba
:10440400084b8220084a002130b4186049f20a643b
:10441400064d01205d60dc6311771162186030bcc9
:10442400704700bf008000409c0740201100070037
:020000040000fa
:020000040040ba
:1044340008b500f01dfb40b900f010fb40b9fcf7d3
:104444006bfabde80840fcf711bc034800f098fa89
:10445400024800f095fa00bf4c3840006038400034
:020000040000fa
:020000040040ba
:104464000a49c3b28a6893420dd203ebc302cb68f4
:1044740003eb82031a6a904205d15a79002a08bfd5
:10448400002318467047002318467047040740204d
:020000040000fa
:020000040040ba
:1044940070b505462c68e30701d500200fe02046df
:1044a400fff744ff064600f0a9f92868a042f1d1bd
:1044b40020f00100281a3146fff730fb012070bdbf
:020000040000fa
:020000040040ba
:1044c40053b94ab9002908bf00281cbf4ff0ff3177
:1044d4004ff0ff3000f0fcbbadf1080c6de904cee9
:1044e400fdf7b0f9ddf804e0dde9022304b070471c
:020000040000fa
:020000040040ba
:1044f400094bc2b299688a420bd2db6903eb0213ff
:104504009a68904205d19a79002a08bf0023184678
:0c451400704700231846704770074020d5
:020000040000fa
:020000040040ba
:1045200010b4074a0023074c062007491360936024
:10453000546010605df8044b8b600b60704700bfe7
:0c45400010e000e0df9304007c08402045
:020000040000fa
:020000040040ba
:10454c0008b500f055fa074b07221a601b68db030d
:10455c0004d5054a536843f080635360bde80840b6
:0c456c0000f050ba10e000e000ed00e0ac
:020000040000fa
:020000040040ba
:1045780070b505466c68e30701d500200de02046bc
:10458800fff7d2fe064600f037f96b68a342f1d177
:0c45980028463146fff7c0fa012070bd34
:020000040000fa
:020000040040ba
:1045a400074b1968024609b9064919601868064993
:1045b40002448a4294bf1a604ff0ff30704700bf34
:0c45c400ac084020a8094020a80b4020b3
:020000040000fa
:020000040040ba
:1045d00070b5002902fb01f614460d4618bf1446bb
:1045e00001463246184608bf002400f0eff9864223
:0a45f00018bfb0fbf5f4204670bdc3
:020000040000fa
:020000040040ba
:1045fa002de9f0410024804617460e462546bd4265
:10460a0002db2046bde8f081726856f8081b404676
:0a461a0000f0c1f801350444f1e797
:020000040000fa
:020000040040ba
:10462400802910db812901dd83290cd1136807332c
:1046340023f0070303f108011160d3e90023c0e963
:0a464400002301207047002070479a
:020000040000fa
:020000040040ba
:10464e002de9f0410024804617460e462546bd4210
:10465e0002db2046bde8f081726856f8081b404622
:0a466e0000f0a7f801350444f1e75d
:020000040000fa
:020000040040ba
:1046780000000000100000002000000030000000d2
:1046880040000000500000006000000070000000c2
:0846980080000000ffffffff9e
:020000040000fa
:020000040040ba
:1046a00010b5084c2368196800f058f8002807db9b
:1046b00023680a20196800f0e5fac00f404210bdd7
:0846c0000120fbe79c094020ea
:020000040000fa
:020000040040ba
:1046c80090f948305a1e1343426880f8483012f077
:1046d80004031bbf42f010024260c0e90f334ff0e1
:0846e800ff3008bf18467047bf
:020000040000fa
:020000040040ba
:1046f00030b4064b0021064a0725082404205177d0
:1047000011779d621c60186030bc704700800140ca
:04471000c807402076
:020000040000fa
:020000040040ba
:1047140010b4074b4ff4867450204ff40c615122af
:104724001c6018605df8044b59601a62704700bf42
:0447340000800240bf
:020000040000fa
:020000040040ba
:104738000fb407b5064b04aa1b6852f8041b186887
:10474800019200f0e9f803b05df804eb04b070479b
:044758009c09402058
:020000040000fa
:020000040040ba
:10475c0070b50e46054600f02ffa33460446024665
:10476c0001212846fff72eff001b18bf4ff0ff302a
:02477c0070bd0e
:020000040000fa
:020000040040ba
:10478000054b064a586812689a6801329a601a689e
:104790000ab11b68184770477c08402010e000e011
:020000040000fa
:020000040040ba
:1047a00060b910b50c463ab101212046fff7caf8ae
:1047b0000028f9d0012010bd002010bd0020704756
:020000040000fa
:020000040040ba
:1047c000012838b5144601d0204638bd0d46214693
:1047d0002846fff739fd0028f9d0204638bd00bf34
:020000040000fa
:020000040040ba
:1047e00010b5441e82b0033407d8c0f3072323b9a1
:1047f0000093fdf7a7fb02b010bd002002b010bd72
:020000040000fa
:020000040040ba
:10480000064b013053f830203ab9c100a1f108023b
:104810001a44194443f830204a6070470804402085
:020000040000fa
:020000040040ba
:1048200068076c094c836a9074a07ac0008068881d
:0e48300000846c820081286e696c29002500ce
:020000040000fa
:020000040040ba
:10483e0010b50023934206d113f0030018bf0120d8
:0e484e0000eb930010bdc45ccc540133f2e7c4
:020000040000fa
:020000040040ba
:10485c00054b4ff480721a605a69d10703d59a69d7
:0c486c005a69d207fbd47047008002405c
:020000040000fa
:020000040040ba
:1048780010b5054c0022636884f828209b69984786
:0c48880084f82100012010bd40074020f2
:020000040000fa
:020000040040ba
:1048940038b50546fef748ff044608b9204638bd3a
:0c48a4002846fef7bdfc204638bd00bfd2
:020000040000fa
:020000040040ba
:1048b000094140004941400045404000f146400068
:0c48c000554b40009d374000454b400028
:020000040000fa
:020000040040ba
:1048cc00394c4000394a4000354b40005d4c4000ab
:0c48dc002d4c4000654c40004d4a40004f
:020000040000fa
:020000040040ba
:1048e800054908b501f10800fff722ff00f04ef96d
:0c48f800bde8084000f04eb80838400051
:020000040000fa
:020000040040ba
:1049040030b4451e033505d810f47f4f02d130bcb6
:0c491400fdf716bb002030bc704700bf50
:020000040000fa
:020000040040ba
:1049200013b50446019201aafcf72efb636813f04d
:0c493000100f18bf4ff0ff3002b010bd98
:020000040000fa
:020000040040ba
:10493c0030b5002485b002250094cde90145fdf782
:08494c00fbfd05b030bd00bf0a
:020000040000fa
:020000040040ba
:1049540070b584b00424089e099d0294cde90065d5
:08496400fdf7eefd04b070bd8b
:020000040000fa
:020000040040ba
:10496c00744b4000180840200100000078464000bd
:08497c00744c40006c4c40003b
:020000040000fa
:020000040040ba
:104984000fb400b583b004ab53f8040b194601937c
:0849940000f0a0f800bffde7f0
:020000040000fa
:020000040040ba
:10499c00044b00221a701a77c3f81d20a3f82120ab
:0849ac00704700bff007402036
:020000040000fa
:020000040040ba
:1049b40010b50446fff786fe28b9a368e268c4e987
:0849c40005331344a36210bd8a
:020000040000fa
:020000040040ba
:1049cc0010b4c46a1cb123465df8044b1847006848
:0849dc005df8044bfff7eebe8d
:020000040000fa
:020000040040ba
:1049e4000068002808b501da002008bdfff7d8fdeb
:0649f400431cfad1f8e7b4
:020000040000fa
:020000040040ba
:1049fc00eff3108072b6bff35f8fb0fa80f040090e
:044a0c00704700bf30
:020000040000fa
:020000040040ba
:104a100018b1bff35f8f62b6704772b6bff35f8f96
:044a2000704700bf1c
:020000040000fa
:020000040040ba
:104a2400034b186980f40070c0f34020704700bf46
:044a340000800040be
:020000040000fa
:020000040040ba
:104a3800034b00229a601a6842f001021a6070471c
:044a480010e000e09a
:020000040000fa
:020000040040ba
:104a4c00034b052218681a60c0f34000704700bf82
:044a5c0010e000e086
:020000040000fa
:020000040040ba
:104a6000034b1878a0f10800b0fa80f040097047b5
:044a7000f0074020eb
:020000040000fa
:020000040040ba
:104a7400034b1878a0f10d00b0fa80f0400970479c
:044a8400580840206e
:020000040000fa
:020000040040ba
:104a8800e014e177e51fd703da10e000ff0104081e
:044a9800ffff00bf5d
:020000040000fa
:020000040040ba
:104a9c00ff000500da10d703df0033803c40e177dc
:044aac000000ffff08
:020000040000fa
:020000040040ba
:104ab000114b40003f484000cd4c4000cd4c4000e1
:044ac000cd4c400099
:020000040000fa
:020000040040ba
:104ac40008b500f0e1f8024b1860586008bd00bf5b
:044ad40094084020e2
:020000040000fa
:020000040040ba
:104ad800034b1b680a4601461868fff71dbf00bf55
:044ae8009c094020c5
:020000040000fa
:020000040040ba
:104aec0010b500239a4200d110bdcc5cc4540133e4
:024afc00f8e7d9
:020000040000fa
:020000040040ba
:104afe00034611f8012b184603f8012b002af8d1b2
:024b0e007047ee
:020000040000fa
:020000040040ba
:104b10000a440023914201d10020704701f8013b73
:024b2000f8e7b4
:020000040000fa
:020000040040ba
:104b2400014b024a1a607047000c0e400006000454
:020000040000fa
:020000040040ba
:104b3400024a136823f001031360704710e000e099
:020000040000fa
:020000040040ba
:104b440010b1024b18625962704700bfc807402079
:020000040000fa
:020000040040ba
:104b5400024b0022587f5a77704700bfc807402095
:020000040000fa
:020000040040ba
:104b6400b04840006c08402001000000801a060094
:020000040000fa
:020000040040ba
:104b7400a9394000b5294000254a4000214c400095
:020000040000fa
:020000040040ba
:104b840008b50020fef794fb00f09cf8fce700bf9a
:020000040000fa
:020000040040ba
:104b9400024b00221a701a73704700bf5808402055
:020000040000fa
:020000040040ba
:104ba40000294ff480630cbf02220022fff7b8b93a
:020000040000fa
:020000040040ba
:104bb40002440346934200d1704703f8011bf9e70e
:020000040000fa
:020000040040ba
:104bc40003461a46013311780029fad1101a7047a6
:020000040000fa
:020000040040ba
:104bd40008b5fff775fffff710fafff70efa08bde7
:020000040000fa
:020000040040ba
:104be400494e4600696e66004e414e006e616e008d
:020000040000fa
:020000040040ba
:104bf400494e4600696e66004e414e006e616e007d
:020000040000fa
:020000040040ba
:0e4c0400a0f14103192b98bf40f0200070472b
:020000040000fa
:020000040040ba
:0e4c1200a0f16103192b98bf00f05f007047fe
:020000040000fa
:020000040040ba
:0c4c2000014b1862596270479c0740204d
:020000040000fa
:020000040040ba
:0c4c2c000138014b5860704710e000e0b8
:020000040000fa
:020000040040ba
:0c4c3800014b1860596070477c08402058
:020000040000fa
:020000040040ba
:0c4c4400014b187b704700bf580840204f
:020000040000fa
:020000040040ba
:0c4c500010b50446fff753ff204610bdce
:020000040000fa
:020000040040ba
:084c5c000048704700a3e111bc
:020000040000fa
:020000040040ba
:084c640000b97047fff770bcb6
:020000040000fa
:020000040040ba
:084c6c0000000000020000003e
:020000040000fa
:020000040040ba
:084c7400000000000100000037
:020000040000fa
:020000040040ba
:084c7c00cc484000ff000000dd
:020000040000fa
:020000040040ba
:084c840008b5fff7bffa08bdf7
:020000040000fa
:020000040040ba
:084c8c00004870472009402098
:020000040000fa
:020000040040ba
:074c9400286e756c6c29000d
:020000040000fa
:020000040040ba
:064c9c000068fff78fbd68
:020000040000fa
:020000040040ba
:064ca2004ff0ff307047e7
:020000040000fa
:020000040040ba
:044ca800fff7a8beac
:020000040000fa
:020000040040ba
:044cac00fff7b0bea0
:020000040000fa
:020000040040ba
:044cb000fee700bf5c
:020000040000fa
:020000040040ba
:044cb400fee700bf58
:020000040000fa
:020000040040ba
:044cb800fee700bf54
:020000040000fa
:020000040040ba
:044cbc00fee700bf50
:020000040000fa
:020000040040ba
:044cc000fee700bf4c
:020000040000fa
:020000040040ba
:044cc400fee700bf48
:020000040000fa
:020000040040ba
:044cc800fff7b4bb83
:020000040000fa
:020000040040ba
:044ccc00002070470d
:020000040000fa
:020000040040ba
:044cd0000020704709
:020000040000fa
:020000040040ba
:044cd400704700bf66
:020000040000fa
:020000040040ba
:044cd8000020704701
:020000040000fa
:02000004d0002a
:0400000002000000fa
:00000001FF
