:020000040000fa
:020000040040ba
:10000000f8ff4520cd164000e3234000d72b4000e9
:10001000333040007331400067354000000000007d
:100020000000000000000000000000009f364000bb
:10003000bf2e4000000000009f36400049334000c2
:100040009f3640009f3640009f3640009f3640005c
:100050009f3640009f3640009f3640009f3640004c
:100060009f364000000000009f3640009f36400051
:100070009f3640009f3640009f3640009f3640002c
:100080009f3640009f3640009f3640008513400059
:100090009f3640009f3640009f3640009f3640000c
:1000a0009f3640009f3640009f3640009f364000fc
:1000b0009f3640009f3640009f3640009f364000ec
:1000c0009f3640009f3640009f3640009f364000dc
:1000d0009f3640009f3640009f3640009f364000cc
:1000e0009f3640009f3640009f3640009f364000bc
:1000f0009f3640009f3640009f3640009f364000ac
:100100009f3640009f3640009f3640009f3640009b
:100110009f3640009f3640000000000000000000b5
:100120009f3640009f3640009f3640009f3640007b
:100130009f3640009f364000000000009f36400080
:100140009f3640009f3640009f3640009f3640005b
:100150009f3640009f3640009f3640009f3640004b
:080160009f3640009f3640006d
:020000040000fa
:020000040040ba
:10016800f8b500bff8bc08bc9e467047e52e4000b5
:10017800f8b500bff8bc08bc9e467047c12e4000c9
:020000040000fa
:020000040040ba
:080188009c0a000001000000c8
:020000040000fa
:020000040040ba
:100190002de9f04f2ded0a8b1d4692ed008bd1e934
:1001a0000073b5eec08b8bb0f1ee10fa02930b69c1
:1001b0000690d1f808800593cc6806d4790731d42d
:1001c00017f0080630d0202302e02d23b1ee488b33
:1001d000237008f1ff39012618ee903adff870b36a
:1001e00018ee100a23f000414ff0000a594508bfed
:1001f00050451bd1413d192d04eb060094bfd04959
:10020000d04903f0cdfacf4803f08afa00970246ae
:1002100043462146069802f06bf90bb0bdec0a8b01
:10022000bde8f08f2b23d3e7c146d5e78b45a5f179
:10023000410308bf8245039309d2192b04eb060042
:1002400094bfc149c14903f0abfac048dce7302292
:10025000a255b5ee408b039ab7ee009b1a2a06f121
:10026000010334bf58227822f1ee10fae25406f16d
:100270000206a9f102094ff0000a40f0de80b0ee5c
:1002800049bbb0ee48cb029b9feda7ab002bb8bf9c
:1002900018234ff0000b8cee0b0b079301f0f0fed0
:1002a0000bf101030493029b00ee4bcb002b2beed2
:1002b0000abb079b04dab5ee40cbf1ee10fa04d08e
:1002c0005b4500f3dd8001330493b2ee007b2bee3f
:1002d000077bb4eec7cbf1ee10fa00f1d480b4ee98
:1002e00047cbf1ee10fa09d1bdeec00b9fed906b3c
:1002f00010ee103a13f0010f06fe077b38ee078b65
:1003000018ee903a23f00041914b18ee100a0022ab
:10031000994208bf90423ff46daf4ff0000b354655
:1003200059465b4605980538a8422a461fd988eeeb
:10033000090bcde90831079201f0a2fefdeec07b6a
:10034000b0ee40bb17ee900adde9072309990028bb
:1003500040f09c80002b00f099800bf1010b049a77
:100360000bee498b01339a4229ee0a9bdad1d1b9bf
:10037000bbf1000f00f0ce80029b002b40f3ca803f
:10038000fa0700f1c78063192e221a700beb0502e1
:100390002244302103f8011f9a42fbd15d446feae9
:1003a0000b0b0135d944059b059900226019013bcf
:1003b00092450270c1f1020ee254bcbfcaf1000abc
:1003c00001220a21baf1000f40f093800eeb030cda
:1003d000bcf1010f00f08d80002a03f1ff3114bf42
:1003e0002d222b226254039a023b1a2a04eb0301aa
:1003f00034bf502270229d420a7001da03f0d0f916
:1004000007f00303022b12d1a9f10209b9f1000f81
:100410000ddd204603f084f904eb0903b04275dae0
:100420004a463021a01903f06bf94ff0000820462e
:10043000eae60af1010ab0ee479b39ee097bb4ee19
:10044000c78bf1ee10faf4d5b6ee007bb0ee475b49
:100450009fed396bb4eec98bf1ee10fa7ff50faf5b
:1004600029ee074bb5ee404bf1ee10fa04bf29ee32
:10047000069b28ee068b29ee059b0af1ff3ae9e779
:10048000ddf810b007e79fed2a7b37e731b92bb1d4
:100490002e21a154013509f1ff39012104eb0b0292
:1004a00004eb050c2a444ff0300e01e00cf801eb90
:1004b0009445fbd105eb0b02039d0928d4bf3030d6
:1004c0005730192da9eb0b090cd840f02005613de0
:1004d000192d07d8cde90812079303f047f9dde994
:1004e0000812079ba054551c09f1ff394ff0000b6f
:1004f00035e7bafbf1fc013b01fb1caa0af1300a0b
:1005000004f803a009f1ff39e2465be7225c1a54c4
:10051000013883e7fb067ff546af2e23635501358f
:1005200041e700bfaff30080000000000000b03fd3
:100530000000000000000000000000000000504328
:100540003037400034374000383740003c374000f7
:040550000000f07f38
:020000040000fa
:020000040040ba
:0405540000207047cc
:020000040000fa
:020000040040ba
:100558002de9f04f2ded0a8b92ed00ab8fb0b5ee83
:10056800c0ab04938b680393f1ee10fa0b69069005
:100578008a46d1e900750793cc6806d47a0732d445
:1005880017f0080631d0202302e02d23b1ee4aab44
:100598002370039b012603f1ff3b1aee903adff824
:1005a80064931aee100a23f000414ff00008494501
:1005b80008bf40451cd1049b413b192b94bfcc4933
:1005c800cc49a01903f0e8f8204603f0a5f80097f5
:1005d8000246039b0698214601f086ff0fb0bdec4a
:1005e8000a8bbde8f08f2b23d2e7ddf80cb0d4e7f7
:1005f800894508bf804508d2049b413b192b04eb71
:10060800060094bfbc49bd49dce7b5ee40abf1ee4e
:1006180010fab2ee04cbb7ee009b4ff0000818d1e9
:10062800049803f098f8002dc0b2c0f26d816728d5
:100638002dd1002d08bf012518f1040f02dba845b4
:10064800c0f244814ff0650933e008f10108b0eecb
:10065800479b29ee0c7bb4eeca7bf1ee10faf4dd71
:100668000023a74a9fed9e7b0be0904505da23b94e
:100678002aee07ab29ee079b012308f1ff3889ee24
:100688000c9bb4eec9abf1ee10faeed4c8e7814684
:10069800b9f1660f05f101050bd1b8f1000f03dac6
:1006a800b7ee009b4ff00008672818bf45444ff08d
:1006b80066090023b0ee498bb0ee4abb8bee080bff
:1006c8000893059001f0d8fc089b90ee08bbfdee5e
:1006d800c07b01339d4217ee902ab1ee4bbb88eeea
:1006e8000c8b0598ead1b1ee047b28ee078bb4eeab
:1006f800c8bbf1ee10fa73d4b4ee48bbf1ee10fab1
:1007080005d19fed796b12f0010f06fe088b3aeeca
:10071800088b29ee0cabb4eec8abf1ee10fa62d838
:10072800b9f1660f08f101085fd1013541464b1b4d
:1007380000220a93354605920a9b994240f082802e
:10074800059b002b00f0ab8060190022b9f1650f02
:1007580002702dd1079b0799013b9045e254c1f1e6
:10076800030ebcbfc8f1000801220a21b8f1000f2e
:1007780040f09b800eeb030cbcf1000f00f395805a
:10078800002a03f1ff3114bf2d222b226254049a50
:10079800023b413a192a04eb030198bf4ff045097f
:1007a8009d4281f80090abf1020b01da02f0f4fff0
:1007b80007f00303022b7ff407afbbf1000f7ff7ad
:1007c80003af204602f0a8ff04eb0b03864279dd55
:1007d8005a463021a01902f08fff00230393f3e655
:1007e8009fed418b93e7b0ee49abb9f1650f14bfac
:1007f800414600219be7059b5bb9002909da089b64
:100808004ff02e0c04f803c0012301350bf1ff3b18
:10081800059304eb020c6319ac444ff0300e01e071
:1008280003f801eb9c45fbd1099b02eb050cabebf4
:10083800020b30330cf1010504f80c300bf1ff3bcf
:10084800002224e0daf810300895053bab427ff629
:1008580077af88ee0a0bcde90c200b9101f00cfc68
:10086800fdeec07bdde90b1217ee903a092ba8bf0d
:10087800092317ee90ca099307f0100353ea0c03f3
:100888000d98b8d16728b6d10029c2da01329aee9c
:10089800008b0139b1ee488b8aee0cab4ce7fb06b6
:1008a80042bf2e23635501354ee7b8fbf1fc013bef
:1008b80001fb1c8808f1300804f803800bf1ff3baa
:1008c800e04653e7225c1a5401387fe7b8f1000f7d
:1008d800bff6edae4ff06609dae60625ace600bfd6
:1008e800000000000000504300000000000000006d
:1008f8004037400044374000483740004c374000fc
:10090800d4feffff0000f07f6728e6d08146062569
:04091800bee600bf78
:020000040000fa
:020000040040ba
:10091c002de9f041aeb00646154605910027059924
:10092c000b78002b00f0fa8000244ff0ff33cde958
:10093c0009430eab0c9380230b940d930b5d0bb101
:10094c00252b26d134b12246304602f04ffb059bb5
:10095c0023440593059b1a78252a40f0d78003f190
:10096c000108cdf81480059803782b2b1ad025d8c4
:10097c00202b1bd0232b1dd02a2b27d002f076fa4c
:10098c000b90059b1a78303a092a2ed8013305931f
:10099c00f7e70134d2e7099b43f0010301300993d7
:1009ac000590e0e7099b43f00403f7e7099b43f04c
:1009bc000803f3e7099b43f01003efe72d2bead074
:1009cc00302bd9d1099b43f00203e7e72b681a1da2
:1009dc001b682a600130002b05900b9305da099aed
:1009ec005b4282f0010209920b93099bda0744bf28
:1009fc0023f002030993059b1a782e2a0dd10022ad
:100a0c00581c0a9205905a782a2a25d1023305934c
:100a1c002b681a1d1b682a600a9305a802f03cfb80
:100a2c00059b0390187802f094fe6928039979d0fd
:100a3c0032dc632800f0cb8019dc252800f0d9804b
:100a4c00612853d000234ff0ff32cdf81480099366
:100a5c000b930a920093d4e002f008fa0a90059bdb
:100a6c001a78303a092ad8d801330593f7e7642865
:100a7c0058d06728e6dc2a4606a802f00ffc0028ae
:100a8c0000f0a180059b5a1c05921b7806aa09a9a7
:100a9c003046fff75bfd38e0702873d015dc6e280c
:100aac0000f08c806f28cdd12b46002206a801f0d7
:100abc00a3fb002800f08780059b06aa013309a937
:100acc003046059301f041fe1fe075283ad0782896
:100adc0048d07328b6d1802975d1059b2a6801337b
:100aec000593131d2b60126800237de02a4606a88f
:100afc0002f0d4fb002866d0059b5a1c05921b788b
:100b0c0006aa09a93046fff73dfb04443c44a74222
:100b1c007add3e4b4f221a604ff0ff3738462eb02d
:100b2c00bde8f0812b46012206a801f065fb0028e8
:100b3c0049d0059b06aa013309a93046059301f05b
:100b4c00b1fbe2e72b46002206a801f055fb00287a
:100b5c0039d0059b06aa013309a93046059302f04a
:100b6c0009f8d2e72b46002206a801f045fb50b34a
:100b7c00059b5a1c05921b7806aa09a9304600f061
:100b8c0099ffc2e72b460022f02106a801f034fba6
:100b9c00c8b1059b01330593dde9062313430bd143
:100bac001b4802f0b7fd099b009319490b9b0246a9
:100bbc00304601f097fca8e77823dde72b463a197d
:100bcc0006a801f00dfd059b013305939ee78029d6
:100bdc00f9d1059b013305932b681a1d1b682a60fc
:100bec008df8183006aa012309a9304601f096ffaa
:100bfc008be78029e7d1059b01330593099b009373
:100c0c000b9b04490122d3e7274688e6e4074020e2
:080c1c0062344000683440001e
:020000040000fa
:020000040040ba
:100c24002de9f04f099f154604468e461e46002bbb
:100c340040f0cc808a42b2fa82fc4cd9bcf1000f5d
:100c44000bd0ccf1200801fa0cfe20fa08f802fac5
:100c54000cf548ea0e0e00fa0cf44fea15491ffa97
:100c640085f8befbf9fa210c09fb1ae30afb08fb21
:100c740041ea03439b452ad9eb180af1ff3004d219
:100c84009b4502d9aaf102002b44a3eb0b03a4b2a7
:100c9400b3fbf9f209fb123302fb08f844ea0344fc
:100ca400a04516d92c1902f1ff3303d2a04501d96e
:100cb400931e2c44a4eb080443ea004027b124fa11
:100cc4000cf400233c607b603146bde8f08f504655
:100cd400dbe71346eee702b9ffdebcf1000f2ed1cd
:100ce4008b1a01264fea154eaab2b3fbfef8210c6b
:100cf4000efb183308fb02f941ea0343994561d915
:100d0400eb1808f1ff3004d2994502d9a8f102008a
:100d14002b44a3eb0903a4b2b3fbfef10efb113386
:100d24004a4344ea0344a2424ed92c1901f1ff3349
:100d340003d2a24201d98b1e2c44a41abce7ccf1e5
:100d4400200e02fa0cf521fa0ef901fa0cf320fa3e
:100d54000efe4eea03034fea154800fa0cf4b9fb01
:100d6400f8f11ffa85fe08fb1192180c01fb0ef630
:100d740040ea0242964221d9aa1801f1ff3003d277
:100d8400964201d9881e2a44921b9bb2b2fbf8f901
:100d940008fb192209fb0efe43ea02439e450fd9c4
:100da400eb1809f1ff3604d29e4502d9a9f10206d7
:100db4002b44a3eb0e0346ea004693e70846e3e719
:100dc4004e46f6e74046a4e70b46b6e78b4206d903
:100dd400002f7ed00026c7e90001304674e7b3fa3d
:100de40083fcbcf1000f0fd18b4201d3824209d89e
:100df400841a61eb030e0120002f6dd0c7e9004e69
:100e0400002661e76046f7e7ccf1200e03fa0cf305
:100e140022fa0ef521fa0ef41d4301fa0cf320fa1e
:100e24000ef10b434fea154a00fa0cf6b4fbfaf93b
:100e34001ffa85f80afb19401c0c09fb08f144ea67
:100e44000044a14202fa0cf23fd92c1909f1ff30f7
:100e540004d2a14202d9a9f102002c44641a9bb223
:100e6400b4fbfaf90afb194409fb08f843ea044104
:100e740088452cd9691809f1ff3304d2884502d971
:100e8400a9f10203294443ea0040a1eb0801a0fbb5
:100e940002894945c2464c4602d306d1464504d28e
:100ea400b8eb020a69eb05040138afb1b6eb0a03eb
:100eb40061eb040606fa0efe23fa0cf34eea030372
:100ec40026fa0cf6c7e900369ae74846c6e74b46c9
:0c0ed400d9e73e463846f7e63e46f5e614
:020000040000fa
:020000040040ba
:100ee0008c0740201c00000000000000b8074020d4
:100ef0000c000000000000006407402028000000f3
:100f00000000000008074020300000000000000042
:100f100014064020a000000000000000040740204c
:100f20000400000000000000a8074020100000009e
:100f300000000000c4074020100000000000000076
:100f4000380740202c00000000000000dc07402093
:100f50000400000000000000b40640205000000023
:100f600000000000ec0740206c00000001000000c1
:100f7000f8074020f4074020f80740200000000058
:100f800025000000080040200004000000000000d0
:100f90000000000000000000000000000000000051
:100fa000000000000000000000000000f1374000d9
:100fb0000000000000000000000000000000000031
:100fc000fd284000000000000000000000000000bc
:100fd00000000000000000000000000000004020b1
:100fe0000804000000000000b808402020000000b5
:100ff00001000000010000000300000000000000ec
:1010000000000000000000000000000000000000e0
:10101000d4074020d4074020080000000000000052
:10102000e007402004000000000000000804402009
:101030000c02000000000000580840206000000082
:10104000010000000100000003000000000000009b
:101050000000000000000000000000000000000090
:10106000cd2a400000000000000000000000000049
:10107000e5374000ff37400000000000000000009e
:101080000000000000000000000000000000000060
:101090000000000000000000000000000000000050
:1010a00000000000e40740200800000000000000ed
:1010b0000000000000000000666666666666666600
:020000040000fa
:020000040040ba
:10119000302e302e310000000a23203d3d3d3d3de4
:1011a0003d3d3d3d3d3d3d3d3d3d3d3d3d3d3d3d6f
:1011b0003d3d3d3d3d0a23204172647543616d20f4
:1011c0004f563234363020546573742076257300c0
:1011d0000a4150505f53544154455f4932435f5276
:1011e00045414459000000000a436f756c64206e4d
:1011f0006f74206f70656e204152445543414d20fd
:10120000493243000a436f756c64206e6f74207717
:1012100072697465207465737420627974652074d2
:101220006f204152445543414d2053504900000026
:101230000a436f756c64206e6f7420726561642060
:1012400074657374206279746520746f2041524410
:101250005543414d20535049000000000a436f752b
:101260006c64206e6f7420766572696679204152d5
:10127000445543414d205350492c20657870656397
:1012800074656420307835352c20676f7420307891
:1012900025303278000000000a435665726966699d
:1012a0006564204152445543414d2053504900004c
:1012b0000a436f756c64206e6f74207265616420e0
:1012c0004152445543414d2049445f4800000000cd
:1012d0000a4152445543414d2049445f48206d69bd
:1012e000736d617463683a206578706563746564d2
:1012f00020307832362c20676f74203078253032d9
:10130000780000000a436f756c64206e6f74207261
:10131000656164204152445543414d2049445f4c2e
:10132000000000000a4152445543414d2049445faa
:101330004c206d69736d617463683a2065787065df
:101340006374656420307834302e2e34322c20675c
:101350006f74203078253032780000000a435665db
:10136000726966696564204152445543414d204984
:1013700032432049443a20253032783a25303278b9
:04138000000000bfaa
:020000040000fa
:020000040040ba
:1013840038b5664b5c6a664b1b6a13f4807f04d0e5
:10139400624aff2111770121517713f0010106d030
:1013a4005f4a08201060042010600720906213f444
:1013b400007f02d0594a01201077584a527f8ab9d7
:1013c400564a127f52b2013a032a0bd8dfe802f0e0
:1013d40002561c7b514bdb6883b1504b18880021ab
:1013e40000f0e8fd4d4b1b7f5bb2b3f1ff3f70d0c3
:1013f4004a4b1b7f5bb2052b7cd038bd474b18880a
:10140400012100f0d7fdede713f0040fead04349c2
:101414004d69ca680969013aaa4200d179b93f4abb
:10142400d268013aaa4216d03c4a5268515d3c4afd
:1014340051630135394b5d61394b1b6ad2e772b692
:10144400374a0421916235494968495d5163013540
:1014540001f042feeee7314a5268515d304a516371
:1014640001350223136004239362136a13f0010ffe
:101474002a4b14bf052204221a77dbe713f0020f6c
:10148400b0d0264a93691269023a9a420bd0244a90
:10149400106b224a9168c854013312699a4206d0eb
:1014a4001e4a93619ee71e4a02211160efe71c4a1f
:1014b40002219162126a12f0010f184a14bf052129
:1014c40004211177ece700298cd0144b05221a77fc
:1014d40088e7124a00231377114b072199620821e8
:1014e400196004211960136a002b81d0136a204605
:1014f40098477de7094b00225a771a77084a072153
:10150400916208211160042111601b6a002b3ff4d1
:1015140074af024b1b6a204698476ee7640740206d
:041524000080014002
:020000040000fa
:020000040040ba
:101528002de9f04f85b0019001a801f005fd0028d4
:1015380003da002005b0bde8f08f019b1b095d1e92
:10154800202d0fd9023b5b4ab3f5007f35bf02eb74
:10155800d30302ebd31313f8045c13f8045c34bf11
:10156800013511350123a5f12001c5f1200203fa47
:1015780001f923fa02f203fa05f849ea0209d8f157
:1015880000084d4f69eb4909d7e9002302ea080a28
:1015980003ea090b5aea0b0342d1019b03a8103353
:1015a800039302f00df818b9444b0c221a60c1e7f6
:1015b800d7f80852a84206d0039b103b0393012397
:1015c80000f110058360039bea18012143f0010331
:1015d800b5f1080442f8083c42f8041cc7f8082290
:1015e80045f8043ca5d0204601f0a7fd88b155f880
:1015f800083c55f8041c23f00103e31a5a6822f04a
:1016080001020a445a6055f8041c21f00101625095
:101618001c462046019901f077fd04f1080089e78e
:101628005046244a264bbaf1000f34d1cbf10001c1
:1016380001ea0b014b4302ebd36393f83c6020367d
:10164800304601f0d1fe731c57f8334007ebc30353
:10165800083b9c4298d0272e26dd0235ae4201dc9d
:101668003f2e21d16168019a21f001018d1a284687
:1016780001f0f8fc864217d1a318e068a668d86084
:101688009e608360986842f00102c360c3e9002548
:1016980065506260bde7caf1000101404b4302ebaf
:1016a800d36393f83c60cbe73146204601f0aef9ae
:1016b800afe700bf702a400008044020e40740203c
:0416c80029e66b079d
:020000040000fa
:020000040040ba
:1016cc0008b54f4b98474f4b9847eff3108172b6c4
:1016dc004d4ad2f8883043f47003c2f88830bff317
:1016ec004f8fbff36f8f01b962b6484b484a5a60af
:1016fc009a6812f0010ffbd0444bdb6813f4c07fe7
:10170c0013d0444b0c221a60404b434a5a609a68df
:10171c0012f0010ffbd03d4b404a5a609a6812f010
:10172c00010ffbd03e4b3f4a1a60bff34f8fbff304
:10173c006f8f354cd4f8903223f00103c4f89032fb
:10174c00d4f8943223f00103c4f89432bff34f8fd2
:10175c00bff36f8f01f08afa334b23f07f03a36042
:10176c00324b9847636913f4003f12d1bff34f8f8c
:10177c00bff36f8f0022c4f85022bff34f8fbff31b
:10178c006f8f626942f400326261bff34f8fbff317
:10179c006f8f1d4b5b6913f4803f29d11a4b0022cc
:1017ac00c3f88420bff34f8fd3f88030c3f3c9063e
:1017bc00c3f34e335a0143f6e075134802ea0504ad
:1017cc00334644ea8371c0f86012013bb3f1ff3f2a
:1017dc00f7d1203a12f1200ff0d1bff34f8f0a4a04
:1017ec00536943f480335361bff34f8fbff36f8f53
:1017fc000f4b98470f4b984701f0a4fffee700bf33
:10180c00df354000df35400000ed00e0000c0e40fd
:10181c000d00005a040740200c08005a0c07005a0f
:10182c0000180e40010000a500004000b92940003e
:08183c00df354000df354000fc
:020000040000fa
:020000040040ba
:1018440000b583b0434b1b78032b32d8dfe803f099
:10185400020f234a404b186801f0d4fe022828d115
:101864003e4801f081fd3b4b01221a7021e0082122
:10187400002000f0b5f9374b5860b0f1ff3f03d0ba
:10188400344b02221a7014e0354801f06dfd314bdf
:1018940005221a700de02f4b05221a7055210020e5
:1018a40001f0c3fd40b92f4801f05efd294b03222e
:1018b4001a7003b05df804fb0df10701002001f07c
:1018c40027fe18b9284801f04ffdefe79df80710ef
:1018d400552903d0254801f047fde7e7244801f0e6
:1018e40043fde3e71b4b05221a700df106020a21a2
:1018f400586801f029fe18b91e4801f035fdd8e7f3
:101904009df80610262903d01b4801f02dfdd0e7d1
:101914000df107020b210f4b586801f015fe18b9a1
:10192400164801f021fdc4e79df80720a2f1400309
:10193400dbb2022b04d91146114801f015fdb8e7ba
:101944009df806100f4801f00ffd024b04221a7097
:10195400afe700bfcc074020c4074020d0114000af
:10196400e811400004124000301240005c124000b4
:1019740098124000b0124000d012400004134000fe
:08198400241340005c13400035
:020000040000fa
:020000040040ba
:10198c002de9f04383b0894690461f469df83040c0
:10199c0001f048fa002800f089800546012c0cd093
:1019ac00082c18bf022c0cbf0120002014d117b139
:1019bc00b8f1000f07d100200be00b9b002b77d068
:1019cc000a9b002b74d02e6896f82930012b12d06c
:1019dc00002003b0bde8f083b8fa88f35b09002f50
:1019ec0008bf0123002bf4d10b9a12b10a9a002ada
:1019fc00e9d11846ede7002386f829306b71756242
:101a0c00b269eb689a4207d033695b69002105f132
:101a1c000c009847eb68b361022c22d0042c29d01f
:101a2c00012c0dd033691b69984768716b79002bb9
:101a3c0037d1002086f82800012386f82930c8e722
:101a4c0033691b680b9a0a99484698470028e9d0d5
:101a5c0001f0aafe96f82b30c3b901f0a9fe0020c4
:101a6c00eae733695b683a4641464846984700289e
:101a7c00eed1d7e733690b9a00929c680a9b3a46e1
:101a8c0041464846a0470028ccd0e1e7013b86f808
:101a9c002b3001f08dfe96f82800b0fa80f040094a
:101aac00cae7012386f828300020c5e7002090e71c
:041abc0000208ee791
:020000040000fa
:020000040040ba
:101ac0002de9f04f0e4649683568d6f80890f7685a
:101ad0008bb0cde903230029acbf25f0020501211d
:101ae00015f010030593039b8346d3e900232fd001
:101af00052ea03002cd0a9f10208346915f008005d
:101b000004f1ff3408904ff00000385518bf08f179
:101b1000ff388a46012c1ddc059b002b54d1089b05
:101b200013b1013c20233b5532690095013a4b46e5
:101b3000121b3919584600f0dbfcdbf80430db05da
:101b400003d573689842b8bf18460bb0bde8f08f54
:101b5000c846d2e752ea030009d1baf1000f06dc09
:101b6000a8eb010050440028d6dda807d4d502f028
:101b70000f000928d4bf00f1300e00f1570e049871
:101b8000a0f1410cbcf1190f04f1ff3410d84ef054
:101b9000200cacf1610cbcf1190f09d87046099109
:101ba000cde9062301f0e2fddde906230999864629
:101bb000100940ea03704fea131c07f804e00af129
:101bc000ff3a02466346a5e7039bd3e9000150eaca
:101bd0000103a4d03a19049b02f8013c023c3023d3
:041be0003b559ce7ee
:020000040000fa
:020000040040ba
:101be400002867d13b4b93f90d30022b65d1394b5b
:101bf4001b7b002b64d0374b93f82a30012b02d087
:101c04004ff0ff307047334b002283f82a201b78b3
:101c1400002b3ed12f4b5b68002b41d130b42d4bb0
:101c24009c68002c4fd0da69154693794bb1103279
:101c340000230133a34246d015461032a879002868
:101c4400f7d10122aa71234a2a6029710020687100
:101c54005269ea6011f0080f02d01e4a0121117086
:101c64001c4a516801315160118cdbb243ea0143d3
:101c7400ab60138c01339bb24ff6ff72934208bfe3
:101c84000123144a1384012382f82a30a86830bc43
:101c94007047104b012283f82a204ff0ff30704721
:101ca40011f0080fbad00b4b012283f82a204ff011
:101cb400ff3070474ff0ff3070474ff0ff307047f0
:101cc4004ff0ff307047034b012283f82a204ff076
:081cd400ff30dce73807402077
:020000040000fa
:020000040040ba
:101cdc002de9f84300286ad050f8043ca0f1080420
:101cec0023f00107e6193268934200d0ffde7268d8
:101cfc0023681340da070fd4204601f01cfa0028a1
:101d0c0057d1304601f074fa0028f0d0736823f0f4
:101d1c0001031f441e44eae747f0010363603846a1
:101d2c00336001f09df9054601f05cfb2368726895
:101d3c001340db07e0d5dff88ce0dee90089c5f164
:101d4c00200ca5f1200228fa05f009fa0cfc29fa5e
:101d5c0002f240ea0c001043012100ea01020023c8
:101d6c001343c5f120007346a5f1200212d121facc
:101d7c0000f001fa02f2a94042ea00021ebfdef8ae
:101d8c0000000143cef8001022b1def804100a4323
:101d9c00cef80420681c03ebc003a3f108026760b3
:101dac003760a2605a68e2605c60e3689c60bde8e2
:101dbc00f883236823f00103e41a636823f001031a
:081dcc001f449ee708044020bb
:020000040000fa
:020000040040ba
:101dd4002de9f0430e4601b3f8b1002a67d0384923
:101de400cf6b07f0f00789689e4234bfa3eb060e61
:101df4004ff0000e1fb15b0876084fea5e0e304cc0
:101e0400216911f0020ffbd04ff0000c65462c49fc
:101e14004ff6ff794ff0ff0814e0111c18bf0121a1
:101e2400002b08bf002100293ed0002808bf00264f
:101e3400d5e730f81540cc600135cbb90c6914f006
:101e4400020ffbd0b54202d1bef1000f22d0b54241
:101e540005d0002fedd1445dcc600135ede727b905
:101e6400c1f80c800ef1ff3ee7e7c1f80c90f9e7ea
:101e74000c6914f0010ffbd08c689c45e2d227b9a1
:101e840002f80c400cf1010cdce722f81c400cf1c8
:101e9400010cd7e70a4a136913f4007ffbd0084bff
:101ea4004ff080721a6001210846bde8f083044bac
:101eb400df6b07f0f0079b6800239e469ae700bf9c
:041ec400008000405a
:020000040000fa
:020000040040ba
:101ec80010b4374b0022c3f81421d3f8140141f29f
:101ed80010010143c3f814113249334b4b60334ba3
:101ee8000b604ff0ff334b656ff4067008664ff4d4
:101ef80006704866c1f89030c1f8a0300a614b619d
:101f08008a63c1f8182101f5007110200867486735
:101f180048606ff0100008604b650b66c1f89030a0
:101f2800c1f8a0300a614b618a63c1f8182101f534
:101f380000710b604b650b66c1f89030c1f8a0309a
:101f48000a614b618a63c1f8182101f500714ff4e9
:101f5800e00008674a6748606ff4e00008604b6576
:101f68000b66c1f89030c1f8a0304ff020600861ce
:101f78006ff020644c618863c1f8182101f5007185
:101f88000b604b650b66c1f89030c1f8a0300a6150
:101f98004b618a63c1f818215df8044b704700bf94
:101fa80000800840000e0e4018002000e7ffdfff09
:020000040000fa
:020000040040ba
:101fb80008b57f281fd9030203f4fe0343f4807396
:101fc8002b4a5360c0b2d0602a4b00225a619a61f2
:101fd800002948d1db68012b11d0264b03221a7740
:101fe8005a68127822494a635a6901325a610523ac
:101ff8004b62012008bd00041d4b5860e4e71d4bef
:102008001b6973b91b4b04221a775a681178184a4e
:1020180051635969013159610223136001235362e5
:10202800e7e772b6134b5a681078114a50635a6939
:1020380001325a610e4a136a13f0050ffbd10c4b9b
:102048001b6a13f0040f0ed14ef660230848026a8b
:1020580012f0040f07d1013bf9d1064b02225a773f
:1020680062b60846c6e701f035f80120c2e700bfae
:082078000080014064074020d4
:020000040000fa
:020000040040ba
:1020800053ec102bc3f30a512de9f04140f2fd70df
:102090004e1e86421d4644d8a1f2ff30002835db93
:1020a000332831dc264bc0f120084ff0ff3c03fa07
:1020b00008f2a1f21f412cfa00fc10ee104a4cea83
:1020c000020c23fa01f24cea020c23fa00fe04eaa5
:1020d0000c0605ea0e0724ea0c0256ea070425ea74
:1020e0000e030fd0002a73f100040bda4ff48015b1
:1020f00005fa08f425fa01f10c43121925fa00f04b
:1021000040eb030343ec102bbde8f0819fed0a7b0d
:10211000bfee000b002a73f1000327fe000bbde8a1
:10212000f0810029f0d10a4603f0004343ec102b64
:10213000eae700bfaff300800000000000000000ed
:04214000ffff0f008e
:020000040000fa
:020000040040ba
:10214400f8b52d494c6ad1e90623561c43f1000722
:10215400c1e90667002c4dd091f82030013381f895
:102164002030a36823b1a368013ba3604c6afcb18f
:10217400a368ebb9012500271f4e0ae0e06900f0cf
:102184001bffe3680bb120699847746a84b1a368a4
:1021940073b925756575a37813b9e368002bedd180
:1021a400204600f041fda378002bead16770e8e7f0
:1021b400124d00242e46274603e001342035052c19
:1021c40012d006eb44135b7d002bf6d006eb4413d0
:1021d4005f75ab78012bf0d16b6806eb441293600a
:1021e400284600f041f9e8e7034a92f82030013b21
:1021f40082f82030f8bd00bf0807402014064020b4
:020000040000fa
:020000040040ba
:10220400882910b536d012dc812943d003dc80291b
:1022140040d0002010bd82290ed08429f9d119683c
:1022240002b30a1d1a60b1f90020d3171ee0a029d9
:102234002bd00bdc9029ecd11968073121f0070170
:1022440001f108021a60d1e900230fe0c02901d08e
:10225400f029ded11a68111d196013680360002388
:10226400436005e00a1d1a600a880023c0e90023c0
:102274000120cfe7196822b10a1d1a6091f90020e4
:10228400d3e70a1d1a600a78efe71a68111d19606e
:102294001268cae719681ab10a1d1a600a68c4e705
:0c22a4000c1d1c600b68c0e90032e1e773
:020000040000fa
:020000040040ba
:1022b0002de9f041d2e900230c4686b007465feadb
:1022c000d37820684968a5680590e66841d05242f5
:1022d00063eb4303002908db20f002000590b8f10e
:1022e000000f02d1059948072ad5691e05a802905a
:1022f0000a20cde90010204600f0b6f9b8f1000f31
:1023000002d1059b59071fd5b8f1000f00f1ff302e
:1023100014bf2d232b2333542269059b0093013acc
:102320002b46121a3118384600f0e2f87b68db05bc
:1023300003d563689842b8bf184606b0bde8f0817f
:102340000807d2d42946d1e71a07e5d5013820235a
:08235000e1e70029c0dac5e74e
:020000040000fa
:020000040040ba
:102358002de9ff41836946690093f61acde90161c9
:1023680004461746039216444ff002086d4642464b
:102378002946206800f0a9ffb04209d1d4e9023209
:10238800c4e905331a44a262384604b0bde8f081b6
:1023980000280dda6268002342f01002b8f1020f3b
:1023a800a362c4e90533626015d06b68ff1aebe7d6
:1023b8006b68984288bf0835a6eb000688bfc01a2c
:1023c8002b6803442b606b68a3eb000088bf08f1ff
:0a23d800ff386860cbe71f46d6e728
:020000040000fa
:020000040040ba
:0223e200fee714
:020000040000fa
:020000040040ba
:1023e400002836d003681d4a934234d810b41c4ade
:1023f400002908bf11465b00b1fbf3f10339ff2943
:1024040024d9002340f2ff1400e011460133dbb26b
:102414004a08a14294bf00200120062b88bf002057
:102424000028f2d1b1f5007f0dd20e4c2069d1b253
:1024340041ea022200f07c510a431b0403f4e02326
:102444001343236101205df8044b70470a460023bf
:10245400ebe7002070470020704700bf00093d00f3
:0824640080d1f0080080014066
:020000040000fa
:020000040040ba
:10246c0000283cd02de9f04186461d4b5a6ad0f825
:10247c000880c2b1936844460025984518d30020c3
:10248c0000219368c01841f100019369abb1d3f8f6
:10249c0008c010eb0c0641f10007bd4208bfb44266
:1024ac000bd31a46ede7c0f808800d4b586214e0c8
:1024bc000b4b58628261002003e0cef81830c2f852
:1024cc0018e0a8eb0000cef80800def8183023b1b5
:1024dc00def808109a68521a9a60bde8f0817047cd
:0424ec00080740207d
:020000040000fa
:020000040040ba
:1024f0002de9ff471d460c9b13f0010906468a464d
:10250000144601d195420bd822465146304600f080
:1025100073fda54204d82546284604b0bde8f087df
:102520002f1b102f3a464ff0200128bf102268467b
:10253000b84601f0e5f8b8f10f0f11d83b096ff07c
:102540000f0202fb03726946304600f055fdb9f1f7
:10255000000fe1d122465146304600f04dfddbe749
:1025600010226946304600f047fda8f11008e2e766
:020000040000fa
:020000040040ba
:1025700010b5184b1b680021186801f0b9f8164b0c
:102580001b680021186801f0b3f801f089f800f029
:1025900051f9fff799fc00f0c5fe4ff400430f4ad4
:1025a0005360b03a536000f0f3fe00f0a9fc00f075
:1025b0006bff0b49002000f007f90a4c20600a4924
:1025c000002000f06bf9606000f096ff00f004fb63
:1025d00010bd00bff0074020d408402000190e4075
:0c25e000e0364000c4074020c437400033
:020000040000fa
:020000040040ba
:1025ec00842910b523d00cdc812903d0822913d087
:1025fc0080290bd119680c1d1c600b6803601a60d4
:10260c0013e0902921d003dc882917d0002010bdbd
:10261c00a029efd0c029ece719680c1d1c600b68d1
:10262c000360d1171046c3e900010120efe71968d8
:10263c000c1d1c600b6803601a80f6e719680c1df2
:10264c001c600b6803601a70efe719680c1d1c60a6
:0c265c0009680160d317c1e90023e6e71c
:020000040000fa
:020000040040ba
:102668002de9f84f04460c9f6668d4f80cb024692d
:1026780010463a68013c002502f0020a0b9a0bf852
:102688000450002e1946b8bf0126012390464fea90
:10269800e279002c03dcd3b12046bde8f88f50ea7c
:1026a800010209d1721b002a06dc0a9a521b002a71
:1026b800f1ddbaf1000feed042464b4600f056fd70
:1026c800013c134630320bf804200135e1e73b6842
:0826d80023f010033b60dfe773
:020000040000fa
:020000040040ba
:1026e000f8b5846a05460f46164654b1ab6a6a6966
:1026f0009b1ab3420bd2324639462846fff72cfece
:10270000f8bd00f049ff0028f0d02046f8e7002e81
:10271000f1d095f93430002b1bdbdbb23446621e5e
:10272000b95c994212d1224639462846fff714fe79
:10273000a042e5d32744341b22463946686900f09d
:1027400093ff6b691c446c613046d9e71446002a3c
:06275000e5d13446f0e77c
:020000040000fa
:020000040040ba
:10275600f0b50c4649682368a768e56887b0002984
:102766000593a4bf23f00203059305ab0293082348
:10277600cde900730646d2e900232046fff771ff34
:10278600059bd90642bf00f1ff3030232b54059b31
:102796001a0742bf00f1ff3020232b542269059b04
:1027a6000093013a3b46121a29183046fff79dfe60
:1027b6007368db0503d563689842b8bf184607b04f
:0227c600f0bd64
:020000040000fa
:020000040040ba
:1027c80050bb184b93f90d30022b28d070b5154c1f
:1027d800012626730b6823614b68e3618b68a3604d
:1027e80000256560656226842570cb686361cb68c7
:1027f800a36184f82a6084f8296000f0d7ff84f880
:102808002b6000f0d7ff23699b692146064898474b
:1028180002236373284670bd4ff0ff3070474ff0b6
:0c282800ff307047380740205532400058
:020000040000fa
:020000040040ba
:10283400164b174a9a629a6e12f0020ffbd0134a93
:10284400136b23f07003136313469a6e12f0080f90
:10285400fbd00e4a136b23f4407343f48073136369
:1028640013469a6e12f0080ffbd0084a136b23f03c
:10287400030343f00203136313469a6e12f0080f26
:10288400fbd0024b034a1a61704700bf00060e409a
:08289400013f1820005c2b003d
:020000040000fa
:020000040040ba
:10289c0038b521b318bb134c012384f828300b68ce
:1028ac0063604ff47a72e26091f904202272002086
:1028bc000021c4e906010025656284f820501b68dc
:1028cc0029460948984763685b689847a0222946bf
:1028dc00064800f00fff02232370204638bd4ff04e
:1028ec00ff30fbe70807402045214000140640203c
:020000040000fa
:020000040040ba
:1028fc007fb5c36800911546002b18bf013a0192b1
:10290c0082680446cde902230e460222694600681d
:10291c0000f0affc002808dc00f0180383f008027c
:10292c0063681343636005460fe0019a8242fad252
:10293c00a368e363801ae268184420642ab15a1c25
:10294c00e2632e441b7806f8013c284604b070bda7
:020000040000fa
:020000040040ba
:10295c0038b338b50c46054600f034fcdcb12846db
:10296c000021114a05e0936905f8013b01318c42c5
:10297c0012d0536913f0010ffbd0536913f0e00f21
:10298c000ad1536813f4003fedd09369c3f30803e5
:10299c0020f8023beae721468c4214bf00200120bc
:0c29ac0038bd0020704700bf00800240d2
:020000040000fa
:020000040040ba
:1029b8000e4a38b5002313600d4a0e4c13600e4ab8
:1029c8000e4d13600e4a13600e4a13600e4a53628e
:1029d80013610123936000f097fe00f0cafeac4239
:1029e80000d338bd54f8043b9847f8e7e007402087
:1029f800c006402074014000bc0640207801400019
:0c2a0800b4064020b8064020c406402060
:020000040000fa
:020000040040ba
:102a140070b5d0e90245a54217d10122a1f12003e6
:102a2400c1f1200622fa06f602fa03f333438a4080
:102a3400db43d6431ab10c490a6832400a605a1c77
:102a44001fbf094a51680b4053604368ac6043f0b0
:102a5400010223f00103e56042601844036843f077
:0c2a64000103036070bd00bf08044020a7
:020000040000fa
:020000040040ba
:102a70002021222324242525262627272828282804
:102a8000292929292a2a2a2a2b2b2b2b2c2c2c2c9e
:102a90002c2c2c2c2d2d2d2d2d2d2d2d2e2e2e2e66
:102aa0002e2e2e2e2f2f2f2f2f2f2f2f00011702dc
:102ab0001d1813031e1b190b1408040d1f161c12de
:0c2ac0001a0a070c1511090610050f0e6c
:020000040000fa
:020000040040ba
:102acc0038b50d46044608b9002038bd43689b064e
:102adc0007d5d0e905239a4216d80023c4e905335b
:102aec00a362d4e90f13994204d20122c91a2068b7
:102afc0000f07cfe0023c4e90f33002de4d02068e5
:102b0c00bde8384000f06bbe0022c36a11469847fe
:0c2b1c006369002be1d14ff0ff30d6e7d9
:020000040000fa
:020000040040ba
:102b28002de9ff41134dd1f80080af88adf80c7046
:102b380006462868029002aca8798df80e00002a93
:102b480018bf1446d1e901571a461bb9204600f0b0
:102b5800e3fd0246002d02dbaa4228bf2a46cdf833
:102b680000803b4621463046fff7befc04b0bde876
:082b7800f08100bfdc374000d2
:020000040000fa
:020000040040ba
:102b8000f0b50c4649682368a668e76887b0002955
:102b90000593a4bf23f00203059305ab02930a2318
:102ba000cde900630546d2e900232046fff75cfd2e
:102bb0002269059b0093013a3346121a39182846b8
:102bc000fff796fc6b68db0503d563689842b8bfd6
:062bd000184607b0f0bd3d
:020000040000fa
:020000040040ba
:022bd600fee718
:020000040000fa
:020000040040ba
:102bd800114bd96821f4e0610904090c0f4a0a4332
:102be800da60bff35f8f62b60d4ae02182f81313f3
:102bf8004ff4002111605a6a42f480225a625a69dd
:102c080042f010025a615a6a42f400325a625a6a11
:102c180042f480325a62704700ed00e00000fa0585
:042c280000e100e0e7
:020000040000fa
:020000040040ba
:102c2c00114b5a6a0ab1824203d11346002205e0c5
:102c3c001a469369002b18bf9842f9d19bb110b476
:102c4c0083691bb1846899682144996032b18369a6
:102c5c009361002383615df8044b7047024b5a6a01
:0c2c6c0092695a62f5e7704708074020a3
:020000040000fa
:020000040040ba
:102c780070b50e4b0e4a0021934208d30d480e4df5
:102c88004ff6ff76016829b943681bb970bd03f890
:102c9800011bf1e783684268334000f10c0455f8e2
:102ca80023302046984704eb8000ebe700004020e3
:0c2cb80000004020e00e40001c364000f0
:020000040000fa
:020000040040ba
:102cc400022a70b5044616461d461ad043689b0670
:102cd40017d441b9002d08bf4ff4806505f10800f1
:102ce400fef720fc01466368012e43f02003636075
:102cf400c4e9021514bfff230a2384f83430024bbd
:0c2d0400e362002070bd00bfe12640002b
:020000040000fa
:020000040040ba
:102d100008b50f4b1b7f5bb2bbb90e4b1b6a03f0b0
:102d20004073b3f1407f04d0094b02225a77002050
:102d300008bd074b188099601a6100225a60da605a
:102d40005a770121fff738f9f2e70020f0e700bfda
:082d50006407402000800140ef
:020000040000fa
:020000040040ba
:102d58000f4b1b7f5bb2c3b90e4b1b6a03f040736a
:102d6800b3f1407f04d00a4b02225a770020704703
:102d780010b50b46064c20800021a16021616360dc
:102d8800e2606177fff714f910bd0020704700bfbb
:082d98006407402000800140a7
:020000040000fa
:020000040040ba
:102da00010b50f4c247f64b2bcb90e4c246a04f0f9
:102db0004074b4f1407f04d0094b02225a770020be
:102dc00010bd074c2080a360029b23616160e2601c
:102dd00000216177fff7f0f8f2e70020f0e700bf8d
:082de00064074020008001405f
:020000040000fa
:020000040040ba
:102de800e0b110b40446d9b100200e4a04e0235cd7
:102df800d361013081420dd0536913f0020ffbd02b
:102e0800536813f4003ff2d034f81030c3f30803ca
:102e1800d361eee701205df8044b7047002070474e
:082e28000120f8e700800240e0
:020000040000fa
:020000040040ba
:102e3000431e13f1030f14d810f47f4f13d1c2b205
:102e40000c4b9b689a4210d20a4bdb6903eb0213ce
:102e50009a6882420bd19a79002a08bf002318464b
:102e600070470023fbe70023f9e70023f7e700237f
:082e7000f5e700bf3807402020
:020000040000fa
:020000040040ba
:102e780010b50278202a034600f10100f9d0a2f12a
:102e880009010429f5d92b2a07d02d2a11d10121ae
:102e98000133013b00200a2403e00021f8e76043e6
:102ea800801a13f8012f303a092af8d901b940429b
:062eb80010bd0021ede752
:020000040000fa
:020000040040ba
:022ebe00fee72d
:020000040000fa
:020000040040ba
:102ec00010b5054c227832b9044b13b10448aff366
:102ed00000800123237010bd8c07402000000000fb
:102ee0000000000008b5034b1bb103490348aff3d2
:102ef000008008bd00000000900740200000000096
:020000040000fa
:020000040040ba
:102f00000d4b80221a6028221a60196901f07c5149
:102f10004bf2c0120a431a614ff080721a60072206
:102f20009a624ff440725a6204221a60034b0022e4
:102f30005a771a77704700bf00800140640740202d
:020000040000fa
:020000040040ba
:102f40000c4a036810b5546a0b4a591e121b8a4278
:102f50000ad22bb1094b0c221a604ff0ff3010bd82
:102f6000102202600020fae7173323f00f030360fa
:102f7000f8e700bfc4064020efffff7fe4074020d2
:020000040000fa
:020000040040ba
:102f8000431e13f1030f0fd883b2042b0ed80a4a45
:102f900002eb4312d26982420ad15a0106498a5c85
:102fa00042b101eb4310704700207047002070478a
:0c2fb000002070470020704714064020ed
:020000040000fa
:020000040040ba
:102fbc0010b5044600f038f8b0b12046fff7daff40
:102fcc00044678b1437843b90020207560752070b1
:102fdc00044600f0f7f9204610bdfff721fe002350
:0c2fec006370f1e70124f4e70124f4e72e
:020000040000fa
:020000040040ba
:102ff80038b5436813f4807f0446154610d003693a
:1030080040699a4228bf1d462a4600f029fb636999
:1030180022692b44551b0022636125611a7038bd53
:0a302800db06fcd400f0c0faf9e763
:020000040000fa
:020000040040ba
:02303200fee7b7
:020000040000fa
:020000040040ba
:103034000c4b93f8203093b90a4b93f82830012baa
:1030440001d00020704710b5064c002384f82830c6
:1030540063689b69984784f82100012010bd012012
:08306400704700bf080740207f
:020000040000fa
:020000040040ba
:10306c0000090138202813d9b0f5007f05d2094b8f
:10307c0003ebd00010f8040c7047b0f5e05f06d8f5
:10308c00044b03ebd01010f8040c103070473f20a9
:08309c00704700bf702a4000dc
:020000040000fa
:020000040040ba
:1030a40030b50c4a002312f8134024b902eb430351
:1030b4005b78184630bd01680d78a54209bf02eb64
:1030c400430301335b78013114bfdbb201600a2b87
:0830d400e9d9eee74c3440009d
:020000040000fa
:020000040040ba
:1030dc000a4a022313770a494b6843f480534b6026
:1030ec001369012b07d0064b01221a6062b6044b00
:1030fc0003225a62704703220a60f7e764074020f4
:04310c0000800140fe
:020000040000fa
:020000040040ba
:10311000426822f00102531a102b10b40ed9441841
:1031200043f0010341f0010121606360835041607d
:1031300004f108005df8044bfef7d0bd5df8044bc8
:023140007047d6
:020000040000fa
:020000040040ba
:1031420070b505462c68e30701d500200fe0204644
:10315200fff78bff064600f04af92868a042f1d13a
:1031620020f00100281a3146fff753fc012070bd00
:020000040000fa
:020000040040ba
:02317200fee776
:020000040000fa
:020000040040ba
:1031740053b94ab9002908bf00281cbf4ff0ff31da
:103184004ff0ff3000f034bbadf1080c6de904ce14
:10319400fdf746fdddf804e0dde9022304b07047e5
:020000040000fa
:020000040040ba
:1031a40008b500f04dfa074b07221a601b6813f4a8
:1031b400803f04d0044a536843f08063536000f0b6
:0c31c40048fa08bd10e000e000ed00e05b
:020000040000fa
:020000040040ba
:1031d000094b5b6913f0e00f0dd0074b4ff4807281
:1031e0001a605b6913f0010f05d0034b9a695a69a5
:0c31f00012f0010ffad17047008002407d
:020000040000fa
:020000040040ba
:1031fc0070b505466c68e30701d500200de020464c
:10320c00fff72eff064600f0edf86b68a342f1d1f4
:0c321c0028463146fff7f8fb012070bd8a
:020000040000fa
:020000040040ba
:10322800074b1968024609b9064919601868064922
:1032380002448a4294bf1a604ff0ff30704700bfc3
:0c324800e8074020e0084020e00a402099
:020000040000fa
:020000040040ba
:1032540038b50446456a03691b69984768716b79f8
:103264003bb984f8283094f82b30013384f82b30a0
:0a32740038bd012384f82830f5e787
:020000040000fa
:020000040040ba
:10327e002de9f0410024804617460e462546bd42f4
:10328e0002db2046bde8f081726856f8081b404606
:0a329e0000f0b7f801350444f1e731
:020000040000fa
:020000040040ba
:1032a800802910db812901dd83290cd113680733bc
:1032b80023f0070303f108011160d3e90023c0e9f3
:0a32c800002301207047002070472a
:020000040000fa
:020000040040ba
:1032d2002de9f0410024804617460e462546bd42a0
:1032e20002db2046bde8f081726856f8081b4046b2
:0a32f20000f0d7f801350444f1e7bd
:020000040000fa
:020000040040ba
:1032fc0090f948305a1e1343426880f8483012f057
:10330c0004031bbf42f010024260c0e90f334ff0c0
:08331c00ff3008bf184670479e
:020000040000fa
:020000040040ba
:10332400054a00231360936004495160062111602b
:10333400034a93601360704710e000e0df930400d9
:04334400b807402066
:020000040000fa
:020000040040ba
:1033480008b5064b5868064a12689a6801329a60ae
:103358001b6813b1014b1b68984708bdb80740208c
:0433680010e000e091
:020000040000fa
:020000040040ba
:10336c000fb407b5064b04aa1b6852f8041b186867
:10337c00019200f0d7f803b05df804eb04b070478d
:04338c00d408402001
:020000040000fa
:020000040040ba
:10339000054b82221a60054a5a6041f20232da6312
:1033a00001221a60704700bf008000401100070032
:020000040000fa
:020000040040ba
:1033b000054b00225a771a77044b07229a6208229b
:1033c0001a6004221a6070476407402000800140a0
:020000040000fa
:020000040040ba
:1033d00010b5064c63685b6994f82100984794f82f
:1033e000203013b9012284f8282010bd080740209e
:020000040000fa
:020000040040ba
:1033f000064b013053f830203ab9c100a1f1080260
:103400001a44194443f830204a60704708044020a9
:020000040000fa
:020000040040ba
:1034100058b952b138b50c46012529462046fff768
:0e3420009dfa0028f9d0012038bd0020704729
:020000040000fa
:020000040040ba
:10342e0000b583b08df804008df8051000231a4600
:0e343e00022101a800f091f803b05df804fb34
:020000040000fa
:020000040040ba
:10344c0068076c094c836a9074a07ac00080688805
:0e345c0000846c820081286e696c29002500b6
:020000040000fa
:020000040040ba
:10346a0010b50023934206d113f0030018bf0120c0
:0e347a0000eb930010bdc45ccc540133f2e7ac
:020000040000fa
:020000040040ba
:10348800054b4ff486721a6050221a604ff40c6292
:0c3498005a6051221a6270470080024006
:020000040000fa
:020000040040ba
:1034a40038b50d461446012801d0204638bd2146c2
:0c34b4002846fff797fc0028f9d0f6e747
:020000040000fa
:020000040040ba
:1034c000112d4000592d4000a12d4000b133400086
:0c34d000d1364000e5234000c13640002a
:020000040000fa
:020000040040ba
:1034dc0095374000e1354000b1364000ad37400033
:0c34ec007d37400089374000f535400076
:020000040000fa
:020000040040ba
:1034f80008b5044801460830fff734ff024b0022a4
:0c3508001a7008bd90114000cc07402054
:020000040000fa
:020000040040ba
:1035140000b583b08df8070001230a4619460df162
:0c352400070000f01ff803b05df804fb86
:020000040000fa
:020000040040ba
:1035300013b50446019201aafdf7f0f9636813f090
:0c354000100f18bf4ff0ff3002b010bd9c
:020000040000fa
:020000040040ba
:10354c0010b582b0144604230deb030200f012f800
:0a355c009df80530237002b010bd89
:020000040000fa
:020000040040ba
:02356600fee77e
:020000040000fa
:020000040040ba
:1035680038b5044c4ff000656563fef72ffc256302
:0835780038bd00bf00140e4035
:020000040000fa
:020000040040ba
:1035800010b584b0012402940193009200231a46de
:08359000fef7fcf904b010bdc8
:020000040000fa
:020000040040ba
:1035980010b50446fff7aefe28b9a368e268c4e98f
:0835a80005331344a36210bdba
:020000040000fa
:020000040040ba
:1035b00010b4c46a1cb123465df8044b1847006878
:0835c0005df8044bfff76ebf3c
:020000040000fa
:020000040040ba
:1035c8000068002808b501da002008bdfff728feca
:0635d800431cfad1f8e7e4
:020000040000fa
:020000040040ba
:0235de00704734
:020000040000fa
:020000040040ba
:1035e000034b00229a601a6842f001021a60704789
:0435f00010e000e007
:020000040000fa
:020000040040ba
:1035f400034b186805221a60c0f34000704700bfef
:0436040010e000e0f2
:020000040000fa
:020000040040ba
:1036080018b9034b93f90d0070470020704700bfad
:04361800380740200f
:020000040000fa
:020000040040ba
:10361c008d3640006b344000550540005505400088
:04362c005505400000
:020000040000fa
:020000040040ba
:1036300008b500f0cff8024b1860586008bd00bf15
:04364000d40740204b
:020000040000fa
:020000040040ba
:10364400eff3108072b6bff35f8fb0fa80f04009d9
:023654007047bd
:020000040000fa
:020000040040ba
:1036560018b1bff35f8f62b6704772b6bff35f8f64
:023666007047ab
:020000040000fa
:020000040040ba
:1036680010b500239a4200d110bdcc5cc45401337c
:02367800f8e771
:020000040000fa
:020000040040ba
:10367a00034611f8012b184603f8012b002af8d14a
:02368a00704787
:020000040000fa
:020000040040ba
:10368c000a440023914201d10020704701f8013b0c
:02369c00f8e74d
:020000040000fa
:020000040040ba
:02369e00fee745
:020000040000fa
:020000040040ba
:1036a000014b024a1a607047000c0e4000060004ed
:020000040000fa
:020000040040ba
:1036b000024a136823f001031360704710e000e032
:020000040000fa
:020000040040ba
:1036c00010b1024b18625962704700bf6407402076
:020000040000fa
:020000040040ba
:1036d000024b587f00225a77704700bf6407402092
:020000040000fa
:020000040040ba
:1036e000c0344000a807402001000000801a0600f6
:020000040000fa
:020000040040ba
:1036f00000294ff480630cbf02220022fff7e2bad8
:020000040000fa
:020000040040ba
:1037000002440346934200d1704703f8011bf9e7d6
:020000040000fa
:020000040040ba
:1037100008b5fff78dff00f071f800f06ff808bdf5
:020000040000fa
:020000040040ba
:1037200003461a46013311780029fad1101a70475e
:020000040000fa
:020000040040ba
:10373000494e4600696e66004e414e006e616e0055
:020000040000fa
:020000040040ba
:10374000494e4600696e66004e414e006e616e0045
:020000040000fa
:020000040040ba
:0e37500008b50020fef70cff00f038f8fce78b
:020000040000fa
:020000040040ba
:0e375e00a0f14103192b98bf40f020007047e6
:020000040000fa
:020000040040ba
:0e376c00a0f16103192b98bf00f05f007047b9
:020000040000fa
:020000040040ba
:02377a00704796
:020000040000fa
:020000040040ba
:0c377c000138014b5860704710e000e07d
:020000040000fa
:020000040040ba
:0c37880000b9704708b5fff709fd08bd47
:020000040000fa
:020000040040ba
:0c379400014b186059607047b8074020d6
:020000040000fa
:020000040040ba
:0c37a00010b50446fff769ff204610bd7d
:020000040000fa
:020000040040ba
:0837ac000048704700a3e11181
:020000040000fa
:020000040040ba
:0837b40008b5fff745ff08bd51
:020000040000fa
:020000040040ba
:0837bc0008b5fff74aff08bd44
:020000040000fa
:020000040040ba
:0837c400dc344000ff000000ae
:020000040000fa
:020000040040ba
:0837cc0008b5fef739f808bd4d
:020000040000fa
:020000040040ba
:0837d40000487047580840202e
:020000040000fa
:020000040040ba
:0737dc00286e756c6c2900da
:020000040000fa
:020000040040ba
:0637e4000068fff75dbe66
:020000040000fa
:020000040040ba
:0637ea004ff0ff307047b4
:020000040000fa
:020000040040ba
:0437f00000207047fe
:020000040000fa
:020000040040ba
:0437f400704700bf5b
:020000040000fa
:020000040040ba
:0437f80000207047f6
:020000040000fa
:020000040040ba
:0237fc00704714
:020000040000fa
:020000040040ba
:0237fe00704712
:020000040000fa
:02000004d0002a
:0400000002000000fa
:00000001FF
