:020000040000fa
:020000040040ba
:10000000f0ff4520e9264000d3334000a33c4000e8
:10001000bf404000ff414000b342400000000000ec
:100020000000000000000000000000000b4740003e
:10003000e73d4000000000000b4740003147400012
:100040000b4740000b4740000b4740000b47400068
:100050000b4740000b4740000b4740000b47400058
:100060000b474000000000000b4740000b474000da
:100070000b4740000b4740000b4740000b47400038
:100080000b4740000b4740000b474000a1234000b6
:100090000b4740000b4740000b4740000b47400018
:1000a0000b4740000b4740000b4740000b47400008
:1000b0000b4740000b4740000b4740000b474000f8
:1000c0000b4740000b4740000b4740000b474000e8
:1000d0000b4740000b4740000b4740000b474000d8
:1000e0000b4740000b4740000b4740000b474000c8
:1000f0000b4740000b4740000b4740000b474000b8
:100100000b4740000b4740000b4740000b474000a7
:100110000b4740000b4740000000000000000000bb
:100120000b4740000b4740000b4740000b47400087
:100130000b4740000b474000000000000b47400009
:100140000b4740000b4740000b4740000b47400067
:100150000b4740000b4740000b4740000b47400057
:080160000b4740000b47400073
:020000040000fa
:020000040040ba
:10016800f8b500bff8bc08bc9e467047e5404000a3
:10017800f8b500bff8bc08bc9e467047c1404000b7
:020000040000fa
:020000040040ba
:08018800cc1c00000100000086
:020000040000fa
:020000040040ba
:10019000ff000000000000002c000000ff00000035
:1001a0002e000000df000000ff0000000100000042
:1001b0003c000000320000001100000000000000c0
:1001c000090000000200000004000000a800000078
:1001d00013000000e50000001400000048000000cb
:1001e0002c0000000c00000033000000780000002c
:1001f0003a000000330000003b000000fb0000005c
:100200003e0000000000000043000000110000005c
:10021000160000001000000039000000020000007d
:100220003500000088000000220000000a000000e5
:100230003700000040000000230000000000000024
:1002400034000000a00000000600000002000000d2
:10025000060000008800000007000000c000000049
:100260000d000000b70000000e00000001000000bb
:100270004c000000000000004a0000008100000067
:100280002100000099000000240000004000000050
:100290002500000038000000260000008200000059
:1002a0005c0000000000000063000000000000008f
:1002b00046000000220000000c0000003a00000090
:1002c0005d000000550000005e0000007d000000a1
:1002d0005f0000007d00000060000000550000008d
:1002e000610000007000000062000000800000005b
:1002f0007c000000050000002000000080000000dd
:1003000028000000300000006c0000000000000029
:100310006d000000800000006e0000000000000082
:100320007000000002000000710000009400000056
:1003300073000000c10000003d0000003400000018
:1003400012000000040000005a00000057000000e6
:100350004f000000bb000000500000009c000000a7
:10036000ff00000000000000e50000007f0000002a
:10037000f9000000c000000041000000240000005f
:10038000e00000001400000076000000ff00000004
:1003900033000000a0000000420000002000000028
:1003a00043000000180000004c00000000000000a6
:1003b00087000000d0000000880000003f0000001f
:1003c000d700000003000000d9000000100000006a
:1003d000d300000082000000c800000008000000f8
:1003e000c9000000800000007c0000000000000048
:1003f0007d000000000000007c0000000300000001
:100400007d000000480000007d0000004800000062
:100410007c000000080000007d00000020000000bb
:100420007d000000100000007d0000000e000000b4
:100430009000000000000000910000000e0000008d
:10044000910000001a00000091000000310000003f
:10045000910000005a0000009100000069000000b7
:100460009100000075000000910000007e00000077
:100470009100000088000000910000008f00000043
:10048000910000009600000091000000a300000011
:1004900091000000af00000091000000c4000000c7
:1004a00091000000d700000091000000e80000006b
:1004b00091000000200000009200000000000000f9
:1004c000930000000600000093000000e30000001d
:1004d00093000000030000009300000003000000f0
:1004e00093000000000000009300000002000000e4
:1004f00093000000000000009300000000000000d6
:1005000093000000000000009300000000000000c5
:1005100093000000000000009300000000000000b5
:1005200093000000000000009600000000000000a2
:10053000970000000800000097000000190000006c
:100540009700000002000000970000000c0000006f
:100550009700000024000000970000003000000019
:10056000970000002800000097000000260000000f
:1005700097000000020000009700000098000000b3
:1005800097000000800000009700000000000000bd
:100590009700000000000000a40000000000000020
:1005a000a800000000000000c500000011000000cd
:1005b000c600000051000000bf00000080000000e5
:1005c000c700000010000000b60000006600000038
:1005d000b8000000a5000000b700000064000000a3
:1005e000b90000007c000000b3000000af00000074
:1005f000b400000097000000b5000000ff000000fc
:10060000b0000000c5000000b10000009400000030
:10061000b20000000f000000c40000005c000000f9
:10062000a600000000000000a7000000200000005d
:10063000a7000000d8000000a70000001b00000079
:10064000a700000031000000a7000000000000002b
:10065000a700000018000000a70000002000000014
:10066000a7000000d8000000a7000000190000004b
:10067000a700000031000000a700000000000000fb
:10068000a700000018000000a700000020000000e4
:10069000a7000000d8000000a7000000190000001b
:1006a000a700000031000000a700000000000000cb
:1006b000a7000000180000007f00000000000000fc
:1006c000e50000001f000000e100000077000000ce
:1006d000dd0000007f000000c20000000e000000ee
:1006e000ff00000000000000e00000000400000027
:1006f000c0000000c8000000c1000000960000001b
:10070000860000003d000000510000009000000045
:10071000520000002c000000530000000000000008
:100720005400000000000000550000008800000098
:100730005700000000000000500000009200000080
:100740005a000000500000005b0000003c00000068
:100750005c00000000000000d30000000400000066
:10076000e000000000000000ff00000000000000aa
:100770000500000000000000da0000000800000092
:10078000d700000003000000e000000000000000af
:100790000500000000000000da000000000000007a
:1007a0005a000000180000005b0000001800000064
:0807b000ff000000ff00000043
:020000040000fa
:020000040040ba
:1007b800ff000000000000002c000000ff00000007
:1007c8002e000000df000000ff0000000100000014
:1007d8003c00000032000000110000000000000092
:1007e800090000000200000004000000a80000004a
:1007f80013000000e500000014000000480000009d
:100808002c0000000c0000003300000078000000fd
:100818003a000000330000003b000000fb0000002d
:100828003e0000000000000043000000110000002e
:10083800160000001000000039000000020000004f
:100848003500000088000000220000000a000000b7
:1008580037000000400000002300000000000000f6
:1008680034000000a00000000600000002000000a4
:10087800060000008800000007000000c00000001b
:100888000d000000b70000000e000000010000008d
:100898004c000000000000004a0000008100000039
:1008a8002100000099000000240000004000000022
:1008b800250000003800000026000000820000002b
:1008c8005c00000000000000630000000000000061
:1008d80046000000220000000c0000003a00000062
:1008e8005d000000550000005e0000007d00000073
:1008f8005f0000007d00000060000000550000005f
:10090800610000007000000062000000800000002c
:100918007c000000050000002000000080000000ae
:1009280028000000300000006c00000000000000fb
:100938006d000000800000006e0000000000000054
:100948007000000002000000710000009400000028
:1009580073000000c10000003d00000034000000ea
:1009680012000000040000005a00000057000000b8
:100978004f000000bb000000500000009c00000079
:10098800ff00000000000000e50000007f000000fc
:10099800f9000000c0000000410000002400000031
:1009a800e00000001400000076000000ff000000d6
:1009b80033000000a00000004200000020000000fa
:1009c80043000000180000004c0000000000000078
:1009d80087000000d0000000880000003f000000f1
:1009e800d700000003000000d9000000100000003c
:1009f800d300000082000000c800000008000000ca
:100a0800c9000000800000007c0000000000000019
:100a18007d000000000000007c00000003000000d2
:100a28007d000000480000007d0000004800000034
:100a38007c000000080000007d000000200000008d
:100a48007d000000100000007d0000000e00000086
:100a58009000000000000000910000000e0000005f
:100a6800910000001a000000910000003100000011
:100a7800910000005a000000910000006900000089
:100a88009100000075000000910000007e00000049
:100a98009100000088000000910000008f00000015
:100aa800910000009600000091000000a3000000e3
:100ab80091000000af00000091000000c400000099
:100ac80091000000d700000091000000e80000003d
:100ad80091000000200000009200000000000000cb
:100ae800930000000600000093000000e3000000ef
:100af80093000000030000009300000003000000c2
:100b080093000000000000009300000002000000b5
:100b180093000000000000009300000000000000a7
:100b28009300000000000000930000000000000097
:100b38009300000000000000930000000000000087
:100b48009300000000000000960000000000000074
:100b5800970000000800000097000000190000003e
:100b68009700000002000000970000000c00000041
:100b780097000000240000009700000030000000eb
:100b880097000000280000009700000026000000e1
:100b98009700000002000000970000009800000085
:100ba800970000008000000097000000000000008f
:100bb8009700000000000000a400000000000000f2
:100bc800a800000000000000c5000000110000009f
:100bd800c600000051000000bf00000080000000b7
:100be800c700000010000000b6000000660000000a
:100bf800b8000000a5000000b70000006400000075
:100c0800b90000007c000000b3000000af00000045
:100c1800b400000097000000b5000000ff000000cd
:100c2800b0000000c5000000b10000009400000002
:100c3800b20000000f000000c40000005c000000cb
:100c4800a600000000000000a7000000200000002f
:100c5800a7000000d8000000a70000001b0000004b
:100c6800a700000031000000a700000000000000fd
:100c7800a700000018000000a700000020000000e6
:100c8800a7000000d8000000a7000000190000001d
:100c9800a700000031000000a700000000000000cd
:100ca800a700000018000000a700000020000000b6
:100cb800a7000000d8000000a700000019000000ed
:100cc800a700000031000000a7000000000000009d
:100cd800a7000000180000007f00000000000000ce
:100ce800e50000001f000000e100000077000000a0
:100cf800dd0000007f000000c20000000e000000c0
:100d0800ff00000000000000e000000004000000f8
:100d1800c0000000c8000000c100000096000000ec
:100d2800860000003d000000510000009000000017
:100d3800520000002c0000005300000000000000da
:100d4800540000000000000055000000880000006a
:100d58005700000000000000500000009200000052
:100d68005a000000500000005b0000003c0000003a
:100d78005c00000000000000d30000000400000038
:100d8800e000000000000000ff000000000000007c
:100d98000500000000000000da0000000800000064
:100da800d700000003000000e00000000000000081
:100db8000500000000000000ff000000ff00000028
:020000040000fa
:020000040040ba
:100dc800ff000000000000002c000000ff000000f1
:100dd8002e000000df000000ff00000001000000fe
:100de8003c0000003200000011000000000000007c
:100df80009000000020000000400000028000000b4
:100e080013000000e5000000140000004800000086
:100e18002c0000000c0000003300000078000000e7
:100e28003a000000330000003b000000fb00000017
:100e38003e00000000000000430000001100000018
:100e480016000000100000003900000092000000a9
:100e580035000000da000000220000001a0000003f
:100e680037000000c300000023000000000000005d
:100e780034000000c0000000360000001a00000026
:100e8800060000008800000007000000c000000005
:100e98000d000000870000000e0000004100000067
:100ea8004c000000000000004800000000000000a6
:100eb8005b0000000000000042000000030000008a
:100ec8004a00000081000000210000009900000095
:100ed8002400000040000000250000003800000049
:100ee80026000000820000005c00000000000000f6
:100ef80063000000000000006100000070000000b6
:100f080062000000800000007c0000000500000076
:100f180020000000800000002800000030000000d1
:100f28006c000000000000006d0000008000000060
:100f38006e000000000000007000000002000000c9
:100f4800710000009400000073000000c100000060
:100f5800120000004000000017000000110000000f
:100f68001800000043000000190000000000000005
:100f78001a0000004b0000003200000009000000c9
:100f880037000000c00000004f00000060000000b3
:100f980050000000a80000006d00000000000000e4
:100fa8003d00000038000000460000003f0000003f
:100fb8004f000000600000000c0000003c00000032
:100fc800ff00000000000000e50000007f000000b6
:100fd800f9000000c00000004100000024000000eb
:100fe800e00000001400000076000000ff00000090
:100ff80033000000a00000004200000020000000b4
:1010080043000000180000004c0000000000000031
:1010180087000000d5000000880000003f000000a5
:10102800d700000003000000d900000010000000f5
:10103800d300000082000000c80000000800000083
:10104800c9000000800000007c00000000000000d3
:101058007d000000000000007c000000030000008c
:101068007d000000480000007d00000048000000ee
:101078007c000000080000007d0000002000000047
:101088007d000000100000007d0000000e00000040
:101098009000000000000000910000000e00000019
:1010a800910000001a0000009100000031000000cb
:1010b800910000005a000000910000006900000043
:1010c8009100000075000000910000007e00000003
:1010d8009100000088000000910000008f000000cf
:1010e800910000009600000091000000a30000009d
:1010f80091000000af00000091000000c400000053
:1011080091000000d700000091000000e8000000f6
:101118009100000020000000920000000000000084
:10112800930000000600000093000000e3000000a8
:101138009300000005000000930000000500000077
:10114800930000000000000093000000040000006d
:101158009300000000000000930000000000000061
:101168009300000000000000930000000000000051
:101178009300000000000000930000000000000041
:10118800930000000000000096000000000000002e
:1011980097000000080000009700000019000000f8
:1011a8009700000002000000970000000c000000fb
:1011b80097000000240000009700000030000000a5
:1011c800970000002800000097000000260000009b
:1011d800970000000200000097000000980000003f
:1011e8009700000080000000970000000000000049
:1011f8009700000000000000c3000000ed000000a0
:10120800a400000000000000a8000000000000008a
:10121800c500000011000000c600000051000000d9
:10122800bf00000080000000c700000010000000a0
:10123800b600000066000000b8000000a50000002d
:10124800b700000064000000b90000007c00000046
:10125800b3000000af000000b400000097000000d9
:10126800b5000000ff000000b0000000c50000004d
:10127800b100000094000000b20000000f00000060
:10128800c40000005c000000c00000006400000012
:10129800c10000004b0000008c00000000000000ae
:1012a800860000003d000000500000000000000023
:1012b80051000000c8000000520000009600000025
:1012c800530000000000000054000000000000006f
:1012d80055000000000000005a000000c80000008f
:1012e8005b000000960000005c00000000000000a9
:1012f800d300000000000000c3000000ed00000063
:101308007f00000000000000da000000000000007c
:10131800e50000001f000000e10000006700000079
:10132800e000000000000000dd0000007f00000079
:10133800050000000000000012000000400000004e
:10134800d300000004000000c000000016000000e8
:10135800c1000000120000008c0000000000000026
:10136800860000003d000000500000000000000062
:10137800510000002c000000520000002400000072
:1013880053000000000000005400000000000000ae
:1013980055000000000000005a0000002c0000006a
:1013a8005b000000240000005c000000000000005a
:0813b800ff000000ff0000002f
:020000040000fa
:020000040040ba
:1013c0002de9f04f2ded0a8b1d4692ed008bd1e9f2
:1013d0000073b5eec08b8bb0f1ee10fa02930b697f
:1013e0000690d1f808800593cc6806d4790731d4eb
:1013f00017f0080630d0202302e02d23b1ee488bf1
:10140000237008f1ff39012618ee903adff870b327
:1014100018ee100a23f000414ff0000a594508bfaa
:1014200050451bd1413d192d04eb060094bfd04916
:10143000d04903f0affbcf4803f064fb00970246ae
:1014400043462146069802f089f80bb0bdec0a8ba2
:10145000bde8f08f2b23d3e7c146d5e78b45a5f137
:10146000410308bf8245039309d2192b04eb060000
:1014700094bfc149c14903f08dfbc048dce730226d
:10148000a255b5ee408b039ab7ee009b1a2a06f1df
:10149000010334bf58227822f1ee10fae25406f12b
:1014a0000206a9f102094ff0000a40f0de80b0ee1a
:1014b00049bbb0ee48cb029b9feda7ab002bb8bf5a
:1014c00018234ff0000b8cee0b0b079301f0ccfcb4
:1014d0000bf101030493029b00ee4bcb002b2bee90
:1014e0000abb079b04dab5ee40cbf1ee10fa04d04c
:1014f0005b4500f3dd8001330493b2ee007b2beefd
:10150000077bb4eec7cbf1ee10fa00f1d480b4ee55
:1015100047cbf1ee10fa09d1bdeec00b9fed906bf9
:1015200010ee103a13f0010f06fe077b38ee078b22
:1015300018ee903a23f00041914b18ee100a002269
:10154000994208bf90423ff46daf4ff0000b354613
:1015500059465b4605980538a8422a461fd988eea9
:10156000090bcde90831079201f07efcfdeec07b4e
:10157000b0ee40bb17ee900adde907230999002879
:1015800040f09c80002b00f099800bf1010b049a35
:101590000bee498b01339a4229ee0a9bdad1d1b97d
:1015a000bbf1000f00f0ce80029b002b40f3ca80fd
:1015b000fa0700f1c78063192e221a700beb05029f
:1015c0002244302103f8011f9a42fbd15d446feaa7
:1015d0000b0b0135d944059b059900226019013b8d
:1015e00092450270c1f1020ee254bcbfcaf1000a7a
:1015f00001220a21baf1000f40f093800eeb030c98
:10160000bcf1010f00f08d80002a03f1ff3114bfff
:101610002d222b226254039a023b1a2a04eb030167
:1016200034bf502270229d420a7001da03f0b2faf0
:1016300007f00303022b12d1a9f10209b9f1000f3f
:101640000ddd204603f05efa04eb0903b04275dac3
:101650004a463021a01903f04dfa4ff00008204609
:10166000eae60af1010ab0ee479b39ee097bb4eed7
:10167000c78bf1ee10faf4d5b6ee007bb0ee475b07
:101680009fed396bb4eec98bf1ee10fa7ff50faf19
:1016900029ee074bb5ee404bf1ee10fa04bf29eef0
:1016a000069b28ee068b29ee059b0af1ff3ae9e737
:1016b000ddf810b007e79fed2a7b37e731b92bb192
:1016c0002e21a154013509f1ff39012104eb0b0250
:1016d00004eb050c2a444ff0300e01e00cf801eb4e
:1016e0009445fbd105eb0b02039d0928d4bf303094
:1016f0005730192da9eb0b090cd840f02005613d9e
:10170000192d07d8cde90812079303f029fadde96e
:101710000812079ba054551c09f1ff394ff0000b2c
:1017200035e7bafbf1fc013b01fb1caa0af1300ac8
:1017300004f803a009f1ff39e2465be7225c1a5482
:10174000013883e7fb067ff546af2e23635501354d
:1017500041e700bfaff30080000000000000b03f91
:1017600000000000000000000000000000005043e6
:10177000244b4000284b40002c4b4000304b400095
:041780000000f07ff6
:020000040000fa
:020000040040ba
:04178400002070478a
:020000040000fa
:020000040040ba
:101788002de9f04f2ded0a8b92ed00ab8fb0b5ee41
:10179800c0ab04938b680393f1ee10fa0b690690c3
:1017a8008a46d1e900750793cc6806d47a0732d403
:1017b80017f0080631d0202302e02d23b1ee4aab02
:1017c8002370039b012603f1ff3b1aee903adff8e2
:1017d80064931aee100a23f000414ff000084945bf
:1017e80008bf40451cd1049b413b192b94bfcc49f1
:1017f800cc49a01903f0caf9204603f07ff90097f5
:101808000246039b0698214601f0a4fe0fb0bdecea
:101818000a8bbde8f08f2b23d2e7ddf80cb0d4e7b4
:10182800894508bf804508d2049b413b192b04eb2e
:10183800060094bfbc49bd49dce7b5ee40abf1ee0c
:1018480010fab2ee04cbb7ee009b4ff0000818d1a7
:10185800049803f07af9002dc0b2c0f26d816728b0
:101868002dd1002d08bf012518f1040f02dba84572
:10187800c0f244814ff0650933e008f10108b0ee89
:10188800479b29ee0c7bb4eeca7bf1ee10faf4dd2f
:101898000023a74a9fed9e7b0be0904505da23b90c
:1018a8002aee07ab29ee079b012308f1ff3889eee2
:1018b8000c9bb4eec9abf1ee10faeed4c8e7814642
:1018c800b9f1660f05f101050bd1b8f1000f03da84
:1018d800b7ee009b4ff00008672818bf45444ff04b
:1018e80066090023b0ee498bb0ee4abb8bee080bbd
:1018f8000893059001f0b4fa089b90ee08bbfdee42
:10190800c07b01339d4217ee902ab1ee4bbb88eea7
:101918000c8b0598ead1b1ee047b28ee078bb4ee68
:10192800c8bbf1ee10fa73d4b4ee48bbf1ee10fa6e
:1019380005d19fed796b12f0010f06fe088b3aee88
:10194800088b29ee0cabb4eec8abf1ee10fa62d8f6
:10195800b9f1660f08f101085fd1013541464b1b0b
:1019680000220a93354605920a9b994240f08280ec
:10197800059b002b00f0ab8060190022b9f1650fc0
:1019880002702dd1079b0799013b9045e254c1f1a4
:10199800030ebcbfc8f1000801220a21b8f1000fec
:1019a80040f09b800eeb030cbcf1000f00f3958018
:1019b800002a03f1ff3114bf2d222b226254049a0e
:1019c800023b413a192a04eb030198bf4ff045093d
:1019d8009d4281f80090abf1020b01da03f0d6f8d2
:1019e80007f00303022b7ff407afbbf1000f7ff76b
:1019f80003af204603f082f804eb0b03864279dd3f
:101a08005a463021a01903f071f800230393f3e636
:101a18009fed418b93e7b0ee49abb9f1650f14bf69
:101a2800414600219be7059b5bb9002909da089b21
:101a38004ff02e0c04f803c0012301350bf1ff3bd6
:101a4800059304eb020c6319ac444ff0300e01e02f
:101a580003f801eb9c45fbd1099b02eb050cabebb2
:101a6800020b30330cf1010504f80c300bf1ff3b8d
:101a7800002224e0daf810300895053bab427ff6e7
:101a880077af88ee0a0bcde90c200b9101f0e8f94d
:101a9800fdeec07bdde90b1217ee903a092ba8bfcb
:101aa800092317ee90ca099307f0100353ea0c03b1
:101ab8000d98b8d16728b6d10029c2da01329aee5a
:101ac800008b0139b1ee488b8aee0cab4ce7fb0674
:101ad80042bf2e23635501354ee7b8fbf1fc013bad
:101ae80001fb1c8808f1300804f803800bf1ff3b68
:101af800e04653e7225c1a5401387fe7b8f1000f3b
:101b0800bff6edae4ff06609dae60625ace600bf93
:101b1800000000000000504300000000000000002a
:101b2800344b4000384b40003c4b4000404b400099
:101b3800d4feffff0000f07f6728e6d08146062527
:041b4800bee600bf36
:020000040000fa
:020000040040ba
:101b4c002de9f041aeb006461546059100270599e2
:101b5c000b78002b00f0fa8000244ff0ff33cde916
:101b6c0009430eab0c9380230b940d930b5d0bb1bf
:101b7c00252b26d134b12246304602f077fb059b4b
:101b8c0023440593059b1a78252a40f0d78003f14e
:101b9c000108cdf81480059803782b2b1ad025d882
:101bac00202b1bd0232b1dd02a2b27d002f03cfa44
:101bbc000b90059b1a78303a092a2ed801330593dd
:101bcc00f7e70134d2e7099b43f001030130099395
:101bdc000590e0e7099b43f00403f7e7099b43f00a
:101bec000803f3e7099b43f01003efe72d2bead032
:101bfc00302bd9d1099b43f00203e7e72b681a1d60
:101c0c001b682a600130002b05900b9305da099aaa
:101c1c005b4282f0010209920b93099bda0744bfe5
:101c2c0023f002030993059b1a782e2a0dd100226a
:101c3c00581c0a9205905a782a2a25d1023305930a
:101c4c002b681a1d1b682a600a9305a802f080fbfa
:101c5c00059b0390187802f076ff6928039979d0d8
:101c6c0032dc632800f0cb8019dc252800f0d98009
:101c7c00612853d000234ff0ff32cdf81480099324
:101c8c000b930a920093d4e002f0cef90a90059bd4
:101c9c001a78303a092ad8d801330593f7e7642823
:101cac0058d06728e6dc2a4606a802f0affc0028cc
:101cbc0000f0a180059b5a1c05921b7806aa09a965
:101ccc003046fff75bfd38e0702873d015dc6e28ca
:101cdc0000f08c806f28cdd12b46002206a801f095
:101cec002ffa002800f08780059b06aa013309a96a
:101cfc003046059301f05ffd1fe075283ad0782837
:101d0c0048d07328b6d1802975d1059b2a68013338
:101d1c000593131d2b60126800237de02a4606a84c
:101d2c0002f074fc002866d0059b5a1c05921b78a7
:101d3c0006aa09a93046fff73dfb04443c44a742e0
:101d4c007add3e4b4f221a604ff0ff3738462eb0eb
:101d5c00bde8f0812b46012206a801f0f1f900281c
:101d6c0049d0059b06aa013309a93046059301f019
:101d7c0091fae2e72b46002206a801f0e1f90028cf
:101d8c0039d0059b06aa013309a93046059301f009
:101d9c0057ffd2e72b46002206a801f0d1f950b329
:101dac00059b5a1c05921b7806aa09a9304600f01f
:101dbc00f1fdc2e72b460022f02106a801f0c0f984
:101dcc00c8b1059b01330593dde9062313430bd101
:101ddc001b4802f091fe099b009319490b9b02468c
:101dec00304601f0b5fba8e77823dde72b463a191e
:101dfc0006a801f02bfc059b013305939ee7802977
:101e0c00f9d1059b013305932b681a1d1b682a60b9
:101e1c008df8183006aa012309a9304601f0e4fe1a
:101e2c008be78029e7d1059b01330593099b009330
:101e3c000b9b04490122d3e7274688e69c2b4020c4
:081e4c00744840007a48400090
:020000040000fa
:020000040040ba
:101e54002de9f04f099f154604468e461e46002b79
:101e640040f0cc808a42b2fa82fc4cd9bcf1000f1b
:101e74000bd0ccf1200801fa0cfe20fa08f802fa83
:101e84000cf548ea0e0e00fa0cf44fea15491ffa55
:101e940085f8befbf9fa210c09fb1ae30afb08fbdf
:101ea40041ea03439b452ad9eb180af1ff3004d2d7
:101eb4009b4502d9aaf102002b44a3eb0b03a4b265
:101ec400b3fbf9f209fb123302fb08f844ea0344ba
:101ed400a04516d92c1902f1ff3303d2a04501d92c
:101ee400931e2c44a4eb080443ea004027b124facf
:101ef4000cf400233c607b603146bde8f08f504613
:101f0400dbe71346eee702b9ffdebcf1000f2ed18a
:101f14008b1a01264fea154eaab2b3fbfef8210c28
:101f24000efb183308fb02f941ea0343994561d9d2
:101f3400eb1808f1ff3004d2994502d9a8f1020048
:101f44002b44a3eb0903a4b2b3fbfef10efb113344
:101f54004a4344ea0344a2424ed92c1901f1ff3307
:101f640003d2a24201d98b1e2c44a41abce7ccf1a3
:101f7400200e02fa0cf521fa0ef901fa0cf320fafc
:101f84000efe4eea03034fea154800fa0cf4b9fbbf
:101f9400f8f11ffa85fe08fb1192180c01fb0ef6ee
:101fa40040ea0242964221d9aa1801f1ff3003d235
:101fb400964201d9881e2a44921b9bb2b2fbf8f9bf
:101fc40008fb192209fb0efe43ea02439e450fd982
:101fd400eb1809f1ff3604d29e4502d9a9f1020695
:101fe4002b44a3eb0e0346ea004693e70846e3e7d7
:101ff4004e46f6e74046a4e70b46b6e78b4206d9c1
:10200400002f7ed00026c7e90001304674e7b3fafa
:1020140083fcbcf1000f0fd18b4201d3824209d85b
:10202400841a61eb030e0120002f6dd0c7e9004e26
:10203400002661e76046f7e7ccf1200e03fa0cf3c3
:1020440022fa0ef521fa0ef41d4301fa0cf320fadc
:102054000ef10b434fea154a00fa0cf6b4fbfaf9f9
:102064001ffa85f80afb19401c0c09fb08f144ea25
:102074000044a14202fa0cf23fd92c1909f1ff30b5
:1020840004d2a14202d9a9f102002c44641a9bb2e1
:10209400b4fbfaf90afb194409fb08f843ea0441c2
:1020a40088452cd9691809f1ff3304d2884502d92f
:1020b400a9f10203294443ea0040a1eb0801a0fb73
:1020c40002894945c2464c4602d306d1464504d24c
:1020d400b8eb020a69eb05040138afb1b6eb0a03a9
:1020e40061eb040606fa0efe23fa0cf34eea030330
:1020f40026fa0cf6c7e900369ae74846c6e74b4687
:0c210400d9e73e463846f7e63e46f5e6d1
:020000040000fa
:020000040040ba
:10211000602b40201c00000000000000382b4020f5
:102120002800000000000000042b402004000000f4
:1021300000000000902b4020040000000000000080
:10214000000040200024000000000000082b402078
:102150003000000000000000142a4020a000000011
:1021600000000000902c4020020000000100000050
:10217000010000007c2b40200c000000000000004b
:10218000942b40200400000000000000b42a4020ee
:102190005000000000000000a42b40206c00000054
:1021a00001000000b02b4020ac2b4020b02b402081
:1021b000000000002500000008244020000400006a
:1021c000000000000000000000000000000000000f
:1021d00000000000000000000000000000000000ff
:1021e000dd4b400000000000000000000000000087
:1021f00000000000c939400000000000000000009d
:1022000000000000000000000000000000000000ce
:10221000002440200804000000000000702c402032
:102220002000000001000000010000000300000089
:10223000000000000000000000000000000000009e
:1022400000000000882b4020882b40200800000060
:1022500000000000982b4020040000000000000057
:10226000082840200c02000000000000102c402034
:1022700060000000010000000100000003000000f9
:10228000000000000000000000000000000000004e
:1022900000000000993b400000000000000000002a
:1022a00000000000d14b4000e94b4000000000005e
:1022b000000000000000000000000000000000001e
:1022c000000000000000000000000000000000000e
:1022d00000000000000000009c2b402008000000cf
:1022e0000000000000000000000000006666666656
:020000040000fa
:020000040040ba
:1023a00038b5664b5c6a664b1b6a13f4807f04d0b9
:1023b000624aff2111770121517713f0010106d004
:1023c0005f4a08201060042010600720906213f418
:1023d000007f02d0594a01201077584a527f8ab9ab
:1023e000564a127f52b2013a032a0bd8dfe802f0b4
:1023f00002561c7b514bdb6883b1504b188800217f
:1024000000f0cefc4d4b1b7f5bb2b3f1ff3f70d0b1
:102410004a4b1b7f5bb2052b7cd038bd474b1888dd
:10242000012100f0bdfcede713f0040fead04349b1
:102430004d69ca680969013aaa4200d179b93f4a8f
:10244000d268013aaa4216d03c4a5268515d3c4ad1
:1024500051630135394b5d61394b1b6ad2e772b666
:10246000374a0421916235494968495d5163013514
:1024700001f090ffeee7314a5268515d304a5163f6
:1024800001350223136004239362136a13f0010fd2
:102490002a4b14bf052204221a77dbe713f0020f40
:1024a000b0d0264a93691269023a9a420bd0244a64
:1024b000106b224a9168c854013312699a4206d0bf
:1024c0001e4a93619ee71e4a02211160efe71c4af3
:1024d00002219162126a12f0010f184a14bf0521fd
:1024e00004211177ece700298cd0144b05221a77d0
:1024f00088e7124a00231377114b072199620821bc
:10250000196004211960136a002b81d0136a2046d8
:1025100098477de7094b00225a771a77084a072126
:10252000916208211160042111601b6a002b3ff4a5
:1025300074af024b1b6a204698476ee7382b402049
:0425400000800140d6
:020000040000fa
:020000040040ba
:102544002de9f04f85b0019001a801f017fe002895
:1025540003da002005b0bde8f08f019b1b095d1e66
:10256400202d0fd9023b5b4ab3f5007f35bf02eb48
:10257400d30302ebd31313f8045c13f8045c34bfe5
:10258400013511350123a5f12001c5f1200203fa1b
:1025940001f923fa02f203fa05f849ea0209d8f12b
:1025a40000084d4f69eb4909d7e9002302ea080afc
:1025b40003ea090b5aea0b0342d1019b03a8103327
:1025c400039302f0f1f918b9444b0c221a60c1e7e5
:1025d400d7f80852a84206d0039b103b039301236b
:1025e40000f110058360039bea18012143f0010305
:1025f400b5f1080442f8083c42f8041cc7f8082264
:1026040045f8043ca5d0204601f00eff88b155f8ea
:10261400083c55f8041c23f00103e31a5a6822f01d
:1026240001020a445a6055f8041c21f00101625069
:102634001c462046019901f0c5fe04f1080089e713
:102644005046244a264bbaf1000f34d1cbf1000195
:1026540001ea0b014b4302ebd36393f83c60203651
:10266400304602f0dbf8731c57f8334007ebc30322
:10267400083b9c4298d0272e26dd0235ae4201dc71
:102684003f2e21d16168019a21f001018d1a28465b
:1026940001f046fe864217d1a318e068a668d86008
:1026a4009e608360986842f00102c360c3e900251c
:1026b40065506260bde7caf1000101404b4302eb83
:1026c400d36393f83c60cbe73146204601f006fa29
:1026d400afe700bf3c3b4000082840209c2b402033
:0426e40029e66b0771
:020000040000fa
:020000040040ba
:1026e80008b54f4b98474f4b9847eff3108172b698
:1026f8004d4ad2f8883043f47003c2f88830bff3eb
:102708004f8fbff36f8f01b962b6484b484a5a6082
:102718009a6812f0010ffbd0444bdb6813f4c07fba
:1027280013d0444b0c221a60404b434a5a609a68b3
:1027380012f0010ffbd03d4b404a5a609a6812f0e4
:10274800010ffbd03e4b3f4a1a60bff34f8fbff3d8
:102758006f8f354cd4f8903223f00103c4f89032cf
:10276800d4f8943223f00103c4f89432bff34f8fa6
:10277800bff36f8f01f05afb334b23f07f03a36045
:10278800324b9847636913f4003f12d1bff34f8f60
:10279800bff36f8f0022c4f85022bff34f8fbff3ef
:1027a8006f8f626942f400326261bff34f8fbff3eb
:1027b8006f8f1d4b5b6913f4803f29d11a4b0022a0
:1027c800c3f88420bff34f8fd3f88030c3f3c90612
:1027d800c3f34e335a0143f6e075134802ea050481
:1027e800334644ea8371c0f86012013bb3f1ff3ffe
:1027f800f7d1203a12f1200ff0d1bff34f8f0a4ad8
:10280800536943f480335361bff34f8fbff36f8f26
:102818000f4b98470f4b984702f090f9fee700bf1f
:10282800fb434000fb43400000ed00e0000c0e407d
:102838000d00005a042b40200c08005a0c07005abf
:1028480000180e40010000a500004000853a400035
:08285800fb434000fb4340007c
:020000040000fa
:020000040040ba
:10286000ff00000001000000120000004000000016
:1028700017000000110000001800000043000000d5
:1028800019000000000000001a0000004b000000ca
:1028900032000000090000004f000000ca000000e4
:1028a00050000000a80000005a00000023000000b3
:1028b0006d00000000000000390000001200000060
:1028c00035000000da000000220000001a000000bd
:1028d00037000000c30000002300000000000000db
:1028e00034000000c0000000360000001a000000a4
:1028f000060000008800000007000000c000000083
:102900000d000000870000000e00000041000000e4
:102910004c00000000000000ff000000000000006c
:10292000e000000004000000c0000000640000009f
:10293000c10000004b0000008600000035000000d0
:10294000500000008900000051000000c800000095
:10295000520000009600000053000000000000003c
:1029600054000000000000005500000000000000be
:1029700057000000000000005a0000005000000056
:102980005b0000003c0000005c0000000000000054
:10299000e000000000000000ff000000ff00000059
:020000040000fa
:020000040040ba
:1029a0002de9f04f0e4649683568d6f80890f7686b
:1029b0008bb0cde903230029acbf25f0020501212e
:1029c00015f010030593039b8346d3e900232fd012
:1029d00052ea03002cd0a9f10208346915f008006e
:1029e00004f1ff3408904ff00000385518bf08f18b
:1029f000ff388a46012c1ddc059b002b54d1089b17
:102a000013b1013c20233b5532690095013a4b46f6
:102a1000121b3919584600f0a1fddbf80430db0524
:102a200003d573689842b8bf18460bb0bde8f08f65
:102a3000c846d2e752ea030009d1baf1000f06dc1a
:102a4000a8eb010050440028d6dda807d4d502f039
:102a50000f000928d4bf00f1300e00f1570e049882
:102a6000a0f1410cbcf1190f04f1ff3410d84ef065
:102a7000200cacf1610cbcf1190f09d8704609911a
:102a8000cde9062302f06cf8dde9062309998646b4
:102a9000100940ea03704fea131c07f804e00af13a
:102aa000ff3a02466346a5e7039bd3e9000150eadb
:102ab0000103a4d03a19049b02f8013c023c3023e4
:042ac0003b559ce7ff
:020000040000fa
:020000040040ba
:102ac4002de9f84300286ad050f8043ca0f108042a
:102ad40023f00107e6193268934200d0ffde7268e2
:102ae40023681340da070fd4204601f09dfc002828
:102af40057d1304601f038fd0028f0d0736823f038
:102b040001031f441e44eae747f0010363603846ab
:102b1400336001f005fc054601f080fe236872680d
:102b24001340db07e0d5dff88ce0dee90089c5f16e
:102b3400200ca5f1200228fa05f009fa0cfc29fa68
:102b440002f240ea0c001043012100ea01020023d2
:102b54001343c5f120007346a5f1200212d121fad6
:102b640000f001fa02f2a94042ea00021ebfdef8b8
:102b740000000143cef8001022b1def804100a432d
:102b8400cef80420681c03ebc003a3f108026760bd
:102b94003760a2605a68e2605c60e3689c60bde8ec
:102ba400f883236823f00103e41a636823f0010324
:082bb4001f449ee708284020a1
:020000040000fa
:020000040040ba
:102bbc002de9f0430e4601b3f8b1002a67d038492d
:102bcc00cf6b07f0f00789689e4234bfa3eb060e6b
:102bdc004ff0000e1fb15b0876084fea5e0e304cca
:102bec00216911f0020ffbd04ff0000c65462c4907
:102bfc004ff6ff794ff0ff0814e0111c18bf0121ac
:102c0c00002b08bf002100293ed0002808bf002659
:102c1c00d5e730f81540cc600135cbb90c6914f010
:102c2c00020ffbd0b54202d1bef1000f22d0b5424b
:102c3c0005d0002fedd1445dcc600135ede727b90f
:102c4c00c1f80c800ef1ff3ee7e7c1f80c90f9e7f4
:102c5c000c6914f0010ffbd08c689c45e2d227b9ab
:102c6c0002f80c400cf1010cdce722f81c400cf1d2
:102c7c00010cd7e70a4a136913f4007ffbd0084b09
:102c8c004ff080721a6001210846bde8f083044bb6
:102c9c00df6b07f0f0079b6800239e469ae700bfa6
:042cac000080004064
:020000040000fa
:020000040040ba
:102cb00010b4374b0022c3f81421d3f8140141f2a9
:102cc00010010143c3f814113249334b4b60334bad
:102cd0000b604ff0ff334b656ff4067008664ff4de
:102ce00006704866c1f89030c1f8a0300a614b61a7
:102cf0008a63c1f8182101f5007110200867486740
:102d000048606ff0100008604b650b66c1f89030aa
:102d1000c1f8a0300a614b618a63c1f8182101f53e
:102d200000710b604b650b66c1f89030c1f8a030a4
:102d30000a614b618a63c1f8182101f500714ff4f3
:102d4000e00008674a6748606ff4e00008604b6580
:102d50000b66c1f89030c1f8a0304ff020600861d8
:102d60006ff020644c618863c1f8182101f500718f
:102d70000b604b650b66c1f89030c1f8a0300a615a
:102d80004b618a63c1f818215df8044b704700bf9e
:102d900000800840000e0e4018002000e7ffdfff13
:020000040000fa
:020000040040ba
:102da00008b57f281fd9030203f4fe0343f48073a0
:102db0002b4a5360c0b2d0602a4b00225a619a61fc
:102dc000002948d1db68012b11d0264b03221a774a
:102dd0005a68127822494a635a6901325a610523b6
:102de0004b62012008bd00041d4b5860e4e71d4bf9
:102df0001b6973b91b4b04221a775a681178184a59
:102e000051635969013159610223136001235362ef
:102e1000e7e772b6134b5a681078114a50635a6943
:102e200001325a610e4a136a13f0050ffbd10c4ba5
:102e30001b6a13f0040f0ed14ef660230848026a95
:102e400012f0040f07d1013bf9d1064b02225a7749
:102e500062b60846c6e701f09dfa0120c2e700bf4e
:082e600000800140382b4020e6
:020000040000fa
:020000040040ba
:102e680053ec102bc3f30a512de9f04140f2fd70e9
:102e78004e1e86421d4644d8a1f2ff30002835db9d
:102e8800332831dc264bc0f120084ff0ff3c03fa11
:102e980008f2a1f21f412cfa00fc10ee104a4cea8d
:102ea800020c23fa01f24cea020c23fa00fe04eaaf
:102eb8000c0605ea0e0724ea0c0256ea070425ea7e
:102ec8000e030fd0002a73f100040bda4ff48015bb
:102ed80005fa08f425fa01f10c43121925fa00f055
:102ee80040eb030343ec102bbde8f0819fed0a7b18
:102ef800bfee000b002a73f1000327fe000bbde8ac
:102f0800f0810029f0d10a4603f0004343ec102b6e
:102f1800eae700bfaff300800000000000000000f7
:042f2800ffff0f0098
:020000040000fa
:020000040040ba
:102f2c00f8b52d494c6ad1e90623561c43f100072c
:102f3c00c1e90667002c4dd091f82030013381f89f
:102f4c002030a36823b1a368013ba3604c6afcb199
:102f5c00a368ebb9012500271f4e0ae0e06901f0d8
:102f6c0067f9e3680bb120699847746a84b1a36868
:102f7c0073b925756575a37813b9e368002bedd18a
:102f8c00204600f02bffa378002bead16770e8e70e
:102f9c00124d00242e46274603e001342035052c23
:102fac0012d006eb44135b7d002bf6d006eb4413da
:102fbc005f75ab78012bf0d16b6806eb4412936014
:102fcc00284600f043fae8e7034a92f82030013b28
:102fdc0082f82030f8bd00bf082b4020142a402076
:020000040000fa
:020000040040ba
:102fec0008b5012829d043b253b1022834d00121ad
:102ffc00042001f045fa0221042001f041fa08bd39
:10300c000121ff2001f0c4fb8021122001f0c0fb44
:10301c00194801f079fa194801f076fa184801f0cc
:10302c0073fa0121ff2001f0b3fb0021152001f000
:10303c00affb144801f068fad9e70121ff2001f039
:10304c00a7fb8021122001f0a3fb642001f07cfb84
:10305c000d4801f059facae70121ff2001f098fb55
:10306c008021122001f094fb642001f06dfb0748d5
:10307c0001f04afabbe700bfc80d4000f83c400025
:10308c00ec3f400060284000b80740009001400031
:020000040000fa
:020000040040ba
:10309c002de9f04106460d4690461f4601f004f915
:1030ac00002841d0224b93f90030022b06d04ff070
:1030bc00ff3401f09ffb2046bde8f081002d30d09d
:1030cc00b5422ed31b4b1b7853b101241a4b1a78e3
:1030dc0042b120330134052cf9d14ff0ff34e8e72d
:1030ec000024144b01221a7000225a701a755a755a
:1030fc009df818209a705d60c3f80c801f61ad1ba1
:10310c009d600e4a1288a4b244ea0244dc61531c4e
:10311c009bb24ff6ff72934208bf0123074a1380fc
:10312c00c7e74ff0ff34c4e74ff0ff34c3e700bfed
:10313c00082b4020142a4020342a4020902c402078
:020000040000fa
:020000040040ba
:10314c00882910b536d012dc812943d003dc8029c4
:10315c0040d0002010bd82290ed08429f9d11968e5
:10316c0002b30a1d1a60b1f90020d3171ee0a02982
:10317c002bd00bdc9029ecd11968073121f0070119
:10318c0001f108021a60d1e900230fe0c02901d037
:10319c00f029ded11a68111d196013680360002331
:1031ac00436005e00a1d1a600a880023c0e9002369
:1031bc000120cfe7196822b10a1d1a6091f900208d
:1031cc00d3e70a1d1a600a78efe71a68111d196017
:1031dc001268cae719681ab10a1d1a600a68c4e7ae
:0c31ec000c1d1c600b68c0e90032e1e71c
:020000040000fa
:020000040040ba
:1031f8008c324000903240009432400098324000b7
:103208009c324000302e302e310000000a23203d31
:103218003d3d3d3d3d3d3d3d3d3d3d3d3d3d3d3dd6
:103228003d3d3d3d3d3d3d3d3d0a23204172647598
:1032380043616d204f563234363020546573742004
:10324800762573000a4172647563616d2053504995
:103258002062757320646574656374206661696ca7
:10326800656400000a4172647563616d2063616d75
:103278006572612070726f6265206661696c656451
:103288000000000020000000e2969100e296920003
:08329800e2969300e296880023
:020000040000fa
:020000040040ba
:1032a0002de9f041d2e900230c4686b007465feadb
:1032b000d37820684968a5680590e66841d05242f5
:1032c00063eb4303002908db20f002000590b8f10e
:1032d000000f02d1059948072ad5691e05a802905a
:1032e0000a20cde90010204600f0f4f9b8f1000ff3
:1032f00002d1059b59071fd5b8f1000f00f1ff302f
:1033000014bf2d232b2333542269059b0093013acc
:103310002b46121a3118384600f020f97b68db057d
:1033200003d563689842b8bf184606b0bde8f0817f
:103330000807d2d42946d1e71a07e5d5013820235a
:08334000e1e70029c0dac5e74e
:020000040000fa
:020000040040ba
:103348002de9ff41836946690093f61acde90161c9
:1033580004461746039216444ff002086d4642464b
:103368002946206801f069f9b04209d1d4e902324e
:10337800c4e905331a44a262384604b0bde8f081b6
:1033880000280dda6268002342f01002b8f1020f3b
:10339800a362c4e90533626015d06b68ff1aebe7d6
:1033a8006b68984288bf0835a6eb000688bfc01a2c
:1033b8002b6803442b606b68a3eb000088bf08f1ff
:0a33c800ff386860cbe71f46d6e728
:020000040000fa
:020000040040ba
:0233d200fee714
:020000040000fa
:020000040040ba
:1033d4002de9f04f87b01c4c204600f0fdf8013c6d
:1033e4000026dff868a0dff868904ff00a0806e0ce
:1033f400404601f06dfb01366034602e1fd016f09c
:10340400010ff8d1274604f1600b17f8015f0df1a5
:10341400040cd646bee80f00ace80f00def800301e
:10342400ccf80030a9fb05352d0906ab03eb850567
:1034340055f8140c01f02cf95f45e6d1d8e700bf2c
:1034440007b0bde8f08f00bf00004020f831400015
:043454004fecc44e27
:020000040000fa
:020000040040ba
:1034580000283cd02de9f04186461d4b5a6ad0f829
:103468000880c2b1936844460025984518d30020c7
:1034780000219368c01841f100019369abb1d3f8fa
:1034880008c010eb0c0641f10007bd4208bfb4426a
:103498000bd31a46ede7c0f808800d4b586214e0cc
:1034a8000b4b58628261002003e0cef81830c2f856
:1034b80018e0a8eb0000cef80800def8183023b1b9
:1034c800def808109a68521a9a60bde8f0817047d1
:0434d800082b40205d
:020000040000fa
:020000040040ba
:1034dc000a53504920627573206e6f726d616c00d7
:1034ec000a53504920627573206572726f72000026
:1034fc000a6172647563616d5f63616d6572615fb2
:10350c0070726f62653a2069645f483a69645f4c17
:10351c00203d203078253032783a25303278000042
:10352c000a6f763236343020646574656374656472
:10353c00000000000a43616e27742066696e6420e7
:10354c006f76323634302073656e736f720000bf45
:020000040000fa
:020000040040ba
:10355c002de9ff471d460c9b13f0010906468a46d0
:10356c00144601d195420bd822465146304600f004
:10357c007dfea54204d82546284604b0bde8f08758
:10358c002f1b102f3a464ff0200128bf10226846ff
:10359c00b84601f0a9fab8f10f0f11d83b096ff03a
:1035ac000f0202fb03726946304600f05ffeb9f170
:1035bc00000fe1d122465146304600f057fedbe7c2
:1035cc0010226946304600f051fea8f11008e2e7df
:020000040000fa
:020000040040ba
:1035dc0030b5adf5904d85b005464124204600f040
:1035ec00dbfc10f0080f01d100bff7e701f074f815
:1035fc00044601f059fa01230df107023c21002089
:10360c0001f01efa234602aa3c21002001f018fa10
:10361c0001f052fa0121042000f032ff02210420b3
:10362c0000f02effa4f1080000280bdd0024224638
:10363c0002ab611c89b29a5c2a554a0092b20c46c4
:0c364c008242f6db0df5904d05b030bd5c
:020000040000fa
:020000040040ba
:10365800842910b523d00cdc812903d0822913d00a
:1036680080290bd119680c1d1c600b6803601a6057
:1036780013e0902921d003dc882917d0002010bd41
:10368800a029efd0c029ece719680c1d1c600b6855
:103698000360d1171046c3e900010120efe719685c
:1036a8000c1d1c600b6803601a80f6e719680c1d76
:1036b8001c600b6803601a70efe719680c1d1c602a
:0c36c80009680160d317c1e90023e6e7a0
:020000040000fa
:020000040040ba
:1036d4002de9f84f04460c9f6668d4f80cb02469b1
:1036e40010463a68013c002502f0020a0b9a0bf8d6
:1036f4000450002e1946b8bf0126012390464fea14
:10370400e279002c03dcd3b12046bde8f88f50eaff
:10371400010209d1721b002a06dc0a9a521b002af4
:10372400f1ddbaf1000feed042464b4600f094feb4
:10373400013c134630320bf804200135e1e73b68c5
:0837440023f010033b60dfe7f6
:020000040000fa
:020000040040ba
:10374c00f8b5846a05460f46164654b1ab6a6a69e9
:10375c009b1ab3420bd2324639462846fff7eefd90
:10376c00f8bd01f0d9f80028f0d02046f8e7002e7b
:10377c00f1d095f93430002b1bdbdbb23446621ee2
:10378c00b95c994212d1224639462846fff7d6fd3c
:10379c00a042e5d32744341b22463946686901f020
:1037ac0058f96b691c446c613046d9e71446002a01
:0637bc00e5d13446f0e700
:020000040000fa
:020000040040ba
:1037c200f0b50c4649682368a768e56887b0002908
:1037d2000593a4bf23f00203059305ab02930823cc
:1037e200cde900730646d2e900232046fff771ffb8
:1037f200059bd90642bf00f1ff3030232b54059bb5
:103802001a0742bf00f1ff3020232b542269059b87
:103812000093013a3b46121a29183046fff79dfee3
:103822007368db0503d563689842b8bf184607b0d2
:02383200f0bde7
:020000040000fa
:020000040040ba
:1038340008b5154b1b680021186801f051f9134baa
:103844001b680021186801f04bf901f021f900f020
:1038540025f8fff72bfa00f057ff4ff400430c4a0a
:103864005360b03a536000f049fc00f0b7ff01f038
:1038740013f80849002000f075f8074b186000f0b1
:103884005dfc00f00dfa08bda82b40208c2c4020d4
:0c38940000190e40a04b4000902b40207b
:020000040000fa
:020000040040ba
:1038a000164b174a9a629a6e12f0020ffbd0134a17
:1038b000136b23f07003136313469a6e12f0080f14
:1038c000fbd00e4a136b23f4407343f480731363ed
:1038d00013469a6e12f0080ffbd0084a136b23f0c0
:1038e000030343f00203136313469a6e12f0080faa
:1038f000fbd0024b034a1a61704700bf00060e401e
:08390000013f1820005c2b00c0
:020000040000fa
:020000040040ba
:1039080000b583b00df107010a2000f0d2fd0df1da
:1039180006010b2000f0cdfd9df806209df807104c
:103928000c4800f025ff9df80730262b0ad19df89a
:103938000630403bdbb2022b04d8074800f018ffe2
:10394800002003e0054800f013ff012003b05df8f4
:1039580004fb00bffc3440002c35400040354000db
:020000040000fa
:020000040040ba
:1039680038b521b318bb134c012384f828300b68f1
:1039780063604ff47a72e26091f9042022720020a9
:103988000021c4e906010025656284f820501b68ff
:1039980029460948984763685b689847a0222946e2
:1039a800064801f0a3f802232370204638bd4ff0e3
:1039b800ff30fbe7082b40202d2f4000142a402021
:020000040000fa
:020000040040ba
:1039c8007fb5c36800911546002b18bf013a0192d4
:1039d80082680446cde902230e4602226946006841
:1039e80000f001fe002808dc00f0180383f008024c
:1039f80063681343636005460fe0019a8242fad276
:103a0800a368e363801ae268184420642ab15a1c48
:103a1800e2632e441b7806f8013c284604b070bdca
:020000040000fa
:020000040040ba
:103a280038b338b50c46054600f05afddcb12846d7
:103a38000021114a05e0936905f8013b01318c42e8
:103a480012d0536913f0010ffbd0536913f0e00f44
:103a58000ad1536813f4003fedd09369c3f3080308
:103a680020f8023beae721468c4214bf00200120df
:0c3a780038bd0020704700bf00800240f5
:020000040000fa
:020000040040ba
:103a84000e4a38b5002313600d4a0e4c13600e4adb
:103a94000e4d13600e4a13600e4a13600e4a5362b1
:103aa40013610123936001f033f800f088ffac4206
:103ab40000d338bd54f8043b9847f8e7982b4020ce
:103ac400c02a402074014000bc2a402078014000f4
:0c3ad400b42a4020b82a4020c42a402018
:020000040000fa
:020000040040ba
:103ae00070b5d0e90245a54217d10122a1f120030a
:103af000c1f1200622fa06f602fa03f333438a40a4
:103b0000db43d6431ab10c490a6832400a605a1c9a
:103b10001fbf094a51680b4053604368ac6043f0d3
:103b2000010223f00103e56042601844036843f09a
:0c3b30000103036070bd00bf08284020a6
:020000040000fa
:020000040040ba
:103b3c002021222324242525262627272828282827
:103b4c00292929292a2a2a2a2b2b2b2b2c2c2c2cc1
:103b5c002c2c2c2c2d2d2d2d2d2d2d2d2e2e2e2e89
:103b6c002e2e2e2e2f2f2f2f2f2f2f2f00011702ff
:103b7c001d1813031e1b190b1408040d1f161c1201
:0c3b8c001a0a070c1511090610050f0e8f
:020000040000fa
:020000040040ba
:103b980038b50d46044608b9002038bd43689b0671
:103ba80007d5d0e905239a4216d80023c4e905337e
:103bb800a362d4e90f13994204d20122c91a2068da
:103bc80001f00cf80023c4e90f33002de4d020687d
:103bd800bde8384000f0fbbf0022c36a1146984791
:0c3be8006369002be1d14ff0ff30d6e7fd
:020000040000fa
:020000040040ba
:103bf4002de9ff41134dd1f80080af88adf80c706a
:103c040006462868029002aca8798df80e00002ab6
:103c140018bf1446d1e901571a461bb9204600f0d3
:103c24006fff0246002d02dbaa4228bf2a46cdf8c8
:103c340000803b4621463046fff78efc04b0bde8c9
:083c4400f08100bfc84b4000f5
:020000040000fa
:020000040040ba
:103c4c00f0b50c4649682368a668e76887b0002978
:103c5c000593a4bf23f00203059305ab02930a233b
:103c6c00cde900630546d2e900232046fff72cfd81
:103c7c002269059b0093013a3346121a39182846db
:103c8c00fff766fc6b68db0503d563689842b8bf29
:063c9c00184607b0f0bd60
:020000040000fa
:020000040040ba
:023ca200fee73b
:020000040000fa
:020000040040ba
:103ca400114bd96821f4e0610904090c0f4a0a4355
:103cb400da60bff35f8f62b60d4ae02182f8131316
:103cc4004ff4002111605a6a42f480225a625a6900
:103cd40042f010025a615a6a42f400325a625a6a35
:103ce40042f480325a62704700ed00e00000fa05a9
:043cf40000e100e00b
:020000040000fa
:020000040040ba
:103cf800ff000000000000000500000000000000b8
:103d0800da00000010000000d700000003000000e7
:103d1800df00000000000000330000008000000009
:103d28003c00000040000000e100000077000000b7
:103d38000000000000000000ff000000ff0000007d
:020000040000fa
:020000040040ba
:103d480009b330b583b00c46d0b1104bd968002503
:103d58004ff47a720023a1fb000100f07bfb009571
:103d68002b462a4601462846fff794f92060b0f111
:103d7800ff3f01d1012004e000f07bf9284600e074
:103d8800012003b030bd0120704700bf082b402040
:020000040000fa
:020000040040ba
:103d980013b5836a8df80710044673b16369a26a84
:103da800934212d3e36a01220df107012046984796
:103db800012806d19df8070005e000f0affd0028b6
:103dc800ecd04ff0ff3002b010bd9df8070094f919
:0e3dd80034209042e6d05a1c62611870f3e766
:020000040000fa
:020000040040ba
:023de600fee7f6
:020000040000fa
:020000040040ba
:103de800114b5a6a0ab1824203d11346002205e0f8
:103df8001a469369002b18bf9842f9d19bb110b4a9
:103e080083691bb1846899682144996032b18369d8
:103e18009361002383615df8044b7047024b5a6a33
:0c3e280092695a62f5e77047082b4020b1
:020000040000fa
:020000040040ba
:103e340070b50e4b0e4a0021934208d30d480e4d27
:103e44004ff6ff76016829b943681bb970bd03f8c2
:103e5400011bf1e783684268334000f10c0455f814
:103e640023302046984704eb8000ebe70000402015
:0c3e74000000402010214000ec494000fc
:020000040000fa
:020000040040ba
:103e8000022a70b5044616461d461ad043689b06a2
:103e900017d441b9002d08bf4ff4806505f1080023
:103ea000fef750fb01466368012e43f02003636078
:103eb000c4e9021514bfff230a2384f83430024bef
:0c3ec000e362002070bd00bf4d374000e1
:020000040000fa
:020000040040ba
:103ecc00e0b110b40446d9b100200e4a04e0235ce2
:103edc00d361013081420dd0536913f0020ffbd036
:103eec00536813f4003ff2d034f81030c3f30803d6
:103efc00d361eee701205df8044b7047002070475a
:083f0c000120f8e700800240eb
:020000040000fa
:020000040040ba
:103f140008b50f4b1b7f5bb2bbb90e4b1b6a03f09a
:103f24004073b3f1407f04d0094b02225a7700203a
:103f340008bd074b188099601a6100225a60da6044
:103f44005a770121fef72afff2e70020f0e700bfcd
:083f5400382b402000800140e1
:020000040000fa
:020000040040ba
:103f5c000f4b1b7f5bb2c3b90e4b1b6a03f0407354
:103f6c00b3f1407f04d00a4b02225a7700207047ed
:103f7c0010b50b46064c20800021a16021616360c6
:103f8c00e2606177fef706ff10bd0020704700bfae
:083f9c00382b40200080014099
:020000040000fa
:020000040040ba
:103fa40010b584b000248df80f4000f07f008df828
:103fb400070000f07dfd01220df10701204600f00d
:103fc400d2fc0a2000f0c4fb01230df10f022146ac
:103fd400204600f039fd00f073fd0a2000f0b8fb24
:083fe4009df80f0004b010bdb0
:020000040000fa
:020000040040ba
:103fec00e000000014000000e10000007700000079
:103ffc00e50000001f000000d700000003000000d7
:10400c00da00000010000000e000000000000000da
:10401c00ff00000001000000040000000800000088
:08402c00ff000000ff0000008e
:020000040000fa
:020000040040ba
:1040340010b50278202a034600f10100f9d0a2f15c
:1040440009010429f5d92b2a07d02d2a11d10121e0
:104054000133013b00200a2403e00021f8e7604318
:10406400801a13f8012f303a092af8d901b94042cd
:0640740010bd0021ede784
:020000040000fa
:020000040040ba
:10407a0038b5044600f019f9d0b1204600f0bbf873
:10408a00054670b1437873b983680bb94368836096
:10409a002846fff7dcf900242c756c7501236b7038
:1040aa0002e0012400e0002400f0a5fb204638bd10
:0440ba000124fbe7fb
:020000040000fa
:020000040040ba
:0240be00fee71b
:020000040000fa
:020000040040ba
:1040c00010b5054c227832b9044b13b10448aff354
:1040d00000800123237010bd602b402000000000f1
:1040e0000000000008b5034b1bb103490348aff3c0
:1040f000008008bd00000000642b4020000000008c
:020000040000fa
:020000040040ba
:104100000d4b80221a6028221a60196901f07c5137
:104110004bf2c0120a431a614ff080721a600722f4
:104120009a624ff440725a6204221a60034b0022d2
:104130005a771a77704700bf00800140382b402023
:020000040000fa
:020000040040ba
:1041400008b50c4800f114011c3000f015fb00f01c
:10415000a4fb00f053f930b9fff7d6fb30b90220c9
:10416000fef744ff08bd044800f0f4fb034800f0ec
:10417000f1fb00bff83140004c3240006c3240008f
:020000040000fa
:020000040040ba
:104180000c4a036810b5546a0b4a591e121b8a4226
:104190000ad22bb1094b0c221a604ff0ff3010bd30
:1041a000102202600020fae7173323f00f030360a8
:1041b000f8e700bfc42a4020efffff7f9c2b402080
:020000040000fa
:020000040040ba
:1041c00010b44c68a40602460b4603d45df8044bb9
:1041d00000f08cb891f93410c0b2814203d0596913
:1041e0009c6aa14205d3114618465df8044bfff7bf
:0e41f000d3bd4c1c5c610a705df8044b704737
:020000040000fa
:020000040040ba
:0241fe00fee7da
:020000040000fa
:020000040040ba
:10420000431e13f1030f0fd883b2042b0ed80a4ab2
:1042100002eb4312d26982420ad15a0106498a5cf2
:1042200042b101eb431070470020704700207047f7
:0c4230000020704700207047142a402036
:020000040000fa
:020000040040ba
:10423c0010b5044600f038f8b0b12046fff7daffad
:10424c00044678b1437843b900202075607520701e
:10425c00044600f0cffa204610bdfff7bffd002347
:0c426c006370f1e70124f4e70124f4e79b
:020000040000fa
:020000040040ba
:1042780038b5436813f4807f0446154610d00369a7
:1042880040699a4228bf1d462a4600f0e4fb63694c
:1042980022692b44551b0022636125611a7038bdc1
:0a42a800db06fcd400f046fbf9e74a
:020000040000fa
:020000040040ba
:0242b200fee725
:020000040000fa
:020000040040ba
:1042b4000c4b93f8203093b90a4b93f82830012b18
:1042c40001d00020704710b5064c002384f8283034
:1042d40063689b69984784f82100012010bd012080
:0842e400704700bf082b4020c9
:020000040000fa
:020000040040ba
:1042ec0007b54a68c0b2d2050b468df8070006d553
:1042fc004a69511c5961107003b05df804fb01222e
:10430c000df10701184600f013fb10b19df80700e2
:08431c00f2e74ff0ff30efe77c
:020000040000fa
:020000040040ba
:1043240000090138202813d9b0f5007f05d2094bc4
:1043340003ebd00010f8040c7047b0f5e05f06d82a
:10434400044b03ebd01010f8040c103070473f20de
:08435400704700bf3c3b400034
:020000040000fa
:020000040040ba
:10435c0030b50c4a002312f8134024b902eb430386
:10436c005b78184630bd01680d78a54209bf02eb99
:10437c00430301335b78013114bfdbb201600a2bbc
:08438c00e9d9eee75e484000ac
:020000040000fa
:020000040040ba
:104394000a4a022313770a494b6843f480534b605b
:1043a4001369012b07d0064b01221a6062b6044b35
:1043b40003225a62704703220a60f7e7382b402031
:0443c4000080014034
:020000040000fa
:020000040040ba
:1043c800426822f00102531a102b10b40ed9441877
:1043d80043f0010341f001012160636083504160b3
:1043e80004f108005df8044bfef768bb5df8044b68
:0243f80070470c
:020000040000fa
:020000040040ba
:0243fa0070470a
:020000040000fa
:020000040040ba
:1043fc0008b55521002000f043f80020fff7ccfd54
:10440c00552804d0044800f0b1f9012008bd034838
:10441c0000f0acf90020f9e7ec344000dc3440004b
:020000040000fa
:020000040040ba
:10442c0070b505462c68e30701d500200fe0204647
:10443c00fff772ff064600f0edf92868a042f1d1b3
:10444c0020f00100281a3146fff744fb012070bd13
:020000040000fa
:020000040040ba
:10445c0053b94ab9002908bf00281cbf4ff0ff31df
:10446c004ff0ff3000f0b6bbadf1080c6de904ce97
:10447c00fdf7eafcddf804e0dde9022304b0704747
:020000040000fa
:020000040040ba
:10448c0000b583b060f07f008df804008df8051046
:10449c0000f00afb022201a9002000f060fa00f0f3
:0e44ac000bfb0a2000f050f903b05df804fb92
:020000040000fa
:020000040040ba
:1044ba0030b585b00d468df80f00012400942346cf
:1044ca000df10f023021002000f055fa0020009073
:0e44da0023462a46302100f059fa05b030bdc5
:020000040000fa
:020000040040ba
:1044e800094b5b6913f0e00f0dd0074b4ff4807256
:1044f8001a605b6913f0010f05d0034b9a695a697a
:0c45080012f0010ffad170470080024051
:020000040000fa
:020000040040ba
:10451400f8b500f108040a2754f8085c54f8046c50
:10452400f1b2e8b200f038f9384600f011f9083475
:0c453400ff2df1d1ff2eefd10020f8bdcb
:020000040000fa
:020000040040ba
:1045400008b500f071fa074b07221a601b6813f4d4
:10455000803f04d0044a536843f08063536000f006
:0c4560006cfa08bd10e000e000ed00e087
:020000040000fa
:020000040040ba
:10456c0070b505466c68e30701d500200de02046c8
:10457c00fff7d2fe064600f04df96b68a342f1d16d
:0c458c0028463146fff7a6fa012070bd5a
:020000040000fa
:020000040040ba
:10459800074b1968024609b906491960186806499f
:1045a80002448a4294bf1a604ff0ff30704700bf40
:0c45b800a02b4020982c4020982e402082
:020000040000fa
:020000040040ba
:1045c40070b5002902fb01f614460d4618bf1446c7
:1045d40001463246184608bf002400f0adf9864271
:0a45e40018bfb0fbf5f4204670bdcf
:020000040000fa
:020000040040ba
:1045ee002de9f0410024804617460e462546bd4271
:1045fe0002db2046bde8f081726856f8081b404683
:0a460e0000f017f901350444f1e74c
:020000040000fa
:020000040040ba
:10461800802910db812901dd83290cd11368073338
:1046280023f0070303f108011160d3e90023c0e96f
:0a46380000230120704700207047a6
:020000040000fa
:020000040040ba
:104642002de9f0410024804617460e462546bd421c
:1046520002db2046bde8f081726856f8081b40462e
:0a46620000f037f901350444f1e7d8
:020000040000fa
:020000040040ba
:10466c0038b50546fff720fe044648b12846fff74b
:10467c00c1fd38b1047de4b20022027500f0baf835
:08468c00204638bd0024f9e7c7
:020000040000fa
:020000040040ba
:1046940010b5084c2368196800f08ff8002807db70
:1046a40023680a20196800f085fac00f404210bd43
:0846b4000120fbe78c2c4020e3
:020000040000fa
:020000040040ba
:1046bc0090f948305a1e1343426880f8483012f083
:1046cc0004031bbf42f010024260c0e90f334ff0ed
:0846dc00ff3008bf18467047cb
:020000040000fa
:020000040040ba
:1046e40038b54220fff75cfc04464320fff758fc32
:1046f40005464420fff754fc00f07f0044ea0524fb
:0647040044ea004038bd4c
:020000040000fa
:020000040040ba
:02470a00fee7c8
:020000040000fa
:020000040040ba
:10470c00054a00231360936004495160062111602f
:10471c00034a93601360704710e000e0df930400dd
:04472c007c2b402082
:020000040000fa
:020000040040ba
:1047300008b5064b5868064a12689a6801329a60b2
:104740001b6813b1014b1b68984708bd7c2b4020a8
:0447500010e000e095
:020000040000fa
:020000040040ba
:1047540000b583b04ff0ff33019301a96420fff744
:10476400f1fa019800f0d0f808b900bff9e703b0f6
:044774005df804fbed
:020000040000fa
:020000040040ba
:104778000fb407b5064b04aa1b6852f8041b186847
:10478800019200f0b1f803b05df804eb04b0704793
:044798008c2c402005
:020000040000fa
:020000040040ba
:10479c0000b585b08df80c008df80d100123009339
:1047ac00022303aa3021002000f0e4f805b05df8e4
:0247bc0004fbfc
:020000040000fa
:020000040040ba
:1047be0070b50e46054600f09ef933460446024695
:1047ce0001212846fff7f7fe001b18bf4ff0ff3000
:0247de0070bdac
:020000040000fa
:020000040040ba
:1047e000054b82221a60054a5a6041f20232da63ae
:1047f00001221a60704700bf0080004011000700ce
:020000040000fa
:020000040040ba
:1048000010b5064c63685b6994f82100984794f8ea
:10481000203013b9012284f8282010bd082b402035
:020000040000fa
:020000040040ba
:10482000064b013053f830203ab9c100a1f108021b
:104830001a44194443f830204a6070470828402041
:020000040000fa
:020000040040ba
:1048400058b952b138b50c46012529462046fff724
:0e485000ebf80028f9d0012038bd0020704799
:020000040000fa
:020000040040ba
:10485e0068076c094c836a9074a07ac000806888df
:0e486e0000846c820081286e696c2900250090
:020000040000fa
:020000040040ba
:10487c0010b50023934206d113f0030018bf01209a
:0e488c0000eb930010bdc45ccc540133f2e786
:020000040000fa
:020000040040ba
:02489a00704765
:020000040000fa
:020000040040ba
:10489c00054b4ff486721a6050221a604ff40c626a
:0c48ac005a6051221a62704700800240de
:020000040000fa
:020000040040ba
:1048b800894b4000c5494000a54a4000b14b400023
:0c48c800714b40007d4b4000d94940007e
:020000040000fa
:020000040040ba
:1048d40038b50d461446012801d0204638bd21467e
:0c48e4002846fff7f1fa0028f9d0f6e7ab
:020000040000fa
:020000040040ba
:1048f00013b50446019201aafdf728f9636813f085
:0c490000100f18bf4ff0ff3002b010bdc8
:020000040000fa
:020000040040ba
:10490c0038b50546fff7acfe044608b9204638bd5d
:08491c002846fff78dfcf9e7c6
:020000040000fa
:020000040040ba
:1049240010b50446fff7c8fe28b9a368e268c4e9d5
:0849340005331344a36210bd1a
:020000040000fa
:020000040040ba
:10493c0010b4c46a1cb123465df8044b18470068d8
:08494c005df8044bfff7c0bf4a
:020000040000fa
:020000040040ba
:104954000fb400b583b004a951f8040b019100f021
:0649640057f800bffde75b
:020000040000fa
:020000040040ba
:10496a0008b50846114600231a46fef722f980f0d8
:06497a000100c0b208bdff
:020000040000fa
:020000040040ba
:1049800010b5144608461a462146fff7e7fa80f0ac
:064990000100c0b210bde1
:020000040000fa
:020000040040ba
:1049960010b5144608461a462146fff7b8fa80f0c5
:0649a6000100c0b210bdcb
:020000040000fa
:020000040040ba
:1049ac000068002808b501da002008bdfff7eefd0d
:0649bc00431cfad1f8e7ec
:020000040000fa
:020000040040ba
:0249c20070473c
:020000040000fa
:020000040040ba
:1049c400034b00229a601a6842f001021a60704791
:0449d40010e000e00f
:020000040000fa
:020000040040ba
:1049d800034b186805221a60c0f34000704700bff7
:0449e80010e000e0fb
:020000040000fa
:020000040040ba
:1049ec00834a40007d4840008517400085174000f1
:0449fc0085174000db
:020000040000fa
:020000040040ba
:104a000008b500f0ddf8024b1860586008bd00bf23
:044a1000882b40208f
:020000040000fa
:020000040040ba
:104a1400034b1b680a4601461868fff767bf00bfcf
:044a24008c2c402076
:020000040000fa
:020000040040ba
:104a2800eff3108072b6bff35f8fb0fa80f04009e1
:024a38007047c5
:020000040000fa
:020000040040ba
:104a3a0018b1bff35f8f62b6704772b6bff35f8f6c
:024a4a007047b3
:020000040000fa
:020000040040ba
:104a4c0008b500210846fef7b3f880f00100c0b2ab
:024a5c0008bd93
:020000040000fa
:020000040040ba
:104a5e0010b500239a4200d110bdcc5cc454013372
:024a6e00f8e767
:020000040000fa
:020000040040ba
:104a7000034611f8012b184603f8012b002af8d140
:024a800070477d
:020000040000fa
:020000040040ba
:104a82000a440023914201d10020704701f8013b02
:024a9200f8e743
:020000040000fa
:020000040040ba
:104a9400014b024a1a607047000c0e4000060004e5
:020000040000fa
:020000040040ba
:104aa400024a136823f001031360704710e000e02a
:020000040000fa
:020000040040ba
:104ab400024b4ff000625a63704700bf00140e406f
:020000040000fa
:020000040040ba
:104ac400024b4ff000621a63704700bf00140e409f
:020000040000fa
:020000040040ba
:104ad400024b1b68196800f06db800bf8c2c402095
:020000040000fa
:020000040040ba
:104ae40000294ff480630cbf02220022fff7c6b9ed
:020000040000fa
:020000040040ba
:104af40002440346934200d1704703f8011bf9e7cf
:020000040000fa
:020000040040ba
:104b040003461a46013311780029fad1101a704766
:020000040000fa
:020000040040ba
:104b140008b5fff773ff00f028f800f026f808bd89
:020000040000fa
:020000040040ba
:104b2400494e4600696e66004e414e006e616e004d
:020000040000fa
:020000040040ba
:104b3400494e4600696e66004e414e006e616e003d
:020000040000fa
:020000040040ba
:0e4b440008b50020fef774fe00f02cf8fce728
:020000040000fa
:020000040040ba
:0e4b5200a0f14103192b98bf40f020007047de
:020000040000fa
:020000040040ba
:0e4b6000a0f16103192b98bf00f05f007047b1
:020000040000fa
:020000040040ba
:024b6e0070478e
:020000040000fa
:020000040040ba
:0c4b70000138014b5860704710e000e075
:020000040000fa
:020000040040ba
:0c4b7c0000b9704708b5fff7ddfc08bd6c
:020000040000fa
:020000040040ba
:0c4b8800014b1860596070477c2b4020e6
:020000040000fa
:020000040040ba
:0c4b940010b50446fff76aff204610bd74
:020000040000fa
:020000040040ba
:084ba000b8484000ff000000ce
:020000040000fa
:020000040040ba
:084ba80008b5fef713fc08bd7f
:020000040000fa
:020000040040ba
:084bb0000048704700a3e11169
:020000040000fa
:020000040040ba
:084bb80008b5fff701fb08bd81
:020000040000fa
:020000040040ba
:084bc00000487047102c402052
:020000040000fa
:020000040040ba
:074bc800286e756c6c2900da
:020000040000fa
:020000040040ba
:064bd0000068fff77fbe44
:020000040000fa
:020000040040ba
:064bd6004ff0ff307047b4
:020000040000fa
:020000040040ba
:044bdc0000207047fe
:020000040000fa
:020000040040ba
:044be000704700bf5b
:020000040000fa
:020000040040ba
:044be40000207047f6
:020000040000fa
:020000040040ba
:024be800704714
:020000040000fa
:02000004d0002a
:0400000002000000fa
:00000001FF
